:1000000080314A28053008007E1480310B1F0928F2
:100010000A2848282100111E0E280F281B2820001E
:10002000111E132814281B28210066088A00650861
:100030000A00803148282100911E1F2820282C28E2
:100040002000911E242825282C2822005E088A00E2
:100050005D080A00803148282100921D302831288F
:100060003D282000921D352836283D2821006808AB
:100070008A0067080A00803148282100911D412824
:10008000422848282000911D46284728482836281D
:100090007E10090080314C282100A6316A2680316B
:1000A000EE000D3084009B308500A03086000130CA
:1000B00087002830A631E6268031713084009830E0
:1000C000850040308600023087001430A631E626D5
:1000D0008031FD012000EA01EB01EC01DF308400FA
:1000E000003085000F30A631E02680314530840095
:1000F000013085001C30A631E0268031C8308400F4
:10010000013085002530A631E02680312030840082
:10011000023085002030A631E02680317E1020009C
:100120008D31DF2D66302000AE00AA30AF00B63032
:10013000B000A130B1008430B200A030B3008430F0
:10014000B400A030B5009E31AF2680310130A73118
:10015000AD27803115302200C2004B30C100BE30C7
:10016000890BB028C10BB028C20BB02800000030AA
:10017000A731AD27803115302200C2004B30C100BD
:10018000BE30890BC128C10BC128C20BC128000099
:1001900000309A3157228031003A0319D028D128F3
:1001A000E32801309A317A228031003A0319D928A4
:1001B000DA28E3287B302100AD00A930AE00983169
:1001C0009A20803109292400E60166302100B00020
:1001D000AA30B1006630B2000230B3006530B4001E
:1001E0000230B50090318020803164302100B800A9
:1001F0000230B9006630BA000230BB006530BC0086
:100200000230BD006330BE000230BF009F31A9271D
:1002100080318731FB2780312200C1004108240052
:10022000E200620888312D2080312400660803191D
:100230001A291B2992296E302000AE00AA30AF0087
:10024000CA30B000A130B1008430B200A030B30099
:100250008430B400A030B5009E31AF26803101302B
:10026000A731AD27803115302200C2004B30C100CC
:10027000BE30890B3929C10B3929C20B392900003D
:100280000030A731AD27803115302200C2004B303D
:10029000C100BE30890B4A29C10B4A29C20B4A2929
:1002A000000000309A317A228031003A031959292E
:1002B0005A296C2901309A319D228031003A031964
:1002C000622963296C2987302100AD00A930AE0076
:1002D00098319A20803192292400E6016E30210065
:1002E000B000AA30B1006630B2000230B300653011
:1002F000B4000230B500903180208031643021009C
:10030000B8000230B9006630BA000230BB00653078
:10031000BC000230BD006330BE000230BF009F3120
:10032000A92780318731FB2780312200C100410895
:100330002400E200620888312D2080312400660804
:100340000319A329A4295F2A76302000AE00AA3021
:10035000AF000230B000A430B100CF30B200A33003
:10036000B3008430B400A030B5009E31AF26803198
:100370000130A731AD27803106302200C200133092
:10038000C100AD30890BC229C10BC229C20BC229E1
:1003900000320030A731AD2780310B302200C2007F
:1003A0002630C1005D30890BD329C10BD329C20B84
:1003B000D32900320C309931F321803120002408F8
:1003C0002400E100200023082400E0007E3021000A
:1003D000AD00AA30AE00240061082100B000240066
:1003E00060082100AF0059309C31D02480312100B9
:1003F0002E082400D50021002D082400D400610817
:10040000803A2200C10083304102031D0A2A2030B5
:100410002400600203180D2A0E2A192A22008C17C4
:1004200093302100AD00A930AE0098319A20803180
:10043000532A76302100B000AA30B1006630B200F5
:100440000230B3006530B4000230B5009031802036
:10045000803176302000AE00AA30AF000230B0000C
:10046000A430B1005930B2000230B3008430B4007F
:10047000A030B5009E31AF26803122008C1364304D
:100480002100B8000230B9006630BA000230BB006B
:100490006530BC000230BD006330BE000230BF00DA
:1004A0009F31A927803129302200C2009630C10037
:1004B0007F30890B592AC10B592AC20B592A87311F
:1004C000FB2780312200C10041082400E2006208BD
:1004D00088312D208031240066080319702A712A82
:1004E0002C2BCD302000AE00A930AF000230B00080
:1004F000A430B1001330B200A430B3008430B40093
:10050000A030B5009E31AF2680310130A731AD2734
:10051000803106302200C2001330C100AD30890B9B
:100520008F2AC10B8F2AC20B8F2A00320030A731CD
:10053000AD2780310B302200C2002630C1005D3073
:10054000890BA02AC10BA02AC20BA02A00320C30B2
:100550009931F3218031200024082400E10020009B
:1005600023082400E0007E302100AD00AA30AE0058
:10057000240061082100B000240060082100AF00C1
:1005800059309C31D024803121002E082400D7001E
:1005900021002D082400D6006108803A2200C10005
:1005A00082304102031DD72ABC30240060020318A8
:1005B000DA2ADB2AE62A22008C13BE302100AD00A5
:1005C000A830AE0098319A208031202BCD30210008
:1005D000B000A930B1006630B2000230B30065301F
:1005E000B4000230B500903180208031CD30200041
:1005F000AE00A930AF000230B000A430B1005930D5
:10060000B2000230B3008430B400A030B5009E3197
:10061000AF26803122008C1764302100B8000230F0
:10062000B9006630BA000230BB006530BC00023051
:10063000BD006330BE000230BF009F31A92780316A
:1006400029302200C2009630C1007F30890B262B52
:10065000C10B262BC20B262B8731FB2780312200B2
:10066000C10041082400E200620888312D20803159
:100670002400660803193D2B3E2B0A2CD63020009F
:10068000AE00A930AF009F30B000A930B100843077
:10069000B200A030B3008430B400A030B5009E3169
:1006A000AF2680310B302200C2002630C1005D3001
:1006B000890B582BC10B582BC20B582B0032013021
:1006C000A731AD27803106302200C2001330C100AF
:1006D000AD30890B692BC10B692BC20B692B003222
:1006E0000030A731AD2780313D302200C200E1301B
:1006F000C1003F30890B7A2BC10B7A2BC20B7A2BAE
:1007000000320130A731AD27803106302200C2000F
:100710001330C100AD30890B8B2BC10B8B2BC20B5F
:100720008B2B00320030A731AD27803110302200F2
:10073000C2003930C1000D30890B9C2BC10B9C2BA2
:10074000C20B9C2B003201309A3157228031003A83
:100750000319AB2BAC2BC72B01309A317A22803195
:10076000003A0319B42BB52BC72B00309A319D22C8
:100770008031003A0319BD2BBE2BC72BCB30210093
:10078000AD00A830AE0098319A208031F52B2400BE
:10079000E6010030A731AD2780310030A731BA27FC
:1007A0008031D6302100B000A930B1006630B200EF
:1007B0000230B3006530B4000230B50090318020C3
:1007C000803164302100B8000230B9006630BA00D0
:1007D0000230BB006530BC000230BD006330BE009B
:1007E0000230BF009F31A927803115302200C2009E
:1007F0004B30C100BE30890BFB2BC10BFB2BC20B56
:10080000FB2B00000030A731AD2780310030A7312D
:10081000BA2780318731FB2780312200C10041088F
:100820002400E200620888312D208031240066080F
:1008300003191B2C1C2C8A2CE8302000AE00A93098
:10084000AF002330B000A430B100A330B200A83014
:10085000B300E030B400A330B5009E31AF26803144
:100860000130A731AD27803106302200C20013309D
:10087000C100AD30890B3A2CC10B3A2CC20B3A2C7B
:1008800000320030A731AD278031D5302100AD00D6
:10089000A030AE0098319A20803124006408913154
:1008A000952180312200C10041082400E50065083F
:1008B000031D5B2C5C2C822CE601E8302100B0008B
:1008C000A930B1006630B2000230B3006530B40028
:1008D0000230B50090318020803164302100B800B2
:1008E0000230B9006630BA000230BB006530BC008F
:1008F0000230BD006330BE000230BF009F31A92727
:1009000080318A2CD8302100AD00A830AE0098315B
:100910009A2080318731FB2780312200C1004108B5
:100920002400E200620888312D208031240066080E
:1009300003199B2C9C2C1C2DF1302000AE00A930FB
:10094000AF00DF30B000A930B1008430B200A03079
:10095000B3008430B400A030B5009E31AF268031A2
:100960000130A731BA27803106302200C20013308F
:10097000C100AD30890BBA2CC10BBA2CC20BBA2CFA
:1009800000320030A731BA2780310B302200C2007C
:100990002630C1005D30890BCB2CC10BCB2CC20B98
:1009A000CB2C003201309A3157228031003A0319A2
:1009B000DA2CDB2CF62C01309A317A228031003A85
:1009C0000319E32CE42CF62C01309A319D2280315E
:1009D000003A0319EC2CED2CF62CE5302100AD008B
:1009E000A830AE0098319A2080311C2D2400E601F9
:1009F000F1302100B000A930B1006630B200023001
:100A0000B3006530B4000230B500903180208031F1
:100A100064302100B8000230B9006630BA000230FC
:100A2000BB006530BC000230BD006330BE00023048
:100A3000BF009F31A92780318731FB2780312200F9
:100A4000C10041082400E200620888312D20803175
:100A50002400660803192D2D2E2DAE2DFA3020000E
:100A6000AE00A930AF002630B000A930B10084300C
:100A7000B200A030B3008430B400A030B5009E3185
:100A8000AF268031013098310020803106302200BD
:100A9000C2001330C100AD30890B4C2DC10B4C2D61
:100AA000C20B4C2D003200309831002080310B30C9
:100AB0002200C2002630C1005D30890B5D2DC10BC4
:100AC0005D2DC20B5D2D003200309A3157228031EE
:100AD000003A03196C2D6D2D882D00309A317A2241
:100AE0008031003A0319752D762D882D00309A310A
:100AF0009D228031003A03197E2D7F2D882DF23002
:100B00002100AD00A830AE0098319A208031AE2D82
:100B10002400E601FA302100B000A930B1006630AF
:100B2000B2000230B3006530B4000230B50090313D
:100B30008020803164302100B8000230B900663076
:100B4000BA000230BB006530BC000230BD0063302B
:100B5000BE000230BF009F31A92780318731FB27BB
:100B600080312200C10041082400E200620888317F
:100B70002D208031240066080319BF2DC02D3A2E88
:100B800003302000AE00AA30AF002E30B000AA30F3
:100B9000B1008430B200A030B3008430B400A03083
:100BA000B5009E31AF2680310130A731C727803193
:100BB00019302200C2005A30C100B130890BDE2D3D
:100BC000C10BDE2DC20BDE2D00320030A731C7274E
:100BD00080310B302200C2002630C1005D30890B0D
:100BE000EF2DC10BEF2DC20BEF2D003201309A31EA
:100BF00057228031003A0319FE2DFF2D1A2E0130A5
:100C00009A317A228031003A0319072E082E1A2EC3
:100C100001309A319D228031003A0319102E112E95
:100C20001A2EFF302100AD00A830AE0098319A2076
:100C300080313A2E03302100D700AA30D800663028
:100C40002200C10041082100D90065302200C20005
:100C500042082100DA0064302200C300430821006A
:100C6000DB0063302200C40044082100DC00953121
:100C70003E2580318731FB2780312200C1004108A9
:100C80002400E200620888312D20803124006608AB
:100C900003194B2E4C2ECC2E0C302000AE00AA3067
:100CA000AF003E30B000AA30B1008430B200A030B6
:100CB000B3008430B400A030B5009E31AF2680313F
:100CC0000130A731D427803119302200C2005A30B8
:100CD000C100B130890B6A2EC10B6A2EC20B6A2E7D
:100CE00000320030A731D42780310B302200C200FF
:100CF0002630C1005D30890B7B2EC10B7B2EC20BD1
:100D00007B2E003200309A3157228031003A03198D
:100D10008A2E8B2EA62E00309A317A228031003A0C
:100D20000319932E942EA62E00309A319D228031E5
:100D3000003A03199C2E9D2EA62E0C302100AD00EA
:100D4000A930AE0098319A208031CC2E2400E601E3
:100D50000C302100B000AA30B1006630B200023081
:100D6000B3006530B4000230B5009031802080318E
:100D700064302100B8000230B9006630BA00023099
:100D8000BB006530BC000230BD006330BE000230E5
:100D9000BF009F31A92780318731FB278031220096
:100DA000C10041082400E200620888312D20803112
:100DB000240066080319DD2EDE2E3E2F153020009C
:100DC000AE00AA30AF005A30B000A830B100B73042
:100DD000B200A930B300E030B400A330B5009E31BA
:100DE000AF2680319931B5218031240064089131DA
:100DF000952180312200C10041082400E5006508EA
:100E0000031D032F042F362FE60115302100B000FB
:100E1000AA30B1006630B2000230B3006530B400D1
:100E20000230B50090318020803164302100B8005C
:100E30000230B9006630BA000230BB006530BC0039
:100E40000230BD006330BE000230BF009F31A927D1
:100E5000803129302200C2009630C1007F30890BDA
:100E60002F2FC10B2F2FC20B2F2F3E2F19302100F8
:100E7000AD00A930AE0098319A2080318731FB2730
:100E800080312200C10041082400E200620888315C
:100E90002D2080312400660803194F2F512F8E31E9
:100EA000192EAB302000AE00A930AF00E630B00004
:100EB000A230B1009530B200A830B3008D30B4003C
:100EC000A130B5009E31AF2680310130A731862791
:100ED00080310030A731792780319A311422803156
:100EE00064302100B0000230B1006630B200023040
:100EF000B30090311920803166302100B0000230FB
:100F0000B1006530B2000230B3006430B40002308A
:100F1000B5006330B6000230B7009E3165268031DF
:100F200029302200C2009630C1007F30890B962FF5
:100F3000C10B962FC20B962F4F2F80314A282000CD
:100F4000BE002100631CA52FA62FAF2F20003E0856
:100F5000B9003908AE0036089B31352387312000AF
:100F6000B81BB32FB42FB92F3808BD003708BC0009
:100F7000BB2FBC01BD01BA01BB01CF2F2030200027
:100F8000A6000030A7003E08B9003908A8009F312C
:100F90000027873101302000BA070030BB3D3B08F5
:100FA000803AB9003D08803A3902031DD92F3C0828
:100FB0003A02031CDC2FDD2FBE2F21006318E12F26
:100FC000E22FEB2F20003E08B9003908AE003608AA
:100FD0009B313523873120003608A3000230A4005E
:100FE00099310F21873120003C082307B6003D08C6
:100FF000243DB70008003F309D318F258731080020
:101000002000A40021006C080319072808280228E2
:10101000111A0B280C2811282000240823009A00FC
:101020002A28111220002408A3007D084D3E8600C6
:1010300001308700230881000130A3002308FD0749
:1010400008307D02031C252826282728FD010130B1
:101050002100EC022100111608002100B2005829DD
:101060004E30AD00A130AE0098319A208831D129A0
:101070002530AD00A330AE0098319A208831D129B7
:10108000BE30AD00A330AE0098319A208831D1290E
:101090003630AD00A330AE0098319A208831D12986
:1010A000BE30AD00A330AE0098319A208831D129EE
:1010B0004730AD00A330AE0098319A208831D12955
:1010C000BE30AD00A330AE0098319A208831D129CE
:1010D0005830AD00A330AE0098319A208831D12924
:1010E000BE30AD00A330AE0098319A208831D129AE
:1010F0006930AD00A330AE0098319A208831D129F3
:10110000BE30AD00A330AE0098319A208831D1298D
:101110007A30AD00A330AE0098319A208831D129C1
:10112000BE30AD00A330AE0098319A208831D1296D
:101130008B30AD00A330AE0098319A208831D12990
:10114000BE30AD00A330AE0098319A208831D1294D
:101150009C30AD00A330AE0098319A208831D1295F
:10116000BE30AD00A330AE0098319A208831D1292D
:10117000AD30AD00A330AE0098319A208831D1292E
:10118000BE30AD00A330AE0098319A208831D1290D
:101190001730AD00A230AE0098319A208831D129A5
:1011A000BE30AD00A330AE0098319A208831D129ED
:1011B0002930AD00A230AE0098319A208831D12973
:1011C000BE30AD00A330AE0098319A208831D129CD
:1011D0003B30AD00A230AE0098319A208831D12941
:1011E000BE30AD00A330AE0098319A208831D129AD
:1011F0004D30AD00A230AE0098319A208831D1290F
:10120000BE30AD00A330AE0098319A208831D1298C
:101210005F30AD00A230AE0098319A208831D129DC
:10122000BE30AD00A330AE0098319A208831D1296C
:101230007130AD00A230AE0098319A208831D129AA
:10124000BE30AD00A330AE0098319A208831D1294C
:101250008330AD00A230AE0098319A208831D12978
:10126000BE30AD00A330AE0098319A208831D1292C
:101270009530AD00A230AE0098319A208831D12946
:10128000BE30AD00A330AE0098319A208831D1290C
:10129000A730AD00A230AE0098319A208831D12914
:1012A000BE30AD00A330AE0098319A208831D129EC
:1012B0003208B000B1013108003A03196029D12980
:1012C0003008413A03193828033A03194828013AEB
:1012D00003195828073A03196828013A031978288E
:1012E000033A03198828013A031998280F3A031979
:1012F000A828013A0319B828033A0319C828013A63
:101300000319D828073A0319E828013A0319F828DD
:10131000033A03190829013A031918291F3A031936
:101320002829013A03193829033A03194829333A7D
:1013300003194028033A03195028013A0319602879
:10134000073A03197028013A03198028033A031950
:101350009028013A0319A0280F3A0319B028013A3E
:101360000319C028033A0319D028013A0319E028C9
:10137000073A0319F028013A03190029033A03191F
:101380001029013A031920291F3A03193029013A7B
:1013900003194029033A03195029083A0319302840
:1013A000D129080046302000AE00AA30AF001E3020
:1013B000B000A830B1008430B200A030B300843057
:1013C000B400A030B5009E31AF2689310130A7317D
:1013D000AD27893106302200C2001330C100AD3084
:1013E000890BF029C10BF029C20BF0290032003023
:1013F000A731AD27893124005F080319002A012A8B
:10140000462A4A302100AD00A030AE0098319A2023
:101410008931240064089131952189312200C1006D
:1014200041082400E5006508031D172A182A3E2AF2
:10143000E60146302100B000AA30B1006630B200AB
:101440000230B3006530B4000230B5009031802026
:10145000893164302100B8000230B9006630BA002A
:101460000230BB006530BC000230BD006330BE00FE
:101470000230BF009F31A9278931462A4B30210015
:10148000AD00A930AE0098319A2089318731FB2711
:1014900089312200C10041082400E200620888313D
:1014A0002D208931240066080319572A582AC32A97
:1014B0004E302000AE00AA30AF003C30B000A83063
:1014C000B1008430B200A030B3008430B400A0304A
:1014D000B5009E31AF2689310130A731AD27893162
:1014E00006302200C2001330C100AD30890B762ACD
:1014F000C10B762AC20B762A00320030A731AD2705
:10150000893124005F080319862A872AC32A6408C0
:101510009131952189312200C10041082400E50064
:101520006508031D942A952ABB2AE6014E30210046
:10153000B000AA30B1006630B2000230B3006530AE
:10154000B4000230B5009031802089316430210030
:10155000B8000230B9006630BA000230BB00653016
:10156000BC000230BD006330BE000230BF009F31BE
:10157000A9278931C32A57302100AD00A930AE0018
:1015800098319A2089318731FB2789312200C100A7
:1015900041082400E200620888312D2089312400AE
:1015A00066080319D42AD52A402B56302000AE00F5
:1015B000AA30AF002D30B000A830B1008430B200A6
:1015C000A030B3008430B400A030B5009E31AF2607
:1015D00089310130A731AD27893106302200C200A0
:1015E0001330C100AD30890BF32AC10BF32AC20BB3
:1015F000F32A00320030A731AD27893124005F087B
:101600000319032B042B402B640891319521893158
:101610002200C10041082400E5006508031D112BCC
:10162000122B382BE60156302100B000AA30B10051
:101630006630B2000230B3006530B4000230B5004D
:1016400090318020893164302100B8000230B90027
:101650006630BA000230BB006530BC000230BD000D
:101660006330BE000230BF009F31A9278931402B73
:1016700063302100AD00A930AE0098319A20893145
:101680008731FB2789312200C10041082400E20094
:10169000620888312D208931240066080319512BF6
:1016A000522BC02B5E302000AE00AA30AF00C230FB
:1016B000B000A930B1008430B200A030B300843053
:1016C000B400A030B5009E31AF2689310130A7317A
:1016D000AD27893115302200C2004B30C100BE3029
:1016E000890B702BC10B702BC20B702B00000030CC
:1016F000A731AD27893115302200C2004B30C1001F
:10170000BE30890B812BC10B812BC20B812B0000BA
:1017100001309A3157228931003A0319902B912BCD
:101720009A2B6F302100AD00A930AE0098319A207D
:101730008931C02B2400E6015E302100B000AA30C0
:10174000B1006630B2000230B3006530B400023040
:10175000B50090318020893164302100B80002301A
:10176000B9006630BA000230BB006530BC00023000
:10177000BD006330BE000230BF009F31A927893110
:101780008731FB2789312200C10041082400E20093
:10179000620888312D208931240066080319D22B74
:1017A00080319228813109292100BC00BB01D82D4C
:1017B00020000F19DC2BDD2BF82BBB302100AD00F6
:1017C000A030AE0098319A208B312100BB01BB0ABA
:1017D0003C08860002308700810134088600023010
:1017E0008700810133088600023087008101810A69
:1017F00020006A080319FD2BFE2BB62D9C316D24A9
:101800008B312100B6003608B800942D0100B130AC
:101810002100AD00A830AE0098319A208B31210014
:101820003C088600023087008101810A3308860067
:10183000023087008101810A340886000230870067
:10184000810102302100B7000430B600BA30890BA4
:10185000272CB60B272CB70B272C00002100BB012F
:10186000BB0AB62DA130AD00A030AE0098319A2051
:101870008B3104302000AE00A230AF008430B000C5
:10188000A030B1006330B200A130B3008430B400A6
:10189000A030B5009E31AF268B3121003C08860078
:1018A000023087008101810A02302100B700043034
:1018B000B600BA30890B5A2CB60B5A2CB70B5A2CDF
:1018C00000002100BB01BB0A3308860002308700FC
:1018D000810122008C13B62D8530AD00A030AE0002
:1018E00098319A208B3104302000AE00A230AF0036
:1018F0008430B000A030B100F330B200A230B300A9
:101900008430B400A030B5009E31AF268B31210069
:101910003C088600023087008101810A3308860076
:10192000023087008101340886000230870081017F
:1019300002302100B7000430B600BA30890B9E2C6B
:10194000B60B9E2CB70B9E2C00002100BB01BB0ADE
:1019500022008C17B62D6930AD00A030AE00983152
:101960009A208B3104302000AE00A230AF008430CA
:10197000B000A030B100EF30B200A230B30084302C
:10198000B400A030B5009E31AF268B3121003C0859
:101990008600023087008101810A02302100B700F1
:1019A0000430B600BA30890BD32CB60BD32CB70B4E
:1019B000D32C00002100BB01BB0A33088600023093
:1019C0008700810122008C13B62D0830AD00A130B4
:1019D000AE0098319A208B3104302000AE00A23046
:1019E000AF008430B000A030B1001330B200A83096
:1019F000B3008430B400A030B5009E31AF268B31E7
:101A000021003C088600023087008101810A3308EA
:101A1000860002308700810134088600023087008A
:101A20008101810A02302100B7000430B600BA30CB
:101A3000890B182DB60B182DB70B182D000021009F
:101A4000BB01BB0A22008C17B62D2130AD00A1309E
:101A5000AE0098319A208B3104302000AE00A230C5
:101A6000AF008430B000A030B1000F30B200A83019
:101A7000B3008430B400A030B5009E31AF268B3166
:101A800021003C088600023087008101810A33086A
:101A9000860002308700810134088600023087000A
:101AA0008101810A02302100B7000430B600BA304B
:101AB000890B582DB60B582DB70B582D000021005F
:101AC000BB01BB0A22008C13B62DA631C9268B316F
:101AD0002100B6003608B90061303906031D712DAA
:101AE000722D8C2DF130AD00A130AE0098319A20CE
:101AF0008B3121003C088600023087008101810A79
:101B000033088600023087008101350886000230E4
:101B100087008101810A1C2CEF30AD00A030AE009F
:101B200098319A208B312E2C3808B600B70137082F
:101B3000003A03199C2DB62D3608303A0319062CAD
:101B4000013A0319072C043A0319252D033A031906
:101B5000322C013A03196C2C0F3A0319E52C013A87
:101B60000319AB2C583A0319652DB62D2100350801
:101B700086000230870001080319BF2DC02DD82D23
:101B80003F309D318F258B312100B6003608BA00D9
:101B90003A0888312D208B3105302100B7000F30F5
:101BA000B600F130890BD22DB60BD22DB70BD22D4A
:101BB00021003B080319DD2DDE2DD82B08009831BC
:101BC0001D208D318B170B172400E601E501E40180
:101BD000E301E30AD801D80ADE0115302200C20071
:101BE0004B30C100BE30890BF32DC10BF32DC20B5E
:101BF000F32D000020008E1AFE2DFF2D052E24004F
:101C0000D801A731E1278D31082EA73149278D3121
:101C100020000E1C0C2E0D2E112E2400DF01DF0AD9
:101C2000132E2400DF0120008E18172E182E192ED7
:101C3000192E4E30913109218D3104302000AE0033
:101C4000A230AF008730B000A830B1000130B20040
:101C5000A330B3006930B400A830B5009E31AF2680
:101C60008D3103302200C2000830C1007730890B6B
:101C7000372EC10B372EC20B372E4630913109213A
:101C80008D3104302000AE00A230AF004B30B000E8
:101C9000A830B1000130B200A330B3006930B40005
:101CA000A830B5009E31AF268D3103302200C2002E
:101CB0000830C1007730890B5B2EC10B5B2EC20B45
:101CC0005B2E22008C137A2E66302200C100410860
:101CD0002100B30063302200C20042082100B4009A
:101CE0005E302200C30043082100B50064308B3110
:101CF000D4238D312400660803197F2E802E642E94
:101D0000E3019A31C0228D312400E601E60A003059
:101D1000A73186278D310030A73193278D310130CF
:101D2000A731A0278D3103302200C2000830C10046
:101D30007730890B992EC10B992EC20B992E463004
:101D4000913109218D3104302000AE00A230AF0066
:101D50007830B000A830B1000130B200A330B30039
:101D60006930B400A830B5009E31AF268D31033004
:101D70002200C2000830C1007730890BBD2EC10B94
:101D8000BD2EC20BBD2E4E30913109218D31263032
:101D90002000AE00AA30AF00F130B000A330B10097
:101DA0008430B200A030B3008430B400A030B5005D
:101DB0009E31AF268D310130A731AD278D310130F5
:101DC000A731BA278D3115302200C2004B30C10037
:101DD000BE30890BE92EC10BE92EC20BE92E0000A3
:101DE0000130A73179278D3129302200C200963089
:101DF000C1007F30890BFA2EC10BFA2EC20BFA2ECE
:101E000001309A3157228D31003A0319082F092FDA
:101E1000242F01309A317A228D31003A0319112F83
:101E2000122F242F01309A319D228D31003A03194F
:101E30001A2F1B2F242F33302100AD00A930AE0004
:101E400098319A208D31522F2400E6010030A731BD
:101E5000AD278D310030A731BA278D3126302100D2
:101E6000B000AA30B1006630B2000230B300653075
:101E7000B4000230B500903180208D3164302100F3
:101E8000B8000230B9006630BA000230BB006530DD
:101E9000BC000230BD006330BE000230BF009F3185
:101EA000A9278D318731FB278D312200C1004108E0
:101EB0002400E200620888312D208D311530220087
:101EC000C2004B30C100BE30890B642FC10B642FA0
:101ED000C20B642F00000030A731AD278D310030D8
:101EE000A731BA278D31240066080319782F792F7E
:101EF000EC2F36302000AE00AA30AF001330B00017
:101F0000A330B1008430B200A030B3008430B400FC
:101F1000A030B5009E31AF268D310030A731AD27FE
:101F20008D310030A731BA278D310B302200C2002D
:101F30002630C1005D30890B9B2FC10B9B2FC20B3C
:101F40009B2F003201309A3157228D31003A031D08
:101F5000AA2FAB2FC62F01309A317A228D31003A49
:101F6000031DB32FB42FC62F01309A319D228D311E
:101F7000003A031DBC2FBD2FC62F3F302100AD00FE
:101F8000A930AE0098319A208D31EC2F2400E60163
:101F900036302100B000AA30B1006630B200023005
:101FA000B3006530B4000230B500903180208D312F
:101FB00064302100B8000230B9006630BA00023047
:101FC000BB006530BC000230BD006330BE00023093
:101FD000BF009F31A9278D318731FB278D3122002A
:101FE000C10041082400E200620888312D208D31B3
:101FF000240066080319FE2F8931D2298A31462A26
:102000002000A8002100EA01EA0A20002808F0398F
:102010009831DF20903120002808A7000330A73531
:10202000FF3E031D0F282735F0399831DF2090310E
:1020300008002100B701792820000F192028212845
:10204000362839302100AD00A130AE0098319A20F9
:1020500090312100B701B70A3008860031088700A7
:1020600081013208860033088700810120006A0858
:1020700003193B283C2879289C316D24903121009C
:10208000B4003408B600692801007928DE30AD00BC
:10209000A130AE0098319A2090312100300886009E
:1020A00031088700810132088600330887008101EA
:1020B00002302100B5000430B400BA30890B5E282C
:1020C000B40B5E28B50B5E2800002100B701B70AEB
:1020D00079283608B400B5013508003A031971288B
:1020E00079283408303A03194428043A0319462859
:1020F00079282100370803197E287F281C2808002A
:10210000A030860001308700C13084000030850097
:1021100014302100B60016001A00B60B8B28BE3012
:10212000860001308700B7308400003085000A3017
:10213000B60016001A00B60B99280130A731932774
:1021400090310130A731A02790310030A731862788
:1021500090310030A73179279031210031082000DB
:10216000AF00210030082000AE00DD30B000A2300A
:10217000B1008D30B200A130B3008430B400A03083
:10218000B5009E31AF269031C1302000B300003041
:10219000B400210031082000B600210030082000E2
:1021A000B5009831B0209031200034082100D600CD
:1021B000200033082100D50056082000B40021007B
:1021C00055082000B300B730B5000030B600983194
:1021D000B0209031200034082100AE0020003308E8
:1021E0002100AD0098319A2090319E311D2690310A
:1021F00020000F1DFC28FD28F82821003208860049
:102200003308870081013408860035088700810182
:1022100008002000AB002B08A90029082100E900D4
:1022200000309831852091319C302000A900D730B2
:10223000890B1829A90B182903309831F7209131FF
:102240001A302000A900F830890B2429A90B242971
:10225000000003309831F72091311A302000A90096
:10226000F830890B3129A90B31290000033098314E
:10227000F72091311A302000A900F830890B3E294F
:10228000A90B3E29000002309831F72091311A3015
:102290002000A900F830890B4B29A90B4B2900001D
:1022A00028309831F720913102302000AA00043004
:1022B000A900BA30890B5A29A90B5A29AA0B5A2905
:1022C00000000C309831F720913102302000AA0034
:1022D0000430A900BA30890B6B29A90B6B29AA0B12
:1022E0006B29000001309831F72091310230200035
:1022F000AA000430A900BA30890B7C29A90B7C29DB
:10230000AA0B7C29000006309831F7209131023069
:102310002000AA000430A900BA30890B8D29A90B2E
:102320008D29AA0B8D29000008002000A800A90112
:10233000AA01280803199D299E29012AFB296A0858
:102340000319A329A429FB299C316D249131200074
:10235000A5002508A700E529010002302000A600FD
:102360000430A500BA30890BB329A50BB329A60BFD
:10237000B32900002000A901A90AAA01AA0AFB2981
:1023800002302000A6000430A500BA30890BC6290F
:10239000A50BC629A60BC62900002000A901BD294E
:1023A00002302000A6000430A500BA30890BD629DF
:1023B000A50BD629A60BD62900002000A901A90A41
:1023C000AA01AA0A22008C13FB292708A500A6014E
:1023D0002608003A0319ED29FB292508303A03198C
:1023E000AC29023A0319AD29013A0319C0290A3A66
:1023F0000319D029FB2920002A080319002A012AE1
:102400009F292808031D052A062A282A222A013086
:10241000993144219131003A03190F2A102A142AC4
:102420002000A901AA01AA0A013099315F21913146
:10243000003A03191C2A1D2A222A2000A901A90AF0
:10244000AA01AA0A20002A080319272A282A072AEB
:10245000290808002000B5012B30860000308700D5
:10246000473FB300B31F352A362A582A2000AB094C
:10247000AC09AD09AE09AF09B009B109B209AB0A9F
:10248000031D552AAC0A031D552AAD0A031D552A02
:10249000AE0A031D552AAF0A031D552AB00A031DB3
:1024A000552AB10A031D552AB20A2000B501B50A02
:1024B0002330860000308700473F2000B300B31F61
:1024C000622A632A822A2000A309A409A509A60971
:1024D000A709A809A909AA09A30A031D822AA40A0F
:1024E000031D822AA50A031D822AA60A031D822A29
:1024F000A70A031D822AA80A031D822AA90A031D0E
:10250000822AAA0A2000230824042504260427047A
:10251000280429042A0403198E2A8F2AE22AB401E6
:10252000B40A9E2AA335A40DA50DA60DA70DA80DCE
:10253000A90DAA0D0130B3003308B407AA1FA12AC0
:10254000A22A922A2A083202031DC02A290831022F
:10255000031DC02A28083002031DC02A27082F02A5
:10256000031DC02A26082E02031DC02A25082D029D
:10257000031DC02A24082C02031DC02A23082B0295
:10258000031CC32AC42AD42A2308AB022408AC3B68
:102590002508AD3B2608AE3B2708AF3B2808B03BDB
:1025A0002908B13B2A08B23BAA36A90CA80CA70CF3
:1025B000A60CA50CA40CA30C0130B402031DE12A47
:1025C000E22AA22A35080319E62AE72A052BAB09D5
:1025D000AC09AD09AE09AF09B009B109B209AB0A3E
:1025E000031D052BAC0A031D052BAD0A031D052B8E
:1025F000AE0A031D052BAF0A031D052BB00A031DF0
:10260000052BB10A031D052BB20A20002B08A300DD
:102610002C08A4002D08A5002E08A6002F08A7004E
:102620003008A8003108A9003208AA0008002000DC
:10263000B5012330860000308700473FB300B31F49
:10264000222B232B452B2000A309A409A509A609A9
:10265000A709A809A909AA09A30A031D422BA40ACC
:10266000031D422BA50A031D422BA60A031D422B64
:10267000A70A031D422BA80A031D422BA90A031D0A
:10268000422BAA0A2000B501B50A2B308600003083
:102690008700473F2000B300B31F4F2B502B742BF4
:1026A0002000AB09AC09AD09AE09AF09B009B10909
:1026B000B209AB0A031D6F2BAC0A031D6F2BAD0AC9
:1026C000031D6F2BAE0A031D6F2BAF0A031D6F2B6B
:1026D000B00A031D6F2BB10A031D6F2BB20A013024
:1026E0002000B3003308B50636308600003087007E
:1026F00008302000B30000301E00B30B7C2B2308F1
:102700002404250426042704280429042A04031980
:102710008A2B8B2BE72BB401B40A9A2BA335A40D7B
:10272000A50DA60DA70DA80DA90DAA0D0130B3008A
:102730003308B407AA1F9D2B9E2B8E2BB635B70DE1
:10274000B80DB90DBA0DBB0DBC0DBD0D2A08320276
:10275000031DC42B29083102031DC42B2808300295
:10276000031DC42B27082F02031DC42B26082E028D
:10277000031DC42B25082D02031DC42B24082C0285
:10278000031DC42B23082B02031CC72BC82BD92BDA
:102790002308AB022408AC3B2508AD3B2608AE3B22
:1027A0002708AF3B2808B03B2908B13B2A08B23BB9
:1027B0003614AA36A90CA80CA70CA60CA50CA40CC0
:1027C000A30C0130B402031DE62BE72B9E2B35082A
:1027D0000319EB2BEC2B0A2CB609B709B809B90978
:1027E000BA09BB09BC09BD09B60A031D0A2CB70A00
:1027F000031D0A2CB80A031D0A2CB90A031D0A2C52
:10280000BA0A031D0A2CBB0A031D0A2CBC0A031DAD
:102810000A2CBD0A20003608A3003708A400380897
:10282000A5003908A6003A08A7003B08A8003C0804
:10283000A9003D08AA0008002100A90020005D08A9
:1028400086008701403FDF00413FE0005F088400D1
:10285000600885001200253A031D2F2C302C182DFE
:102860005D08860087010130810741310318810A24
:102870002200D501D6012100E301E401FF30E1008F
:10288000FF30E20020005D0886008701403FDF0046
:10289000413FE0005F088400600885001200643A50
:1028A0000319532C542C652C5D0886008701403F8A
:1028B000DF00413FE0005F088400600885001200EF
:1028C000693A031D642C652CB32C5D0886008701D2
:1028D0000130810741310318810A5E0886008701B3
:1028E00001088400850102308107003FDF00013FBD
:1028F000E0005F082100A000200060082100A10086
:10290000890D893B8909A200A300A400A500A600A7
:10291000A70020082000BF00210021082000C000DF
:10292000210022082000C100210023082000C2004D
:10293000210024082000C300210025082000C40035
:10294000210026082000C500210027082000C6001D
:102950002100290896319026943120004008DE009D
:102960003F08DD003D2D5D0886008701403FDF0008
:10297000413FE0005F0884006008850012006E3A65
:10298000031DC32CC42CE32C5D0886008701013095
:10299000810741310318810A5E0886008701403FA4
:1029A00084008501810A0008DF005F082100A8007B
:1029B0002808860087015F08C03F6008C13F2000EB
:1029C000DD01DE013D2D5D0886008701403FDF000F
:1029D000413FE0005F088400600885001200253A4E
:1029E000031DF32CF42C0F2D5D08860087010130A8
:1029F000810741310318810A2530A6000030A70065
:102A0000210029082000DF005F08A8009F3100276F
:102A1000943101302000DD000030DE003D2D5D08E6
:102A2000860087010130810741310318810ADF2CBC
:102A30005D0886008701403FDF00413FE0005F08FE
:102A40008400600885000008E100E2016108A6003A
:102A50006208A700210029082000E3006308A800FD
:102A60009F310027943120005D08860087010130E6
:102A7000810741310318810A092D08004030860082
:102A8000023087002A308400013085001430210094
:102A9000DD0016001A00DD0B492DB4308600013030
:102AA000870020308400013085000A30DD001600E8
:102AB0001A00DD0B572D0130A731932795310130D6
:102AC000A731A02795310030A73186279531210005
:102AD00058082000AF00210057082000AE00DD306C
:102AE000B000A230B100B930B200A230B3007830EB
:102AF000B400A130B5009E31AF2695312A302000B8
:102B0000B3000130B400210058082000B6002100B5
:102B100057082000B5009831B020953120003408C6
:102B20002200BF00200033082200BE003F08200022
:102B3000B40022003E082000B3002030B500013070
:102B4000B6009831B0209531200034082100AE0045
:102B5000200033082100AD0098319A2095319E3134
:102B60001D26953121005B08860002308700010890
:102B70009131952195312100DD005D082200C000D2
:102B80000B302100DE002630DD005D30890BC62DC4
:102B9000DD0BC62DDE0BC62D0032220040080319C6
:102BA000D22DD32D072E2100590886000230870030
:102BB00081015A088600023087008101033020001D
:102BC000AE00AA30AF00E230B000A230B100CB308E
:102BD000B200A230B3008D30B400A130B5009E31F8
:102BE000AF269531DB302100B8000030B900D93074
:102BF000BA000030BB00DA30BC000030BD00DC3071
:102C0000BE000030BF009F31A92795318F2E0330C1
:102C10002000AE00AA30AF002E30B000AA30B100C4
:102C20008430B200A030B3008430B400A030B500CE
:102C30009E31AF2695310030A73193279531013071
:102C4000A731A02795310030A73186279531013073
:102C5000A731C727953119302100DE005A30DD0039
:102C6000B130890B312EDD0B312EDE0B312E0032CF
:102C70000030A731C727953115302100DE004B30D9
:102C8000DD00BE30890B422EDD0B422EDE0B422EC4
:102C9000000001309A3157229531003A0319512E24
:102CA000522E792E01309A317A229531003A031949
:102CB0005A2E5B2E792E01309A319D229531003AA1
:102CC0000319632E642E792E03302000AE00AA3043
:102CD000AF002E30B000AA30B1000030B200A830F2
:102CE000B3001E30B400AA30B5009E31AF26953136
:102CF0008F2E2100590886000230870081010330A1
:102D0000B000AA30B100D930B2000030B300DA30E0
:102D1000B4000030B500903180209531F22D0800CC
:102D20002000CA003F08D3004008D4004108D50065
:102D30004208D6004308D7004408D8004508D90007
:102D40004608DA005330860000308700473FC7004E
:102D5000C71BAB2EAD2E0130AE2E00302000C800B8
:102D6000C9014808D1004908D2005108520403198A
:102D7000BA2EBB2ED92ED309D409D509D609D70925
:102D8000D809D909DA09D30A031DD92ED40A031D9B
:102D9000D92ED50A031DD92ED60A031DD92ED70A3E
:102DA000031DD92ED80A031DD92ED90A031DD92EE9
:102DB000DA0A2100E21BDD2EDE2EE22EFD30E305D5
:102DC000FF30E4056208803A2000C70080304702E7
:102DD000031DED2E0130210061020318F02EF12EAB
:102DE000F72E01302000CD000030CE00FF2E210054
:102DF00062082000CE00210061082000CD002200E2
:102E000056082000D000220055082000CF005108AD
:102E10005204031D0C2F0D2F122F2100631D112FA3
:102E2000122F172FFF302000CF07FF30D03D1F306B
:102E30002000DB000030DC002400BF01882FFF30C1
:102E40002000DB07FF30DC3D0A30A300A401A50110
:102E5000A601A701A801A901AA015308AB005408C3
:102E6000AC005508AD005608AE005708AF00580832
:102E7000B0005908B1005A08B20092312A229631A6
:102E800020002408B7002308B60099317A21963132
:102E900020003608303EC7005B08203E8600023026
:102EA000870047088100FF30CD07FF30CE3DFF305F
:102EB000CF07FF30D03D0A30A300A401A501A60131
:102EC000A701A801A901AA015308AB005408AC004E
:102ED0005508AD005608AE005708AF005808B000BE
:102EE0005908B1005A08B2009331172396312000D7
:102EF0002308D3002408D4002508D5002608D600CE
:102F00002708D7002808D8002908D9002A08DA009D
:102F100020005C08803AC70080304702031D922FD2
:102F200001305B02031C952F962FC32F20005308FE
:102F30005404550456045704580459045A04031DF4
:102F4000A22FA32F1F2F4E08803AC70080304702C0
:102F5000031DAC2F01304D020318AF2FB02F1F2FD0
:102F600020005008803AC70080304702031DBA2F66
:102F700001304F02031CBD2FBE2FC32F2100E318C9
:102F8000C22FC32F1F2F200051085204031DC92F29
:102F9000CA2FCF2F2100631DCE2FCF2FEC2FFF3054
:102FA0002000DB07FF30DC3D51085204031DD92F00
:102FB000DA2FDF2F2B30CB000030CC00E32F2D3069
:102FC000CB000030CC004B08C7005B08203E8600D9
:102FD000023087004708810020005B08203EC700C0
:102FE0004708B6005008B8004F08B7004A088731B4
:102FF0009F27963120003708C0003608BF00080020
:103000002000A30023080319062807280A28220005
:103010008C150C2822008C1108002000A300A73179
:103020005427983120002308240091002000911D8E
:103030001A281B28162891110800993196219831D9
:10304000A73160279831A63193269831A7310227FE
:1030500098319D31D525983108000230F0000030BC
:10306000F1007908A731F02798310030F500F6001B
:10307000F701A7316C279831043008000130F000C7
:103080000030F1007908A731F02798310030F500C1
:10309000F600F701A7316C279831023008000230A2
:1030A000F0000030F1007908A731F02798310030A6
:1030B000F500F600F701A7316C27983102300800BF
:1030C0000130F0000030F1007908A731F027983185
:1030D0000030F500F600F701A7316C279831043075
:1030E00008002D343E3420344534523452344534B3
:1030F000553452343A34203400340034003400342F
:10310000003400340034003400342000A400A63120
:10311000D42698312100690898310D20983120007B
:10312000240821006E0498310D209831A631DA264A
:1031300098310800AF302000E90069082100AF0095
:103140002E082000E50021002D082000E400AF300B
:10315000E9006908E60000309C319C2498310800A1
:1031600020003408A4003308A30099310F219831BE
:10317000200023083307A7002408343DA8003608A0
:10318000AA003508A9009A31E6229831080079088A
:1031900086008701403FF000413FF1007908023E80
:1031A000860087010108A731F02798310030F5002B
:1031B000F600F701A7316C27983102300800200093
:1031C000A60021006A082000A5002508A6042608FC
:1031D000043898318520983120002608FB39983131
:1031E000852098314230890BF328003208002000F6
:1031F000A8002100EA0120002808F0399831DF20DA
:10320000983120002808A7000330A735FF3E031D92
:1032100005292735F0399831DF2098310800200042
:103220002408A6002308A50019290130A3070030AF
:10323000A43D23088600240887000108031D2129D6
:103240002229152925082302A3002608243BA400CF
:10325000080023001908F00020006C08E53E8600F5
:1032600001308700700881000130F0007008EC0721
:1032700008306C02031C3D293E293F29EC01013036
:10328000F0007008EA0708002000A400A301240849
:1032900003194B294C2952298F1B4F295029522998
:1032A000A301A30A2408031D562957295D298F1F4E
:1032B0005A295B295D29A301A30A230808002000DD
:1032C000A400A30124080319662967296D290F1991
:1032D0006A296B296D29A301A30A2408031D7129FA
:1032E000722978290F1D752976297829A301A30A47
:1032F0002308080020003708803AB80080303802E0
:10330000031D84290130360203188729882995294D
:1033100020003609B8003709B900B80A0319B90AFC
:103320003808B6003908B700952908002200900136
:103330008F018C018D018E010830210090008C01DD
:10334000CF308D00BF308E00FF308F0023008F0103
:103350003F308D0090013C308C00240090018D01A5
:103360002100951722009D01080022000C1706304D
:103370002000A4001330A300AD30890BBD29A30B9E
:10338000BD29A40BBD29003222000C1306302000F9
:10339000A4001330A300AD30890BCC29A30BCC299A
:1033A000A40BCC29003208002000AC01AD01E729B4
:1033B00029082C0784002A082D3D8500000890313B
:1033C0000020993101302000AC070030AD3D2908C4
:1033D0002C0784002A082D3D85001200031DF129C9
:1033E000F229D82908002000A6002608A500A50D6E
:1033F000A50D21001D082000250683392506210082
:103400009D001D140D30890B032A000021009D141E
:103410009D180B2A0C2A082A1C082000A400210051
:103420001B082000A300080020302100AD00A030C0
:10343000AE0098319A209A312100B101B2019A313F
:10344000C0229A3101302100B1070030B23D32086C
:10345000803AB00080303002031D302A0230310241
:10346000031C332A342A1F2A0800083021006C026A
:1034700003183B2A3C2A552A6D084D3E8600013030
:103480008700010823009A000130F0007008210035
:10349000ED0708306D02031C4E2A4F2A502AED0119
:1034A0000130F0007008EC07562A111208002000C5
:1034B000A400A301240803195E2A5F2A692A0F1CAD
:1034C000622A632A692A8F18662A672A692AA30151
:1034D000A30A2408031D6D2A6E2A782A0F18712A60
:1034E000722A782A8F1C752A762A782AA301A30AC1
:1034F000230808002000A400A30124080319812A3E
:10350000822A8C2A8F1D852A862A8C2A0F1A892ABC
:103510008A2A8C2AA301A30A2408031D902A912A2F
:103520009B2A8F19942A952A9B2A0F1E982A992A3A
:103530009B2AA301A30A230808002000A400A301DA
:1035400024080319A42AA52AAF2A8F1EA82AA92A6B
:10355000AF2A0F1BAC2AAD2AAF2AA301A30A240865
:10356000031DB32AB42ABE2A8F1AB72AB82ABE2A44
:103570000F1FBB2ABC2ABE2AA301A30A23080800E6
:103580002000A801A9019B3188239A310B3020002B
:10359000A7002630A6005D30890BCC2AA60BCC2ACA
:1035A000A70BCC2A003201302000A8070030A93D2B
:1035B0002908803AA60080302602031DE12A023045
:1035C0002802031CE42AE52AC32A080020002A084E
:1035D000B0002908AF002808B2002708B10032085F
:1035E000AC003108AB00B10A0319B20A2B088600FF
:1035F0002C0887003008AE002F08AD00AF0A031971
:10360000B00A2D0884002E0885000008C03F8908F4
:10361000031D0B2B0C2BEF2A08002D343E342034D5
:103620004534523452344534553452343A342034CB
:1036300000340034003400340034003400340034EA
:1036400000340D340A3400340034003400340034C3
:103650000034003400340D340A34003400340034B3
:10366000003400340034003400342000B500B301CD
:10367000B4014D2B3208AF00B0012F08A60030086E
:10368000A7002E08B1003108A8009F3100279B3108
:1036900001302000B3070030B43D33083507AF00D8
:1036A0002F088600023087000108B0003008B20001
:1036B0003208031D5C2B5D2B3A2B0800F4007008C8
:1036C00071040319642B652B782B7435C83E860072
:1036D000013087007008C03F7108C13F7208F300D5
:1036E0007408D43E86000130870073088100872B60
:1036F0007435C83E8600013087006B30C03F2630ED
:10370000C13F7408D43E8600013087008101080063
:103710002000A401A50122000D1606302000A30000
:103720003030890B912BA30B912B000022000D123E
:1037300006302000A3003030890B9C2BA30B9C2B60
:10374000000001302000A4070030A53D2508803A84
:10375000A30080302302031DAF2B32302402031C50
:10376000B22BB32B8B2B0800230064100230FA001D
:103770007A08E300C32BA631AB269B31E02BA631A0
:10378000B0269B31E02B5608FA007A08F900043085
:10379000C83E860001308700413F8A00403F0A0052
:1037A0009B31FB00FC017C08003A0319D82BBF2B8E
:1037B0007B08023A0319BB2B013A0319BB2BBF2B21
:1037C0000800A6317C269B312300641CE82BE92BE2
:1037D000F72BA631CE269B31003A0319F02BF12BA3
:1037E000F72B0F302000A00020082300E200230068
:1037F00062082000A000A101A035A10D0030200723
:103800008400A030213D8500013F8A00003F0A006E
:103810009C312000A20022082300E20008002300BF
:10382000E4151F2CA631AB269C313D2CA631792600
:103830009C3103303D2CA631B0269C313D2C5408E0
:10384000FA007A08F90049088A0048080A009C3101
:10385000FB00FC017C08003A03192F2C1B2C7B0871
:10386000013A03191B2C033A0319122C013A0319CC
:10387000122C073A0319162C1B2C08002000AC0050
:10388000592C2908BF3E9831F7209C316C2C29080F
:10389000933E9831F7209C316C2C2908D33E983107
:1038A000F7209C316C2C29087F3E9831F7209C3101
:1038B0006C2C2C08AA00AB012B08003A0319612CD0
:1038C000532C2A08023A0319412C013A0319472CB8
:1038D000073A03194D2C532C080020006A080319DD
:1038E000722C732C6D2C6B08453E860001308700CE
:1038F0000108A30023082100EB0020006B08E53E2F
:103900008600013087000108A3002308A4000130CD
:10391000A3002308EB0708306B02031C902C912CAA
:10392000922CEB012100911201302000EA022100CB
:1039300091162000240808002100AA002000650834
:103940002100AC00200064082100AB00DF01E00191
:10395000BF2CAB302000E7006708DD006608E800F8
:103960006808DE0021002A0894311C249C312000C4
:103970005D082100DF0720005E082100E03D2B08E4
:1039800084002C0885001200031DC72CC82CA92C0C
:1039900060082000E50021005F082000E400080026
:1039A0002100B400AF302000E90069082100B30015
:1039B00034082000E90069082100B500B601B7010C
:1039C000B801B9012E082000E50021002D082000D3
:1039D000E400B330E9006908E600B5309C319C246E
:1039E0009C31200065082100B200200064082100FD
:1039F000B100360834072000E9006908860002306B
:103A00008700810121003208AE003108AD000800B6
:103A100020006C08453E86000130870081012300AC
:103A20001D1D132D142D212D20006C08453E8600F0
:103A300001308700811422005C088A005B080A00BC
:103A40009D3123009D1C252D262D332D20006C0833
:103A5000453E860001308700011522005A088A0081
:103A600059080A009D3120006C08453E860001304F
:103A70008700010803193D2D3E2D452D22005808D1
:103A80008A0057080A009D31482D993129219D311E
:103A90000800A63176269D31FA0023005F088600D3
:103AA00087017A0881000130FA007A08DF070130C7
:103AB000E0020030E13B600861040319602D612DD4
:103AC000662DA6318B269D3105308E2DE415702D87
:103AD000A631BF269D318E2DA631BA269D318E2D61
:103AE0005408FA007A08F90049088A0048080A00D0
:103AF0009D31FB00FC017C08003A0319802D6C2DE0
:103B00007B08013A03196C2D033A0319682D013A19
:103B10000319682D073A03196C2D6C2D080020003D
:103B2000A400240016141618962D972D932D3230CC
:103B3000910014189C2D9D2D992D1419A02DA12DA7
:103B40009D2D20002408240091001418A82DA92DD3
:103B5000A52D1419AC2DAD2DA92D96149618B12DA7
:103B6000B22DAE2D333091001418B72DB82DB42DD1
:103B70001419BB2DBC2DB82D9615141CC02DC12DAC
:103B8000BD2D11082000A3002308A50024009616CF
:103B90001616161ACC2DCD2DC92D16151619D12D88
:103BA000D22DCE2D200025080800210091120830CA
:103BB0002000A3001D30A400A7312E279D31210035
:103BC000111235302000A3001A30A400A731372786
:103BD0009D31083023009F0090309D0024309E00CE
:103BE00040309B0003309C0069302000A300263049
:103BF000A400A7311C279D3183302000A30026306C
:103C0000A400A73125279D317F302000A300263056
:103C1000A400A73113279D312100EB01FD01ED0127
:103C200008302000A50025082100EC002000EC0150
:103C3000EB01EA012100911608002000A801A9016A
:103C40002000AA01AB019B3188239E310B3020005C
:103C5000A7002630A6005D30890B2C2EA60B2C2E3B
:103C6000A70B2C2E003201302000AA070030AB3DFC
:103C70002B08803AA60080302602031D412E043016
:103C80002A02031C442E452E232E0B302000A700B1
:103C90002630A6005D30890B4B2EA60B4B2EA70BB2
:103CA0004B2E003201302000A8070030A93D290822
:103CB000803AA60080302602031D602E04302802C0
:103CC000031C632E642E202E080021003408860079
:103CD000350887000108031D6E2E6F2E762E3930B1
:103CE000AD00A130AE0098319A209E3121003008FD
:103CF000860031088700810132088600330887007A
:103D00008101340886003508870081013608860065
:103D100037088700013081000030A73186279E31A7
:103D20000030A73193279E310030A731A0279E3164
:103D30000030A73179279E310030A731AD279E3161
:103D40000030A731BA279E310030A731C7279E31F6
:103D50000030A731D4279E3122008C130800A731F0
:103D600040279E3106309831F7209E3102302000E6
:103D7000B7000430B600BA30890BBC2EB60BBC2E8F
:103D8000B70BBC2E00002000A901A90A01309C310C
:103D90003E249E3120002F08AA002E08A900993148
:103DA000D4219E312000A901A90A02309C313E2471
:103DB0009E3120003108AA003008A9009931D42191
:103DC0009E312000A901A90A03309C313E249E3176
:103DD00020003308AA003208A9009931D4219E316D
:103DE0002000A901A90A04309C313E249E31200004
:103DF0003508AA003408A9009931D4219E31080061
:103E0000200028080319052F062F0B2F2808031D53
:103E10000A2F0B2F102F2608A631F3269F31512F82
:103E20002808033E86008701160001040319192F94
:103E30001A2F372F2808033E86008701403FA9002C
:103E4000413FAA00280A86008701403FAB00413F5E
:103E5000AC002C08803AAD002A08803A2D02031DE0
:103E6000332F29082B020318362F372F512F20000C
:103E70002608A900280886008701280A84008501F1
:103E800000080107AA002A088600023087002908D6
:103E90008100280A8600870101308107413103181B
:103EA000810A0800A631CE269F31003A0319592F06
:103EB0005A2F8B2F672FA631A1269F31A82FA6310D
:103EC000A6269F31A82FA631B0269F31A82F230008
:103ED0005708FA007A08F9000630C83E860001301B
:103EE0008700413F8A00403F0A009F31FB00FC01F0
:103EF0007C08003A03197D2F632F7B08013A0319D0
:103F0000632F033A03195B2F013A03195F2F073A16
:103F10000319632F632F230064101730C83E8600F7
:103F200001308700403F84008501810A0008A631E6
:103F300097269F3101302300E0020030E13B60080A
:103F40006104031DA42FA52FA72F0630A82F03302F
:103F50000800210038088600390887000108C000E1
:103F6000C1014008B0004108B1003A0886003B0892
:103F700087000108C200C3014208B2004308B30031
:103F8000903119209F3121003A0886003B088700B4
:103F90000108C000C1014008B0004108B1003C0860
:103FA00086003D0887000108C200C3014208B20034
:103FB0004308B30038088600390887000108C400A8
:103FC000C5014408B4004508B5003E0886003F0816
:103FD00087000108C600C7014608B6004708B700B9
:103FE0009E3165269F3129302100C1009630C000E6
:103FF0007F30890BF92FC00BF92FC10BF92F080067
:104000009C3426340A342734FA34263452341F348C
:1040100049341D34EC3426340F341C34A134263496
:10402000A6342634AB342634B0342634B5342634A2
:10403000BA342634BF342634C4342634B4341B3462
:104040002D343E34203454344534533454342034E5
:1040500043344F344E3446344F3452344D34453467
:1040600020342D34203441345434543445344E34C7
:104070005434453420344134433451345534493474
:104080005434543445344D3445344E3454340D3462
:104090000A34003441347434743465346E34743406
:1040A00065342034763461346C346934643461347A
:1040B000743469346F346E3420346C346534643451
:1040C000203472346F347534673465340D340A34F7
:1040D00000342D343E342034503452344F3447347D
:1040E000523441344D344D344134543449344F34D6
:1040F0004E3420345434453452344D3449344E34E3
:10410000453445340D340A3400342D343E342034E3
:10411000503452344F344734523441344D344D349A
:104120004134543449344F344E34203445344E34C1
:10413000203443344F345534523453340D340A341C
:1041400000342D343E342034453452345234453416
:10415000553452342034503452344F34473452346E
:1041600041344D344D344134543449344F344E3459
:104170000D340A3400342D343E3420345434453464
:104180005334543420344D3441344E345534453452
:104190004C34203445344E34203443344F34553479
:1041A000523453340D340A340034413454345434CA
:1041B00045344E34543445342034563441344C3430
:1041C000493444344134543449344F344E34203427
:1041D0004C344534443453340D340A3400342D34D3
:1041E0003E34203453344C34413456344534203436
:1041F00052344534533450344F344E3453344534B0
:1042000020344E3455344C344C340D340A3400349C
:104210002D343E342034453446344634413443341E
:1042200045344D3445344E345434203445344E34C2
:10423000203443344F345534523453340D340A341B
:1042400000342D343E342034453446344634413431
:10425000433445344D3445344E345434203454348E
:10426000453452344D3449344E3445340D340A34D7
:1042700000342D343E342034463449344E34203416
:10428000543445345334543420344D3441344E3452
:10429000553445344C340D340A3400342D343E3416
:1042A000203453344C34413456344534203445346E
:1042B0004E34203441345434543445344E34543420
:1042C00045343A340034453452345234453455344C
:1042D00052342034503452344F3447345234413401
:1042E0004D344D344134543449344F344E34003419
:1042F00050345234453453345334453452342034DA
:104300004F344B3420344F345534203445345234F8
:1043100052344534553452340034413454345434D6
:1043200045344E34543445342034413443345134CC
:10433000553449345434543445344D3445344E3472
:10434000543400342D343E342034413470347034CD
:10435000753479346534723420347334753472347E
:1043600020344F344B340D340A3400345434453443
:104370005334543420345234313420344F3446349E
:10438000463420342D3420345234323420344F34E7
:104390004E3400345434453453345434203452347D
:1043A000323420344F344634463420342D342034D3
:1043B0005234333420344F344E3400342D343E34B0
:1043C0002034543445345334543420344134433449
:1043D0005134553449345434543445340D340A344A
:1043E00000342D343E34203453344C34413456346C
:1043F00045345F34543445345334543420344F34CA
:104400004E340D340A340034543445345334543467
:104410002034433441345234543445342034443409
:1044200039343234353445344434343400342D3462
:104430003E34203453344C344134563445345434AF
:104440004534533454343A34313430343A343134DA
:1044500000342D343E34203453344C3441345634FB
:10446000453454344534533454343A34313431348B
:104470003A34313400342D343E34203453344C3407
:1044800041345634453454344534533454343A3436
:10449000313432343A34313400342D343E34203423
:1044A00053344C3441345634453454344534533405
:1044B00054343A34313433343A34313400342D34D2
:1044C0003E34203453344C3441345634453454341F
:1044D0004534533454343A34313434343A34313446
:1044E00000342D343E34203453344C34413456346B
:1044F000453454344534533454343A3431343534F7
:104500003A34313400342D343E34203453344C3476
:1045100041345634453454344534533454343A34A5
:10452000313436343A34313400342D343E3420348E
:1045300053344C3441345634453454344534533474
:1045400054343A34313437343A34313400342D343D
:104550003E34203453344C3441345634453454348E
:104560004534533454343A34313438343A343134B1
:104570000034563445345234493446344934453491
:1045800052342034503431342034453454342034BF
:1045900050343234003452344534533455344C346E
:1045A000543441345434203443344F344E3446343C
:1045B000493452344D344534003454344534533442
:1045C000543420344E344F344E34203443344F343A
:1045D0004E3446344F3452344D344534003446342E
:1045E00049344E342034503452344F3447345234EA
:1045F00041344D344D344134543449344F344E34C5
:10460000003450344F3453344934543449344F34E3
:104610004E344E34453452342034433441345234D1
:1046200054344534003454344534533454342034F1
:1046300033342034523445344C34413449345334C7
:1046400020344F344634463400342D343E34203444
:1046500053344C3441345634453454344534533453
:1046600054343A3431343A34313400342D343E3415
:10467000203453344C344134563445345434453466
:10468000533454343A3432343A34313400342D34DF
:104690003E34203453344C3441345634453454344D
:1046A0004534533454343A3433343A3431340034A6
:1046B0002D343E34203453344C3441345634453454
:1046C00054344534533454343A3434343A34313431
:1046D00000342D343E34203453344C344134563479
:1046E000453454344534533454343A3435343A34FC
:1046F000313400342D343E34203453344C3441347E
:104700005634453454344534533454343A343634BE
:104710003A34313400342D343E34203453344C3464
:1047200041345634453454344534533454343A3493
:1047300037343A34313400342D343E342034533459
:104740004C34413456344534543445345334543461
:104750003A3438343A34313400342D343E34203451
:1047600053344C3441345634453454344534533442
:1047700054343A3439343A34313400342D343E34FC
:10478000203453344C344134563445342034453489
:10479000523452344534553452343A34003443346C
:1047A0004C34413456344934453452342034453441
:1047B00043344C3441344934523445343F3400346A
:1047C0005034523445345334533445345234203405
:1047D0004F344B3420342F3420344E344F344B3448
:1047E0000034543445345334543420343334203476
:1047F000523445344C3441344934533420344F34EA
:104800004E340034543445345334543420344C340E
:1048100045344434203443344C34413456344934E0
:1048200045345234003443344C34413456344934E2
:1048300045345234203445345434453449344E34AC
:1048400054343F34003454344534533454342034D5
:104850004C3445344434533420344334413452349A
:064860005434453400341D
:104CD200080008340130080024009614080024005B
:104CE2001615080024009615080024001108080073
:104CF2002000911508002000911108009931292106
:104D0200A631080023001D121D1608002400961665
:104D12001616080024009612161608009B31E1238D
:104D2200A63108001630210097000800F000700834
:104D32002400910008002300E410E3010E30080073
:104D4200A6316D26A63101300800A6316D26A631A6
:104D520002300800A6316D26A63101300800A631C6
:104D62007026A63100300800A6318B26A631053008
:104D72000800A6318726A6310A300800A631872608
:104D8200A631093008002300E410E3010E300800C8
:104D920061309D318F25A63108002400160E890C42
:104DA200890C01390800A7315427A63124001614B2
:104DB2000800A7315427A631240016150800640004
:104DC20080010131890BE12E0034FE0012001E0029
:104DD200FE0BE72E003423006410A6317326A631A1
:104DE200043008002000A500250888310020A631E3
:104DF2000800230064145E35A6319726A6310330DD
:104E02000800F03021009E009B019C0101309D00B2
:104E120008002300641403145E0DA6319726A731FF
:104E220005300800200024082200D80020002308B2
:104E32002200D7000800200024082200DC00200005
:104E420023082200DB000800200024082200DA00E8
:104E5200200023082200D900080020002408220094
:104E6200DE00200023082200DD00080020002408C4
:104E72002100E600200023082100E500080001309F
:104E82009831F720A7313530890B452F00000800F3
:104E920028302400950096019401273092002100C9
:104EA2008E150E16080024001419582F592F542F4E
:104EB20016081F39031D5E2F5F2F542F0800703014
:104EC2002100990098012200960121001A1F6A2FE1
:104ED2006B2F662F08007608F1007508F00077083E
:104EE200F8007808F20000309B315E23A7310800F9
:104EF2002000A300230803197F2F802F832F220075
:104F02000C14852F22000C1008002000A300230897
:104F120003198C2F8D2F902F22001014922F220014
:104F2200101008002000A30023080319992F9A2FBC
:104F32009D2F220090149F2F220090100800200025
:104F4200A30023080319A62FA72FAA2F22001015AA
:104F5200AC2F2200101108002000A300230803191F
:104F6200B32FB42FB72F22008C14B92F22008C102C
:104F720008002000A30023080319C02FC12FC42F4B
:104F820022000C15C62F22000C1108002000A300DD
:104F920023080319CD2FCE2FD12F22000C16D32F89
:104FA20022000C1208002000A30023080319DA2FA4
:104FB200DB2FDE2F22008C16E02F22008C1208003D
:104FC20032302400920036309500960180309400F1
:104FD20021008E150E168B170B1791150800F30082
:104FE2002300E41DF52FF62FFF2F7308F20072083D
:104FF200DF007108E1007008E000E41108004534A8
:1050020052345234453455345234203456344134B7
:105012004C344934443445344534003446344934FC
:105022004E342034453446344634413443344534D6
:105032004D3445344E3454340034543445345334AE
:10504200543420344C3445344434203452344F34B4
:10505200553447344534003454344534533454348D
:1050620020344C344534443420345634453452349C
:105072005434453400345434453453345434203495
:105082004C3445344434203442344C344534553461
:10509200453400344D344F34443455344C34453463
:1050A20020344534533443344C344134563445343B
:1050B20000345434453453345434203442344C3460
:1050C2005534453454344F344F3454344834003416
:1050D20041345034503455345934453452342034E8
:1050E20053345534523420344F344B3400344D341D
:1050F20061347334743465347234203465346E34FC
:105102002034743465347334743400344D344F3481
:10511200443455344C34453420344D3441344934CC
:1051220054345234453400345234453454344934BE
:10513200523445345234203443344134523454349A
:10514200453400344C3445344434533420344134EF
:105152004C344C3455344D34453445345334003496
:105162002D343E34203454344534533454342034B2
:105172004F344E340D340A3400342D343E3420344E
:1051820054344534533454343A34313430343A3468
:10519200313400342D343E342034543445345334C5
:1051A20054343A34313432343A34313400342D34D4
:1051B2003E34203454344534533454343A34313444
:1051C20033343A34313400342D343E3420345434C0
:1051D2004534533454343A34313434343A34313437
:1051E20000342D343E342034543445345334543452
:1051F2003A34313435343A34313400342D343E3497
:10520200203454344534533454343A3431343634FB
:105212003A34313400342D343E342034543445345D
:10522200533454343A34313437343A343134003428
:105232002D343E34203454344534533454343A34C7
:10524200313438343A3431340034543445345334FC
:105252005434203448344F3452344C344F3447346D
:10526200453400342D343E342034543445345334E0
:1052720054343A3431343A34313400342D343E34F7
:10528200203454344534533454343A3432343A3476
:10529200313400342D343E342034543445345334C4
:1052A20054343A3433343A34313400342D343E34C5
:1052B200203454344534533454343A3434343A3444
:1052C200313400342D343E34203454344534533494
:1052D20054343A3435343A34313400342D343E3493
:1052E200203454344534533454343A3436343A3412
:1052F200313400342D343E34203454344534533464
:1053020054343A3437343A34313400342D343E3460
:10531200203454344534533454343A3438343A34DF
:10532200313400342D343E34203454344534533433
:1053320054343A3439343A34313400345434453400
:10534200533454342034533446344C34413453347B
:1053520048340034463449344E34203444344534DD
:1053620020345434453453345434003456344F3496
:105372004934523420344134503450344C3449345A
:105382000034543445345334543420345234313498
:1053920020344F344E340034453454344134503484
:1053A20045342034313430340034453454344134BB
:1053B200503445342034313432340034543445349A
:1053C200533454342034423450343234003445346B
:1053D200543441345034453420343134333400347D
:1053E2004534543441345034453420343134343427
:1053F200003445345434413450344534203431344B
:105402003534003445345434413450344534203436
:105412003134363400344534543441345034453414
:105422002034313437340034453454344134503428
:105432004534203431343834003454344534533410
:10544200543420344F344B340034453454344134D2
:1054520050344534203431340034543445345334D8
:1054620054342034503431340034453454344134CB
:1054720050344534203432340034543445345334B7
:1054820054342034503432340034453454344134AA
:1054920050344534203433340034453454344134A8
:1054A2005034453420343434003445345434413497
:1054B2005034453420343534003445345434413486
:1054C2005034453420343634003445345434413475
:1054D2005034453420343734003445345434413464
:1054E2005034453420343834003445345434413453
:1054F2005034453420343934003425346434003493
:020000040001F9
:08000000FF3FFF3FFF3FFF3F00
:04000E00E43FFF3F8D
:00000001FF
