:1000000080314A28053008007E1480310B1F0928F2
:100010000A2848282100111E0E280F281B2820001E
:10002000111E132814281B28210066088A00650861
:100030000A00803148282100911E1F2820282C28E2
:100040002000911E242825282C2822006C088A00D4
:100050006B080A00803148282100921D3028312881
:100060003D282000921D352836283D2821006808AB
:100070008A0067080A00803148282100911D412824
:10008000422848282000911D46284728482836281D
:100090007E10090080314C282100903100208031F1
:1000A000EE0050308400A2308500CD308600013053
:1000B00087001430A031CA20803137308400A53049
:1000C000850020308600023087002830A031CA2009
:1000D0008031FD012000EA01EB01EC01DF308400FA
:1000E000003085000F30A031C42080315B308400A7
:1000F000013085001430A031C4208031A03084004C
:10010000013085002D30A031C4208031483084007A
:10011000023085002030A031C42080317E102000C4
:100120009231D02A2100B400802B7830AD00A93064
:10013000AE00A23179228031052C6430AD00AB30A5
:10014000AE00A23179228031C2302000B800AE303A
:10015000B9005230BA00AB30BB003A30BC00A83016
:10016000BD003A30BE00A830BF00A3310723803164
:10017000052CFD30AD00AB30AE00A23179228031CC
:10018000052C7530AD00AB30AE00A2317922803144
:10019000D2302000B800AE30B900B230BA00AC3076
:1001A000BB003A30BC00A830BD003A30BE00A830D9
:1001B000BF00A33107238031052CFD30AD00AB30EB
:1001C000AE00A23179228031052C8630AD00AB30F3
:1001D000AE00A23179228031DA302000B800AE3092
:1001E000B900D030BA00AC30BB003A30BC00A83007
:1001F000BD003A30BE00A830BF00A33107238031D4
:10020000052CFD30AD00AB30AE00A231792280313B
:10021000052C9730AD00AB30AE00A2317922803191
:10022000E2302000B800AE30B900C130BA00AC30C6
:10023000BB003A30BC00A830BD003A30BE00A83048
:10024000BF00A33107238031052CFD30AD00AB305A
:10025000AE00A23179228031052CA830AD00AB3040
:10026000AE00A23179228031EA302000B800AE30F1
:10027000B9005630BA00AE30BB003A30BC00A830EE
:10028000BD003A30BE00A830BF00A3310723803143
:10029000052CFD30AD00AB30AE00A23179228031AB
:1002A000052CB930AD00AB30AE00A23179228031DF
:1002B000F2302000B800AE30B900F530BA00A930F5
:1002C000BB003A30BC00A830BD003A30BE00A830B8
:1002D000BF00A33107238031052CFD30AD00AB30CA
:1002E000AE00A23179228031052CCA30AD00AB308E
:1002F000AE00A23179228031FA302000B800AE3051
:10030000B9000930BA00AA30BB003A30BC00A830AE
:10031000BD003A30BE00A830BF00A33107238031B2
:10032000052CFD30AD00AB30AE00A231792280311A
:10033000052CDB30AD00AB30AE00A231792280312C
:1003400002302000B800AF30B9006330BA00AC30E2
:10035000BB003030BC00AC30BD003A30BE00A8302D
:10036000BF00A33107238031052CFD30AD00AB3039
:10037000AE00A23179228031052CEC30AD00AB30DB
:10038000AE00A2317922803161302000B800AE3059
:10039000B9006330BA00AC30BB007430BC00AC3084
:1003A000BD003A30BE00A830BF00A3310723803122
:1003B000052CFD30AD00AB30AE00A231792280318A
:1003C000052C5630AD00AA30AE00A2317922803122
:1003D0006A302000B800AE30B9003330BA00AE3019
:1003E000BB003A30BC00A830BD003A30BE00A83097
:1003F000BF00A33107238031052CFD30AD00AB30A9
:10040000AE00A23179228031052C6830AD00AA30CF
:10041000AE00A231792280316A302000B800AE30BF
:10042000B9003A30BA00A830BB003A30BC00A8305E
:10043000BD003A30BE00A830BF00A3310723803191
:10044000052CFD30AD00AB30AE00A23179228031F9
:10045000052C7A30AD00AA30AE00A231792280316D
:100460007C302000B800AE30B9008430BA00AC3027
:10047000BB003730BC00AD30BD004130BE00AC30F9
:10048000BF00A331072380312100300886003108E6
:10049000870001308100052CFD30AD00AB30AE008F
:1004A000A23179228031052C8C30AD00AA30AE000B
:1004B000A23179228031210030088600310887007E
:1004C000810185302000B800AE30B9007330BA0029
:1004D000AE30BB003A30BC00A830BD003A30BE00A0
:1004E000A830BF00A33107238031052CFD30AD00BB
:1004F000AB30AE00A23179228031052C9E30AD00A8
:10050000AA30AE00A231792280318E302000B800AE
:10051000AE30B900BA30BA00AD30BB003A30BC00E2
:10052000A830BD003A30BE00A830BF00A331072379
:100530008031052CFD30AD00AB30AE00A231792208
:100540008031052CB030AD00AA30AE00A231792246
:10055000803197302000B800AE30B900BA30BA0010
:10056000AE30BB003A30BC00A830BD003A30BE000F
:10057000A830BF00A33107238031052CFD30AD002A
:10058000AB30AE00A23179228031052CC230AD00F3
:10059000AA30AE00A23179228031A0302000B8000C
:1005A000AE30B900CA30BA00AE30BB003A30BC0041
:1005B000A830BD003A30BE00A830BF00A3310723E9
:1005C0008031052CFD30AD00AB30AE00A231792278
:1005D0008031052CD430AD00AA30AE00A231792292
:1005E0008031A9302000B800AE30B900EE30BA003A
:1005F000AC30BB004B30BC00AE30BD004130BE0063
:10060000AC30BF00A33107238031442AFD30AD0058
:10061000AB30AE00A23179228031052CE630AD003E
:10062000AA30AE00A2317922803121003008860044
:100630003108870081013F302000B800AE30B9009A
:100640002530BA00AB30BB002930BC00AD30BD0056
:10065000CC30BE00A930BF00A33107238031052C68
:10066000FD30AD00AB30AE00A23179228031052CD7
:100670003530AD00A930AE00A2317922803143304F
:100680002000B800AA30B900DF30BA00AC30BB009F
:100690004030BC00AB30BD00FD30BE00AC30BF0010
:1006A000A33107238031052C0E30AD00AC30AE00F5
:1006B000A23179228031052C1F30AD00AC30AE0064
:1006C000A23179228031052C4C30AD00A930AE002A
:1006D000A2317922803143302000B800AA30B9001D
:1006E000DF30BA00AC30BB004030BC00AB30BD00E6
:1006F000FD30BE00AC30BF00A33107238031052C94
:100700003408B200B3013308003A0319882B052CD2
:100710003208413A03199D28033A0319C128013AC6
:100720000319E528073A03190929013A03192D2964
:10073000033A03195129013A031975290F3A03198C
:100740009929013A0319BD29033A0319E129013A0C
:100750000319052A073A0319292A013A0319542AC9
:10076000033A03197E2A013A0319A22A1F3A0319F0
:10077000C62A013A0319EA2A033A03190E2B013A51
:100780000319382B323A0319B928033A0319DD2823
:10079000013A03190129073A03192529013A0319D6
:1007A0004929033A03196D29013A031991290F3A8E
:1007B0000319B529013A0319D929033A0319FD2967
:1007C000013A0319212A073A03194C2A013A03195D
:1007D000762A033A03199A2A013A0319BE2A1F3AC4
:1007E0000319E22A013A0319062B033A0319302BA5
:1007F000073A0319542B033A03195C2B013A0319E6
:10080000642B0D3A03199528052C0800EB302100C4
:10081000AD00AD30AE00A23179228431A031AD20DF
:1008200084312200C1004108D5005308C100C20133
:1008300041082100B000220042082100B10022003E
:100840005508803192208431A131CD21843122009C
:10085000C1004108D6005A30C10041082100B00053
:1008600058302200C20042082100B100543022005A
:10087000C30043082100B20022005608C400440807
:100880002100B300593088310320843122005A08F6
:1008900003194B2C4C2CB62CE2302000B800AE30A3
:1008A000B900C130BA00AC30BB003A30BC00A8304F
:1008B000BD003A30BE00A830BF00A33120238431F0
:1008C0000130A1318A21843106302200C200133068
:1008D000C100AD30890B6A2CC10B6A2CC20B6A2C8B
:1008E00000320030A1318A218431220050080319DE
:1008F0007A2C7B2CB62C59089C312F248431220071
:10090000C1004108D7005708031D872C882CAE2C46
:10091000DA01E2302100B000AE30B1005A30B2004E
:100920000130B3005730B4000130B5009B311A23B9
:10093000843159302100B8000130B9005A30BA0072
:100940000130BB005730BC000130BD005830BE0044
:100950000130BF009A3100228431B62CF7302100DB
:10096000AD00AD30AE00A23179228431A031AD208E
:1009700084312200C1004108D5005308C100C201E2
:1009800041082100B000220042082100B1002200ED
:100990005508803192208431A131CD21843122004B
:1009A000C1004108D6005A30C10041082100B00002
:1009B00058302200C20042082100B1005430220009
:1009C000C30043082100B20022005608C4004408B6
:1009D0002100B300593088310320843122005A08A5
:1009E0000319F32CF42C622DEA302000B800AE304D
:1009F000B9005630BA00AE30BB003A30BC00A83067
:100A0000BD003A30BE00A830BF00A331202384319E
:100A10000130A1318A21843115302200C2004B30CF
:100A2000C100BE30890B122DC10B122DC20B122D2D
:100A300000000030A1318A21843115302200C2002B
:100A40004B30C100BE30890B232DC10B232DC20BAF
:100A5000232D00000130A43181248431003A031990
:100A6000322D332D3C2D03302100AD00AE30AE00D1
:100A7000A23179228431622D2200DA01EA3021008C
:100A8000B000AE30B1005A30B2000130B300573080
:100A9000B4000130B5009B311A2384315930210054
:100AA000B8000130B9005A30BA000130BB005730ED
:100AB000BC000130BD005830BE000130BF009A318B
:100AC00000228431A031AD2084312200C1004108D0
:100AD000D5005308C100C20141082100B000220026
:100AE00042082100B1002200550880319220843153
:100AF000A131CD2184312200C1004108D6005A30F5
:100B0000C10041082100B00058302200C200420854
:100B10002100B10054302200C30043082100B2007C
:100B200022005608C40044082100B300593088311F
:100B30000320843122005A0803199F2DA02D172E5F
:100B4000F2302000B800AE30B900F530BA00A9305C
:100B5000BB003A30BC00A830BD003A30BE00A8301F
:100B6000BF00A331202384310130A1318A21843197
:100B700015302200C2004B30C100BE30890BBE2DA3
:100B8000C10BBE2DC20BBE2D00000030A1318A2149
:100B9000843115302200C2004B30C100BE30890BB9
:100BA000CF2DC10BCF2DC20BCF2D00000030A431B3
:100BB00081248431003A0319DE2DDF2DF12D01301F
:100BC000A431A4248431003A0319E72DE82DF12D36
:100BD0000F302100AD00AE30AE00A2317922843159
:100BE000172E2200DA01F2302100B000AE30B10041
:100BF0005A30B2000130B3005730B4000130B500B4
:100C00009B311A23843159302100B8000130B900DA
:100C10005A30BA000130BB005730BC000130BD0073
:100C20005830BE000130BF009A3100228431A0311B
:100C3000AD2084312200C1004108D5005308C10015
:100C4000C20141082100B000220042082100B10089
:100C500022005508803192208431A131CD21843188
:100C60002200C1004108D6005A30C10041082100CD
:100C7000B00058302200C20042082100B1005430B8
:100C80002200C30043082100B20022005608C4001D
:100C900044082100B30059308831032084312200F8
:100CA0005A080319542E552ECC2EFA302000B800C5
:100CB000AE30B9000930BA00AA30BB003A30BC00EF
:100CC000A830BD003A30BE00A830BF00A3312023B9
:100CD00084310130A1318A21843115302200C200D3
:100CE0004B30C100BE30890B732EC10B732EC20B6B
:100CF000732E00000030A1318A218431153022008A
:100D0000C2004B30C100BE30890B842EC10B842E33
:100D1000C20B842E00000030A431A4248431003A98
:100D20000319932E942EA62E0130A431C7248431AA
:100D3000003A03199C2E9D2EA62E1B302100AD00DB
:100D4000AE30AE00A23179228431CC2E2200DA01FD
:100D5000FA302100B000AE30B1005A30B20001309C
:100D6000B3005730B4000130B5009B311A238431F1
:100D700059302100B8000130B9005A30BA000130B2
:100D8000BB005730BC000130BD005830BE00013000
:100D9000BF009A3100228431A031AD20843122007D
:100DA000C1004108D5005308C100C201410821001B
:100DB000B000220042082100B10022005508803115
:100DC00092208431A131CD2184312200C10041081B
:100DD000D6005A30C10041082100B000583022002E
:100DE000C20042082100B10054302200C300430871
:100DF0002100B20022005608C40044082100B300BC
:100E0000593088310320843122005A0803190A2FEF
:100E100088317F28893138292000B5012B308600A0
:100E200000308700473FB300B31F172F182F3A2F0A
:100E30002000AB09AC09AD09AE09AF09B009B10991
:100E4000B209AB0A031D372FAC0A031D372FAD0AB9
:100E5000031D372FAE0A031D372FAF0A031D372F8F
:100E6000B00A031D372FB10A031D372FB20A200025
:100E7000B501B50A2330860000308700473F2000C7
:100E8000B300B31F442F452F642F2000A309A409EA
:100E9000A509A609A709A809A909AA09A30A031D62
:100EA000642FA40A031D642FA50A031D642FA60A3C
:100EB000031D642FA70A031D642FA80A031D642FB6
:100EC000A90A031D642FAA0A20002308240425046C
:100ED00026042704280429042A040319702F712FDB
:100EE000C42FB401B40A802FA335A40DA50DA60DFF
:100EF000A70DA80DA90DAA0D0130B3003308B40742
:100F0000AA1F832F842F742F2A083202031DA22FB9
:100F100029083102031DA22F28083002031DA22F29
:100F200027082F02031DA22F26082E02031DA22F21
:100F300025082D02031DA22F24082C02031DA22F19
:100F400023082B02031CA52FA62FB62F2308AB02C4
:100F50002408AC3B2508AD3B2608AE3B2708AF3B39
:100F60002808B03B2908B13B2A08B23BAA36A90C95
:100F7000A80CA70CA60CA50CA40CA30C0130B40261
:100F8000031DC32FC42F842F35080319C82FC92F61
:100F9000E72FAB09AC09AD09AE09AF09B009B1093A
:100FA000B209AB0A031DE72FAC0A031DE72FAD0AF8
:100FB000031DE72FAE0A031DE72FAF0A031DE72F1E
:100FC000B00A031DE72FB10A031DE72FB20A200064
:100FD0002B08A3002C08A4002D08A5002E08A600AD
:100FE0002F08A7003008A8003108A9003208AA007D
:100FF00008002000A5002508A531DF25873108005D
:101000002000911108002100B8006828A031A82014
:1010100088312100B4003408B60061303606031D63
:101020001228132840283030AD00AA30AE00A2317B
:10103000792288312100380886000130870081013B
:10104000810A30088600013087008101810A320858
:101050008600013087008101810A31088600013055
:101060008700810102302100B5000430B400BA309D
:10107000890B3828B40B3828B50B382800007E2897
:10108000A530AD00A830AE00A231792288317E288B
:101090007530A731BA2788317E287630A731BA2734
:1010A00088317E287730A731BA2788312100B400F3
:1010B0003408B70077303706031D5F2860287E2884
:1010C0008D30AD00A930AE00A231792288317E2862
:1010D0003308B400B5013508003A031970287E289A
:1010E0003408613A03190628143A03194828033AC8
:1010F00003194D28013A031952287E2808000230AE
:101100002000B800AF30B9006330BA00AC30BB008B
:101110003030BC00AC30BD003A30BE00A830BF005B
:10112000A331202388310130A1318A218831063052
:101130002200C2001330C100AD30890B9D28C10BC5
:101140009D28C20B9D2800320030A1318A218831B0
:101150000B302200C2002630C1005D30890BAE2862
:10116000C10BAE28C20BAE2800320C30A4311D24B6
:101170008831200024082200D20020002308220009
:10118000D1000A302100AD00AF30AE00220052087D
:101190002100B000220051082100AF004A30A631E2
:1011A000FB26883121002E082200C60021002D08D0
:1011B0002200C5005208803AC10083304102031D5D
:1011C000E328203051020318E628E728F2282200FD
:1011D0008C1727302100AD00AE30AE00A23179224D
:1011E00088312C2902302100B000AF30B1005A30D4
:1011F000B2000130B3005730B4000130B5009B316C
:101200001A23883102302000AE00AF30AF006330C7
:10121000B000AC30B1004A30B2000130B3003A3017
:10122000B400A830B50099310621883122008C1312
:1012300059302100B8000130B9005A30BA000130ED
:10124000BB005730BC000130BD005830BE0001303B
:10125000BF009A310022883129302200C200963026
:10126000C1007F30890B3229C10B3229C20B3229D0
:10127000A031AD2088312200C1004108D5005308BB
:10128000C100C20141082100B00022004208210033
:10129000B10022005508803192208831A131CD2142
:1012A00088312200C1004108D6005A30C1004108EF
:1012B0002100B00058302200C20042082100B100D5
:1012C00054302200C30043082100B2002200560817
:1012D000C40044082100B30059308831032088310C
:1012E00022005A080319752976292F2A6130200017
:1012F000B800AE30B9006330BA00AC30BB00743017
:10130000BC00AC30BD003A30BE00A830BF00A331F5
:10131000202388310130A1318A2188310630220012
:10132000C2001330C100AD30890B9429C10B942940
:10133000C20B942900320030A1318A2188310B3050
:101340002200C2002630C1005D30890BA529C10BE7
:10135000A529C20BA52900320C30A4311D248831E7
:10136000200024082200D200200023082200D100FF
:101370000A302100AD00AF30AE002200520821003B
:10138000B000220051082100AF004A30A631FB26F0
:10139000883121002E082200C80021002D082200DB
:1013A000C7005208803AC10082304102031DDA2989
:1013B000BC3051020318DD29DE29E92922008C13F3
:1013C00052302100AD00AD30AE00A231792288311B
:1013D000232A61302100B000AE30B1005A30B20093
:1013E0000130B3005730B4000130B5009B311A23EF
:1013F000883161302000B800AE30B9006330BA00E7
:10140000AC30BB004A30BC000130BD003A30BE00F9
:10141000A830BF00A3312023883122008C17593017
:101420002100B8000130B9005A30BA000130BB00C9
:101430005730BC000130BD005830BE000130BF0045
:101440009A310022883129302200C2009630C10032
:101450007F30890B292AC10B292AC20B292AA031E6
:10146000AD2088312200C1004108D5005308C100D9
:10147000C20141082100B000220042082100B10051
:1014800022005508803192208831A131CD21883148
:101490002200C1004108D6005A30C1004108210095
:1014A000B00058302200C20042082100B100543080
:1014B0002200C30043082100B20022005608C400E5
:1014C00044082100B30059308831032088312200BC
:1014D0005A0803196C2A6D2A392B6A302000B8008B
:1014E000AE30B9003330BA00AE30BB003A30BC0089
:1014F000A830BD003A30BE00A830BF00A331202381
:1015000088310B302200C2002630C1005D30890BCB
:10151000872AC10B872AC20B872A00320130A131EA
:101520008A21883106302200C2001330C100AD305C
:10153000890B982AC10B982AC20B982A00320030D6
:10154000A1318A2188313D302200C200E130C10042
:101550003F30890BA92AC10BA92AC20BA92A003244
:101560000130A1318A21883106302200C2001330B7
:10157000C100AD30890BBA2AC10BBA2AC20BBA2AF4
:1015800000320030A1318A21883110302200C2009F
:101590003930C1000D30890BCB2AC10BCB2AC20BCD
:1015A000CB2A00320130A43181248831003A03195A
:1015B000DA2ADB2AF62A0130A431A4248831003A41
:1015C0000319E32AE42AF62A0030A431C72488311B
:1015D000003A0319EC2AED2AF62A5F302100AD000B
:1015E000AD30AE00A23179228831242B2200DA01FD
:1015F0000030A1318A2188310030A1319721883112
:101600006A302100B000AE30B1005A30B200013073
:10161000B3005730B4000130B5009B311A23883134
:1016200059302100B8000130B9005A30BA000130F9
:10163000BB005730BC000130BD005830BE00013047
:10164000BF009A310022883115302200C2004B3091
:10165000C100BE30890B2A2BC10B2A2BC20B2A2BAF
:1016600000000030A1318A2188310030A13197215A
:101670008831A031AD2088312200C1004108D50059
:101680005308C100C20141082100B00022004208F5
:101690002100B10022005508803192208831A1310B
:1016A000CD2188312200C1004108D6005A30C10046
:1016B00041082100B00058302200C2004208210039
:1016C000B10054302200C30043082100B2002200C0
:1016D0005608C40044082100B30059308831032063
:1016E000883122005A080319762B772BE42B7C30A3
:1016F0002000B800AE30B9008430BA00AC30BB0076
:101700003730BC00AD30BD004130BE00AC30BF0052
:10171000A331202388310130A1318A21883106305C
:101720002200C2001330C100AD30890B952BC10BD4
:10173000952BC20B952B00320030A1318A218831C4
:101740008B302100AD00A830AE00A2317922883163
:10175000220059089C312F2488312200C100410801
:10176000D7005708031DB52BB62BDC2BDA017C30D4
:101770002100B000AE30B1005A30B2000130B300E9
:101780005730B4000130B5009B311A2388315930ED
:101790002100B8000130B9005A30BA000130BB0056
:1017A0005730BC000130BD005830BE000130BF00D2
:1017B0009A3100228831E42B6C302100AD00AD302D
:1017C000AE00A23179228831A031AD2088312200CB
:1017D000C1004108D5005308C100C20141082100E1
:1017E000B000220042082100B100220055088031DB
:1017F00092208831A131CD2188312200C1004108D9
:10180000D6005A30C10041082100B00058302200F3
:10181000C20042082100B10054302200C300430836
:101820002100B20022005608C40044082100B30081
:10183000593088310320883122005A080319212C9D
:10184000222CA22C85302000B800AE30B9007330B5
:10185000BA00AE30BB003A30BC00A830BD003A3010
:10186000BE00A830BF00A331202388310130A13150
:101870009721883106302200C2001330C100AD30FC
:10188000890B402CC10B402CC20B402C0032003085
:10189000A131972188310B302200C2002630C100CF
:1018A0005D30890B512CC10B512CC20B512C0032D5
:1018B0000130A43181248831003A0319602C612C55
:1018C0007C2C0130A431A4248831003A0319692CFE
:1018D0006A2C7C2C0130A431C7248831003A0319CA
:1018E000722C732C7C2C79302100AD00AD30AE0011
:1018F000A23179228831A22C2200DA018530210020
:10190000B000AE30B1005A30B2000130B3005730F1
:10191000B4000130B5009B311A23883159302100C1
:10192000B8000130B9005A30BA000130BB0057305E
:10193000BC000130BD005830BE000130BF009A31FC
:1019400000228831A031AD2088312200C100410839
:10195000D5005308C100C20141082100B000220097
:1019600042082100B10022005508803192208831C0
:10197000A131CD2188312200C1004108D6005A3062
:10198000C10041082100B00058302200C2004208C6
:101990002100B10054302200C30043082100B200EE
:1019A00022005608C40044082100B3005930883191
:1019B0000320883122005A080319DF2CE02C602D07
:1019C0008E302000B800AE30B900BA30BA00AD3069
:1019D000BB003A30BC00A830BD003A30BE00A83091
:1019E000BF00A3312023883101309031012088319C
:1019F00006302200C2001330C100AD30890BFE2C2E
:101A0000C10BFE2CC20BFE2C0032003090310120A5
:101A100088310B302200C2002630C1005D30890BB6
:101A20000F2DC10B0F2DC20B0F2D00320030A43132
:101A300081248831003A03191E2D1F2D3A2D0030C4
:101A4000A431A4248831003A0319272D282D3A2DDA
:101A50000030A431C7248831003A0319302D312DCC
:101A60003A2D86302100AD00AD30AE00A231792292
:101A70008831602D2200DA018E302100B000AE30B6
:101A8000B1005A30B2000130B3005730B400013019
:101A9000B5009B311A23883159302100B80001303C
:101AA000B9005A30BA000130BB005730BC000130D9
:101AB000BD005830BE000130BF009A31002288318D
:101AC000A031AD2088312200C1004108D500530863
:101AD000C100C20141082100B000220042082100DB
:101AE000B10022005508803192208831A131CD21EA
:101AF00088312200C1004108D6005A30C100410897
:101B00002100B00058302200C20042082100B1007C
:101B100054302200C30043082100B20022005608BE
:101B2000C40044082100B3005930883103208831B3
:101B300022005A0803199D2D9E2D182E9730200043
:101B4000B800AE30B900BA30BA00AE30BB003A309F
:101B5000BC00A830BD003A30BE00A830BF00A331A1
:101B6000202388310130A131A4218831193022008D
:101B7000C2005A30C100B130890BBC2DC10BBC2D45
:101B8000C20BBC2D00320030A131A42188310B30B2
:101B90002200C2002630C1005D30890BCD2DC10B63
:101BA000CD2DC20BCD2D00320130A43181248831DE
:101BB000003A0319DC2DDD2DF82D0130A431A424C9
:101BC0008831003A0319E52DE62DF82D0130A431B6
:101BD000C7248831003A0319EE2DEF2DF82D9330EC
:101BE0002100AD00AD30AE00A23179228831182E2F
:101BF00097302100D700AE30D8005A302200C10003
:101C000041082100D90057302200C20042082100BB
:101C1000DA0059302200C30043082100DB005830AD
:101C20002200C40044082100DC0090310E208831DD
:101C3000A031AD2088312200C1004108D5005308F1
:101C4000C100C20141082100B00022004208210069
:101C5000B10022005508803192208831A131CD2178
:101C600088312200C1004108D6005A30C100410825
:101C70002100B00058302200C20042082100B1000B
:101C800054302200C30043082100B200220056084D
:101C9000C40044082100B300593088310320883142
:101CA00022005A080319552E562ED62EA030200099
:101CB000B800AE30B900CA30BA00AE30BB003A301E
:101CC000BC00A830BD003A30BE00A830BF00A33130
:101CD000202388310130A131B1218831193022000F
:101CE000C2005A30C100B130890B742EC10B742E62
:101CF000C20B742E00320030A131B12188310B307B
:101D00002200C2002630C1005D30890B852EC10B38
:101D1000852EC20B852E00320030A43181248831FB
:101D2000003A0319942E952EB02E0030A431A4242D
:101D30008831003A03199D2E9E2EB02E0030A4311A
:101D4000C7248831003A0319A62EA72EB02EA03042
:101D50002100AD00AD30AE00A23179228831D62EFF
:101D60002200DA01A0302100B000AE30B1005A30BC
:101D7000B2000130B3005730B4000130B5009B31E0
:101D80001A23883159302100B8000130B9005A3087
:101D9000BA000130BB005730BC000130BD005830E4
:101DA000BE000130BF009A3100228831A031AD2041
:101DB00088312200C1004108D5005308C100C2018A
:101DC00041082100B000220042082100B100220099
:101DD0005508803192208831A131CD2188312200EF
:101DE000C1004108D6005A30C10041082100B000AE
:101DF00058302200C20042082100B10054302200B5
:101E0000C30043082100B20022005608C400440861
:101E10002100B300593088310320883122005A084C
:101E20000319132F142F732FA9302000B800AE30E0
:101E3000B900EE30BA00AC30BB004B30BC00AE3065
:101E4000BD004130BE00AC30BF00A331202388313B
:101E5000A331DF238831220059089C312F24883197
:101E60002200C1004108D7005708031D382F392F21
:101E70006B2FDA01A9302100B000AE30B1005A302A
:101E8000B2000130B3005730B4000130B5009B31CF
:101E90001A23883159302100B8000130B9005A3076
:101EA000BA000130BB005730BC000130BD005830D3
:101EB000BE000130BF009A31002288312930220053
:101EC000C2009630C1007F30890B642FC10B642F94
:101ED000C20B642F732FAD302100AD00AD30AE00CA
:101EE000A23179228831A031AD2088312200C10091
:101EF0004108D5005308C100C20141082100B000CB
:101F0000220042082100B1002200550880319220B1
:101F10008831A131CD2188312200C1004108D6008D
:101F20005A30C10041082100B00058302200C200E0
:101F300042082100B10054302200C30043082100B0
:101F4000B20022005608C40044082100B3005930F2
:101F500088310320883122005A080319B02FB22F8C
:101F60009331112B3F302000B800AE30B90025303E
:101F7000BA00AB30BB002930BC00AD30BD00CC3066
:101F8000BE00A930BF00A331202388310130A13128
:101F9000632188310030A13156218831A4313E249B
:101FA000883159302100B0000130B1005A30B20000
:101FB0000130B3009A31B32288315A302100B00089
:101FC0000130B1005730B2000130B3005930B400D5
:101FD0000130B5005830B6000130B7009831BC2050
:101FE000883129302200C2009630C1007F30890B31
:101FF000F72FC10BF72FC20BF72FB02F80314A28D4
:1020000008342000A30023080319072808280B28F8
:1020100022008C150D2822008C110800203086002B
:10202000023087002A3084000130850014302100FE
:10203000DD0016001A00DD0B1928CD3086000130B6
:10204000870020308400013085000A30DD00160052
:102050001A00DD0B27280130A131702190310130A9
:10206000A1317D2190310030A131632190312100D7
:1020700058082000AF00210057082000AE001C3097
:10208000B000AB30B100F830B200AA30B300B730C6
:10209000B400A930B5009931062190312A302000D2
:1020A000B3000130B400210058082000B600210020
:1020B00057082000B500A2318F229031200034084B
:1020C0002200BF00200033082200BE003F0820008D
:1020D000B40022003E082000B3002030B5000130DB
:1020E000B600A2318F229031200034082100AE00CA
:1020F000200033082100AD00A231792290319831BF
:102100007420903121005B088600013087000108AF
:102110009C312F2490312100DD005D082200C00099
:102120000B302100DE002630DD005D30890B962863
:10213000DD0B9628DE0B962800322200400803199A
:10214000A228A328D728210059088600013087003B
:1021500081015A08860001308700810197302000F4
:10216000AE00AE30AF002130B000AB30B1000A306D
:10217000B200AB30B300CC30B400A930B500993117
:1021800006219031DB302100B8000030B900D93091
:10219000BA000030BB00DA30BC000030BD00DC30DB
:1021A000BE000030BF009A31002290315F29973085
:1021B0002000AE00AE30AF00BA30B000AE30B1009B
:1021C0003A30B200A830B3003A30B400A830B500BD
:1021D0009931062190310030A131702190310130C8
:1021E000A1317D2190310030A13163219031013046
:1021F000A131A421903119302100DE005A30DD00D8
:10220000B130890B0129DD0B0129DE0B01290032D8
:102210000030A131A421903115302100DE004B3077
:10222000DD00BE30890B1229DD0B1229DE0B1229CD
:1022300000000130A43181249031003A0319212992
:10224000222949290130A431A4249031003A0319EC
:102250002A292B2949290130A431C7249031003A79
:10226000031933293429492997302000AE00AE30B4
:10227000AF00BA30B000AE30B1009430B200AC3034
:10228000B3001730B400AC30B5009931062190315D
:102290005F292100590886000130870081019730AD
:1022A000B000AE30B100D930B2000030B300DA3047
:1022B000B4000030B5009B311A239031C2280800C9
:1022C0002000CA003F08D3004008D4004108D500D0
:1022D0004208D6004308D7004408D8004508D90072
:1022E0004608DA005330860000308700473FC700B9
:1022F000C71B7B297D2901307E2900302000C800C2
:10230000C9014808D1004908D200510852040319F4
:102310008A298B29A929D309D409D509D609D7092E
:10232000D809D909DA09D30A031DA929D40A031D3A
:10233000A929D50A031DA929D60A031DA929D70A47
:10234000031DA929D80A031DA929D90A031DA929F2
:10235000DA0A2100E21BAD29AE29B229FD30E305DE
:10236000FF30E4056208803A2000C7008030470251
:10237000031DBD290130210061020318C029C129B4
:10238000C72901302000CD000030CE00CF29210028
:1023900062082000CE00210061082000CD0022004C
:1023A00064082000D000220063082000CF005108FC
:1023B0005204031DDC29DD29E2292100631DE129E6
:1023C000E229E729FF302000CF07FF30D03D1F3042
:1023D0002000DB000030DC002400E701582AFF3039
:1023E0002000DB07FF30DC3D0A30A300A401A5017B
:1023F000A601A701A801A901AA015308AB0054082E
:10240000AC005508AD005608AE005708AF0058089C
:10241000B0005908B1005A08B20087310C27913139
:1024200020002408B7002308B600A331A42391316B
:1024300020003608303EC7005B08483E8600023068
:10244000870047088100FF30CD07FF30CE3DFF30C9
:10245000CF07FF30D03D0A30A300A401A501A6019B
:10246000A701A801A901AA015308AB005408AC00B8
:102470005508AD005608AE005708AF005808B00028
:102480005908B1005A08B2009C31C424913120008F
:102490002308D3002408D4002508D5002608D60038
:1024A0002708D7002808D8002908D9002A08DA0008
:1024B00020005C08803AC70080304702031D622A72
:1024C00001305B02031C652A662A932A2000530808
:1024D0005404550456045704580459045A04031D5F
:1024E000722A732AEF294E08803AC70080304702CB
:1024F000031D7C2A01304D0203187F2A802AEF2910
:1025000020005008803AC70080304702031D8A2A05
:1025100001304F02031C8D2A8E2A932A2100E318D2
:10252000922A932AEF29200051085204031D992A68
:102530009A2A9F2A2100631D9E2A9F2ABC2AFF30C7
:102540002000DB07FF30DC3D51085204031DA92A9F
:10255000AA2AAF2A2B30CB000030CC00B32A2D3072
:10256000CB000030CC004B08C7005B08483E86001B
:10257000023087004708810020005B08483EC70002
:102580004708B6005008B8004F08B7004A089A310B
:102590005722913120003708C0003608BF000800DC
:1025A000A131EC2192318B170B172200DA01D701F0
:1025B000D901CF01D801D80AC901C90AD401D30170
:1025C00015302200C2004B30C100BE30890BE62A14
:1025D000C10BE62AC20BE62A000020008E1AF12A5F
:1025E000F22AF82A2200C901A131BE219231FB2A28
:1025F000A1312621923120000E1CFF2A002B042B32
:102600002200D001D00A062B2200D00120008E1813
:102610000A2B0B2B0F2B2200CF01CF0A112B2200EC
:10262000CF0143302000B800AA30B9001B30BA00F7
:10263000AD30BB004030BC00AB30BD00FD30BE0053
:10264000AC30BF00A3312023923103302200C200FE
:102650000830C1007730890B2B2BC10B2B2BC20B01
:102660002B2B43302000B800AA30B900DF30BA006D
:10267000AC30BB004030BC00AB30BD00FD30BE0014
:10268000AC30BF00A3310723923103302200C200D7
:102690000830C1007730890B4B2BC10B4B2BC20B81
:1026A0004B2B22008C136F2B5A30C10041082100A4
:1026B000B50058302200C20042082100B600543054
:1026C0002200C30043082100B70053302200C40099
:1026D00044082100B8005930953145259231220037
:1026E0005A080319742B752B542BD801A431EA24F2
:1026F00092312200DA01DA0A0030A13163219231ED
:102700000030A131702192310130A1317D2192310F
:1027100003302200C2000830C1007730890B8E2BB5
:10272000C10B8E2BC20B8E2B43302000B800AA3079
:10273000B9000C30BA00AD30BB004030BC00AB304B
:10274000BD00FD30BE00AC30BF00A3310723923185
:1027500003302200C2000830C1007730890BAE2B55
:10276000C10BAE2BC20BAE2BB2302000B800AE3086
:10277000B9005230BA00AC30BB003A30BC00A830CF
:10278000BD003A30BE00A830BF00A33120239231F3
:102790000130A1318A2192310130A131972192314A
:1027A00015302200C2004B30C100BE30890BD62B41
:1027B000C10BD62BC20BD62B00000130A131562104
:1027C000923129302200C2009630C1007F30890B3F
:1027D000E72BC10BE72BC20BE72B0130A43181247F
:1027E0009231003A0319F52BF62B112C0130A4314C
:1027F000A4249231003A0319FE2BFF2B112C013037
:10280000A431C7249231003A0319072C082C112C4B
:10281000C7302100AD00AD30AE00A2317922923137
:102820003F2C2200DA010030A1318A2192310030A0
:10283000A13197219231B2302100B000AE30B10009
:102840005A30B2000130B3005730B4000130B50047
:102850009B311A23923159302100B8000130B90060
:102860005A30BA000130BB005730BC000130BD0007
:102870005830BE000130BF009A3100229231A031A1
:10288000AD2092312200C1004108D5005308C1009B
:10289000C20141082100B000220042082100B1001D
:1028A00022005508803192209231A131CD21923100
:1028B0002200C1004108D6005A30C1004108210061
:1028C000B00058302200C20042082100B10054304C
:1028D0002200C30043082100B20022005608C400B1
:1028E00044082100B300593088310320923115305B
:1028F0002200C2004B30C100BE30890B7D2CC10BC1
:102900007D2CC20B7D2C00000030A1318A21923138
:102910000030A1319721923122005A080319912CDD
:10292000922C052DC2302000B800AE30B9005230D4
:10293000BA00AB30BB003A30BC00A830BD003A3022
:10294000BE00A830BF00A331202392310030A13156
:102950008A2192310030A131972192310B3022002F
:10296000C2002630C1005D30890BB42CC10BB42CE1
:10297000C20BB42C00320130A43181249231003AD0
:10298000031DC32CC42CDF2C0130A431A4249231AC
:10299000003A031DCC2CCD2CDF2C0130A431C724F0
:1029A0009231003A031DD52CD62CDF2CD3302100D8
:1029B000AD00AD30AE00A23179229231052D22005A
:1029C000DA01C2302100B000AE30B1005A30B2009E
:1029D0000130B3005730B4000130B5009B311A23E9
:1029E000923159302100B8000130B9005A30BA0094
:1029F0000130BB005730BC000130BD005830BE0074
:102A00000130BF009A3100229231A031AD209231C5
:102A10002200C1004108D5005308C100C20141088D
:102A20002100B000220042082100B1002200550818
:102A3000803192209231A131CD2192312200C1000A
:102A40004108D6005A30C10041082100B00058307A
:102A50002200C20042082100B10054302200C3000D
:102A600043082100B20022005608C4004408210097
:102A7000B300593088310320923122005A080319DB
:102A8000432D9D31C92D9E313C2E2100C200C10134
:102A9000F92F20000F194D2D4E2D692D7130210079
:102AA000AD00A830AE00A231792295312100C101DC
:102AB000C10A42088600013087008101360886007D
:102AC00001308700810135088600013087008101CF
:102AD000810A20006A0803196E2D6F2DD32FA631AD
:102AE000982695312100B9003908BB00A82F0100B4
:102AF00045302100AD00AD30AE00A23179229531D4
:102B0000210042088600013087008101810A3508D2
:102B10008600013087008101810A36088600013075
:102B20008700810102302100BA000430B900BA30B8
:102B3000890B982DB90B982DBA0B982D0000210008
:102B4000C101C10AD32F5730AD00A830AE00A23169
:102B50007922953143302000AE00AA30AF003A30E0
:102B6000B000A830B100A230B200A930B3003A30B2
:102B7000B400A830B50099310621953121004208F2
:102B80008600013087008101810A02302100BA00ED
:102B90000430B900BA30890BCB2DB90BCB2DBA0B51
:102BA000CB2D00002100C101C10A3508860001308B
:102BB0008700810122008C13D32F3B30AD00A83059
:102BC000AE00A2317922953143302000AE00AA3008
:102BD000AF003A30B000A830B1003230B200AB30B4
:102BE000B3003A30B400A830B500993106219531D0
:102BF000210042088600013087008101810A3508E2
:102C00008600013087008101360886000130870088
:102C1000810102302100BA000430B900BA30890BBA
:102C20000F2EB90B0F2EBA0B0F2E00002100C10181
:102C3000C10A22008C17D32F1F30AD00A830AE0080
:102C4000A2317922953143302000AE00AA30AF0086
:102C50003A30B000A830B1002E30B200AB30B30033
:102C60003A30B400A830B5009931062195312100E1
:102C700042088600013087008101810A023021006C
:102C8000BA000430B900BA30890B442EB90B442E77
:102C9000BA0B442E00002100C101C10A350886008C
:102CA00001308700810122008C13D32FBE30AD008C
:102CB000A830AE00A2317922953143302000AE0019
:102CC000AA30AF003A30B000A830B100A730B2004F
:102CD000AC30B3003A30B400A830B50099310621C9
:102CE0009531210042088600013087008101810A68
:102CF00035088600013087008101360886000130E2
:102D000087008101810A02302100BA000430B90035
:102D1000BA30890B892EB90B892EBA0B892E000087
:102D20002100C101C10A22008C17D32FD730AD007A
:102D3000A830AE00A2317922953143302000AE0098
:102D4000AA30AF003A30B000A830B100A330B200D2
:102D5000AC30B3003A30B400A830B5009931062148
:102D60009531210042088600013087008101810AE7
:102D70003508860001308700810136088600013061
:102D800087008101810A02302100BA000430B900B5
:102D9000BA30890BC92EB90BC92EBA0BC92E000047
:102DA0002100C101C10A22008C13D32FA031A82019
:102DB00095312100B9003908BC0061303C06031D83
:102DC000E22EE32E262F3030AD00AA30AE00A23125
:102DD0007922953121004208860001308700810167
:102DE000810A350886000130870081013708860096
:102DF000013087008101810A360886000130870092
:102E0000810102302100BA000430B900BA30890BC8
:102E1000072FB90B072FBA0B072F00002100C101A4
:102E2000C10AB2302000B800AE30B9005230BA004A
:102E3000AC30BB003A30BC00A830BD003A30BE0018
:102E4000A830BF00A33107239531D32FA530AD00A3
:102E5000A830AE00A231792295319F2DA031A32058
:102E600095312100B9003908BD0075303D06031DBC
:102E70003A2F3B2F552F0730AD00A930AE00A231BD
:102E800079229531210042088600013087008101B6
:102E9000810A3508860001308700810137088600E5
:102EA000013087008101810A8D2DA530AD00A83049
:102EB000AE00A231792295319F2DA0319E2095310F
:102EC0002100B9003908BE0076303E06031D692F87
:102ED0006A2F722F1E30AD00A930AE00A2317922C8
:102EE0009531422FA530AD00A830AE00A231792235
:102EF00095319F2DA031992095312100B9003908D5
:102F0000BF0077303F06031D862F872FA02FEF309D
:102F1000AD00A830AE00A2317922953121004208DF
:102F20008600013087008101810A35088600013062
:102F300087008101370886000130870081018D2DCF
:102F4000A530AD00A830AE00A231792295319F2D79
:102F50003B08B900BA013A08003A0319B02FD32F41
:102F60003908303A0319772D013A0319782D043ABC
:102F70000319962E033A0319A32D013A0319DD2DE7
:102F80000F3A0319562E013A03191C2E583A031909
:102F9000D62E143A03192E2F033A03195D2F013A46
:102FA00003197A2FD32F21003708860001308700BC
:102FB00001080319DC2FDD2FF92F3F30A731BA2785
:102FC00095312100B9003908C0003808B00001303F
:102FD000B100400880319220953105302100BA00BF
:102FE0000F30B900F130890BF32FB90BF32FBA0B67
:102FF000F32F210041080319FE2FFF2F492D080050
:103000002000A401A50122000D1606302000A30017
:103010003030890B0928A30B0928000022000D126B
:1030200006302000A3003030890B1428A30B14288D
:10303000000001302000A4070030A53D2508803A9B
:10304000A30080302302031D272832302402031CF2
:103050002A282B2803280800210091123330200051
:10306000A3002730A400A1310B21983121001112B7
:103070005F302000A3002430A400A1311421983136
:10308000083023009F0090309D0024309E00403087
:103090009B0003309C00F3302000A3002F30A400DD
:1030A000A031F920983153302000A3002030A40033
:1030B000A131022198314F302000A3002030A4001C
:1030C000A031F02098312100EB01FD01ED01083025
:1030D0002000A50025082100EC002000EC01EB01F8
:1030E000EA012100911608002000A801A901200092
:1030F000AA01AB019831002098310B302000A700C5
:103100002630A6005D30890B8328A60B8328A70BE9
:103110008328003201302000AA070030AB3D2B0885
:10312000803AA60080302602031D982804302A0227
:10313000031C9B289C287A280B302000A7002630EF
:10314000A6005D30890BA228A60BA228A70BA228F7
:10315000003201302000A8070030A93D2908803A3C
:10316000A60080302602031DB72804302802031C65
:10317000BA28BB28772808002100340886003508C3
:1031800087000108031DC528C628CD286330AD007F
:10319000A930AE00A2317922983121003008860092
:1031A00031088700810132088600330887008101D9
:1031B0003408860035088700810136088600370804
:1031C0008700013081000030A13163219831003047
:1031D000A131702198310030A1317D21983100302A
:1031E000A131562198310030A1318A219831003027
:1031F000A131972198310030A131A42198310030BC
:10320000A131B121983122008C130800A1311D2178
:1032100099310630A231D622993102302000B70010
:103220000430B600BA30890B1329B60B1329B70B3B
:10323000132900002000A901A90A0130A63169263E
:10324000993120002F08AA002E08A900A331FE23DF
:1032500099312000A901A90A0230A63169269931C5
:1032600020003108AA003008A900A331FE239931BB
:103270002000A901A90A0330A6316926993120004E
:103280003308AA003208A900A331FE239931200097
:10329000A901A90A0430A631692699312000350810
:1032A000AA003408A900A331FE23993108002000A8
:1032B000280803195C295D2962292808031D612952
:1032C0006229672926088731F9279931A829280812
:1032D000033E860087011600010403197029712935
:1032E0008E292808033E86008701403FA900413F00
:1032F000AA00280A86008701403FAB00413FAC008E
:103300002C08803AAD002A08803A2D02031D8A2934
:1033100029082B0203188D298E29A82920002608A8
:10332000A900280886008701280A84008501000872
:103330000107AA002A0886000130870029088100B9
:10334000280A860087010130810741310318810A6C
:103350000800A031B2209931003A0319B029B129EF
:10336000E229BE29A03171209931FF29A0317620B0
:103370009931FF29A03180209931FF2923002F089E
:10338000FA007A08F9000630A03E86000130870076
:10339000413F8A00403F0A009931FB00FC017C0854
:1033A000003A0319D429BA297B08013A0319BA292A
:1033B000033A0319B229013A0319B629073A031946
:1033C000BA29BA2923003C101730A03E86000130EC
:1033D0008700403F84008501810A0008A0316720F2
:1033E000993101302300B8020030B93B3808390464
:1033F000031DFB29FC29FE290630FF2903300800A4
:10340000210038088600390887000108C000C10182
:103410004008B0004108B1003A0886003B08870028
:103420000108C200C3014208B2004308B3009A3148
:10343000B3229A3121003A0886003B088700010830
:10344000C000C1014008B0004108B1003C0886003E
:103450003D0887000108C200C3014208B2004308CA
:10346000B30038088600390887000108C400C50188
:103470004408B4004508B5003E0886003F088700B0
:103480000108C600C7014608B6004708B7009831D2
:10349000BC209A3129302100C1009630C0007F3015
:1034A000890B502AC00B502AC10B502A080020005B
:1034B000BE002100631C5D2A5E2A672A20003E08A8
:1034C000B9003908AE003608A5315F259A312000D1
:1034D000B81B6B2A6C2A712A3808BD003708BC005B
:1034E000732ABC01BD01BA01BB01872A203020002C
:1034F000A6000030A7003E08B9003908A80099319D
:1035000057219A3101302000BA070030BB3D3B08FB
:10351000803AB9003D08803A3902031D912A3C08DF
:103520003A02031C942A952A762A21006318992AC4
:103530009A2AA32A20003E08B9003908AE003608AE
:10354000A5315F259A3120003608A3000230A4007F
:10355000A33139239A3120003C082307B6003D08E7
:10356000243DB70008002100B701132B20000F19DC
:10357000BA2ABB2AD02A63302100AD00A930AE00A0
:10358000A23179229A312100B701B70A30088600AA
:1035900031088700810132088600330887008101E5
:1035A00020006A080319D52AD62A132BA63198269B
:1035B0009A312100B4003408B600032B0100132B0C
:1035C0001D30AD00AA30AE00A23179229A3121001F
:1035D00030088600310887008101320886003308F0
:1035E0008700810102302100B5000430B400BA30F8
:1035F000890BF82AB40BF82AB50BF82A0000210031
:10360000B701B70A132B3608B400B5013508003AE4
:1036100003190B2B132B3408303A0319DE2A043A12
:103620000319E02A132B210037080319182B192B33
:10363000B62A08003430860002308700C13084008A
:103640000030850014302100B60016001A00B60BB9
:10365000252BD730860001308700B730840000303A
:1036600085000A30B60016001A00B60B332B013065
:10367000A13170219B310130A1317D219B3100307E
:10368000A13163219B310030A13156219B312100B2
:1036900031082000AF00210030082000AE001C30AF
:1036A000B000AB30B100CC30B200A930B3003A303A
:1036B000B400A830B500993106219B31C1302000FB
:1036C000B3000030B400210031082000B600210012
:1036D00030082000B500A2318F229B312000340831
:1036E0002100D600200033082100D5005608200014
:1036F000B400210055082000B300B730B5000030F9
:10370000B600A2318F229B31200034082100AE0088
:10371000200033082100AD00A23179229B3198317D
:1037200074209B3120000F1D962B972B922B21008C
:103730003208860033088700810134088600350886
:103740008700810108002000AB002B08A900290890
:103750002100E9000030A23164229B319C3020001E
:10376000A900D730890BB22BA90BB22B0330A231A1
:10377000D6229B311A302000A900F830890BBE2BCD
:10378000A90BBE2B00000330A231D6229B311A3088
:103790002000A900F830890BCB2BA90BCB2B000004
:1037A0000330A231D6229B311A302000A900F83014
:1037B000890BD82BA90BD82B00000230A231D622BE
:1037C0009B311A302000A900F830890BE52BA90B9A
:1037D000E52B00002830A231D6229B310230200098
:1037E000AA000430A900BA30890BF42BA90BF42BE2
:1037F000AA0BF42B00000C30A231D6229B310230F0
:103800002000AA000430A900BA30890B052CA90BAE
:10381000052CAA0B052C00000130A231D6229B31C9
:1038200002302000AA000430A900BA30890B162CFF
:10383000A90B162CAA0B162C00000630A231D6229A
:103840009B3102302000AA000430A900BA30890B55
:10385000272CA90B272CAA0B272C000008002000DE
:10386000A800A901AA0128080319372C382C9B2C81
:10387000952C6A0803193D2C3E2C952CA6319826D0
:103880009C312000A5002508A7007F2C01000230F4
:103890002000A6000430A500BA30890B4D2CA50BE2
:1038A0004D2CA60B4D2C00002000A901A90AAA014D
:1038B000AA0A952C02302000A6000430A500BA30D8
:1038C000890B602CA50B602CA60B602C000020003F
:1038D000A901572C02302000A6000430A500BA3000
:1038E000890B702CA50B702CA60B702C00002000EF
:1038F000A901A90AAA01AA0A22008C13952C27085B
:10390000A500A6012608003A0319872C952C250846
:10391000303A0319462C023A0319472C013A03198D
:103920005A2C0A3A03196A2C952C20002A080319EC
:103930009A2C9B2C392C2808031D9F2CA02CC22CC0
:10394000BC2C0130A3316E239C31003A0319A92C01
:10395000AA2CAE2C2000A901AA01AA0A0130A33189
:1039600089239C31003A0319B62CB72CBC2C2000BB
:10397000A901A90AAA01AA0A20002A080319C12C30
:10398000C22CA12C290808002000B5012330860094
:1039900000308700473FB300B31FCF2CD02CF22C50
:1039A0002000A309A409A509A609A709A809A9092E
:1039B000AA09A30A031DEF2CA40A031DEF2CA50AD4
:1039C000031DEF2CA60A031DEF2CA70A031DEF2CE5
:1039D000A80A031DEF2CA90A031DEF2CAA0A200038
:1039E000B501B50A2B30860000308700473F200024
:1039F000B300B31FFC2CFD2C212D2000AB09AC091A
:103A0000AD09AE09AF09B009B109B209AB0A031D8E
:103A10001C2DAC0A031D1C2DAD0A031D1C2DAE0A66
:103A2000031D1C2DAF0A031D1C2DB00A031D1C2DE8
:103A3000B10A031D1C2DB20A01302000B300330867
:103A4000B506363086000030870008302000B3000D
:103A500000301E00B30B292D23082404250426045E
:103A60002704280429042A040319372D382D942DFE
:103A7000B401B40A472DA335A40DA50DA60DA70DBD
:103A8000A80DA90DAA0D0130B3003308B407AA1F71
:103A90004A2D4B2D3B2DB635B70DB80DB90DBA0DCE
:103AA000BB0DBC0DBD0D2A083202031D712D290866
:103AB0003102031D712D28083002031D712D2708C6
:103AC0002F02031D712D26082E02031D712D2508BE
:103AD0002D02031D712D24082C02031D712D2308B6
:103AE0002B02031C742D752D862D2308AB02240890
:103AF000AC3B2508AD3B2608AE3B2708AF3B28086A
:103B0000B03B2908B13B2A08B23B3614AA36A90CAF
:103B1000A80CA70CA60CA50CA40CA30C0130B40295
:103B2000031D932D942D4B2D35080319982D992D98
:103B3000B72DB609B709B809B909BA09BB09BC0953
:103B4000BD09B60A031DB72DB70A031DB72DB80A64
:103B5000031DB72DB90A031DB72DBA0A031DB72DD2
:103B6000BB0A031DB72DBC0A031DB72DBD0A2000DB
:103B70003608A3003708A4003808A5003908A600B5
:103B80003A08A7003B08A8003C08A9003D08AA0085
:103B90000800D2302000B800AE30B900B230BA0010
:103BA000AC30BB003A30BC00A830BD003A30BE009B
:103BB000A830BF00A33120239D310130A1318A21DB
:103BC0009D3106302200C2001330C100AD30890B98
:103BD000E72DC10BE72DC20BE72D00320030A131DC
:103BE0008A219D31220050080319F72DF82D3C2E13
:103BF00000302100AD00A830AE00A23179229D3105
:103C0000220059089C312F249D312200C100410817
:103C1000D7005708031D0D2E0E2E342EDA01D23098
:103C20002100B000AE30B1005A30B2000130B30014
:103C30005730B4000130B5009B311A239D31593003
:103C40002100B8000130B9005A30BA000130BB0081
:103C50005730BC000130BD005830BE000130BF00FD
:103C60009A3100229D313C2EDF302100AD00AD3075
:103C7000AE00A23179229D31A031AD209D312200CC
:103C8000C1004108D5005308C100C201410821000C
:103C9000B000220042082100B10022005508803106
:103CA00092209D31A131CD219D312200C1004108DA
:103CB000D6005A30C10041082100B000583022001F
:103CC000C20042082100B10054302200C300430862
:103CD0002100B20022005608C40044082100B300AD
:103CE0005930883103209D3122005A080319792E5A
:103CF0007B2E84310E2CDA302000B800AE30B900B3
:103D0000D030BA00AC30BB003A30BC00A830BD00A7
:103D10003A30BE00A830BF00A33120239D310130CE
:103D2000A1318A219D3106302200C2001330C1002A
:103D3000AD30890B992EC10B992EC20B992E0032F2
:103D40000030A1318A219D31220050080319A92E8B
:103D5000AA2E792E59089C312F249D312200C100B2
:103D60004108D7005708031DB62EB82E8431062C03
:103D7000DA01DA302100B000AE30B1005A30B200C2
:103D80000130B3005730B4000130B5009B311A2325
:103D90009D3159302100B8000130B9005A30BA00C5
:103DA0000130BB005730BC000130BD005830BE00B0
:103DB0000130BF009A3100229D31792E2100A900E7
:103DC00020005D0886008701403FDF00413FE000A2
:103DD0005F088400600885001200253A031DF12E5B
:103DE000F22EDA2F5D08860087010130810741310C
:103DF0000318810A2200E301E4012100E301E40148
:103E0000FF30E100FF30E20020005D0886008701FE
:103E1000403FDF00413FE0005F088400600885000C
:103E20001200643A0319152F162F272F5D088600FC
:103E30008701403FDF00413FE0005F0884006008E9
:103E400085001200693A031D262F272F752F5D0864
:103E5000860087010130810741310318810A5E081D
:103E60008600870101088400850102308107003F38
:103E7000DF00013FE0005F082100A0002000600893
:103E80002100A100890D893B8909A200A300A4009B
:103E9000A500A600A70020082000BF0021002108DF
:103EA0002000C000210022082000C10021002308BA
:103EB0002000C200210024082000C30021002508A2
:103EC0002000C400210026082000C500210027088A
:103ED0002000C60021002908913160219E31200078
:103EE0004008DE003F08DD00FF2F5D0886008701E7
:103EF000403FDF00413FE0005F088400600885002C
:103F000012006E3A031D852F862FA52F5D088600AF
:103F100087010130810741310318810A5E0886005C
:103F20008701403F84008501810A0008DF005F08A7
:103F30002100A8002808860087015F08C03F6008AC
:103F4000C13F2000DD01DE01FF2F5D0886008701F3
:103F5000403FDF00413FE0005F08840060088500CB
:103F60001200253A031DB52FB62FD12F5D0886000C
:103F700087010130810741310318810A2530A600ED
:103F80000030A700210029082000DF005F08A800FA
:103F9000993157219E3101302000DD000030DE00D4
:103FA000FF2F5D088600870101308107413103182A
:103FB000810AA12F5D0886008701403FDF00413F55
:103FC000E0005F088400600885000008E100E2016D
:103FD0006108A6006208A700210029082000E3006C
:103FE0006308A800993157219E3120005D088600A2
:103FF00087010130810741310318810ACB2F080066
:104000006C342034E7342034D7342034A9341934C4
:1040100074342734D03420343A3426347134203484
:10402000763420347B34203480342034853420347A
:104030008A3420348F34203494342034B2342534FC
:104040002D343E34203454344534533454342034E5
:1040500043344F344E3446344F3452344D34453467
:1040600020342D34203441345434543445344E34C7
:104070005434453420344134433451345534493474
:104080005434543445344D3445344E3454340D3462
:104090000A34003401300800200091150800A331D3
:1040A0005323A031080023001D121D160800240010
:1040B0009616161608002400961216160800A63149
:1040C0000C26A03108001630210097000800F000EF
:1040D00070082400910008002300BC10BB010E30C2
:1040E0000800AF31F427A03101300800AF31F427C8
:1040F000A03102300800AF31F427A03101300800B0
:10410000AF31F727A03100300800A0315B20A0318B
:1041100005300800A0315720A0310A300800A03136
:104120005720A031093008002300BC10BB010E301D
:1041300008007730A731BA27A03108007630A731C0
:10414000BA27A03108007530A731BA27A03108007E
:104150006130A731BA27A03108003F30A731BA2714
:10416000A03108002400160E890C890C01390800C2
:10417000A1313D21A031240016140800A1313D21B8
:10418000A031240016150800640080010131890B5C
:10419000C5280034FE0012001E00FE0BCB280034A0
:1041A00023003C10AF31FA27A0310430080023006F
:1041B0003C143635A0316720A03103300800F030C0
:1041C00021009E009B019C0101309D0008002300FE
:1041D0003C140314360DA0316720A03105300800CF
:1041E000200024082200E600200023082200E50029
:1041F0000800200024082200EA00200023082200F2
:10420000E9000800200024082200E800200023081C
:104210002200E7000800200024082200EC00200013
:1042200023082200EB000800200024082100E600FB
:10423000200023082100E50008000130A231D62229
:10424000A1313530890B22290000080028302400D4
:104250009500960194012730920021008E150E16CC
:104260000800703021009900980122009601210079
:104270001A1F3B293C293729080024001419412919
:1042800042293D2916081F39031D472948293D2980
:1042900008007608F1007508F0007708F800780843
:1042A000F2000030A5318825A13108002000A300CC
:1042B000230803195C295D29602922000C14622956
:1042C00022000C1008002000A3002308031969290C
:1042D0006A296D29220010146F292200101008008D
:1042E0002000A30023080319762977297A292200C0
:1042F00090147C292200901008002000A3002308BD
:10430000031983298429872922001015892922006D
:10431000101108002000A3002308031990299129F7
:10432000942922008C14962922008C100800200069
:10433000A300230803199D299E29A12922000C15F9
:10434000A32922000C1108002000A3002308031950
:10435000AA29AB29AE2922000C16B02922000C1282
:1043600008002000A30023080319B729B829BB2996
:1043700022008C16BD2922008C1208003230240045
:1043800092003630950096018030940021008E1501
:104390000E168B170B179115080020006A080319D9
:1043A000D229D329DA29A6319826A1312000A500E7
:1043B0002508A60026080800F3002300BC1DE129FB
:1043C000E229EB297308F2007208B7007108B900FE
:1043D0007008B800BC110800A331C023A131A1317D
:1043E0003121A131A0316320A131A031DF20A131E1
:1043F00098312C20A13108002000A300A1313D21DB
:10440000A13120002308240091002000911D092AD9
:104410000A2A052A911108000230F0000030F1004C
:104420007908A131DC21A2310030F500F600F70156
:10443000A1314921A231043008000130F0000030E0
:10444000F1007908A131DC21A2310030F500F6003D
:10445000F701A1314921A231023008000230F000F9
:104460000030F1007908A131DC21A2310030F500E3
:10447000F600F701A1314921A231023008000130D4
:10448000F0000030F1007908A131DC21A2310030C8
:10449000F500F600F701A1314921A23104300800EE
:1044A0000D340A3400340034003400340034003455
:1044B000003400340D340A34003400340034003445
:1044C00000340034003400342000A400A031B820AF
:1044D000A23121006908A131FC21A2312000240869
:1044E00021006E04A131FC21A231A031BE20A231F5
:1044F0000800AF302000E90069082100AF002E0855
:104500002000E50021002D082000E400AF30E90084
:104510006908E6000030A631C726A2310800200055
:104520003408A4003308A300A3313923A2312000AA
:1045300023083307A7002408343DA8003608AA0042
:104540003508A900A5311025A23108007908860098
:104550008701403FF000413FF1007908023E8600AC
:1045600087010108A131DC21A2310030F500F600FD
:10457000F701A1314921A231023008002000A60034
:1045800021006A082000A5002508A6042608043892
:10459000A2316422A23120002608FB39A231642214
:1045A000A2314230890BD22A003208002000A80034
:1045B0002100EA0120002808F039A231BE22A231F0
:1045C00020002808A7000330A735FF3E031DE42A7A
:1045D0002735F039A231BE22A23108002000A80000
:1045E0002100EA01EA0A20002808F039A231BE229F
:1045F000A23120002808A7000330A735FF3E031D85
:10460000FD2A2735F039A231BE22A23108004630FA
:104610009B31A323A33120003908AF003808AE0036
:104620003B08B1003A08B0003D08B3003C08B200B6
:104630003F08B5003E08B40099310621A3310800B7
:104640004E309B31A323A33120003908AF00380836
:10465000AE003B08B1003A08B0003D08B3003C088A
:10466000B2003F08B5003E08B40099310621A331DD
:10467000080020002408A6002308A500432B0130D1
:10468000A3070030A43D2308860024088700010802
:10469000031D4B2B4C2B3F2B25082302A300260880
:1046A000243BA400080023001908F00020006C0837
:1046B000BD3E860001308700700881000130F000A7
:1046C0007008EC0708306C02031C672B682B692B01
:1046D000EC010130F0007008EA0708002000A40097
:1046E000A30124080319752B762B7C2B8F1B792BA8
:1046F0007A2B7C2BA301A30A2408031D802B812B7A
:10470000872B8F1F842B852B872BA301A30A2308BC
:1047100008002000A400A30124080319902B912B6A
:10472000972B0F19942B952B972BA301A30A2408E1
:10473000031D9B2B9C2BA22B0F1D9F2BA02BA22B71
:10474000A301A30A2308080020003708803AB80014
:1047500080303802031DAE2B013036020318B12B16
:10476000B22BBF2B20003609B8003709B900B80AB0
:104770000319B90A3808B6003908B700BF2B08007A
:10478000220090018F018C018D018E0108302100E3
:1047900090008C01CF308D00BF308E00FF308F0035
:1047A00023008F013F308D0090013C308C002400AD
:1047B00090018D012100951722009D010800220023
:1047C0000C1706302000A4001330A300AD30890B75
:1047D000E72BA30BE72BA40BE72B003222000C13D3
:1047E00006302000A4001330A300AD30890BF62B57
:1047F000A30BF62BA40BF62B003208002000AC0113
:10480000AD01112C29082C0784002A082D3D8500B4
:104810000008A231EE22A33101302000AC070030A5
:10482000AD3D29082C0784002A082D3D8500120083
:10483000031D1B2C1C2C022C08002000A60026089F
:10484000A500A50DA50D21001D0820002506833912
:10485000250621009D001D140D30890B2D2C000014
:1048600021009D149D18352C362C322C1C0820005C
:10487000A40021001B082000A30008002030210014
:10488000AD00A030AE00A2317922A4312100B101E7
:10489000B201A431EA24A43101302100B107003073
:1048A000B23D3208803AB00080303002031D5A2CED
:1048B00002303102031C5D2C5E2C492C08000830AC
:1048C00021006C020318652C662C7F2C6D08C53EF8
:1048D000860001308700010823009A000130F000B3
:1048E00070082100ED0708306D02031C782C792C2C
:1048F0007A2CED010130F0007008EC07802C1112C9
:1049000008002000A400A30124080319882C892C86
:10491000932C0F1C8C2C8D2C932C8F18902C912C5D
:10492000932CA301A30A2408031D972C982CA22CD6
:104930000F189B2C9C2CA22C8F1C9F2CA02CA22CE3
:10494000A301A30A230808002000A400A30124084F
:104950000319AB2CAC2CB62C8F1DAF2CB02CB62C65
:104960000F1AB32CB42CB62CA301A30A2408031DE0
:10497000BA2CBB2CC52C8F19BE2CBF2CC52C0F1EDE
:10498000C22CC32CC52CA301A30A230808002000B5
:10499000A400A30124080319CE2CCF2CD92C8F1EE0
:1049A000D22CD32CD92C0F1BD62CD72CD92CA3012D
:1049B000A30A2408031DDD2CDE2CE82C8F1AE12C21
:1049C000E22CE82C0F1FE52CE62CE82CA301A30A0F
:1049D000230808002000A801A90198310020A43173
:1049E0000B302000A7002630A6005D30890BF62C86
:1049F000A60BF62CA70BF62C003201302000A807DE
:104A00000030A93D2908803AA60080302602031D07
:104A10000B2D02302802031C0E2D0F2DED2C08004B
:104A200020002A08B0002908AF002808B200270893
:104A3000B1003208AC003108AB00B10A0319B20A68
:104A40002B0886002C0887003008AE002F08AD0028
:104A5000AF0A0319B00A2D0884002E08850000084B
:104A6000C03F8908031D352D362D192D08002D3422
:104A70003E34203445345234523445345534523463
:104A80003A3420340034003400340034003400342C
:104A90000034003400342D343E3420344534523454
:104AA00052344534553452343A34203400340034CE
:104AB000003400340034003400340034003420006A
:104AC000B500B301B401772D3208AF00B0012F0853
:104AD000A6003008A7002E08B1003108A8009931BF
:104AE0005721A53101302000B3070030B43D330811
:104AF0003507AF002F088600023087000108B0009C
:104B00003008B2003208031D862D872D642D080061
:104B1000F4007008710403198E2D8F2DA22D7435A9
:104B2000A03E8600013087007008C03F7108C13F79
:104B30007208F3007408AC3E8600013087007308E9
:104B40008100B12D7435A03E8600013087004A30C7
:104B5000C03F2030C13F7408AC3E86000130870062
:104B60008101080023003C100230FA007A08BB00E3
:104B7000C12DA0317B20A531DE2DA0318020A531B3
:104B8000DE2D2E08FA007A08F9000430A03E8600D7
:104B900001308700413F8A00403F0A00A531FB00F9
:104BA000FC017C08003A0319D62DBD2D7B08023A82
:104BB0000319B92D013A0319B92DBD2D08002000A4
:104BC000A40021006C080319E62DE72DE12D111A30
:104BD000EA2DEB2DF02D2000240823009A00092E49
:104BE000111220002408A3007D08C53E8600013074
:104BF0008700230881000130A3002308FD07083047
:104C00007D02031C042E052E062EFD01013021001D
:104C1000EC0221001116080088310020A631230083
:104C20003C1C132E142E222EA031B220A631003AA5
:104C300003191B2E1C2E222E0F302000A00020084E
:104C40002300BA0023003A082000A000A101A035EB
:104C5000A10D003020078400A030213D8500013FD8
:104C60008A00003F0A00A6312000A200220823008B
:104C7000BA0008002300BC154A2EA0317B20A631C3
:104C8000682EA0314C20A6310330682EA031802040
:104C9000A631682E2C08FA007A08F90021088A004B
:104CA00020080A00A631FB00FC017C08003A031929
:104CB0005A2E462E7B08013A0319462E033A031951
:104CC0003D2E013A03193D2E073A0319412E462E77
:104CD00008002000AC00842E2908BF3EA231D62255
:104CE000A631972E2908933EA231D622A631972EBF
:104CF0002908D33EA231D622A631972E29087F3E1D
:104D0000A231D622A631972E2C08AA00AB012B087F
:104D1000003A03198C2E7E2E2A08023A03196C2EB3
:104D2000013A0319722E073A0319782E7E2E0800D5
:104D300020006A0803199D2E9E2E982E6B085B3E5C
:104D40008600013087000108A30023082100EB0042
:104D500020006B08BD3E8600013087000108A300DB
:104D60002308A4000130A3002308EB0708306B02DE
:104D7000031CBB2EBC2EBD2EEB0121009112013075
:104D80002000EA02210091162000240808002100DA
:104D9000AA00200065082100AC0020006408210062
:104DA000AB00DF01E001EA2EAB302000E70067082E
:104DB000DD006608E8006808DE0021002A089E3150
:104DC000DE26A63120005D082100DF0720005E08F6
:104DD0002100E03D2B0884002C0885001200031DF3
:104DE000F22EF32ED42E60082000E50021005F088B
:104DF0002000E40008002100B400AF302000E900EA
:104E000069082100B30034082000E9006908210086
:104E1000B500B601B701B801B9012E082000E500C0
:104E200021002D082000E400B330E9006908E60005
:104E3000B530A631C726A631200065082100B20092
:104E4000200064082100B100360834072000E90082
:104E50006908860001308700810121003208AE0018
:104E60003108AD00080020006C085B3E8600013070
:104E70008700810123001D1D3E2F3F2F4C2F200056
:104E80006C085B3E860001308700811422006A08AE
:104E90008A0069080A00A73123009D1C502F512F5A
:104EA0005E2F20006C085B3E8600013087000115F4
:104EB000220068088A0067080A00A73120006C08F1
:104EC0005B3E86000130870001080319682F692FB7
:104ED000702F220066088A0065080A00A731732F28
:104EE000A3315323A7310800AF31FD27A731FA00C2
:104EF00023003708860087017A0881000130FA0014
:104F00007A08B7070130B8020030B93B38083904D5
:104F100003198B2F8C2F912FA0315B20A7310530E7
:104F2000B92FBC159B2FA0318F20A731B92FA031ED
:104F30008A20A731B92F2C08FA007A08F900210835
:104F40008A0020080A00A731FB00FC017C08003A17
:104F50000319AB2F972F7B08013A0319972F033AB8
:104F60000319932F013A0319932F073A0319972F27
:104F7000972F08002000A400240016141618C12F33
:104F8000C22FBE2F323091001418C72FC82FC42F44
:104F90001419CB2FCC2FC82F2000240824009100F7
:104FA0001418D32FD42FD02F1419D72FD82FD42F94
:104FB00096149618DC2FDD2FD92F3330910014185A
:104FC000E22FE32FDF2F1419E62FE72FE32F96159B
:104FD000141CEB2FEC2FE82F11082000A30023084E
:104FE000A500240096161616161AF72FF82FF42F80
:104FF00016151619FC2FFD2FF92F20002508080083
:1050000041347434743465346E347434653420340B
:10501000763461346C3469346434613474346934A2
:105020006F346E3420346C3465346434203472341C
:105030006F347534673465340D340A3400342D34DC
:105040003E342034503452344F3447345234413497
:105050004D344D344134543449344F344E3420347B
:105060005434453452344D3449344E344534453447
:105070000D340A3400342D343E342034503452344C
:105080004F344734523441344D344D344134543428
:1050900049344F344E34203445344E342034433474
:1050A0004F345534523453340D340A3400342D34D3
:1050B0003E3420344534523452344534553452341D
:1050C0002034503452344F344734523441344D3408
:1050D0004D344134543449344F344E340D340A3451
:1050E00000342D343E342034543445345334543455
:1050F00020344D3441344E34553445344C3420340E
:1051000045344E34203443344F34553452345334C0
:105110000D340A34003441345434543445344E345C
:10512000543445342034563441344C3449344434B6
:105130004134543449344F344E3420344C344534A3
:10514000443453340D340A3400342D343E34203486
:1051500053344C344134563445342034523445347D
:10516000533450344F344E345334453420344E3459
:1051700055344C344C340D340A3400342D343E3420
:1051800020344534463446344134433445344D3478
:1051900045344E345434203445344E342034433472
:1051A0004F345534523453340D340A3400342D34D2
:1051B0003E34203445344634463441344334453457
:1051C0004D3445344E345434203454344534523400
:1051D0004D3449344E3445340D340A3400342D34C2
:1051E0003E34203453344C344134563445345F34E7
:1051F00054344534533454342034473445345434CF
:1052000020344134433451340D340A3400342D34C5
:105210003E34203453344C344134563445345F34B6
:10522000543445345334543420344734453454349E
:1052300020344F344B340D340A3400342D343E3492
:10524000203453344C344134563445345F34543470
:1052500045345334543420344734453454342034A2
:105260004B344F340D340A3400342D343E34203462
:1052700053344C344134563445342034543445345A
:1052800053345434203443344F344E3446344F3442
:1052900052344D34453400342D343E3420345334AC
:1052A0004C3441345634453420345434453453342A
:1052B0005434203441344334513455344934543413
:1052C0005434453400342D343E342034463449348B
:1052D0004E342034543445345334543420344D3413
:1052E00041344E34553445344C340D340A34003492
:1052F0002D343E34203453344C3441345634453408
:10530000203445344E3420344134543454344534FC
:105310004E34543445343A3400342D343E34203441
:1053200053344C344134563445345F34543445346A
:1053300053345434203447344534543420344F34B7
:105340004B3400344534523452344534553452349D
:105350002034503452344F344734523441344D3475
:105360004D344134543449344F344E340034503485
:1053700052344534533453344534523420344F344A
:105380004B3420344F345534203445345234523465
:105390004534553452340034413454345434453453
:1053A0004E3454344534203441344334513455342C
:1053B00049345434543445344D3445344E345434E3
:1053C00000342D343E34203441347034703475341C
:1053D0007934653472342034733475347234203443
:1053E0004F344B340D340A34003454344534533480
:1053F000543420345234313420344F34463446341B
:1054000020342D3420345234323420344F344E344E
:105410000034543445345334543420345234323408
:1054200020344F344634463420342D342034523422
:10543000333420344F344E3400342D343E34203451
:105440005434453453345434203441344334513487
:10545000553449345434543445340D340A3400340A
:105460002D343E34203453344C3441345634453496
:105470005F34543445345334543420344F344E3430
:105480000D340A3400345434453453345434203405
:105490004334413452345434453420344434393460
:1054A0003234353445344434343400342D343E34CD
:1054B000203453344C344134563445345434453418
:1054C000533454343A34313430343A34313400348F
:1054D0002D343E34203453344C3441345634453426
:1054E00054344534533454343A34313431343A3406
:1054F000313400342D343E34203453344C34413470
:105500005634453454344534533454343A343134B5
:1055100032343A34313400342D343E342034533470
:105520004C34413456344534543445345334543473
:105530003A34313433343A34313400342D343E3457
:10554000203453344C344134563445345434453487
:10555000533454343A34313434343A3431340034FA
:105560002D343E34203453344C3441345634453495
:1055700054344534533454343A34313435343A3471
:10558000313400342D343E34203453344C344134DF
:105590005634453454344534533454343A34313425
:1055A00036343A34313400342D343E3420345334DC
:1055B0004C344134563445345434453453345434E3
:1055C0003A34313437343A34313400342D343E34C3
:1055D000203453344C3441345634453454344534F7
:1055E000533454343A34313438343A343134003466
:1055F00056344534523449344634493445345234AF
:105600002034503431342034453454342034503430
:105610003234003452344534533455344C345434D9
:1056200041345434203443344F344E3446344934B6
:1056300052344D34453400345434453453345434A6
:1056400020344E344F344E34203443344F344E34AF
:1056500046344F3452344D344534003446344934A2
:105660004E342034503452344F3447345234413461
:105670004D344D344134543449344F344E34003475
:1056800050344F3453344934543449344F344E3405
:105690004E3445345234203443344134523454343B
:1056A0004534003454344534533454342034333482
:1056B0002034523445344C3441344934533420344A
:1056C0004F344634463400342D343E342034533481
:1056D0004C344134563445345434453453345434C2
:1056E0003A3431343A34313400342D343E342034B9
:1056F00053344C34413456344534543445345334A3
:1057000054343A3432343A34313400342D343E3463
:10571000203453344C3441345634453454344534B5
:10572000533454343A3433343A34313400342D342D
:105730003E34203453344C3441345634453454349C
:105740004534533454343A3434343A3431340034F4
:105750002D343E34203453344C34413456344534A3
:1057600054344534533454343A3435343A3431347F
:1057700000342D343E34203453344C3441345634C8
:10578000453454344534533454343A3436343A344A
:10579000313400342D343E34203453344C344134CD
:1057A0005634453454344534533454343A3437340D
:1057B0003A34313400342D343E34203453344C34B4
:1057C00041345634453454344534533454343A34E3
:1057D00038343A34313400342D343E3420345334A8
:1057E0004C344134563445345434453453345434B1
:1057F0003A3439343A34313400342D343E342034A0
:1058000053344C34413456344534203445345234C6
:1058100052344534553452343A3400342D343E3405
:10582000203453344C3441345634453420345434C9
:1058300045345334543420344F344B3400342D34F5
:105840003E34203453344C344134563445342034BF
:10585000543445345334543420344B344F340034AE
:1058600043344C3441345634493445345234203472
:10587000453443344C3441344934523445343F3454
:105880000034503452344534533453344534523454
:1058900020344F344B3420342F3420344E344F34A2
:1058A0004B3400345434453453345434203433347A
:1058B0002034523445344C34413449345334203448
:1058C0004F344E340034543445345334543420343B
:1058D0004C3445344434203443344C34413456340D
:1058E000493445345234003443344C344134563412
:1058F00049344534523420344534543445344934E1
:105900004E3454343F3400345434453453345434D6
:1059100020344C34453444345334203443344134FB
:1059200052345434453400344534523452344534BE
:10593000553452342034563441344C344934443490
:10594000453445340034463449344E3420344534EB
:10595000463446344134433445344D3445344E3472
:1059600054340034543445345334543420344C3497
:1059700045344434203452344F345534473445345C
:105980000034543445345334543420344C34453486
:10599000443420345634453452345434453400347D
:1059A000543445345334543420344C344534443422
:1059B000203442344C3445345534453400344D346D
:1059C0004F34443455344C34453420344534533406
:1059D00043344C3441345634453400345434453423
:1059E00053345434203442344C34553445345434D4
:1059F0004F344F34543448340034413450345034EC
:105A00005534593445345234203453345534523497
:105A100020344F344B3400344D3461347334743497
:105A200065347234203465346E3420347434653413
:105A30007334743400344D344F34443455344C345E
:105A4000453420344D34413449345434523445348F
:105A50000034523445345434493452344534523489
:105A600020344334413452345434453400344C34BB
:105A7000453444345334203441344C344C3455345C
:105A80004D3445344534533400342D343E342034C1
:105A9000543445345334543420344F344E340D345C
:105AA0000A3400342D343E342034543445345334D5
:105AB00054343A34313430343A34313400342D34BF
:105AC0003E34203454344534533454343A3431342D
:105AD00032343A34313400342D343E3420345434AA
