:1000000080314A28053008007E1480310B1F0928F2
:100010000A2848282100111E0E280F281B2820001E
:10002000111E132814281B28210066088A00650861
:100030000A00803148282100911E1F2820282C28E2
:100040002000911E242825282C2822005E088A00E2
:100050005D080A00803148282100921D302831288F
:100060003D282000921D352836283D2821006808AB
:100070008A0067080A00803148282100911D412824
:10008000422848282000911D46284728482836281D
:100090007E10090080314C282100903100208031F1
:1000A000EE00973084009D308500A030860001303E
:1000B00087002830993178218031E23084009A30ED
:1000C0008500403086000230870014309931782155
:1000D0008031FD012000EA01EB01EC01DF308400FA
:1000E000003085000F309931722180314530840015
:1000F000013085001C30993172218031C830840074
:100100000130850025309931722180312030840002
:100110000230850020309931722180317E1020001C
:100120008B31A82B04302000AE00A530AF006B301F
:10013000B000A130B1003A30B200A030B3003A3084
:10014000B400A030B50091312E21803101309A31B8
:100150003F22803115302200C2004B30C100BE303A
:10016000890BB028C10BB028C20BB02800000030AA
:100170009A313F22803115302200C2004B30C1003D
:10018000BE30890BC128C10BC128C20BC128000099
:1001900000309D3104258031003A0319D028D12840
:1001A000E32801309D3127258031003A0319D928F1
:1001B000DA28E3281D302100AD00A430AE009B31C9
:1001C0000B23803109292400E50104302100B0000F
:1001D000A530B1006530B2000230B3006430B40025
:1001E0000230B50093314223803163302100B800E2
:1001F0000230B9006530BA000230BB006430BC0088
:100200000230BD006230BE000230BF0092312822B1
:1002100080312400650803190E290F29CA290C30E2
:100220002000AE00A530AF005730B000A230B100C2
:100230002430B200A230B3003A30B400A030B50090
:1002400091312E21803101309A313F2280310630A8
:100250002200C2001330C100AD30890B2D29C10B23
:100260002D29C20B2D29003200309A313F228031D6
:100270000B302200C2002630C1005D30890B3E29C0
:10028000C10B3E29C20B3E2900320C309C317D242B
:100290008031200024082400E100200023082400ED
:1002A000E00014302100AD00A530AE00240061084C
:1002B0002100B000240060082100AF0059309F31B8
:1002C0008727803121002E082400D50021002D0829
:1002D0002400D4006108803A2200C100833041022A
:1002E000031D75292030240060020318782979291C
:1002F000842922008C1729302100AD00A430AE00E3
:100300009B310B238031BE290C302100B000A53079
:10031000B1006530B2000230B3006430B400023086
:10032000B5009331422380310C302000AE00A5305F
:10033000AF005730B000A230B1005930B2000230E7
:10034000B3003A30B400A030B50091312E21803195
:1003500022008C1363302100B8000230B9006530F0
:10036000BA000230BB006430BC000230BD00623015
:10037000BE000230BF009231282280312930220095
:10038000C2009630C1007F30890BC429C10BC4293B
:10039000C20BC429240065080319CF29D0298B2A50
:1003A00063302000AE00A430AF005730B000A23060
:1003B000B1006830B200A230B3003A30B400A030CF
:1003C000B50091312E21803101309A313F228031A8
:1003D00006302200C2001330C100AD30890BEE2977
:1003E000C10BEE29C20BEE29003200309A313F22B8
:1003F00080310B302200C2002630C1005D30890BF5
:10040000FF29C10BFF29C20BFF2900320C309C31A0
:100410007D248031200024082400E10020002308EE
:100420002400E00014302100AD00A530AE0024000F
:1004300061082100B000240060082100AF0059309D
:100440009F318727803121002E082400D70021000A
:100450002D082400D6006108803A2200C1008230B5
:100460004102031D362ABC30240060020318392AD9
:100470003A2A452A22008C1354302100AD00A330C3
:10048000AE009B310B2380317F2A63302100B00006
:10049000A430B1006530B2000230B3006430B40063
:1004A0000230B50093314223803163302000AE002A
:1004B000A430AF005730B000A230B1005930B200C4
:1004C0000230B3003A30B400A030B50091312E2193
:1004D000803122008C1763302100B8000230B9004F
:1004E0006530BA000230BB006430BC000230BD0091
:1004F0006230BE000230BF009231282280312930A4
:100500002200C2009630C1007F30890B852AC10BC2
:10051000852AC20B852A240065080319902A912A8E
:100520005D2B6C302000AE00A430AF003530B00041
:10053000A430B1003A30B200A030B3003A30B40079
:10054000A030B50091312E2180310B302200C20045
:100550002630C1005D30890BAB2AC10BAB2AC20B20
:10056000AB2A003201309A313F228031063022001E
:10057000C2001330C100AD30890BBC2AC10BBC2AAC
:10058000C20BBC2A003200309A313F2280313D300C
:100590002200C200E130C1003F30890BCD2AC10BDF
:1005A000CD2AC20BCD2A003201309A313F22803150
:1005B00006302200C2001330C100AD30890BDE2AA4
:1005C000C10BDE2AC20BDE2A003200309A313F22F4
:1005D000803110302200C2003930C1000D30890B4B
:1005E000EF2AC10BEF2AC20BEF2A003201309C31F7
:1005F000E1248031003A0319FE2AFF2A1A2B013028
:100600009D3104258031003A0319072B082B1A2B42
:1006100000309D3127258031003A0319102B112B12
:100620001A2B61302100AD00A330AE009B310B23AB
:100630008031482B2400E50100309A313F2280317F
:1006400000309A314C2280316C302100B000A4304F
:10065000B1006530B2000230B3006430B400023043
:10066000B50093314223803163302100B80002305D
:10067000B9006530BA000230BB006430BC00023003
:10068000BD006230BE000230BF00923128228031AE
:1006900015302200C2004B30C100BE30890B4E2BFA
:1006A000C10B4E2BC20B4E2B000000309A313F2263
:1006B000803100309A314C228031240065080319C2
:1006C000622B632BD12B7E302000AE00A430AF0014
:1006D0007830B000A230B1003930B200A330B3009E
:1006E0003530B400A230B50091312E218031013077
:1006F0009A313F22803106302200C2001330C100FF
:10070000AD30890B812BC10B812BC20B812B0032A9
:1007100000309A313F2280318B302100AD00A03073
:10072000AE009B310B2380312400630894315724A1
:1007300080312200C10041082400E4006408031D48
:10074000A22BA32BC92BE5017E302100B000A430E1
:10075000B1006530B2000230B3006430B400023042
:10076000B50093314223803163302100B80002305C
:10077000B9006530BA000230BB006430BC00023002
:10078000BD006230BE000230BF00923128228031AD
:10079000D12B6E302100AD00A330AE009B310B2376
:1007A0008031240065080319D62BD72B572C8730AE
:1007B0002000AE00A430AF007530B000A430B1000E
:1007C0003A30B200A030B3003A30B400A030B500E7
:1007D00091312E21803101309A314C228031063006
:1007E0002200C2001330C100AD30890BF52BC10BC4
:1007F000F52BC20BF52B003200309A314C228031A0
:100800000B302200C2002630C1005D30890B062C5F
:10081000C10B062CC20B062C003201309C31E124A6
:100820008031003A0319152C162C312C01309D31E2
:1008300004258031003A03191E2C1F2C312C013065
:100840009D3127258031003A0319272C282C312C83
:100850007B302100AD00A330AE009B310B238031F3
:10086000572C2400E50187302100B000A430B100EE
:100870006530B2000230B3006430B4000230B5001D
:1008800093314223803163302100B8000230B90037
:100890006530BA000230BB006430BC000230BD00DD
:1008A0006230BE000230BF00923128228031240025
:1008B000650803195C2C5D2CDD2C90302000AE0007
:1008C000A430AF00BC30B000A330B1003A30B20069
:1008D000A030B3003A30B400A030B50091312E21E1
:1008E000803101309A317322803106302200C200FB
:1008F0001330C100AD30890B7B2CC10B7B2CC20B9C
:100900007B2C003200309A31732280310B30220070
:10091000C2002630C1005D30890B8C2CC10B8C2CA1
:10092000C20B8C2C003200309C31E1248031003A23
:1009300003199B2C9C2CB72C00309D310425803151
:10094000003A0319A42CA52CB72C00309D31272583
:100950008031003A0319AD2CAE2CB72C8830210021
:10096000AD00A330AE009B310B238031DD2C240081
:10097000E50190302100B000A430B1006530B20034
:100980000230B3006430B4000230B500933142232A
:10099000803163302100B8000230B9006530BA0000
:1009A0000230BB006430BC000230BD006230BE00CB
:1009B0000230BF00923128228031240065080319DB
:1009C000E22CE32C5D2D99302000AE00A430AF0066
:1009D000C430B000A430B1003A30B200A030B3004F
:1009E0003A30B400A030B50091312E218031013071
:1009F0009A315922803119302200C2005A30C10088
:100A0000B130890B012DC10B012DC20B012D00321C
:100A100000309A31592280310B302200C20026303A
:100A2000C1005D30890B122DC10B122DC20B122D8E
:100A3000003201309C31E1248031003A0319212D2C
:100A4000222D3D2D01309D3104258031003A0319BE
:100A50002A2D2B2D3D2D01309D3127258031003A47
:100A60000319332D342D3D2D95302100AD00A330D9
:100A7000AE009B310B2380315D2D99302100D700D2
:100A8000A430D80065302200C10041082100D900FF
:100A900064302200C20042082100DA0063302200E4
:100AA000C30043082100DB0062302200C400440878
:100AB0002100DC0086319E26803124006508031960
:100AC000622D632DE32DA2302000AE00A430AF00D4
:100AD000D430B000A430B1003A30B200A030B3003E
:100AE0003A30B400A030B50091312E218031013070
:100AF0009A316622803119302200C2005A30C1007A
:100B0000B130890B812DC10B812DC20B812D00329B
:100B100000309A31662280310B302200C20026302C
:100B2000C1005D30890B922DC10B922DC20B922D0D
:100B3000003200309C31E1248031003A0319A12DAC
:100B4000A22DBD2D00309D3104258031003A0319BE
:100B5000AA2DAB2DBD2D00309D3127258031003AC7
:100B60000319B32DB42DBD2DA2302100AD00A3304B
:100B7000AE009B310B238031E32D2400E501A23030
:100B80002100B000A430B1006530B2000230B300E3
:100B90006430B4000230B5009331422380316330B9
:100BA0002100B8000230B9006530BA000230BB0045
:100BB0006430BC000230BD006230BE000230BF00B5
:100BC000923128228031240065080319E82DE92D8F
:100BD000492EAB302000AE00A430AF00E230B000B0
:100BE000A230B1004D30B200A430B3003530B400B3
:100BF000A230B50091312E2180319C313F248031CB
:100C0000240063089431572480312200C100410838
:100C10002400E4006408031D0E2E0F2E412EE50172
:100C2000AB302100B000A430B1006530B20002301A
:100C3000B3006430B4000230B500933142238031F8
:100C400063302100B8000230B9006530BA000230CC
:100C5000BB006430BC000230BD006230BE00023018
:100C6000BF0092312822803129302200C200963004
:100C7000C1007F30890B3A2EC10B3A2EC20B3A2E9F
:100C8000492EAF302100AD00A330AE009B310B23C5
:100C900080312400650803194E2E502E8B31E22B33
:100CA00041302000AE00A430AF00E530B000A130EC
:100CB000B1002B30B200A330B3002E30B400A1300D
:100CC000B50091312E21803101309A3118228031C6
:100CD00000309A310B2280319C319E248031633068
:100CE0002100B0000230B1006530B2000230B30024
:100CF0009231DB22803165302100B0000230B1003A
:100D00006430B2000230B3006330B4000230B5008A
:100D10006230B6000230B7008831052080312930BA
:100D20002200C2009630C1007F30890B952EC10B86
:100D3000952EC20B952E4E2E80314A2840308600CB
:100D4000023087002A3084000130850014302100F1
:100D5000DD0016001A00DD0BA92EB430860001302C
:100D6000870020308400013085000A30DD00160045
:100D70001A00DD0BB72E01309A3125228631013061
:100D80009A313222863100309A3118228631210080
:100D900058082000AF00210057082000AE00DC30CA
:100DA000B000A130B100B830B200A130B3001930AA
:100DB000B400A130B50091312E2186312A302000B7
:100DC000B3000130B400210058082000B600210013
:100DD00057082000B5009B312123863120003408BC
:100DE0002200BF00200033082200BE003F08200080
:100DF000B40022003E082000B3002030B5000130CE
:100E0000B6009B3121238631200034082100AE003A
:100E1000200033082100AD009B310B238631903137
:100E2000E620863121005B08860002308700010839
:100E30009431572486312100DD005D082200C00076
:100E40000B302100DE002630DD005D30890B262FBF
:100E5000DD0B262FDE0B262F00322200400803195F
:100E6000322F332F672F2100590886000230870068
:100E700081015A08860002308700810199302000E4
:100E8000AE00A430AF00E130B000A130B100CA30F4
:100E9000B200A130B3002E30B400A130B5009131C2
:100EA0002E218631DB302100B8000030B900D93066
:100EB000BA000030BB00DA30BC000030BD00DC30CE
:100EC000BE000030BF00923128228631EF2F9930CA
:100ED0002000AE00A430AF00C430B000A430B10098
:100EE0003A30B200A030B3003A30B400A030B500C0
:100EF00091312E21863100309A3125228631013000
:100F00009A313222863100309A31182286310130EE
:100F10009A315922863119302100DE005A30DD0025
:100F2000B130890B912FDD0B912FDE0B912F003209
:100F300000309A315922863115302100DE004B30C5
:100F4000DD00BE30890BA22FDD0BA22FDE0BA22FFE
:100F5000000001309C31E1248631003A0319B12FA1
:100F6000B22FD92F01309D3104258631003A031963
:100F7000BA2FBB2FD92F01309D3127258631003A5A
:100F80000319C32FC42FD92F99302000AE00A430ED
:100F9000AF00C430B000A430B1008830B200A2303D
:100FA000B300B430B400A430B50091312E218631A5
:100FB000EF2F210059088600023087008101993007
:100FC000B000A430B100D930B2000030B300DA3044
:100FD000B4000030B500933142238631522F08000F
:100FE0009C31202487319931F221873199312A218E
:100FF000873199319421873190319E2087310800C3
:101000006130903158208831080021003408860072
:10101000350887000108031D0E280F281628EF3019
:10102000AD00A030AE009B310B2388312100300889
:101030008600310887008101320886003308870066
:101040008101340886003508870081013608860052
:10105000370887000130810000309A31182288312A
:1010600000309A312522883100309A31322288317D
:1010700000309A310B22883100309A313F2288317A
:1010800000309A314C22883100309A31592288310F
:1010900000309A316622883122008C13080020002B
:1010A000CA003F08D3004008D4004108D5004208D8
:1010B000D6004308D7004408D8004508D9004608A0
:1010C000DA005330860000308700473FC700C71B57
:1010D0006A286C2801306D2800302000C800C90142
:1010E0004808D1004908D200510852040319792850
:1010F0007A289828D309D409D509D609D709D80957
:10110000D909DA09D30A031D9828D40A031D98289F
:10111000D50A031D9828D60A031D9828D70A031D4F
:101120009828D80A031D9828D90A031D9828DA0A96
:101130002100E21B9C289D28A128FD30E305FF30FB
:10114000E4056208803A2000C70080304702031D92
:10115000AC280130210061020318AF28B028B6285E
:1011600001302000CD000030CE00BE2821006208F2
:101170002000CE00210061082000CD00220056088A
:101180002000D000220055082000CF005108520452
:10119000031DCB28CC28D1282100631DD028D128BD
:1011A000D628FF302000CF07FF30D03D1F30200071
:1011B000DB000030DC002400BF014729FF302000A5
:1011C000DB07FF30DC3D0A30A300A401A501A60126
:1011D000A701A801A901AA015308AB005408AC005B
:1011E0005508AD005608AE005708AF005808B000CB
:1011F0005908B1005A08B2009431EC24883120001B
:101200002408B7002308B6009C310424883120004C
:101210003608303EC7005B08203E8600023087005B
:1012200047088100FF30CD07FF30CE3DFF30CF07AC
:10123000FF30D03D0A30A300A401A501A601A701FB
:10124000A801A901AA015308AB005408AC00550835
:10125000AD005608AE005708AF005808B000590856
:10126000B1005A08B2009531D925883120002308F1
:10127000D3002408D4002508D5002608D600270866
:10128000D7002808D8002908D9002A08DA00200049
:101290005C08803AC70080304702031D51290130A5
:1012A0005B02031C54295529822920005308540449
:1012B000550456045704580459045A04031D61295F
:1012C0006229DE284E08803AC70080304702031D9D
:1012D0006B2901304D0203186E296F29DE2820008A
:1012E0005008803AC70080304702031D7929013039
:1012F0004F02031C7C297D2982292100E3188129C2
:101300008229DE28200051085204031D88298929DA
:101310008E292100631D8D298E29AB29FF302000E5
:10132000DB07FF30DC3D51085204031D9829992941
:101330009E292B30CB000030CC00A2292D30CB00D1
:101340000030CC004B08C7005B08203E860002300E
:1013500087004708810020005B08203EC70047083F
:10136000B6005008B8004F08B7004A0892317F22F3
:10137000883120003708C0003608BF00080021006F
:10138000B800B701A12B20000F19C729C829E329EC
:1013900071302100AD00A030AE009B310B238931AC
:1013A0002100B701B70A38088600023087008101A2
:1013B0003108860002308700810130088600023043
:1013C00087008101810A20006A080319E829E929B8
:1013D000A12B9F31242789312100B3003308B500A8
:1013E0007F2B010047302100AD00A330AE009B31C0
:1013F0000B238931210038088600023087008101E3
:10140000810A30088600023087008101810A310894
:10141000860002308700810102302100B4000430D0
:10142000B300BA30890B122AB30B122AB40B122A5A
:1014300000002100B701B70AA12B5730AD00A03042
:10144000AE009B310B238931A5302000AE00A130C6
:10145000AF003A30B000A030B1000430B200A1308B
:10146000B3003A30B400A030B50091312E2189315B
:10147000210038088600023087008101810A02308D
:101480002100B4000430B300BA30890B452AB30BF5
:10149000452AB40B452A00002100B701B70A3008DD
:1014A000860002308700810122008C13A12B3B3083
:1014B000AD00A030AE009B310B238931A530200058
:1014C000AE00A130AF003A30B000A030B100F23031
:1014D000B200A130B3003A30B400A030B500913171
:1014E0002E218931210038088600023087008101D1
:1014F000810A3008860002308700810131088600A9
:1015000002308700810102302100B4000430B300B2
:10151000BA30890B892AB30B892AB40B892A0000B7
:101520002100B701B70A22008C17A12B1F30AD0094
:10153000A030AE009B310B238931A5302000AE00D6
:10154000A130AF003A30B000A030B100EE30B200B0
:10155000A130B3003A30B400A030B50091312E2153
:101560008931210038088600023087008101810A14
:1015700002302100B4000430B300BA30890BBE2A17
:10158000B30BBE2AB40BBE2A00002100B701B70A74
:101590003008860002308700810122008C13A12BC5
:1015A000BE30AD00A030AE009B310B238931A53099
:1015B0002000AE00A130AF003A30B000A030B10042
:1015C0009B30B200A230B3003A30B400A030B50076
:1015D00091312E21893121003808860002308700A0
:1015E0008101810A300886000230870081013108BC
:1015F0008600023087008101810A02302100B40098
:101600000430B300BA30890B032BB30B032BB40B9C
:10161000032B00002100B701B70A22008C17A12B71
:10162000D730AD00A030AE009B310B238931A530FF
:101630002000AE00A130AF003A30B000A030B100C1
:101640009730B200A230B3003A30B400A030B500F9
:1016500091312E218931210038088600023087001F
:101660008101810A3008860002308700810131083B
:101670008600023087008101810A02302100B40017
:101680000430B300BA30890B432BB30B432BB40B9C
:10169000432B00002100B701B70A22008C13A12BB5
:1016A0008831002089312100B3003308B600613051
:1016B0003606031D5C2B5D2B772B9230AD00A130DD
:1016C000AE009B310B23893121003808860002309F
:1016D00087008101810A300886000230870081017D
:1016E00032088600023087008101810A072AA5306E
:1016F000AD00A030AE009B310B238931192A35088B
:10170000B300B4013408003A0319872BA12B330826
:10171000303A0319F129013A0319F229043A03195D
:10172000102B033A03191D2A013A0319572A0F3ABD
:101730000319D02A013A0319962A583A0319502B53
:10174000A12B210037080319A62BA72BC3290800BA
:101750008731F0278B318B170B172400E501E4014B
:10176000E301E201E20AD801D80ADE0115302200C5
:10177000C2004B30C100BE30890BBC2BC10BBC2B4F
:10178000C20BBC2B000020008E1AC72BC82BCE2BFF
:101790002400D8019A3180228B31D12B9931DB2161
:1017A0008B3120000E1CD52BD62BDA2B2400DF0129
:1017B000DF0ADC2B2400DF0120008E18E02BE12B58
:1017C000E22BE22B4E309331CB238B31A53020001E
:1017D000AE00A130AF001D30B000A330B10000302A
:1017E000B200A230B300F130B400A230B5009131A4
:1017F0002E218B3103302200C2000830C100773027
:10180000890B002CC10B002CC20B002C46309331ED
:10181000CB238B31A5302000AE00A130AF00D330F8
:10182000B000A230B1000030B200A230B300F130FD
:10183000B400A230B50091312E218B31033022004B
:10184000C2000830C1007730890B242CC10B242C36
:10185000C20B242C22008C13432C65302200C100C3
:1018600041082100B00062302200C200420821007D
:10187000B1005E302200C30043082100B200633093
:101880008931BF218B31240065080319482C492C6C
:101890002D2CE2019D314A258B312400E501E50A1A
:1018A00000309A3118228B3100309A3125228B3149
:1018B00001309A3132228B3103302200C2000830CD
:1018C000C1007730890B622CC10B622CC20B622CD9
:1018D00046309331CB238B31A5302000AE00A130B0
:1018E000AF000030B000A330B1000030B200A23031
:1018F000B300F130B400A230B50091312E218B310C
:1019000003302200C2000830C1007730890B862CDA
:10191000C10B862CC20B862C4E309331CB238B31DE
:10192000BC302000AE00A430AF004630B000A23082
:10193000B1003A30B200A030B3003A30B400A03069
:10194000B50091312E218B3101309A313F228B31FC
:1019500001309A314C228B3115302200C2004B30BD
:10196000C100BE30890BB22CC10BB22CC20BB22C01
:10197000000001309A310B228B3129302200C20045
:101980009630C1007F30890BC32CC10BC32CC20B16
:10199000C32C01309C31E1248B31003A0319D12C46
:1019A000D22CED2C01309D3104258B31003A0319E6
:1019B000DA2CDB2CED2C01309D3127258B31003AC0
:1019C0000319E32CE42CED2CC9302100AD00A33029
:1019D000AE009B310B238B311B2D2400E501003021
:1019E0009A313F228B3100309A314C228B31BC30FE
:1019F0002100B000A430B1006530B2000230B30065
:101A00006430B4000230B500933142238B3163302F
:101A10002100B8000230B9006530BA000230BB00C6
:101A20006430BC000230BD006230BE000230BF0036
:101A3000923128228B3115302200C2004B30C10078
:101A4000BE30890B212DC10B212DC20B212D000091
:101A500000309A313F228B3100309A314C228B3149
:101A6000240065080319352D362DA92DCC30200012
:101A7000AE00A430AF001230B000A230B1003A3056
:101A8000B200A030B3003A30B400A030B5009131BC
:101A90002E218B3100309A313F228B3100309A3128
:101AA0004C228B310B302200C2002630C1005D3049
:101AB000890B582DC10B582DC20B582D0032013007
:101AC0009C31E1248B31003A031D672D682D832D55
:101AD00001309D3104258B31003A031D702D712D8D
:101AE000832D01309D3127258B31003A031D792D3F
:101AF0007A2D832DD5302100AD00A330AE009B316F
:101B00000B238B31A92D2400E501CC302100B0003E
:101B1000A430B1006530B2000230B3006430B400CC
:101B20000230B500933142238B3163302100B8007D
:101B30000230B9006530BA000230BB006430BC002E
:101B40000230BD006230BE000230BF009231282258
:101B50008B31240065080319AF2D8D31B12D8E31E5
:101B6000252EDC302000AE00A430AF00A630B0003F
:101B7000A230B1003A30B200A030B3003A30B40025
:101B8000A030B50091312E218D3101309A313F22A4
:101B90008D3106302200C2001330C100AD30890BF8
:101BA000CF2DC10BCF2DC20BCF2D003200309A317B
:101BB0003F228D3124005F080319DF2DE02D252EF3
:101BC00000302100AD00A030AE009B310B238D31E1
:101BD00024006308943157248D312200C10041084C
:101BE0002400E4006408031DF62DF72D1D2EE501E9
:101BF000DC302100B000A430B1006530B20002300A
:101C0000B3006430B4000230B500933142238D310B
:101C100063302100B8000230B9006530BA000230EC
:101C2000BB006430BC000230BD006230BE00023038
:101C3000BF00923128228D31252EE1302100AD00E8
:101C4000A330AE009B310B238D31240065080319AE
:101C50002A2E2B2E962EE4302000AE00A430AF00AA
:101C6000C430B000A230B1003A30B200A030B300AE
:101C70003A30B400A030B50091312E218D310130C1
:101C80009A313F228D3106302200C2001330C1004C
:101C9000AD30890B492EC10B492EC20B492E0032A3
:101CA00000309A313F228D3124005F080319592EEC
:101CB0005A2E962E6308943157248D312200C1008C
:101CC00041082400E4006408031D672E682E8E2E50
:101CD000E501E4302100B000A430B1006530B2006D
:101CE0000230B3006430B4000230B50093314223B7
:101CF0008D3163302100B8000230B9006530BA0080
:101D00000230BB006430BC000230BD006230BE0057
:101D10000230BF00923128228D31962EED30210005
:101D2000AD00A330AE009B310B238D31240065083C
:101D300003199B2E9C2E072FEC302000AE00A43000
:101D4000AF00B530B000A230B1003A30B200A030E0
:101D5000B3003A30B400A030B50091312E218D315E
:101D600001309A313F228D3106302200C2001330FB
:101D7000C100AD30890BBA2EC10BBA2EC20BBA2EE0
:101D8000003200309A313F228D3124005F08031960
:101D9000CA2ECB2E072F6308943157248D31220091
:101DA000C10041082400E4006408031DD82ED92E88
:101DB000FF2EE501EC302100B000A430B100653009
:101DC000B2000230B3006430B4000230B500933189
:101DD00042238D3163302100B8000230B9006530F4
:101DE000BA000230BB006430BC000230BD0062307B
:101DF000BE000230BF00923128228D31072FF9300A
:101E00002100AD00A330AE009B310B238D312400A7
:101E1000650803190C2F0D2F7B2FF4302000AE0026
:101E2000A430AF005830B000A430B1003A30B20056
:101E3000A030B3003A30B400A030B50091312E216B
:101E40008D3101309A313F228D3115302200C20090
:101E50004B30C100BE30890B2B2FC10B2B2FC20B77
:101E60002B2F000000309A313F228D311530220097
:101E7000C2004B30C100BE30890B3C2FC10B3C2F40
:101E8000C20B3C2F000001309C31E1248D31003A1F
:101E900003194B2F4C2F552F05302100AD00A430D6
:101EA000AE009B310B238D317B2F2400E501F430F4
:101EB0002100B000A430B1006530B2000230B300A0
:101EC0006430B4000230B500933142238D31633069
:101ED0002100B8000230B9006530BA000230BB0002
:101EE0006430BC000230BD006230BE000230BF0072
:101EF000923128228D31240065080319802F812F0B
:101F0000F82FFC302000AE00A430AF005730B000F6
:101F1000A130B1003A30B200A030B3003A30B40082
:101F2000A030B50091312E218D3101309A313F2200
:101F30008D3115302200C2004B30C100BE30890BFC
:101F40009F2FC10B9F2FC20B9F2F000000309A3193
:101F50003F228D3115302200C2004B30C100BE300F
:101F6000890BB02FC10BB02FC20BB02F0000003077
:101F70009C31E1248D31003A0319BF2FC02FD22F9D
:101F800001309D3104258D31003A0319C82FC92F26
:101F9000D22F11302100AD00A430AE009B310B23B5
:101FA0008D31F82F2400E501FC302100B000A43071
:101FB000B1006530B2000230B3006430B4000230CA
:101FC000B500933142238D3163302100B8000230D7
:101FD000B9006530BA000230BB006430BC0002308A
:101FE000BD006230BE000230BF00923128228D3128
:101FF000240065080319FE2F8031922881310929B8
:1020000008340130F0000030F10079089A318F2255
:1020100090310030F500F600F7019931FE21903142
:102020000430080099310D219031FA0023005F0837
:10203000860087017A0881000130FA007A08DF07FC
:102040000130E0020030E13B6008610403192928F7
:102050002A282F2899312221903105305728E4155C
:102060003928993156219031572899315121903191
:1020700057285408FA007A08F90049088A004808E5
:102080000A009031FB00FC017C08003A0319492842
:1020900035287B08013A03193528033A03193128FA
:1020A000013A03193128073A031935283528080061
:1020B0002000A4002400161416185F2860285C284D
:1020C000323091001418652866286228141969288E
:1020D0006A2866282000240824009100141871281A
:1020E00072286E2814197528762872289614961866
:1020F0007A287B287728333091001418802881288B
:102100007D2814198428852881289615141C89286F
:102110008A28862811082000A3002308A50024008F
:1021200096161616161A9528962892281615161918
:102130009A289B2897282000250808002100911242
:10214000BF302000A3001F30A4009931C02190317E
:1021500021001112BF302000A3001C30A4009931CF
:10216000C9219031083023009F0090309D00243019
:102170009E0040309B0003309C0001302000A300F3
:102180001930A4009931AE2190311A302000A300FB
:102190001930A4009931B721903116302000A300E6
:1021A0001930A4009931A52190312100EB01FD01E6
:1021B000ED0108302000A50025082100EC002000DA
:1021C000EC01EB01EA012100911608002000A801B2
:1021D000A9012000AA01AB019E31122690310B30DB
:1021E0002000A7002630A6005D30890BF528A60B3D
:1021F000F528A70BF528003201302000AA0700308F
:10220000AB3D2B08803AA60080302602031D0A2928
:1022100004302A02031C0D290E29EC280B30200063
:10222000A7002630A6005D30890B1429A60B1429BF
:10223000A70B1429003201302000A8070030A93D67
:102240002908803AA60080302602031D292904307F
:102250002802031C2C292D29E92808009931D221B4
:10226000913106309B316823913102302000B70054
:102270000430B600BA30890B3B29B60B3B29B70BAB
:102280003B2900002000A901A90A01309E31F52652
:10229000913120002F08AA002E08A9009C315E244D
:1022A00091312000A901A90A02309E31F526913111
:1022B00020003108AA003008A9009C315E24913129
:1022C0002000A901A90A03309E31F5269131200092
:1022D0003308AA003208A9009C315E249131200005
:1022E000A901A90A04309E31F52691312000350854
:1022F000AA003408A9009C315E2491310800200016
:1023000028080319842985298A292808031D892971
:102310008A298F292608993185219131D0292808C9
:10232000033E8600870116000104031998299929A4
:10233000B6292808033E86008701403FA900413F97
:10234000AA00280A86008701403FAB00413FAC004D
:102350002C08803AAD002A08803A2D02031DB229CC
:1023600029082B020318B529B629D02920002608F0
:10237000A900280886008701280A84008501000832
:102380000107AA002A088600023087002908810078
:10239000280A860087010130810741310318810A2C
:1023A0000800993160219131003A0319D829D929BF
:1023B0000A2AE629993138219131272A99313D217C
:1023C0009131272A993147219131272A2300570833
:1023D000FA007A08F9000630C83E8600013087000E
:1023E000413F8A00403F0A009131FB00FC017C081C
:1023F000003A0319FC29E2297B08013A0319E22972
:10240000033A0319DA29013A0319DE29073A0319B5
:10241000E229E229230064101730C83E860001300B
:102420008700403F84008501810A000899312E21F0
:10243000913101302300E0020030E13B600861048B
:10244000031D232A242A262A0630272A03300800BF
:10245000210038088600390887000108C000C10142
:102460004008B0004108B1003A0886003B088700E8
:102470000108C200C3014208B2004308B300923110
:10248000DB22923121003A0886003B0887000108D0
:10249000C000C1014008B0004108B1003C088600FE
:1024A0003D0887000108C200C3014208B20043088A
:1024B000B30038088600390887000108C400C50148
:1024C0004408B4004508B5003E0886003F08870070
:1024D0000108C600C7014608B6004708B7008831A2
:1024E0000520923129302100C1009630C0007F3094
:1024F000890B782AC00B782AC10B782A08002000A3
:10250000BE002100631C852A862A8F2A20003E08EF
:10251000B9003908AE0036089D31BF259231200040
:10252000B81B932A942A992A3808BD003708BC00A2
:102530009B2ABC01BD01BA01BB01AF2A203020009B
:10254000A6000030A7003E08B9003908A800913164
:102550007F21923101302000BA070030BB3D3B089B
:10256000803AB9003D08803A3902031DB92A3C0877
:102570003A02031CBC2ABD2A9E2A21006318C12AE4
:10258000C22ACB2A20003E08B9003908AE0036081E
:102590009D31BF25923120003608A3000230A400EF
:1025A0009B319923923120003C082307B6003D0857
:1025B000243DB70008002100B7013B2B20000F1974
:1025C000E22AE32AF82AEF302100AD00A030AE0065
:1025D0009B310B2392312100B701B70A30088600E6
:1025E00031088700810132088600330887008101A5
:1025F00020006A080319FD2AFE2A3B2B9F3124275D
:1026000092312100B4003408B6002B2B01007F303A
:102610002100AD00A130AE009B310B23923121008F
:1026200030088600310887008101320886003308AF
:102630008700810102302100B5000430B400BA30B7
:10264000890B202BB40B202BB50B202B0000210075
:10265000B701B70A3B2B3608B400B5013508003A7C
:102660000319332B3B2B3408303A0319062B043A59
:102670000319072B3B2B210037080319402B412B53
:10268000DE2A0800A030860001308700C1308400B7
:102690000030850014302100B60016001A00B60B79
:1026A0004D2BBE30860001308700B73084000030EB
:1026B00085000A30B60016001A00B60B5B2B0130FD
:1026C0009A312522933101309A31322293310030F0
:1026D0009A311822933100309A310B229331210024
:1026E00031082000AF00210030082000AE00DC30AF
:1026F000B000A130B1002E30B200A130B3003A30AA
:10270000B400A030B50091312E219331C1302000AA
:10271000B3000030B400210031082000B6002100D1
:1027200030082000B5009B3121239331200034086C
:102730002100D600200033082100D50056082000D3
:10274000B400210055082000B300B730B5000030B8
:10275000B6009B3121239331200034082100AE00C4
:10276000200033082100AD009B310B2393319031C1
:10277000E620933120000F1DBE2BBF2BBA2B21006A
:102780003208860033088700810134088600350846
:102790008700810108002000AB002B08A900290850
:1027A0002100E90000309A31F62293319C3020005C
:1027B000A900D730890BDA2BA90BDA2B03309B3118
:1027C000682393311A302000A900F830890BE62BDA
:1027D000A90BE62B000003309B31682393311A309C
:1027E0002000A900F830890BF32BA90BF32B000074
:1027F00003309B31682393311A302000A900F83050
:10280000890B002CA90B002C000002309B3168239F
:1028100093311A302000A900F830890B0D2CA90B38
:102820000D2C000028309B316823933102302000AA
:10283000AA000430A900BA30890B1C2CA90B1C2C4F
:10284000AA0B1C2C00000C309B3168239331023002
:102850002000AA000430A900BA30890B2D2CA90B46
:102860002D2CAA0B2D2C000001309B3168239331B5
:1028700002302000AA000430A900BA30890B3E2C97
:10288000A90B3E2CAA0B3E2C000006309B3168237E
:10289000933102302000AA000430A900BA30890B1D
:1028A0004F2CA90B4F2CAA0B4F2C00000800200026
:1028B000A800A901AA01280803195F2C602CC32CC9
:1028C000BD2C6A080319652C662CBD2C9F3124276A
:1028D00094312000A5002508A700A72C0100023094
:1028E0002000A6000430A500BA30890B752CA50B7A
:1028F000752CA60B752C00002000A901A90AAA01BD
:10290000AA0ABD2C02302000A6000430A500BA306F
:10291000890B882CA50B882CA60B882C0000200086
:10292000A9017F2C02302000A6000430A500BA3097
:10293000890B982CA50B982CA60B982C0000200036
:10294000A901A90AAA01AA0A22008C13BD2C2708F2
:10295000A500A6012608003A0319AF2CBD2C2508B6
:10296000303A03196E2C023A03196F2C013A0319FD
:10297000822C0A3A0319922CBD2C20002A08031934
:10298000C22CC32C612C2808031DC72CC82CEA2C90
:10299000E42C01309B31CE239431003A0319D12C21
:1029A000D22CD62C2000A901AA01AA0A01309B3101
:1029B000E9239431003A0319DE2CDF2CE42C2000AB
:1029C000A901A90AAA01AA0A20002A080319E92CC8
:1029D000EA2CC92C290808002000B5012B308600FC
:1029E00000308700473FB300B31FF72CF82C1A2D97
:1029F0002000AB09AC09AD09AE09AF09B009B109B6
:102A0000B209AB0A031D172DAC0A031D172DAD0A21
:102A1000031D172DAE0A031D172DAF0A031D172D19
:102A2000B00A031D172DB10A031D172DB20A20008D
:102A3000B501B50A2330860000308700473F2000EB
:102A4000B300B31F242D252D442D2000A309A40974
:102A5000A509A609A709A809A909AA09A30A031D86
:102A6000442DA40A031D442DA50A031D442DA60AC6
:102A7000031D442DA70A031D442DA80A031D442D40
:102A8000A90A031D442DAA0A2000230824042504B2
:102A900026042704280429042A040319502D512D43
:102AA000A42DB401B40A602DA335A40DA50DA60D67
:102AB000A70DA80DA90DAA0D0130B3003308B40766
:102AC000AA1F632D642D542D2A083202031D822D66
:102AD00029083102031D822D28083002031D822D92
:102AE00027082F02031D822D26082E02031D822D8A
:102AF00025082D02031D822D24082C02031D822D82
:102B000023082B02031C852D862D962D2308AB024E
:102B10002408AC3B2508AD3B2608AE3B2708AF3B5D
:102B20002808B03B2908B13B2A08B23BAA36A90CB9
:102B3000A80CA70CA60CA50CA40CA30C0130B40285
:102B4000031DA32DA42D642D35080319A82DA92D2F
:102B5000C72DAB09AC09AD09AE09AF09B009B10980
:102B6000B209AB0A031DC72DAC0A031DC72DAD0A60
:102B7000031DC72DAE0A031DC72DAF0A031DC72DA8
:102B8000B00A031DC72DB10A031DC72DB20A2000CC
:102B90002B08A3002C08A4002D08A5002E08A600D1
:102BA0002F08A7003008A8003108A9003208AA00A1
:102BB00008002000B5012330860000308700473F21
:102BC000B300B31FE42DE52D072E2000A309A409AF
:102BD000A509A609A709A809A909AA09A30A031D05
:102BE000042EA40A031D042EA50A031D042EA60A02
:102BF000031D042EA70A031D042EA80A031D042E7C
:102C0000A90A031D042EAA0A2000B501B50A2B301B
:102C1000860000308700473F2000B300B31F112E0D
:102C2000122E362E2000AB09AC09AD09AE09AF0952
:102C3000B009B109B209AB0A031D312EAC0A031D5C
:102C4000312EAD0A031D312EAE0A031D312EAF0AFF
:102C5000031D312EB00A031D312EB10A031D312E82
:102C6000B20A01302000B3003308B50636308600C2
:102C70000030870008302000B30000301E00B30B86
:102C80003E2E2308240425042604270428042904AE
:102C90002A0403194C2E4D2EA92EB401B40A5C2E21
:102CA000A335A40DA50DA60DA70DA80DA90DAA0D60
:102CB0000130B3003308B407AA1F5F2E602E502ED8
:102CC000B635B70DB80DB90DBA0DBB0DBC0DBD0DA8
:102CD0002A083202031D862E29083102031D862E82
:102CE00028083002031D862E27082F02031D862E7A
:102CF00026082E02031D862E25082D02031D862E72
:102D000024082C02031D862E23082B02031C892E67
:102D10008A2E9B2E2308AB022408AC3B2508AD3B32
:102D20002608AE3B2708AF3B2808B03B2908B13B3B
:102D30002A08B23B3614AA36A90CA80CA70CA60C7C
:102D4000A50CA40CA30C0130B402031DA82EA92EBF
:102D5000602E35080319AD2EAE2ECC2EB609B7095C
:102D6000B809B909BA09BB09BC09BD09B60A031DEE
:102D7000CC2EB70A031DCC2EB80A031DCC2EB90ADF
:102D8000031DCC2EBA0A031DCC2EBB0A031DCC2E6C
:102D9000BC0A031DCC2EBD0A20003608A30037084C
:102DA000A4003808A5003908A6003A08A7003B0887
:102DB000A8003C08A9003D08AA0008002100A900BD
:102DC00020005D0886008701403FDF00413FE000B2
:102DD0005F088400600885001200253A031DF12E6B
:102DE000F22EDA2F5D08860087010130810741311C
:102DF0000318810A2200D501D6012100E301E40174
:102E0000FF30E100FF30E20020005D08860087010E
:102E1000403FDF00413FE0005F088400600885001C
:102E20001200643A0319152F162F272F5D0886000C
:102E30008701403FDF00413FE0005F0884006008F9
:102E400085001200693A031D262F272F752F5D0874
:102E5000860087010130810741310318810A5E082D
:102E60008600870101088400850102308107003F48
:102E7000DF00013FE0005F082100A00020006008A3
:102E80002100A100890D893B8909A200A300A400AB
:102E9000A500A600A70020082000BF0021002108EF
:102EA0002000C000210022082000C10021002308CA
:102EB0002000C200210024082000C30021002508B2
:102EC0002000C400210026082000C500210027089A
:102ED0002000C6002100290888314F2096312000AB
:102EE0004008DE003F08DD00FF2F5D0886008701F7
:102EF000403FDF00413FE0005F088400600885003C
:102F000012006E3A031D852F862FA52F5D088600BF
:102F100087010130810741310318810A5E0886006C
:102F20008701403F84008501810A0008DF005F08B7
:102F30002100A8002808860087015F08C03F6008BC
:102F4000C13F2000DD01DE01FF2F5D088600870103
:102F5000403FDF00413FE0005F08840060088500DB
:102F60001200253A031DB52FB62FD12F5D0886001C
:102F700087010130810741310318810A2530A600FD
:102F80000030A700210029082000DF005F08A8000A
:102F900091317F21963101302000DD000030DE00CC
:102FA000FF2F5D088600870101308107413103183A
:102FB000810AA12F5D0886008701403FDF00413F65
:102FC000E0005F088400600885000008E100E2017D
:102FD0006108A6006208A700210029082000E3007C
:102FE0006308A80091317F21963120005D0886009A
:102FF00087010130810741310318810ACB2F080076
:10300000333419349C3419348C341934D134113498
:10301000123410347E341934C6341E343834193422
:103020003D34193442341934473419344C3419348A
:1030300051341934563419345B3419343E341E3447
:103040002D343E34203454344534533454342034F5
:1030500043344F344E3446344F3452344D34453477
:1030600020342D34203441345434543445344E34D7
:103070005434453420344134433451345534493484
:103080005434543445344D3445344E3454340D3472
:043090000A340034CA
:103202000800013008002400961408002400161556
:103212000800240096150800240011080800200068
:10322200911508002000911108009B31B3239931B8
:10323200080023001D121D160800240096161616FB
:10324200080024009612161608009E31982699311D
:1032520008001630210097000800F00070082400D2
:10326200910008002300E410E3010E3008009931B8
:103272000421993101300800993104219931023039
:103282000800993104219931013008009931072150
:103292009931003008009931222199310530080016
:1032A20099311E2199310A30080099311E21993134
:1032B200093008002300E410E3010E300800240066
:1032C200160E890C890C013908009931E6219931D1
:1032D2002400161408009931E621993124001615AC
:1032E2000800640080010131890B73290034FE005B
:1032F20012001E00FE0B792900342300641099315C
:103302000A219931043008002000A50025089E31C9
:103312006B2699310800230064145E3599312E2101
:10332200993103300800F03021009E009B019C017E
:1033320001309D0008002300641403145E0D9931CE
:103342002E21993105300800200024082200D800DF
:10335200200023082200D7000800200024082200B1
:10336200DC00200023082200DB00080020002408E3
:103372002200DA00200023082200D90008002000E1
:1033820024082200DE00200023082200DD000800BD
:10339200200024082100E600200023082100E50087
:1033A200080001309B31682399313530890BD729C8
:1033B200000008002830240095009601940127306F
:1033C200920021008E150E16080024001419EA2915
:1033D200EB29E62916081F39031DF029F129E629F0
:1033E2000800703021009900980122009601210006
:1033F2001A1FFC29FD29F82908007608F100750832
:10340200F0007708F8007808F20000309D31E825D6
:10341200993108002000A30023080319112A122A57
:10342200152A22000C14172A22000C100800200072
:10343200A300230803191E2A1F2A222A220010147D
:10344200242A2200101008002000A30023080319D8
:103452002B2A2C2A2F2A22009014312A2200901083
:1034620008002000A30023080319382A392A3C2A1D
:10347200220010153E2A2200101108002000A3008D
:1034820023080319452A462A492A22008C144B2A6A
:1034920022008C1008002000A30023080319522ADE
:1034A200532A562A22000C15582A22000C11080011
:1034B2002000A300230803195F2A602A632A22003E
:1034C2000C16652A22000C1208002000A300230813
:1034D20003196C2A6D2A702A22008C16722A220085
:1034E2008C1208002000A30023080319792A7A2AE3
:1034F2007D2A22008C157F2A22008C11080032308E
:10350200240092003630950096018030940021000C
:103512008E150E168B170B1791150800F30023005A
:10352200E41D942A952A9E2A7308F2007208DF008D
:103532007108E1007008E000E41108002000A30017
:103542009931E6219A3120002308240091002000BD
:10355200911DAC2AAD2AA82A911108000230F00070
:103562000030F10079089A318F229A310030F5004B
:10357200F600F7019931FE219A310430080001303A
:10358200F0000030F10079089A318F229A31003030
:10359200F500F600F7019931FE219A310230080058
:1035A2000230F0000030F10079089A318F229A310E
:1035B2000030F500F600F7019931FE219A31023010
:1035C20008002D343E3420344534523452344534CC
:1035D200553452343A342034003400340034003448
:1035E200003400340034003400342000A400993147
:1035F20066219A31210069089A319F229A3120006E
:10360200240821006E049A319F229A3199316C214B
:103612009A310800AF302000E90069082100AF00AC
:103622002E082000E50021002D082000E400AF3024
:10363200E9006908E60000309F3153279B310800FA
:1036420020003408A4003308A3009B3199239B3146
:10365200200023083307A7002408343DA8003608B9
:10366200AA003508A9009D3170259B310800790810
:1036720086008701403FF000413FF1007908023E99
:103682008600870101089A318F229B310030F500B4
:10369200F600F7019931FE219B310230080020002B
:1036A200A60021006A082000A5002508A604260815
:1036B20004389A31F6229B3120002608FB399A31D0
:1036C200F6229B314230890B642B00320800200025
:1036D200A8002100EA0120002808F0399B3150237C
:1036E2009B3120002808A7000330A735FF3E031DA9
:1036F200762B2735F0399B3150239B31080020006F
:10370200A8002100EA01EA0A20002808F0399B31CA
:1037120050239B3120002808A7000330A735FF3E25
:10372200031D8F2B2735F0399B3150239B31080025
:1037320020002408A6002308A500A32B0130A3071C
:103742000030A43D23088600240887000108031DD9
:10375200AB2BAC2B9F2B25082302A3002608243B6E
:10376200A400080023001908F00020006C08E53EC0
:10377200860001308700700881000130F000700877
:10378200EC0708306C02031CC72BC82BC92BEC01B9
:103792000130F0007008EA0708002000A400A3012D
:1037A20024080319D52BD62BDC2B8F1BD92BDA2B14
:1037B200DC2BA301A30A2408031DE02BE12BE72B3A
:1037C2008F1FE42BE52BE72BA301A30A2308080094
:1037D2002000A400A30124080319F02BF12BF72BDE
:1037E2000F19F42BF52BF72BA301A30A2408031DB1
:1037F200FB2BFC2B022C0F1DFF2B002C022CA301F8
:10380200A30A2308080020003708803AB800803055
:103812003802031D0E2C013036020318112C122C13
:103822001F2C20003609B8003709B900B80A03195D
:10383200B90A3808B6003908B7001F2C0800220060
:1038420090018F018C018D018E01083021009000C2
:103852008C01CF308D00BF308E00FF308F002300EF
:103862008F013F308D0090013C308C00240090018C
:103872008D012100951722009D01080022000C17DE
:1038820006302000A4001330A300AD30890B472C72
:10389200A30B472CA40B472C003222000C1306303A
:1038A2002000A4001330A300AD30890B562CA30BCB
:1038B200562CA40B562C003208002000AC01AD019E
:1038C200712C29082C0784002A082D3D8500000848
:1038D2009B3180239C3101302000AC070030AD3D8C
:1038E20029082C0784002A082D3D85001200031D9B
:1038F2007B2C7C2C622C08002000A6002608A50048
:10390200A50DA50D21001D082000250683392506D9
:1039120021009D001D140D30890B8D2C000021000B
:103922009D149D18952C962C922C1C082000A40006
:1039320021001B082000A300080020302100AD0058
:103942009830AE009B310B239C312100B101B201B2
:103952009D314A259C3101302100B1070030B23D32
:103962003208803AB00080303002031DBA2C023097
:103972003102031CBD2CBE2CA92C080008302100EA
:103982006C020318C52CC62CDF2C6D084D3E860038
:1039920001308700010823009A000130F00070080E
:1039A2002100ED0708306D02031CD82CD92CDA2C2B
:1039B200ED010130F0007008EC07E02C1112080054
:1039C2002000A400A30124080319E82CE92CF32CFD
:1039D2000F1CEC2CED2CF32C8F18F02CF12CF32C6B
:1039E200A301A30A2408031DF72CF82C022D0F189B
:1039F200FB2CFC2C022D8F1CFF2C002D022DA30171
:103A0200A30A230808002000A400A3012408031924
:103A12000B2D0C2D162D8F1D0F2D102D162D0F1A5F
:103A2200132D142D162DA301A30A2408031D1A2DEC
:103A32001B2D252D8F191E2D1F2D252D0F1E222DDD
:103A4200232D252DA301A30A230808002000A4008A
:103A5200A301240803192E2D2F2D392D8F1E322D4F
:103A6200332D392D0F1B362D372D392DA301A30AE6
:103A72002408031D3D2D3E2D482D8F1A412D422D28
:103A8200482D0F1F452D462D482DA301A30A2308BB
:103A920008002000A801A9019E3112269D310B3099
:103AA2002000A7002630A6005D30890B562DA60BFC
:103AB200562DA70B562D003201302000A8070030EA
:103AC200A93D2908803AA60080302602031D6B2DED
:103AD20002302802031C6E2D6F2D4D2D0800200090
:103AE2002A08B0002908AF002808B2002708B10050
:103AF2003208AC003108AB00B10A0319B20A2B0834
:103B020086002C0887003008AE002F08AD00AF0AEF
:103B12000319B00A2D0884002E0885000008C03F52
:103B22008908031D952D962D792D08002D343E34DC
:103B320020344534523452344534553452343A34B4
:103B420020340034003400340034003400340034B3
:103B5200003400340D340A340034003400340034AC
:103B620000340034003400340D340A34003400349C
:103B72000034003400340034003400342000B50036
:103B8200B301B401D72D3208AF00B0012F08A6004F
:103B92003008A7002E08B1003108A80091317F211A
:103BA2009D3101302000B3070030B43D33083507A2
:103BB200AF002F088600023087000108B0003008ED
:103BC200B2003208031DE62DE72DC42D0800F400D3
:103BD200700871040319EE2DEF2D022E7435C83EC4
:103BE2008600013087007008C03F7108C13F72082B
:103BF200F3007408D43E8600013087007308810008
:103C0200112E7435C83E8600013087000230C03F55
:103C12001930C13F7408D43E86000130870081010B
:103C220008002000A401A50122000D160630200084
:103C3200A3003030890B1B2EA30B1B2E0000220089
:103C42000D1206302000A3003030890B262EA30B64
:103C5200262E000001302000A4070030A53D2508D3
:103C6200803AA30080302302031D392E3230240211
:103C7200031C3C2E3D2E152E08002300641002303A
:103C8200FA007A08E3004D2E993142219E316A2EC4
:103C9200993147219E316A2E5608FA007A08F900B6
:103CA2000430C83E860001308700413F8A00403F11
:103CB2000A009E31FB00FC017C08003A0319622EC7
:103CC200492E7B08023A0319452E013A0319452E63
:103CD200492E08002000A40021006C080319722E4E
:103CE200732E6D2E111A762E772E7C2E200024082C
:103CF20023009A00952E111220002408A3007D08AB
:103D02004D3E860001308700230881000130A30068
:103D12002308FD0708307D02031C902E912E922E5F
:103D2200FD0101302100EC02210011160800993139
:103D320013219E312300641C9F2EA02EAE2E99319A
:103D420060219E31003A0319A72EA82EAE2E0F3005
:103D52002000A00020082300E200230062082000C7
:103D6200A000A101A035A10D0030200784009830E9
:103D7200213D8500013F8A00003F0A009E3120005C
:103D8200A20022082300E20008002300E415D62E38
:103D9200993142219E31F42E993110219E31033006
:103DA200F42E993147219E31F42E5408FA007A08F4
:103DB200F90049088A0048080A009E31FB00FC010C
:103DC2007C08003A0319E62ED22E7B08013A031929
:103DD200D22E033A0319C92E013A0319C92E073A02
:103DE2000319CD2ED22E08002000AC00102F290876
:103DF200BF3E9B3168239E31232F2908933E9B317E
:103E020068239E31232F2908D33E9B3168239E319C
:103E1200232F29087F3E9B3168239E31232F2C08B4
:103E2200AA00AB012B08003A0319182F0A2F2A08FF
:103E3200023A0319F82E013A0319FE2E073A031922
:103E4200042F0A2F080020006A080319292F2A2F9D
:103E5200242F6B08453E8600013087000108A3002D
:103E620023082100EB0020006B08E53E86000130AC
:103E720087000108A3002308A4000130A30023083F
:103E8200EB0708306B02031C472F482F492FEB0129
:103E92002100911201302000EA0221009116200037
:103EA200240808002100AA00200065082100AC00B7
:103EB200200064082100AB00DF01E001762FAB3067
:103EC2002000E7006708DD006608E8006808DE00F9
:103ED20021002A089631DE269F3120005D0821004C
:103EE200DF0720005E082100E03D2B0884002C083B
:103EF20085001200031D7E2F7F2F602F6008200097
:103F0200E50021005F082000E40008002100B40061
:103F1200AF302000E90069082100B3003408200016
:103F2200E90069082100B500B601B701B801B9017D
:103F32002E082000E50021002D082000E400B33007
:103F4200E9006908E600B5309F3153279F31200010
:103F520065082100B200200064082100B100360883
:103F620034072000E90069088600023087008101D9
:103F720021003208AE003108AD00080020006C08B4
:103F8200453E860001308700810123001D1DCA2F96
:103F9200CB2FD82F20006C08453E860001308700C9
:103FA200811422005C088A005B080A009F3123000A
:103FB2009D1CDC2FDD2FEA2F20006C08453E860079
:103FC20001308700011522005A088A0059080A00A8
:103FD2009F3120006C08453E8600013087000108B1
:103FE2000319F42FF52FFC2F220058088A005708D6
:103FF2000A009F31FF2F9B31B3239F3108004134C8
:104002007434743465346E347434653420347634E4
:1040120061346C34693464346134743469346F34B7
:104022006E3420346C3465346434203472346F342A
:104032007534673465340D340A3400342D343E341B
:104042002034503452344F344734523441344D3496
:104052004D344134543449344F344E342034543482
:10406200453452344D3449344E34453445340D349C
:104072000A3400342D343E342034503452344F3418
:104082004734523441344D344D344134543449343C
:104092004F344E34203445344E34203443344F347C
:1040A2005534523453340D340A3400342D343E34F2
:1040B2002034453452345234453455345234203449
:1040C200503452344F344734523441344D344D34E9
:1040D2004134543449344F344E340D340A340034AC
:1040E2002D343E3420345434453453345434203443
:1040F2004D3441344E34553445344C3420344534F7
:104102004E34203443344F345534523453340D3406
:104112000A34003441345434543445344E34543423
:1041220045342034563441344C34493444344134D7
:10413200543449344F344E3420344C3445344434AE
:1041420053340D340A3400342D343E342034533485
:104152004C3441345634453420345234453453348B
:1041620050344F344E345334453420344E34553465
:104172004C344C340D340A3400342D343E34203463
:104182004534463446344134433445344D34453461
:104192004E345434203445344E34203443344F3476
:1041A2005534523453340D340A3400342D343E34F1
:1041B20020344534463446344134433445344D3456
:1041C20045344E34543420345434453452344D340E
:1041D20049344E3445340D340A3400342D343E34DF
:1041E2002034463449344E34203454344534533424
:1041F200543420344D3441344E34553445344C34E7
:104202000D340A3400344534523452344534553472
:1042120052342034503452344F34473452344134BF
:104222004D344D344134543449344F344E340034D7
:104232005034523445345334533445345234203498
:104242004F344B3420344F345534203445345234B7
:104252005234453455345234003441345434543495
:1042620045344E345434453420344134433451348B
:10427200553449345434543445344D3445344E3431
:10428200543400342D343E3420344134703470348C
:10429200753479346534723420347334753472343D
:1042A20020344F344B340D340A3400345434453402
:1042B2005334543420345234313420344F3446345D
:1042C200463420342D3420345234323420344F34A6
:1042D2004E3400345434453453345434203452343C
:1042E200323420344F344634463420342D34203492
:1042F2005234333420344F344E3400342D343E346F
:104302002034543445345334543420344134433407
:104312005134553449345434543445340D340A3408
:1043220000342D343E34203453344C34413456342A
:1043320045345F34543445345334543420344F3488
:104342004E340D340A340034543445345334543426
:1043520020344334413452345434453420344434C8
:1043620039343234353445344434343400345634F8
:104372004534523449344634493445345234203475
:1043820050343134203445345434203450343234AF
:10439200003452344534533455344C34543441345B
:1043A2005434203443344F344E3446344934523436
:1043B2004D34453400345434453453345434203469
:1043C2004E344F344E34203443344F344E3446341A
:1043D2004F3452344D3445340034463449344E342B
:1043E2002034503452344F344734523441344D34F3
:1043F2004D344134543449344F344E340034503403
:104402004F3453344934543449344F344E344E3497
:1044120045345234203443344134523454344534D4
:104422000034543445345334543420343334203437
:10443200523445344C3441344934533420344F34AB
:1044420046344634003443344C34413456344934CF
:10445200453452342034453443344C3441344934A5
:10446200523445343F34003450345234453453349A
:1044720053344534523420344F344B3420342F34A7
:1044820020344E344F344B34003454344534533496
:104492005434203433342034523445344C3441348F
:1044A2004934533420344F344E3400345434453478
:1044B2005334543420344C3445344434203443345B
:1044C2004C34413456344934453452340034433444
:1044D2004C34413456344934453452342034453412
:1044E2005434453449344E3454343F340034543413
:1044F20045345334543420344C34453444345334E6
:104502002034433441345234543445340034453435
:1045120052345234453455345234203456344134B2
:104522004C344934443445344534003446344934F7
:104532004E342034453446344634413443344534D1
:104542004D3445344E3454340034543445345334A9
:10455200543420344C3445344434203452344F34AF
:104562005534473445340034543445345334543488
:1045720020344C3445344434203456344534523497
:104582005434453400345434453453345434203490
:104592004C3445344434203442344C34453455345C
:1045A200453400344D344F34443455344C3445345E
:1045B20020344534533443344C3441345634453436
:1045C20000345434453453345434203442344C345B
:1045D2005534453454344F344F3454344834003411
:1045E20041345034503455345934453452342034E3
:1045F20053345534523420344F344B3400344D3418
:1046020061347334743465347234203465346E34F6
:104612002034743465347334743400342D343E34AD
:104622002034543445345334543420344F344634D3
:1046320046340D340A3400344D344F344434553446
:104642004C34453420344D3441344934543452349A
:1046520045340034523445345434493452344534A8
:1046620052342034433441345234543445340034C7
:104672004C34453444345334203441344C344C3477
:1046820055344D3445344534533400342D343E349E
:104692002034543445345334543420344F344E345B
:1046A2000D340A3400342D343E342034543445342D
:1046B200533454343A34313430343A3431340034AB
:1046C2002D343E34203454344534533454343A3443
:1046D200313432343A34313400342D343E342034DF
:1046E20054344534533454343A34313433343A3410
:1046F200313400342D343E34203454344534533470
:1047020054343A34313434343A34313400342D347C
:104712003E34203454344534533454343A343134EE
:1047220035343A34313400342D343E342034543468
:104732004534533454343A34313436343A343134DF
:1047420000342D343E3420345434453453345434FC
:104752003A34313437343A34313400342D343E343F
:10476200203454344534533454343A3431343834A4
:104772003A343134003454344534533454342034CC
:1047820048344F3452344C344F3447344534003477
:104792002D343E34203454344534533454343A3472
:1047A20031343A34313400342D343E3420345434EC
:1047B2004534533454343A3432343A343134003494
:1047C2002D343E34203454344534533454343A3442
:1047D20033343A34313400342D343E3420345434BA
:1047E2004534533454343A3434343A343134003462
:1047F2002D343E34203454344534533454343A3412
:1048020035343A34313400342D343E342034543487
:104812004534533454343A3436343A34313400342F
:104822002D343E34203454344534533454343A34E1
:1048320037343A34313400342D343E342034543455
:104842004534533454343A3438343A3431340034FD
:104852002D343E34203454344534533454343A34B1
:1048620039343A34313400345434453453345434C2
:104872002034533446344C344134533448340034B5
:10488200463449344E34203444344534203454348C
:10489200453453345434003456344F34493452344A
:1048A20020344134503450344C344934003454347C
:1048B20045345334543420345234313420344F3458
:1048C2004E34003445345434413450344534203469
:1048D2003134303400344534543441345034453466
:1048E2002034313432340034543445345334543463
:1048F2002034423450343234003445345434413458
:104902005034453420343134333400344534543453
:104912004134503445342034313434340034453455
:104922005434413450344534203431343534003435
:1049320045345434413450344534203431343634DF
:104942000034453454344134503445342034313405
:1049520037340034453454344134503445342034EF
:1049620031343834003454344534533454342034DC
:104972004F344B340034453454344134503445348C
:1049820020343134003454344534533454342034D4
:104992005034313400344534543441345034453485
:1049A20020343234003454344534533454342034B3
:1049B2005034323400344534543441345034453464
:1049C2002034333400344534543441345034453483
:1049D2002034343400344534543441345034453472
:1049E2002034353400344534543441345034453461
:1049F2002034363400344534543441345034453450
:104A0200203437340034453454344134503445343E
:104A1200203438340034453454344134503445342D
:0C4A22002034393400342534643400346E
:020000040001F9
:08000000FF3FFF3FFF3FFF3F00
:04000E00E43FFF3F8D
:00000001FF
