:1000000080314A28053008007E1480310B1F0928F2
:100010000A2848282100111E0E280F281B2820001E
:10002000111E132814281B28210066088A00650861
:100030000A00803148282100911E1F2820282C28E2
:100040002000911E242825282C2822006C088A00D4
:100050006B080A00803148282100921D3028312881
:100060003D282000921D352836283D2821006808AB
:100070008A0067080A00803148282100911D412824
:10008000422848282000911D46284728482836281D
:100090007E10090080314C282100A2315E2280317F
:1000A000EE000030840088308500CD3086000130BD
:1000B00087001430A231EB228031FF308400A6305B
:1000C000850020308600023087002830A231EB22E4
:1000D0008031FD012000EA01EB01EC01DF308400FA
:1000E000003085000F30A231E52280315B30840082
:1000F000013085001430A231E5228031A030840027
:10010000013085002D30A231E52280314830840055
:10011000023085002030A231E52280317E1020009F
:100120008331982BBD302100AD00AD30AE00A4313D
:100130008A248031A231CE2280312200C1004108C0
:10014000D5005308C100C20141082100B0002200BF
:1001500042082100B1002200550886311D26803159
:10016000A431022480312200C1004108D6005A3057
:10017000C10041082100B00058302200C2004208EE
:100180002100B10054302200C30043082100B20016
:1001900022005608C40044082100B30059308831B9
:1001A0001420803122005A080319D728D828422960
:1001B000BC302000AE00AE30AF009330B000AC30A9
:1001C000B1003A30B200A830B3003A30B400A830E1
:1001D000B5009A31E52280310130A331B22380315C
:1001E00006302200C2001330C100AD30890BF62862
:1001F000C10BF628C20BF62800320030A331B2231F
:10020000803122005008031906290729422959087C
:100210009031032080312200C1004108D7005708E7
:10022000031D132914293A29DA01BC302100B0003A
:10023000AE30B1005A30B2000130B3005730B400D4
:100240000130B5009C31F924803159302100B800CB
:100250000130B9005A30BA000130BB005730BC0041
:100260000130BD005830BE000130BF009B31DF239C
:1002700080314229C9302100AD00AD30AE00A4313B
:100280008A248031A231CE2280312200C10041086F
:10029000D5005308C100C20141082100B00022006E
:1002A00042082100B1002200550886311D26803108
:1002B000A431022480312200C1004108D6005A3006
:1002C000C10041082100B00058302200C20042089D
:1002D0002100B10054302200C30043082100B200C5
:1002E00022005608C40044082100B3005930883168
:1002F0001420803122005A0803197F298029EE2911
:10030000C4302000AE00AE30AF002830B000AE30B8
:10031000B1003A30B200A830B3003A30B400A8308F
:10032000B5009A31E52280310130A331B22380310A
:1003300015302200C2004B30C100BE30890B9E290F
:10034000C10B9E29C20B9E2900000030A331B223AD
:10035000803115302200C2004B30C100BE30890B05
:10036000AF29C10BAF29C20BAF2900000130A63164
:1003700049268031003A0319BE29BF29C829D53042
:100380002100AD00AD30AE00A4318A248031EE29C9
:100390002200DA01C4302100B000AE30B1005A3082
:1003A000B2000130B3005730B4000130B5009C31C9
:1003B000F924803159302100B8000130B9005A3099
:1003C000BA000130BB005730BC000130BD005830CE
:1003D000BE000130BF009B31DF238031A231CE222D
:1003E00080312200C1004108D5005308C100C2017C
:1003F00041082100B000220042082100B100220083
:10040000550886311D268031A43102248031220016
:10041000C1004108D6005A30C10041082100B00097
:1004200058302200C20042082100B100543022009E
:10043000C30043082100B20022005608C40044084B
:100440002100B300593088311420803122005A082D
:1004500003192B2A2C2AA32ACC302000AE00AE3060
:10046000AF00FB30B000A930B1003A30B200A83084
:10047000B3003A30B400A830B5009A31E52280319B
:100480000130A331B223803115302200C2004B303D
:10049000C100BE30890B4A2AC10B4A2AC20B4A2A24
:1004A00000000030A331B223803115302200C20099
:1004B0004B30C100BE30890B5B2AC10B5B2AC20BDB
:1004C0005B2A00000030A63149268031003A03192A
:1004D0006A2A6B2A7D2A0130A6316C268031003AC7
:1004E0000319732A742A7D2AE1302100AD00AD3052
:1004F000AE00A4318A248031A32A2200DA01CC3054
:100500002100B000AE30B1005A30B2000130B3006B
:100510005730B4000130B5009C31F9248031593096
:100520002100B8000130B9005A30BA000130BB00D8
:100530005730BC000130BD005830BE000130BF0054
:100540009B31DF238031A231CE2280312200C100D5
:100550004108D5005308C100C20141082100B00084
:10056000220042082100B1002200550886311D26D4
:100570008031A431022480312200C1004108D6001C
:100580005A30C10041082100B00058302200C2009A
:1005900042082100B10054302200C300430821006A
:1005A000B20022005608C40044082100B3005930AC
:1005B00088311420803122005A080319E02AE12AE8
:1005C000582BD4302000AE00AE30AF000F30B0005A
:1005D000AA30B1003A30B200A830B3003A30B400CB
:1005E000A830B5009A31E52280310130A331B22321
:1005F000803115302200C2004B30C100BE30890B63
:10060000FF2AC10BFF2AC20BFF2A00000030A331D2
:10061000B223803115302200C2004B30C100BE3001
:10062000890B102BC10B102BC20B102B00000030BC
:10063000A6316C268031003A03191F2B202B322B58
:100640000130A6318F268031003A0319282B292B3F
:10065000322BED302100AD00AD30AE00A4318A2444
:100660008031582B2200DA01D4302100B000AE30A6
:10067000B1005A30B2000130B3005730B40001303D
:10068000B5009C31F924803159302100B800013087
:10069000B9005A30BA000130BB005730BC000130FD
:1006A000BD005830BE000130BF009B31DF238031D8
:1006B000A231CE2280312200C1004108D50053086A
:1006C000C100C20141082100B000220042082100FF
:1006D000B1002200550886311D268031A431022444
:1006E00080312200C1004108D6005A30C1004108C3
:1006F0002100B00058302200C20042082100B100A1
:1007000054302200C30043082100B20022005608E2
:10071000C40044082100B3005930883114208031CE
:1007200022005A080319962B88317F2889313829ED
:100730008731F02783318B170B172200DA01D7019D
:10074000D901CF01D801D80AC901C90AD401D301FE
:1007500015302200C2004B30C100BE30890BAE2BD9
:10076000C10BAE2BC20BAE2B000020008E1AB92B92
:10077000BA2BC02B2200C901A331F3238331C32B31
:10078000A3314E23833120000E1CC72BC82BCC2B4A
:100790002200D001D00ACE2B2200D00120008E18DA
:1007A000D22BD32BD72B2200CF01CF0AD92B22005B
:1007B000CF014E309D318225833149302000AE007B
:1007C000AA30AF00ED30B000AC30B1003430B20030
:1007D000AB30B300CF30B400AC30B5009A31E52275
:1007E000833103302200C2000830C1007730890B0A
:1007F000F72BC10BF72BC20BF72B46309D3182250F
:10080000833149302000AE00AA30AF00B130B000D3
:10081000AC30B1003430B200AB30B300CF30B400F4
:10082000AC30B5009A31E522833103302200C2009A
:100830000830C1007730890B1B2CC10B1B2CC20B5D
:100840001B2C22008C133F2C5A30C1004108210080
:10085000B50058302200C20042082100B6005430D2
:100860002200C30043082100B70053302200C40017
:1008700044082100B8005930953191258331220078
:100880005A080319442C452C242CD801A631B22631
:1008900083312200DA01DA0A0030A3318B2383315D
:1008A0000030A331982383310130A331A523833154
:1008B00003302200C2000830C1007730890B5E2C63
:1008C000C10B5E2CC20B5E2C46309D3182258331DC
:1008D00049302000AE00AA30AF00DE30B000AC30AE
:1008E000B1003430B200AB30B300CF30B400AC3024
:1008F000B5009A31E522833103302200C20008306E
:10090000C1007730890B822CC10B822CC20B822C48
:100910004E309D31822583318C302000AE00AE30C8
:10092000AF002430B000AC30B1003A30B200A83093
:10093000B3003A30B400A830B5009A31E5228331D3
:100940000130A331B22383310130A331BF2383317E
:1009500015302200C2004B30C100BE30890BAE2CD6
:10096000C10BAE2CC20BAE2C00000130A3317E2394
:10097000833129302200C2009630C1007F30890BBC
:10098000BF2CC10BBF2CC20BBF2C0130A631492696
:100990008331003A0319CD2CCE2CE92C0130A6313D
:1009A0006C268331003A0319D62CD72CE92C013060
:1009B000A6318F268331003A0319DF2CE02CE92C75
:1009C00099302100AD00AD30AE00A4318A248331CE
:1009D000172D2200DA010030A331B2238331003019
:1009E000A331BF2383318C302100B000AE30B10081
:1009F0005A30B2000130B3005730B4000130B500B6
:100A00009C31F924833159302100B8000130B900FC
:100A10005A30BA000130BB005730BC000130BD0075
:100A20005830BE000130BF009B31DF238331A2313B
:100A3000CE2283312200C1004108D5005308C100F5
:100A4000C20141082100B000220042082100B1008B
:100A50002200550886311D268331A43102248331BA
:100A60002200C1004108D6005A30C10041082100CF
:100A7000B00058302200C20042082100B1005430BA
:100A80002200C30043082100B20022005608C4001F
:100A900044082100B30059308831142083311530C7
:100AA0002200C2004B30C100BE30890B552DC10B56
:100AB000552DC20B552D00000030A331B2238331D8
:100AC0000030A331BF23833122005A080319692D56
:100AD0006A2DDD2D9C302000AE00AE30AF004630D8
:100AE000B000AB30B1003A30B200A830B3003A30B9
:100AF000B400A830B5009A31E52283310030A3312B
:100B0000B22383310030A331BF2383310B30220065
:100B1000C2002630C1005D30890B8C2DC10B8C2D9D
:100B2000C20B8C2D00320130A63149268331003AA8
:100B3000031D9B2D9C2DB72D0130A6316C268331D2
:100B4000003A031DA42DA52DB72D0130A6318F2607
:100B50008331003A031DAD2DAE2DB72DA5302100F8
:100B6000AD00AD30AE00A4318A248331DD2D2200EA
:100B7000DA019C302100B000AE30B1005A30B20032
:100B80000130B3005730B4000130B5009C31F92476
:100B9000833159302100B8000130B9005A30BA0011
:100BA0000130BB005730BC000130BD005830BE00E2
:100BB0000130BF009B31DF238331A231CE2283314C
:100BC0002200C1004108D5005308C100C2014108FC
:100BD0002100B000220042082100B1002200550887
:100BE00086311D268331A431022483312200C100C5
:100BF0004108D6005A30C10041082100B0005830E9
:100C00002200C20042082100B10054302200C3007B
:100C100043082100B20022005608C4004408210005
:100C2000B300593088311420833122005A08031947
:100C30001B2E9031982891310B292100B4006D2F83
:100C40009330AD00A930AE00A4318A248631EF2F55
:100C50005830AD00AB30AE00A4318A248631EF2F7E
:100C6000F130AD00AB30AE00A4318A248631EF2FD5
:100C70006930AD00AB30AE00A4318A248631EF2F4D
:100C8000F130AD00AB30AE00A4318A248631EF2FB5
:100C90007A30AD00AB30AE00A4318A248631EF2F1C
:100CA000F130AD00AB30AE00A4318A248631EF2F95
:100CB0008B30AD00AB30AE00A4318A248631EF2FEB
:100CC000F130AD00AB30AE00A4318A248631EF2F75
:100CD0009C30AD00AB30AE00A4318A248631EF2FBA
:100CE000F130AD00AB30AE00A4318A248631EF2F55
:100CF000AD30AD00AB30AE00A4318A248631EF2F89
:100D0000F130AD00AB30AE00A4318A248631EF2F34
:100D1000BE30AD00AB30AE00A4318A248631EF2F57
:100D2000F130AD00AB30AE00A4318A248631EF2F14
:100D3000CF30AD00AB30AE00A4318A248631EF2F26
:100D4000F130AD00AB30AE00A4318A248631EF2FF4
:100D5000E030AD00AB30AE00A4318A248631EF2FF5
:100D6000F130AD00AB30AE00A4318A248631EF2FD4
:100D70005C30AD00AA30AE00A4318A248631EF2F5A
:100D8000F130AD00AB30AE00A4318A248631EF2FB4
:100D90006E30AD00AA30AE00A4318A248631EF2F28
:100DA000F130AD00AB30AE00A4318A248631EF2F94
:100DB0008030AD00AA30AE00A4318A2486312100F3
:100DC000300886003108870001308100EF2FF130B4
:100DD000AD00AB30AE00A4318A248631EF2F9230C3
:100DE000AD00AA30AE00A4318A248631210030083B
:100DF0008600310887008101EF2FF130AD00AB3064
:100E0000AE00A4318A248631EF2FA430AD00AA3081
:100E1000AE00A4318A248631EF2FF130AD00AB3023
:100E2000AE00A4318A248631EF2FB630AD00AA304F
:100E3000AE00A4318A248631EF2FF130AD00AB3003
:100E4000AE00A4318A248631EF2FC830AD00AA301D
:100E5000AE00A4318A248631EF2FF130AD00AB30E3
:100E6000AE00A4318A248631EF2FDA30AD00AA30EB
:100E7000AE00A4318A248631DF2EF130AD00AB30D4
:100E8000AE00A4318A248631EF2FEC30AD00AA30B9
:100E9000AE00A4318A248631F62EF130AD00AB309D
:100EA000AE00A4318A248631EF2F5030AD00A93036
:100EB000AE00A4318A248631EF2F5730AD00A83020
:100EC000AE00A4318A248631EF2F6730AD00A930FF
:100ED000AE00A4318A248631EF2F3408B200B3016A
:100EE0003308003A0319752FEF2F3208413A0319DE
:100EF000282E033A0319382E013A0319482E073ACF
:100F00000319582E013A0319682E033A0319782E53
:100F1000013A0319882E0F3A0319982E013A031942
:100F2000A82E033A0319B82E013A0319C82E073A1E
:100F30000319D82E013A0319EF2E033A0319052F8E
:100F4000013A0319152F1F3A0319252F013A0319E6
:100F5000352F033A0319452F333A0319302E033A3C
:100F60000319402E013A0319502E073A0319602E37
:100F7000013A0319702E033A0319802E013A03191E
:100F8000902E0F3A0319A02E013A0319B02E033AFE
:100F90000319C02E013A0319D02E073A0319E72E80
:100FA000013A0319FD2E033A03190D2F013A0319D3
:100FB0001D2F1F3A03192D2F013A03193D2F033A14
:100FC00003194D2F073A0319552F033A03195D2FC3
:100FD000013A0319652F0D3A0319202EEF2F08004F
:100FE000A53188258731A33165238731A231842239
:100FF0008731A331072387319A310B2287310800CB
:101000000D340A3400340034003400340034003429
:10101000003400340D340A34003400340034003419
:1010200000340034003400342100B7006828A231B5
:10103000C92288312100B4003408B6006130360678
:10104000031D2328242851283630AD00AA30AE00D5
:10105000A4318A24883121003708860001308700B6
:101060008101810A30088600013087008101810AF0
:1010700032088600013087008101810A310886002C
:1010800001308700810102302100B5000430B40036
:10109000BA30890B4928B40B4928B50B4928000000
:1010A0007E28C030AD00A830AE00A4318A2488313B
:1010B0007E2875309931C52188317E287630993166
:1010C000C52188317E2877309931C52188317E2825
:1010D0003308B400B5013508003A031970287E289A
:1010E0003408613A03191728143A03195928033AA6
:1010F00003195E28013A031963287E280800DC30B2
:101100002000AE00AE30AF003530B000AC30B100E2
:101110000230B200AC30B3003A30B400A830B500B1
:101120009A31E52288310130A331B223883106306B
:101130002200C2001330C100AD30890B9D28C10BC5
:101140009D28C20B9D2800320030A331B223883184
:101150000B302200C2002630C1005D30890BAE2862
:10116000C10BAE28C20BAE2800320C30A531E525EC
:101170008831200024082200D20020002308220009
:10118000D100E4302100AD00AE30AE0022005208A4
:101190002100B000220051082100AF004A309931EF
:1011A0000621883121002E082200C60021002D08CA
:1011B0002200C5005208803AC10083304102031D5D
:1011C000E328203051020318E628E728F2282200FD
:1011D0008C17F9302100AD00AD30AE00A4318A2467
:1011E00088312C29DC302100B000AE30B1005A30FB
:1011F000B2000130B3005730B4000130B5009C316B
:10120000F9248831DC302000AE00AE30AF0035303C
:10121000B000AC30B1004A30B2000130B3003A3017
:10122000B400A830B5009A31E522883122008C1331
:1012300059302100B8000130B9005A30BA000130ED
:10124000BB005730BC000130BD005830BE0001303B
:10125000BF009B31DF23883129302200C200963045
:10126000C1007F30890B3229C10B3229C20B3229D0
:10127000A231CE2288312200C1004108D500530896
:10128000C100C20141082100B00022004208210033
:10129000B1002200550886311D268831A431022470
:1012A00088312200C1004108D6005A30C1004108EF
:1012B0002100B00058302200C20042082100B100D5
:1012C00054302200C30043082100B2002200560817
:1012D000C40044082100B3005930883114208831FB
:1012E00022005A080319752976292F2A3330200045
:1012F000AE00AE30AF003530B000AC30B10046309B
:10130000B200AC30B3003A30B400A830B5009A3126
:10131000E52288310130A331B22388310630220022
:10132000C2001330C100AD30890B9429C10B942940
:10133000C20B942900320030A331B22388310B3024
:101340002200C2002630C1005D30890BA529C10BE7
:10135000A529C20BA52900320C30A531E52588311D
:10136000200024082200D200200023082200D100FF
:10137000E4302100AD00AE30AE0022005208210062
:10138000B000220051082100AF004A3099310621F7
:10139000883121002E082200C80021002D082200DB
:1013A000C7005208803AC10082304102031DDA2989
:1013B000BC3051020318DD29DE29E92922008C13F3
:1013C00024302100AD00AD30AE00A4318A24883134
:1013D000232A33302100B000AE30B1005A30B200C1
:1013E0000130B3005730B4000130B5009C31F9240E
:1013F000883133302000AE00AE30AF003530B00061
:10140000AC30B1004A30B2000130B3003A30B40021
:10141000A830B5009A31E522883122008C17593066
:101420002100B8000130B9005A30BA000130BB00C9
:101430005730BC000130BD005830BE000130BF0045
:101440009B31DF23883129302200C2009630C10051
:101450007F30890B292AC10B292AC20B292AA231E4
:10146000CE2288312200C1004108D5005308C100B6
:10147000C20141082100B000220042082100B10051
:101480002200550886311D268831A4310224883176
:101490002200C1004108D6005A30C1004108210095
:1014A000B00058302200C20042082100B100543080
:1014B0002200C30043082100B20022005608C400E5
:1014C00044082100B30059308831142088312200AB
:1014D0005A0803196C2A6D2A392B3C302000AE00C3
:1014E000AE30AF000530B000AE30B1003A30B200DF
:1014F000A830B3003A30B400A830B5009A31E522E4
:1015000088310B302200C2002630C1005D30890BCB
:10151000872AC10B872AC20B872A00320130A331E8
:10152000B223883106302200C2001330C100AD3032
:10153000890B982AC10B982AC20B982A00320030D6
:10154000A331B22388313D302200C200E130C10016
:101550003F30890BA92AC10BA92AC20BA92A003244
:101560000130A331B223883106302200C20013308B
:10157000C100AD30890BBA2AC10BBA2AC20BBA2AF4
:1015800000320030A331B223883110302200C20073
:101590003930C1000D30890BCB2AC10BCB2AC20BCD
:1015A000CB2A00320130A63149268831003A03198E
:1015B000DA2ADB2AF62A0130A6316C268831003A75
:1015C0000319E32AE42AF62A0030A6318F2688314F
:1015D000003A0319EC2AED2AF62A31302100AD0039
:1015E000AD30AE00A4318A248831242B2200DA01E8
:1015F0000030A331B22388310030A331BF238831BA
:101600003C302100B000AE30B1005A30B2000130A1
:10161000B3005730B4000130B5009C31F924883153
:1016200059302100B8000130B9005A30BA000130F9
:10163000BB005730BC000130BD005830BE00013047
:10164000BF009B31DF23883115302200C2004B30B0
:10165000C100BE30890B2A2BC10B2A2BC20B2A2BAF
:1016600000000030A331B22388310030A331BF2302
:101670008831A231CE2288312200C1004108D50034
:101680005308C100C20141082100B00022004208F5
:101690002100B1002200550886311D268831A43171
:1016A000022488312200C1004108D6005A30C1000E
:1016B00041082100B00058302200C2004208210039
:1016C000B10054302200C30043082100B2002200C0
:1016D0005608C40044082100B30059308831142052
:1016E000883122005A080319762B772BE42B4E30D1
:1016F0002000AE00AE30AF005630B000AC30B100CC
:101700000930B200AD30B3001330B400AC30B500D6
:101710009A31E52288310130A331B2238831063075
:101720002200C2001330C100AD30890B952BC10BD4
:10173000952BC20B952B00320030A331B223883198
:10174000A6302100AD00A830AE00A4318A24883133
:10175000220059089031032088312200C10041083D
:10176000D7005708031DB52BB62BDC2BDA014E3002
:101770002100B000AE30B1005A30B2000130B300E9
:101780005730B4000130B5009C31F924883159300C
:101790002100B8000130B9005A30BA000130BB0056
:1017A0005730BC000130BD005830BE000130BF00D2
:1017B0009B31DF238831E42B3E302100AD00AD307A
:1017C000AE00A4318A248831A231CE228831220091
:1017D000C1004108D5005308C100C20141082100E1
:1017E000B000220042082100B100220055088631D5
:1017F0001D268831A431022488312200C10041080D
:10180000D6005A30C10041082100B00058302200F3
:10181000C20042082100B10054302200C300430836
:101820002100B20022005608C40044082100B30081
:10183000593088311420883122005A080319212C8C
:10184000222CA22C57302000AE00AE30AF00453025
:10185000B000AE30B1003A30B200A830B3003A3038
:10186000B400A830B5009A31E52288310130A331A7
:10187000BF23883106302200C2001330C100AD30D2
:10188000890B402CC10B402CC20B402C0032003085
:10189000A331BF2388310B302200C2002630C100A3
:1018A0005D30890B512CC10B512CC20B512C0032D5
:1018B0000130A63149268831003A0319602C612C89
:1018C0007C2C0130A6316C268831003A0319692C32
:1018D0006A2C7C2C0130A6318F268831003A0319FE
:1018E000722C732C7C2C4B302100AD00AD30AE003F
:1018F000A4318A248831A22C2200DA015730210039
:10190000B000AE30B1005A30B2000130B3005730F1
:10191000B4000130B5009C31F924883159302100E0
:10192000B8000130B9005A30BA000130BB0057305E
:10193000BC000130BD005830BE000130BF009B31FB
:10194000DF238831A231CE2288312200C100410834
:10195000D5005308C100C20141082100B000220097
:1019600042082100B1002200550886311D26883129
:10197000A431022488312200C1004108D6005A3027
:10198000C10041082100B00058302200C2004208C6
:101990002100B10054302200C30043082100B200EE
:1019A00022005608C40044082100B3005930883191
:1019B0001420883122005A080319DF2CE02C602DF6
:1019C00060302000AE00AE30AF008C30B000AD30E3
:1019D000B1003A30B200A830B3003A30B400A830B9
:1019E000B5009A31E52288310130A331E6238831F0
:1019F00006302200C2001330C100AD30890BFE2C2E
:101A0000C10BFE2CC20BFE2C00320030A331E623AA
:101A100088310B302200C2002630C1005D30890BB6
:101A20000F2DC10B0F2DC20B0F2D00320030A63130
:101A300049268831003A03191E2D1F2D3A2D0030FA
:101A4000A6316C268831003A0319272D282D3A2D0E
:101A50000030A6318F268831003A0319302D312D00
:101A60003A2D58302100AD00AD30AE00A4318A24AB
:101A70008831602D2200DA0160302100B000AE30E4
:101A8000B1005A30B2000130B3005730B400013019
:101A9000B5009C31F924883159302100B80001305B
:101AA000B9005A30BA000130BB005730BC000130D9
:101AB000BD005830BE000130BF009B31DF238831AC
:101AC000A231CE2288312200C1004108D50053083E
:101AD000C100C20141082100B000220042082100DB
:101AE000B1002200550886311D268831A431022418
:101AF00088312200C1004108D6005A30C100410897
:101B00002100B00058302200C20042082100B1007C
:101B100054302200C30043082100B20022005608BE
:101B2000C40044082100B3005930883114208831A2
:101B300022005A0803199D2D9E2D182E6930200071
:101B4000AE00AE30AF009430B000AE30B1003A30ED
:101B5000B200A830B3003A30B400A830B5009A31D2
:101B6000E52288310130A331CC238831193022009D
:101B7000C2005A30C100B130890BBC2DC10BBC2D45
:101B8000C20BBC2D00320030A331CC2388310B3086
:101B90002200C2002630C1005D30890BCD2DC10B63
:101BA000CD2DC20BCD2D00320130A6314926883112
:101BB000003A0319DC2DDD2DF82D0130A6316C26FD
:101BC0008831003A0319E52DE62DF82D0130A631B4
:101BD0008F268831003A0319EE2DEF2DF82D653050
:101BE0002100AD00AD30AE00A4318A248831182E1A
:101BF00069302100D700AE30D8005A302200C10031
:101C000041082100D90057302200C20042082100BB
:101C1000DA0059302200C30043082100DB005830AD
:101C20002200C40044082100DC009231CF22883118
:101C3000A231CE2288312200C1004108D5005308CC
:101C4000C100C20141082100B00022004208210069
:101C5000B1002200550886311D268831A4310224A6
:101C600088312200C1004108D6005A30C100410825
:101C70002100B00058302200C20042082100B1000B
:101C800054302200C30043082100B200220056084D
:101C9000C40044082100B300593088311420883131
:101CA00022005A080319552E562ED62E72302000C7
:101CB000AE00AE30AF00A430B000AE30B1003A306C
:101CC000B200A830B3003A30B400A830B5009A3161
:101CD000E52288310130A331D9238831193022001F
:101CE000C2005A30C100B130890B742EC10B742E62
:101CF000C20B742E00320030A331D92388310B304F
:101D00002200C2002630C1005D30890B852EC10B38
:101D1000852EC20B852E00320030A631492688312F
:101D2000003A0319942E952EB02E0030A6316C2661
:101D30008831003A03199D2E9E2EB02E0030A63118
:101D40008F268831003A0319A62EA72EB02E7230A6
:101D50002100AD00AD30AE00A4318A248831D62EEA
:101D60002200DA0172302100B000AE30B1005A30EA
:101D7000B2000130B3005730B4000130B5009C31DF
:101D8000F924883159302100B8000130B9005A30A7
:101D9000BA000130BB005730BC000130BD005830E4
:101DA000BE000130BF009B31DF238831A231CE223B
:101DB00088312200C1004108D5005308C100C2018A
:101DC00041082100B000220042082100B100220099
:101DD000550886311D268831A4310224883122001D
:101DE000C1004108D6005A30C10041082100B000AE
:101DF00058302200C20042082100B10054302200B5
:101E0000C30043082100B20022005608C400440861
:101E10002100B300593088311420883122005A083B
:101E20000319132F142F732F7B302000AE00AE3018
:101E3000AF00C030B000AC30B1001D30B200AE30E9
:101E4000B3001330B400AC30B5009A31E5228831CC
:101E5000A531A72588312200590890310320883107
:101E60002200C1004108D7005708031D382F392F21
:101E70006B2FDA017B302100B000AE30B1005A3058
:101E8000B2000130B3005730B4000130B5009C31CE
:101E9000F924883159302100B8000130B9005A3096
:101EA000BA000130BB005730BC000130BD005830D3
:101EB000BE000130BF009B31DF2388312930220072
:101EC000C2009630C1007F30890B642FC10B642F94
:101ED000C20B642F732F7F302100AD00AD30AE00F8
:101EE000A4318A248831A231CE2288312200C10057
:101EF0004108D5005308C100C20141082100B000CB
:101F0000220042082100B1002200550886311D261A
:101F10008831A431022488312200C1004108D60052
:101F20005A30C10041082100B00058302200C200E0
:101F300042082100B10054302200C30043082100B0
:101F4000B20022005608C40044082100B3005930F2
:101F500088311420883122005A080319B02FB22F7B
:101F60008331D92B11302000AE00AE30AF00693084
:101F7000B000A830B100FB30B200AC30B300D230BA
:101F8000B400A930B5009A31E52288310130A3317F
:101F90008B2388310030A3317E238831A631062679
:101FA000883159302100B0000130B1005A30B20000
:101FB0000130B3009C31922488315A302100B000A6
:101FC0000130B1005730B2000130B3005930B400D5
:101FD0000130B5005830B6000130B7009A319B226D
:101FE000883129302200C2009630C1007F30890B31
:101FF000F72FC10BF72FC20BF72FB02F80314A28D4
:102000002000911108002000A800A901AA012808B9
:1020100003190B280C286F2869286A08031911284E
:10202000122869289831A32090312000A5002508A6
:10203000A7005328010002302000A6000430A500AC
:10204000BA30890B2128A50B2128A60B21280000D6
:102050002000A901A90AAA01AA0A692802302000C1
:10206000A6000430A500BA30890B3428A50B34280B
:10207000A60B342800002000A9012B2802302000E4
:10208000A6000430A500BA30890B4428A50B4428CB
:10209000A60B442800002000A901A90AAA01AA0A47
:1020A00022008C1369282708A500A6012608003AFB
:1020B00003195B2869282508303A03191A28023ABF
:1020C00003191B28013A03192E280A3A03193E283E
:1020D000692820002A0803196E286F280D2828086F
:1020E000031D73287428962890280130A5313625C1
:1020F0009031003A03197D287E2882282000A9010A
:10210000AA01AA0A0130A53151259031003A0319DC
:102110008A288B2890282000A901A90AAA01AA0AC6
:1021200020002A08031995289628752829080800F0
:10213000AC302000AE00AE30AF008430B000AC3028
:10214000B1003A30B200A830B3003A30B400A83041
:10215000B5009A31E52290310130A331B22390319C
:1021600006302200C2001330C100AD30890BB62802
:10217000C10BB628C20BB62800320030A331B223FF
:102180009031220050080319C628C7280B290030B7
:102190002100AD00A830AE00A4318A249031220085
:1021A00059089031032090312200C1004108D70026
:1021B0005708031DDC28DD280329DA01AC30210093
:1021C000B000AE30B1005A30B2000130B300573029
:1021D000B4000130B5009C31F92490315930210010
:1021E000B8000130B9005A30BA000130BB00573096
:1021F000BC000130BD005830BE000130BF009B3133
:10220000DF2390310B29B1302100AD00AD30AE009D
:10221000A4318A249031A231CE2290312200C10013
:102220004108D5005308C100C20141082100B00097
:10223000220042082100B1002200550886311D26E7
:102240009031A431022490312200C1004108D6000F
:102250005A30C10041082100B00058302200C200AD
:1022600042082100B10054302200C300430821007D
:10227000B20022005608C40044082100B3005930BF
:1022800088311420903122005A08031948294A291C
:1022900080319A28B4302000AE00AE30AF00A230BA
:1022A000B000AC30B1003A30B200A830B3003A30E0
:1022B000B400A830B5009A31E52290310130A33145
:1022C000B223903106302200C2001330C100AD307D
:1022D000890B6829C10B6829C20B682900320030BC
:1022E000A331B223903122005008031978297929AB
:1022F000482959089031032090312200C10041083B
:10230000D7005708031D8529872980319228DA01D3
:10231000B4302100B000AE30B1005A30B20001300C
:10232000B3005730B4000130B5009C31F92490312E
:1023300059302100B8000130B9005A30BA000130DC
:10234000BB005730BC000130BD005830BE0001302A
:10235000BF009B31DF23903148292100A9002000D4
:102360005D0886008701403FDF00413FE0005F08D5
:102370008400600885001200253A031DC029C12988
:10238000A92A5D08860087010130810741310318C1
:10239000810A2200E301E4012100E301E401FF30AE
:1023A000E100FF30E20020005D0886008701403F29
:1023B000DF00413FE0005F088400600885001200F4
:1023C000643A0319E429E529F6295D0886008701A6
:1023D000403FDF00413FE0005F0884006008850067
:1023E0001200693A031DF529F629442A5D08860082
:1023F00087010130810741310318810A5E08860098
:10240000870101088400850102308107003FDF0059
:10241000013FE0005F082100A000200060082100CB
:10242000A100890D893B8909A200A300A400A50091
:10243000A600A70020082000BF00210021082000DE
:10244000C000210022082000C10021002308200034
:10245000C200210024082000C3002100250820001C
:10246000C400210026082000C50021002708200004
:10247000C600210029089431212491312000400810
:10248000DE003F08DD00CE2A5D0886008701403F60
:10249000DF00413FE0005F08840060088500120013
:1024A0006E3A031D542A552A742A5D088600870156
:1024B0000130810741310318810A5E0886008701D7
:1024C000403F84008501810A0008DF005F08210089
:1024D000A8002808860087015F08C03F6008C13F48
:1024E0002000DD01DE01CE2A5D0886008701403F25
:1024F000DF00413FE0005F088400600885001200B3
:10250000253A031D842A852AA02A5D0886008701B2
:102510000130810741310318810A2530A6000030BF
:10252000A700210029082000DF005F08A8009B31D8
:102530003623913101302000DD000030DE00CE2A4C
:102540005D08860087010130810741310318810A47
:10255000702A5D0886008701403FDF00413FE000B0
:102560005F088400600885000008E100E20161085E
:10257000A6006208A700210029082000E3006308E4
:10258000A8009B313623913120005D088600870129
:102590000130810741310318810A9A2A080020304E
:1025A0008600023087002A30840001308500143014
:1025B0002100DD0016001A00DD0BDA2ACD3086007E
:1025C0000130870020308400013085000A30DD00B2
:1025D00016001A00DD0BE82A0130A331982392314E
:1025E0000130A331A52392310030A3318B239231E6
:1025F000210058082000AF00210057082000AE003D
:102600006030B000A830B100FE30B200AA30B30094
:10261000BD30B400A930B5009A31E52292312A309C
:102620002000B3000130B400210058082000B6009B
:10263000210057082000B500983100209231200079
:1026400034082200BF00200033082200BE003F08EB
:102650002000B40022003E082000B3002030B50066
:102660000130B6009831002092312000340821005A
:10267000AE00200033082100AD00A4318A2492313D
:102680009A315322923121005B0886000130870085
:1026900001089031032092312100DD005D08220005
:1026A000C0000B302100DE002630DD005D30890BDC
:1026B000572BDD0B572BDE0B572B00322200400827
:1026C0000319632B642B982B2100590886000130D5
:1026D000870081015A088600013087008101693036
:1026E0002000AE00AE30AF006530B000A830B100C1
:1026F0001030B200AB30B300D230B400A930B50016
:102700009A31E5229231DB302100B8000030B90067
:10271000D930BA000030BB00DA30BC000030BD0058
:10272000DC30BE000030BF009B31DF239231202C13
:1027300069302000AE00AE30AF009430B000AE3053
:10274000B1003A30B200A830B3003A30B400A8303B
:10275000B5009A31E52292310030A33198239231AD
:102760000130A331A52392310030A3318B23923164
:102770000130A331CC23923119302100DE005A30D0
:10278000DD00B130890BC22BDD0BC22BDE0BC22B5F
:1027900000320030A331CC23923115302100DE000D
:1027A0004B30DD00BE30890BD32BDD0BD32BDE0B82
:1027B000D32B00000130A63149269231003A03198B
:1027C000E22BE32B0A2C0130A6316C269231003A21
:1027D0000319EB2BEC2B0A2C0130A6318F269231FA
:1027E000003A0319F42BF52B0A2C69302000AE00B7
:1027F000AE30AF009430B000AE30B1006630B20001
:10280000AC30B3008430B400AE30B5009A31E5226C
:102810009231202C21005908860001308700810167
:102820006930B000AE30B100D930B2000030B30032
:10283000DA30B4000030B5009C31F9249231832B9A
:1028400008002000CA003F08D3004008D400410817
:10285000D5004208D6004308D7004408D8004508F0
:10286000D9004608DA005330860000308700473F21
:10287000C700C71B3C2C3E2C01303F2C00302000F1
:10288000C800C9014808D1004908D20051085204C3
:1028900003194B2C4C2C6A2CD309D409D509D60921
:1028A000D709D809D909DA09D30A031D6A2CD40A31
:1028B000031D6A2CD50A031D6A2CD60A031D6A2C37
:1028C000D70A031D6A2CD80A031D6A2CD90A031DD6
:1028D0006A2CDA0A2100E21B6E2C6F2C732CFD305F
:1028E000E305FF30E4056208803A2000C70080302D
:1028F0004702031D7E2C0130210061020318812C48
:10290000822C882C01302000CD000030CE00902C8D
:10291000210062082000CE00210061082000CD00C7
:10292000220064082000D000220063082000CF00AD
:1029300051085204031D9D2C9E2CA32C2100631DC5
:10294000A22CA32CA82CFF302000CF07FF30D03DB5
:102950001F302000DB000030DC002400E701192DCF
:10296000FF302000DB07FF30DC3D0A30A300A4016C
:10297000A501A601A701A801A901AA015308AB005E
:102980005408AC005508AD005608AE005708AF001B
:102990005808B0005908B1005A08B2009E310E26FE
:1029A000943120002408B7002308B600A5316C2517
:1029B000943120003608303EC7005B08483E860050
:1029C0000230870047088100FF30CD07FF30CE3D41
:1029D000FF30CF07FF30D03D0A30A300A401A5018E
:1029E000A601A701A801A901AA015308AB00540838
:1029F000AC005508AD005608AE005708AF005808A7
:102A0000B0005908B1005A08B2009E31FB2694313B
:102A100020002308D3002408D4002508D500260868
:102A2000D6002708D7002808D8002908D9002A0886
:102A3000DA0020005C08803AC70080304702031D9E
:102A4000232D01305B02031C262D272D542D200041
:102A500053085404550456045704580459045A049E
:102A6000031D332D342DB02C4E08803AC700803022
:102A70004702031D3D2D01304D020318402D412D0D
:102A8000B02C20005008803AC70080304702031D58
:102A90004B2D01304F02031C4E2D4F2D542D210084
:102AA000E318532D542DB02C200051085204031D5F
:102AB0005A2D5B2D602D2100631D5F2D602D7D2D16
:102AC000FF302000DB07FF30DC3D51085204031DBE
:102AD0006A2D6B2D702D2B30CB000030CC00742D67
:102AE0002D30CB000030CC004B08C7005B08483EBF
:102AF0008600023087004708810020005B08483EBE
:102B0000C7004708B6005008B8004F08B7004A0889
:102B10009C313624943120003708C0003608BF00AD
:102B200008002100C200C101F92F20000F19992DC2
:102B30009A2DB52D8C302100AD00A830AE00A43107
:102B40008A2495312100C101C10A42088600013062
:102B50008700810136088600013087008101350831
:102B60008600013087008101810A20006A0803196C
:102B7000BA2DBB2DD32F9831A32095312100B90058
:102B80003908BB00A82F010017302100AD00AD307F
:102B9000AE00A4318A24953121004208860001301C
:102BA00087008101810A3508860001308700810194
:102BB000810A360886000130870081010230210039
:102BC000BA000430B900BA30890BE42DB90BE42DFA
:102BD000BA0BE42D00002100C101C10AD32F7230CD
:102BE000AD00A830AE00A4318A24953149302000D0
:102BF000AE00AA30AF003A30B000A830B100A83023
:102C0000B200A930B3003A30B400A830B5009A3110
:102C1000E5229531210042088600013087008101BC
:102C2000810A02302100BA000430B900BA30890BA1
:102C3000172EB90B172EBA0B172E00002100C10159
:102C4000C10A3508860001308700810122008C13FB
:102C5000D32F3B30AD00A830AE00A4318A2495318B
:102C600049302000AE00AA30AF003A30B000A830A2
:102C7000B1002630B200AB30B3003A30B400A83017
:102C8000B5009A31E52295312100420886000130D5
:102C900087008101810A35088600013087008101A3
:102CA0003608860001308700810102302100BA0019
:102CB0000430B900BA30890B5B2EB90B5B2EBA0B0E
:102CC0005B2E00002100C101C10A22008C17D32F06
:102CD0001F30AD00A830AE00A4318A2495314930B0
:102CE0002000AE00AA30AF003A30B000A830B100EA
:102CF0002230B200AB30B3003A30B400A830B50097
:102D00009A31E52295312100420886000130870082
:102D10008101810A02302100BA000430B900BA30C2
:102D2000890B902EB90B902EBA0B902E000021002B
:102D3000C101C10A350886000130870081012200E7
:102D40008C13D32FD930AD00A830AE00A4318A2423
:102D5000953149302000AE00AA30AF003A30B000C3
:102D6000A830B1007930B200AC30B3003A30B400D2
:102D7000A830B5009A31E52295312100420886003D
:102D8000013087008101810A350886000130870003
:102D9000810136088600013087008101810A0230F6
:102DA0002100BA000430B900BA30890BD52EB90B16
:102DB000D52EBA0BD52E00002100C101C10A220078
:102DC0008C17D32FF230AD00A830AE00A4318A2486
:102DD000953149302000AE00AA30AF003A30B00043
:102DE000A830B1007530B200AC30B3003A30B40056
:102DF000A830B5009A31E5229531210042088600BD
:102E0000013087008101810A350886000130870082
:102E1000810136088600013087008101810A023075
:102E20002100BA000430B900BA30890B152FB90B54
:102E3000152FBA0B152F00002100C101C10A220075
:102E40008C13D32FA231C92295312100B900390842
:102E5000BC0061303C06031D2E2F2F2F492F36302A
:102E6000AD00AA30AE00A4318A2495312100420879
:102E70008600013087008101810A35088600013013
:102E80008700810137088600013087008101810AAF
:102E9000D92DC030AD00A830AE00A4318A249531C0
:102EA000EB2DA231C42295312100B9003908BD00B3
:102EB00075303D06031D5D2F5E2F662F2230AD005D
:102EC000A930AE00A4318A249531362FC030AD0030
:102ED000A830AE00A4318A249531EB2DA231BF2257
:102EE00095312100B9003908BE0076303E06031D39
:102EF0007A2F7B2F832F3930AD00A930AE00A4315B
:102F00008A249531362FC030AD00A830AE00A431F0
:102F10008A249531EB2DA231BA2295312100B900D6
:102F20003908BF0077303F06031D972F982FA02F39
:102F30000A30AD00A930AE00A4318A249531362F75
:102F4000C030AD00A830AE00A4318A249531EB2DFD
:102F50003B08B900BA013A08003A0319B02FD32F41
:102F60003908303A0319C32D013A0319C42D043A24
:102F70000319E22E033A0319EF2D013A0319292E02
:102F80000F3A0319A22E013A0319682E583A031971
:102F9000222F143A0319512F033A03196E2F013AC5
:102FA00003198B2FD32F21003708860001308700AB
:102FB00001080319DC2FDD2FF92F3F309931C5218E
:102FC00095312100B9003908C0003808B00001303F
:102FD000B100400886311D26953105302100BA0028
:102FE0000F30B900F130890BF32FB90BF32FBA0B67
:102FF000F32F210041080319FE2FFF2F952D080004
:1030000020003408A4003308A300A531012598311D
:10301000200023083307A7002408343DA800360801
:10302000AA003508A900A631D826983108009031A9
:103030000020983123003C1C1E281F282D28A23177
:10304000D3229831003A0319262827282D280F303B
:103050002000A00020082300BA0023003A08200026
:10306000A000A101A035A10D003020078400A030F0
:10307000213D8500013F8A00003F0A009831200071
:10308000A20022082300BA0008002300BC1555281E
:10309000A2319C2298317328A2316D2298310330DD
:1030A0007328A231A122983173282C08FA007A08DB
:1030B000F90021088A0020080A009831FB00FC0171
:1030C0007C08003A0319652851287B08013A031946
:1030D0005128033A03194828013A03194828073AA6
:1030E00003194C28512808002000AC008F2829081B
:1030F000BF3EA431D0249831A2282908933EA431A0
:10310000D0249831A2282908D33EA431D024983164
:10311000A22829087F3EA431D0249831A2282C0867
:10312000AA00AB012B08003A0319972889282A081E
:10313000023A03197728013A03197D28073A03193F
:1031400083288928080020006A080319A828A928CC
:10315000A3286B085B3E8600013087000108A300AE
:1031600023082100EB0020006B08BD3E86000130E3
:1031700087000108A3002308A4000130A30023084E
:10318000EB0708306B02031CC628C728C828EB01D0
:103190002100911201302000EA0221009116200046
:1031A000240808002100AA00200065082100AC00C6
:1031B000200064082100AB00DF01E001F528AB30FE
:1031C0002000E7006708DD006608E8006808DE0008
:1031D00021002A089131AD21983120005D0821009D
:1031E000DF0720005E082100E03D2B0884002C084A
:1031F00085001200031DFD28FE28DF28600820003E
:10320000E50021005F082000E40008002100B40070
:10321000AF302000E90069082100B3003408200025
:10322000E90069082100B500B601B701B801B9018C
:103230002E082000E50021002D082000E400B33016
:10324000E9006908E600B5309831D22099312000B4
:1032500065082100B200200064082100B100360892
:1032600034072000E90069088600013087008101E9
:1032700021003208AE003108AD00080020006C08C3
:103280005B3E860001308700810123001D1D492916
:103290004A29572920006C085B3E860001308700D0
:1032A000811422006A088A0069080A009931230003
:1032B0009D1C5B295C29692920006C085B3E860007
:1032C000013087000115220068088A0067080A009B
:1032D000993120006C085B3E8600013087000108B0
:1032E0000319732974297B29220066088A0065085E
:1032F0000A0099317E29A5311B2599310800A23198
:103300006A229931FA0023003708860087017A087B
:1033100081000130FA007A08B7070130B8020030A6
:10332000B93B380839040319962997299C29A231F9
:103330007C2299310530C429BC15A629A231B022BE
:103340009931C429A231AB229931C4292C08FA0041
:103350007A08F90021088A0020080A009931FB0048
:10336000FC017C08003A0319B629A2297B08013A1E
:103370000319A229033A03199E29013A03199E2928
:10338000073A0319A229A22908002000A40024005A
:1033900016141618CC29CD29C929323091001418D9
:1033A000D229D329CF291419D629D729D3292000E6
:1033B0002408240091001418DE29DF29DB291419C0
:1033C000E229E329DF2996149618E729E829E42958
:1033D000333091001418ED29EE29EA291419F12946
:1033E000F229EE299615141CF629F729F32911085C
:1033F0002000A3002308A500240096161616161A0E
:10340000022A032AFF2916151619072A082A042A50
:10341000200025080800210091123E302000A30062
:103420001930A400A33133239A312100111227301F
:103430002000A3002630A400A3313C239A31083099
:1034400023009F0090309D0024309E0040309B0060
:1034500003309C005D302000A3002230A400A33183
:1034600021239A3174302000A3002230A400A3311C
:103470002A239A3170302000A3002230A400A33107
:1034800018239A312100EB01FD01ED0108302000E5
:10349000A50025082100EC002000EC01EB01EA0169
:1034A0002100911608002000A801A9012000AA010E
:1034B000AB01A7317A279A310B302000A7002630C4
:1034C000A6005D30890B622AA60B622AA70B622A2E
:1034D000003201302000AA070030AB3D2B08803AB3
:1034E000A60080302602031D772A04302A02031C1E
:1034F0007A2A7B2A592A0B302000A7002630A60002
:103500005D30890B812AA60B812AA70B812A003204
:1035100001302000A8070030A93D2908803AA60004
:1035200080302602031D962A04302802031C992AA3
:103530009A2A562A08002100340886003508870098
:103540000108031DA42AA52AAC2A7E30AD00A930AB
:10355000AE00A4318A249A31210030088600310857
:103560008700810132088600330887008101340812
:1035700086003508870081013608860037088700F5
:10358000013081000030A3318B239A310030A33108
:1035900098239A310030A331A5239A310030A3310A
:1035A0007E239A310030A331B2239A310030A33107
:1035B000BF239A310030A331CC239A310030A3319C
:1035C000D9239A3122008C130800A33145239A3164
:1035D0000630A431D0249A3102302000B7000430E4
:1035E000B600BA30890BF22AB60BF22AB70BF22AD0
:1035F00000002000A901A90A0130983174209A31F5
:1036000020002F08AA002E08A900A531C6259A314E
:103610002000A901A90A0230983174209A312000B3
:103620003108AA003008A900A531C6259A3120002A
:10363000A901A90A0330983174209A312000330877
:10364000AA003208A900A531C6259A312000A90197
:10365000A90A0430983174209A3120003508AA0054
:103660003408A900A531C6259A3108002000280891
:1036700003193B2B3C2B412B2808031D402B412BCE
:10368000462B2608A231F8229B31872B2808033EBF
:10369000860087011600010403194F2B502B6D2B58
:1036A0002808033E86008701403FA900413FAA0049
:1036B000280A86008701403FAB00413FAC002C0840
:1036C000803AAD002A08803A2D02031D692B290893
:1036D0002B0203186C2B6D2B872B20002608A900CA
:1036E000280886008701280A840085010008010750
:1036F000AA002A0886000130870029088100280ACC
:10370000860087010130810741310318810A0800D2
:10371000A231D3229B31003A03198F2B902BC12B5E
:103720009D2BA23192229B31DE2BA23197229B311D
:10373000DE2BA231A1229B31DE2B23002F08FA00C1
:103740007A08F9000630A03E860001308700413F2C
:103750008A00403F0A009B31FB00FC017C08003AD4
:103760000319B32B992B7B08013A0319992B033AC0
:103770000319912B013A0319952B073A0319992B39
:10378000992B23003C101730A03E860001308700A3
:10379000403F84008501810A0008A23188229B31C4
:1037A00001302300B8020030B93B38083904031D4A
:1037B000DA2BDB2BDD2B0630DE2B0330080021005B
:1037C00038088600390887000108C000C101400898
:1037D000B0004108B1003A0886003B0887000108A4
:1037E000C200C3014208B2004308B3009C319224D6
:1037F0009B3121003A0886003B0887000108C00081
:10380000C1014008B0004108B1003C0886003D08F5
:1038100087000108C200C3014208B2004308B30098
:1038200038088600390887000108C400C50144082B
:10383000B4004508B5003E0886003F08870001082F
:10384000C600C7014608B6004708B7009A319B2258
:103850009B3129302100C1009630C0007F30890B98
:103860002F2CC00B2F2CC10B2F2C08002000BE00CA
:103870002100631C3C2C3D2C462C20003E08B90046
:103880003908AE003608A73127279C312000B81B25
:103890004A2C4B2C502C3808BD003708BC00522C49
:1038A000BC01BD01BA01BB01662C20302000A6007E
:1038B0000030A7003E08B9003908A8009B31362324
:1038C0009C3101302000BA070030BB3D3B08803AF4
:1038D000B9003D08803A3902031D702C3C083A02B9
:1038E000031C732C742C552C21006318782C792C14
:1038F000822C20003E08B9003908AE003608A731F6
:1039000027279C3120003608A3000230A400A531EF
:1039100001259C3120003C082307B6003D08243DCA
:10392000B70008002100B701F22C20000F19992CD4
:103930009A2CAF2C7E302100AD00A930AE00A4310E
:103940008A249C312100B701B70A3008860031086B
:10395000870081013208860033088700810120003A
:103960006A080319B42CB52CF22C9831A3209C3191
:103970002100B4003408B600E22C0100F22C233000
:10398000AD00AA30AE00A4318A249C312100300859
:1039900086003108870081013208860033088700DD
:1039A000810102302100B5000430B400BA30890B27
:1039B000D72CB40BD72CB50BD72C00002100B701A6
:1039C000B70AF22C3608B400B5013508003A0319DD
:1039D000EA2CF22C3408303A0319BD2C043A0319AE
:1039E000BF2CF22C210037080319F72CF82C952C4A
:1039F00008003430860002308700C1308400003077
:103A0000850014302100B60016001A00B60B042DF4
:103A1000D730860001308700B73084000030850041
:103A20000A30B60016001A00B60B122D0130A33171
:103A300098239C310130A331A5239C310030A33160
:103A40008B239C310030A3317E239C31210031082F
:103A50002000AF00210030082000AE006030B00030
:103A6000A830B100D230B200A930B3003A30B4006F
:103A7000A830B5009A31E5229C31C1302000B30056
:103A80000030B400210031082000B60021003008C9
:103A90002000B500983100209C312000340821001E
:103AA000D600200033082100D50056082000B400BD
:103AB000210055082000B300B730B5000030B60033
:103AC000983100209C31200034082100AE002000F5
:103AD00033082100AD00A4318A249C319A3153224D
:103AE0009C3120000F1D752D762D712D210032087F
:103AF0008600330887008101340886003508870076
:103B0000810108002000AB002B08A9002908210032
:103B1000E9000030A43175249D319C302000A900BB
:103B2000D730890B912DA90B912D0330A431D024CE
:103B30009D311A302000A900F830890B9D2DA90B6A
:103B40009D2D00000330A431D0249D311A30200077
:103B5000A900F830890BAA2DA90BAA2D000003306B
:103B6000A431D0249D311A302000A900F830890BEF
:103B7000B72DA90BB72D00000230A431D0249D3100
:103B80001A302000A900F830890BC42DA90BC42DD0
:103B900000002830A431D0249D3102302000AA003A
:103BA0000430A900BA30890BD32DA90BD32DAA0B51
:103BB000D32D00000C30A431D0249D3102302000E0
:103BC000AA000430A900BA30890BE42DA90BE42D1A
:103BD000AA0BE42D00000130A431D0249D31023025
:103BE0002000AA000430A900BA30890BF52DA90BDA
:103BF000F52DAA0BF52D00000630A431D0249D31FF
:103C000002302000AA000430A900BA30890B062E29
:103C1000A90B062EAA0B062E000008002000B501F5
:103C20002B30860000308700473FB300B31F192EAA
:103C30001A2E3C2E2000AB09AC09AD09AE09AF0924
:103C4000B009B109B209AB0A031D392EAC0A031D34
:103C5000392EAD0A031D392EAE0A031D392EAF0AC7
:103C6000031D392EB00A031D392EB10A031D392E4A
:103C7000B20A2000B501B50A233086000030870063
:103C8000473F2000B300B31F462E472E662E20006C
:103C9000A309A409A509A609A709A809A909AA09A8
:103CA000A30A031D662EA40A031D662EA50A031D82
:103CB000662EA60A031D662EA70A031D662EA80AF5
:103CC000031D662EA90A031D662EAA0A20002308DA
:103CD0002404250426042704280429042A0403199B
:103CE000722E732EC62EB401B40A822EA335A40DF3
:103CF000A50DA60DA70DA80DA90DAA0D0130B300A5
:103D00003308B407AA1F852E862E762E2A08320283
:103D1000031DA42E29083102031DA42E28083002F9
:103D2000031DA42E27082F02031DA42E26082E02F1
:103D3000031DA42E25082D02031DA42E24082C02E9
:103D4000031DA42E23082B02031CA72EA82EB82E79
:103D50002308AB022408AC3B2508AD3B2608AE3B4C
:103D60002708AF3B2808B03B2908B13B2A08B23BE3
:103D7000AA36A90CA80CA70CA60CA50CA40CA30C85
:103D80000130B402031DC52EC62E862E3508031938
:103D9000CA2ECB2EE92EAB09AC09AD09AE09AF098D
:103DA000B009B109B209AB0A031DE92EAC0A031D23
:103DB000E92EAD0A031DE92EAE0A031DE92EAF0A56
:103DC000031DE92EB00A031DE92EB10A031DE92ED9
:103DD000B20A20002B08A3002C08A4002D08A5007F
:103DE0002E08A6002F08A7003008A8003108A90057
:103DF0003208AA0008002000B501233086000030F8
:103E00008700473FB300B31F062F072F292F20003D
:103E1000A309A409A509A609A709A809A909AA0926
:103E2000A30A031D262FA40A031D262FA50A031D7E
:103E3000262FA60A031D262FA70A031D262FA80A30
:103E4000031D262FA90A031D262FAA0A2000B5014B
:103E5000B50A2B30860000308700473F2000B300B2
:103E6000B31F332F342F582F2000AB09AC09AD09F5
:103E7000AE09AF09B009B109B209AB0A031D532F4E
:103E8000AC0A031D532FAD0A031D532FAE0A031DA9
:103E9000532FAF0A031D532FB00A031D532FB10A2E
:103EA000031D532FB20A01302000B3003308B506BA
:103EB000363086000030870008302000B300003024
:103EC0001E00B30B602F23082404250426042704B6
:103ED000280429042A0403196E2F6F2FCB2FB40155
:103EE000B40A7E2FA335A40DA50DA60DA70DA80D10
:103EF000A90DAA0D0130B3003308B407AA1F812F02
:103F0000822F722FB635B70DB80DB90DBA0DBB0D96
:103F1000BC0DBD0D2A083202031DA82F290831024D
:103F2000031DA82F28083002031DA82F27082F02E1
:103F3000031DA82F26082E02031DA82F25082D02D9
:103F4000031DA82F24082C02031DA82F23082B02D1
:103F5000031CAB2FAC2FBD2F2308AB022408AC3BB6
:103F60002508AD3B2608AE3B2708AF3B2808B03BF1
:103F70002908B13B2A08B23B3614AA36A90CA80C72
:103F8000A70CA60CA50CA40CA30C0130B402031DB5
:103F9000CA2FCB2F822F35080319CF2FD02FEE2F0A
:103FA000B609B709B809B909BA09BB09BC09BD09FD
:103FB000B60A031DEE2FB70A031DEE2FB80A031D24
:103FC000EE2FB90A031DEE2FBA0A031DEE2FBB0A0E
:103FD000031DEE2FBC0A031DEE2FBD0A200036087C
:103FE000A3003708A4003808A5003908A6003A083D
:103FF000A7003B08A8003C08A9003D08AA0008004B
:104000008D3422340F342334FF34223488341B346B
:104010007F341934F1342234453418349234223444
:10402000973422349C342234A1342234A6342234EE
:10403000AB342234B0342234B5342234A63427349D
:104040002D343E34203454344534533454342034E5
:1040500043344F344E3446344F3452344D34453467
:1040600020342D34203441345434543445344E34C7
:104070005434453420344134433451345534493474
:104080005434543445344D3445344E3454340D3462
:044090000A340034BA
:1044BA00080008340130080024009614080024007B
:1044CA001615080024009615080024001108080093
:1044DA00200091150800A5311B25A23108002300F0
:1044EA001D121D1608002400961616160800240030
:1044FA0096121616080098311720A23108001630B5
:10450A00210097000800F0007008240091000800BC
:10451A002300BC10BB010E300800A2316122A23177
:10452A0001300800A2316122A23102300800A23112
:10453A006122A23101300800A2316422A231003086
:10454A000800A2317C22A23105300800A23178226B
:10455A00A2310A300800A2317822A23109300800BB
:10456A002300BC10BB010E30080077309931C521F9
:10457A00A231080076309931C521A2310800753080
:10458A009931C521A231080061309931C521A23182
:10459A0008003F309931C521A23108002400160EC7
:1045AA00890C890C01390800A3315923A23124004E
:1045BA0016140800A3315923A23124001615080045
:1045CA00640080010131890BE62A0034FE001200E2
:1045DA001E00FE0BEC2A003423003C10A231672295
:1045EA00A231043008002000A5002508A731D327EE
:1045FA00A231080023003C143635A2318822A231A8
:10460A0003300800F03021009E009B019C0101301C
:10461A009D00080023003C140314360DA2318822A1
:10462A00A33105300800200024082200E6002000FB
:10463A0023082200E5000800200024082200EA00DE
:10464A00200023082200E900080020002408220094
:10465A00E800200023082200E700080020002408C0
:10466A002200EC00200023082200EB0008002000B2
:10467A0024082100E600200023082100E5000800A4
:10468A000130A431D024A3313530890B4A2B0000E4
:10469A0008002830240095009601940127309200E2
:1046AA0021008E150E160800240014195D2B5E2BAE
:1046BA00592B16081F39031D632B642B592B08002D
:1046CA0070302100990098012200960121001A1FDA
:1046DA006F2B702B6B2B08007608F1007508F00021
:1046EA007708F8007808F2000030A7315027A33184
:1046FA0008002000A30023080319842B852B882B8C
:10470A0022000C148A2B22000C1008002000A3009F
:10471A0023080319912B922B952B22001014972B07
:10472A002200101008002000A300230803199E2B62
:10473A009F2BA22B22009014A42B22009010080079
:10474A002000A30023080319AB2BAC2BAF2B2200AC
:10475A001015B12B2200101108002000A300230815
:10476A000319B82BB92BBC2B22008C14BE2B2200A8
:10477A008C1008002000A30023080319C52BC62BA0
:10478A00C92B22000C15CB2B22000C11080020008B
:10479A00A30023080319D22BD32BD62B22000C16E5
:1047AA00D82B22000C1208002000A30023080319AA
:1047BA00DF2BE02BE32B22008C16E52B22008C1238
:1047CA0008002000A30023080319EC2BED2BF02B83
:1047DA0022008C15F22B22008C11080032302400A2
:1047EA0092003630950096018030940021008E1593
:1047FA000E168B170B179115080020006A0803196B
:10480A00072C082C0F2C9831A320A4312000A500D6
:10481A002508A60026080800F3002300BC1D162C54
:10482A00172C202C7308F2007208B7007108B9001F
:10483A007008B800BC1108002000A300A331592356
:10484A00A43120002308240091002000911D2E2C61
:10485A002F2C2A2C911108000230F0000030F100B0
:10486A007908A4311124A4310030F500F600F701CB
:10487A00A3317123A431043008000130F000003064
:10488A00F1007908A4311124A4310030F500F600B2
:10489A00F701A3317123A431023008000230F0007D
:1048AA000030F1007908A4311124A4310030F50058
:1048BA00F600F701A3317123A43102300800013058
:1048CA00F0000030F1007908A4311124A43100303D
:1048DA00F500F600F701A3317123A4310430080072
:1048EA002000A400A231D922A43121006908A431F0
:1048FA002124A4312000240821006E04A43121249B
:10490A00A431A231DF22A4310800AF302000E9002F
:10491A0069082100AF002E082000E50021002D08BB
:10492A002000E400AF30E9006908E6000030983161
:10493A00D220A4310800790886008701403FF000A0
:10494A00413FF1007908023E860087010108A4313F
:10495A001124A4310030F500F600F701A3317123C8
:10496A00A431023008002000A60021006A082000B5
:10497A00A5002508A60426080438A4317524A43104
:10498A0020002608FB39A4317524A4314230890B52
:10499A00CC2C003208002000A8002100EA012000E7
:1049AA002808F039A431B824A43120002808A70027
:1049BA000330A735FF3E031DDE2C2735F039A4311D
:1049CA00B824A43108002000A8002100EA01EA0A5C
:1049DA0020002808F039A431B824A431200028087E
:1049EA00A7000330A735FF3E031DF72C2735F03902
:1049FA00A431B824A431080020002408A600230802
:104A0A00A5000B2D0130A3070030A43D2308860022
:104A1A00240887000108031D132D142D072D2508CE
:104A2A002302A3002608243BA40008002300190837
:104A3A00F00020006C08BD3E860001308700700837
:104A4A0081000130F0007008EC0708306C02031C8A
:104A5A002F2D302D312DEC010130F0007008EA07BE
:104A6A0008002000A400A301240803193D2D3E2DAF
:104A7A00442D8F1B412D422D442DA301A30A240846
:104A8A00031D482D492D4F2D8F1F4C2D4D2D4F2D78
:104A9A00A301A30A230808002000A400A3012408F4
:104AAA000319582D592D5F2D0F195C2D5D2D5F2D82
:104ABA00A301A30A2408031D632D642D6A2D0F1D6B
:104ACA00672D682D6A2DA301A30A23080800200078
:104ADA003708803AB80080303802031D762D01303D
:104AEA0036020318792D7A2D872D20003609B80051
:104AFA003709B900B80A0319B90A3808B6003908DB
:104B0A00B700872D0800220090018F018C018D01CA
:104B1A008E010830210090008C01CF308D00BF300B
:104B2A008E00FF308F0023008F013F308D009001EF
:104B3A003C308C00240090018D0121009517220041
:104B4A009D01080022000C1706302000A400133033
:104B5A00A300AD30890BAF2DA30BAF2DA40BAF2D46
:104B6A00003222000C1306302000A4001330A300E8
:104B7A00AD30890BBE2DA30BBE2DA40BBE2D00326A
:104B8A0008002000AC01AD01D92D29082C078400AA
:104B9A002A082D3D85000008A431E824A5310130FA
:104BAA002000AC070030AD3D29082C0784002A08F4
:104BBA002D3D85001200031DE32DE42DCA2D0800AA
:104BCA002000A6002608A500A50DA50D21001D0898
:104BDA00200025068339250621009D001D140D306D
:104BEA00890BF52D000021009D149D18FD2DFE2D29
:104BFA00FA2D1C082000A40021001B082000A30095
:104C0A00080020302100AD00A030AE00A4318A2473
:104C1A00A6312100B101B201A631B226A631013076
:104C2A002100B1070030B23D3208803AB00080302E
:104C3A003002031D222E02303102031C252E262E9D
:104C4A00112E0800083021006C0203182D2E2E2E7A
:104C5A00472E6D08C53E86000130870001082300F3
:104C6A009A000130F00070082100ED0708306D024B
:104C7A00031C402E412E422EED010130F000700837
:104C8A00EC07482E111208002000A400A3012408F2
:104C9A000319502E512E5B2E0F1C542E552E5B2EAF
:104CAA008F18582E592E5B2EA301A30A2408031D20
:104CBA005F2E602E6A2E0F18632E642E6A2E8F1CAA
:104CCA00672E682E6A2EA301A30A23080800200073
:104CDA00A400A30124080319732E742E7E2E8F1D9F
:104CEA00772E782E7E2E0F1A7B2E7C2E7E2EA301F7
:104CFA00A30A2408031D822E832E8D2E8F19862E39
:104D0A00872E8D2E0F1E8A2E8B2E8D2EA301A30A7F
:104D1A00230808002000A400A30124080319962EE2
:104D2A00972EA12E8F1E9A2E9B2EA12E0F1B9E2EE2
:104D3A009F2EA12EA301A30A2408031DA52EA62E89
:104D4A00B02E8F1AA92EAA2EB02E0F1FAD2EAE2E60
:104D5A00B02EA301A30A230808002000A801A90174
:104D6A00A7317A27A6310B302000A7002630A600EB
:104D7A005D30890BBE2EA60BBE2EA70BBE2E0032AF
:104D8A0001302000A8070030A93D2908803AA60072
:104D9A0080302602031DD32E02302802031CD62E91
:104DAA00D72EB52E080020002A08B0002908AF0027
:104DBA002808B2002708B1003208AC003108AB005D
:104DCA00B10A0319B20A2B0886002C08870030089A
:104DDA00AE002F08AD00AF0A0319B00A2D088400EF
:104DEA002E0885000008C03F8908031DFD2EFE2EEF
:104DFA00E12E08002D343E342034453452345234E6
:104E0A004534553452343A342034003400340034B2
:104E1A000034003400340034003400342D343E347D
:104E2A0020344534523452344534553452343A34A9
:104E3A0020340034003400340034003400340034A8
:104E4A00003400342000B500B301B4013F2F32080A
:104E5A00AF00B0012F08A6003008A7002E08B10045
:104E6A003108A8009B313623A73101302000B3074F
:104E7A000030B43D33083507AF002F0886000230F2
:104E8A0087000108B0003008B2003208031D4E2F17
:104E9A004F2F2C2F0800F400700871040319562FA5
:104EAA00572F6A2F7435A03E86000130870070089C
:104EBA00C03F7108C13F7208F3007408AC3E860017
:104ECA000130870073088100792F7435A03E86006F
:104EDA00013087005F30C03F2230C13F7408AC3ECA
:104EEA00860001308700810108002000A401A50185
:104EFA0022000D1606302000A3003030890B832FC4
:104F0A00A30B832F000022000D1206302000A300FD
:104F1A003030890B8E2FA30B8E2F0000013020001A
:104F2A00A4070030A53D2508803AA300803023025B
:104F3A00031DA12F32302402031CA42FA52F7D2F7D
:104F4A00080023003C100230FA007A08BB00B52F93
:104F5A00A2319C22A731D22FA231A122A731D22F6E
:104F6A002E08FA007A08F9000430A03E86000130C3
:104F7A008700413F8A00403F0A00A731FB00FC013D
:104F8A007C08003A0319CA2FB12F7B08023A031989
:104F9A00AD2F013A0319AD2FB12F08002000A4004C
:104FAA0021006C080319DA2FDB2FD52F111ADE2FF7
:104FBA00DF2FE42F2000240823009A00FD2F11126E
:104FCA0020002408A3007D08C53E86000130870022
:104FDA00230881000130A3002308FD0708307D0261
:104FEA00031CF82FF92FFA2FFD0101302100EC02E2
:104FFA0021001116080041347434743465346E3457
:10500A00743465342034763461346C3469346434ED
:10501A006134743469346F346E3420346C346534DA
:10502A006434203472346F347534673465340D3423
:10503A000A3400342D343E342034503452344F3440
:10504A004734523441344D344D3441345434493464
:10505A004F344E3420345434453452344D34493468
:10506A004E34453445340D340A3400342D343E343C
:10507A002034503452344F344734523441344D344E
:10508A004D344134543449344F344E342034453449
:10509A004E34203443344F345534523453340D345F
:1050AA000A3400342D343E34203453344C344134E1
:1050BA00563445342034543445345334543420342B
:1050CA004E344F344E34203443344F344E34463405
:1050DA004F3452344D34453400342D343E34203468
:1050EA0045345234523445345534523420345034D1
:1050FA0052344F344734523441344D344D344134B0
:10510A00543449344F344E340D340A3400342D3477
:10511A003E342034543445345334543420344D34DA
:10512A0041344E34553445344C34203445344E34AD
:10513A00203443344F345534523453340D340A3402
:10514A00003441345434543445344E3454344534A0
:10515A002034563441344C34493444344134543480
:10516A0049344F344E3420344C3445344434533467
:10517A000D340A3400342D343E34203453344C3444
:10518A00413456344534203452344534533450343F
:10519A004F344E345334453420344E3455344C3421
:1051AA004C340D340A3400342D343E342034453422
:1051BA00463446344134433445344D3445344E3410
:1051CA005434203445344E34203443344F34553427
:1051DA00523453340D340A3400342D343E342034DE
:1051EA004534463446344134433445344D344534E9
:1051FA004E34543420345434453452344D344934C2
:10520A004E3445340D340A3400342D343E342034BF
:10521A0053344C344134563445345F345434453471
:10522A0053345434203447344534543420344134CC
:10523A00433451340D340A3400342D343E3420348E
:10524A0053344C344134563445345F345434453441
:10525A0053345434203447344534543420344F348E
:10526A004B340D340A3400342D343E342034533454
:10527A004C344134563445345F3454344534533411
:10528A005434203447344534543420344B344F3466
:10529A000D340A3400342D343E34203453344C3423
:1052AA004134563445342034543445345334543418
:1052BA00203443344F344E3446344F3452344D3410
:1052CA00453400342D343E34203453344C34413484
:1052DA005634453420345434453453345434203409
:1052EA0041344334513455344934543454344534B4
:1052FA0000342D343E342034463449344E3420347C
:10530A00543445345334543420344D3441344E34B7
:10531A00553445344C340D340A3400342D343E347B
:10532A00203453344C3441345634453420344534D3
:10533A004E34203441345434543445344E34543485
:10534A0045343A34003445345234523445345534B1
:10535A0052342034503452344F3447345234413466
:10536A004D344D344134543449344F344E3400347E
:10537A00503452344534533453344534523420343F
:10538A004F344B3420344F3455342034453452345E
:10539A00523445345534523400344134543454343C
:1053AA0045344E3454344534203441344334513432
:1053BA00553449345434543445344D3445344E34D8
:1053CA00543400342D343E34203441347034703433
:1053DA0075347934653472342034733475347234E4
:1053EA0020344F344B340D340A34003454344534A9
:1053FA005334543420345234313420344F34463404
:10540A00463420342D3420345234323420344F344C
:10541A004E340034543445345334543420345234E2
:10542A00323420344F344634463420342D34203438
:10543A005234333420344F344E3400342D343E3415
:10544A0020345434453453345434203441344334AE
:10545A005134553449345434543445340D340A34AF
:10546A0000342D343E34203453344C3441345634D1
:10547A0045345F34543445345334543420344F342F
:10548A004E340D340A3400345434453453345434CD
:10549A00203443344134523454344534203444346F
:1054AA0039343234353445344434343400342D34C8
:1054BA003E34203453344C34413456344534543415
:1054CA004534533454343A34313430343A34313440
:1054DA0000342D343E34203453344C344134563461
:1054EA00453454344534533454343A3431343134F1
:1054FA003A34313400342D343E34203453344C346D
:10550A0041345634453454344534533454343A349B
:10551A00313432343A34313400342D343E34203488
:10552A0053344C344134563445345434453453346A
:10553A0054343A34313433343A34313400342D3437
:10554A003E34203453344C34413456344534543484
:10555A004534533454343A34313434343A343134AB
:10556A0000342D343E34203453344C3441345634D0
:10557A00453454344534533454343A34313435345C
:10558A003A34313400342D343E34203453344C34DC
:10559A0041345634453454344534533454343A340B
:1055AA00313436343A34313400342D343E342034F4
:1055BA0053344C34413456344534543445345334DA
:1055CA0054343A34313437343A34313400342D34A3
:1055DA003E34203453344C344134563445345434F4
:1055EA004534533454343A34313438343A34313417
:1055FA0000345634453452344934463449344534F7
:10560A005234203450343134203445345434203424
:10561A0050343234003452344534533455344C34D3
:10562A00543441345434203443344F344E344634A1
:10563A00493452344D3445340034463449344E34B6
:10564A002034503452344F344734523441344D3478
:10565A004D344134543449344F344E340034503488
:10566A004F3453344934543449344F344E344E341D
:10567A00453452342034433441345234543445345A
:10568A0000345434453453345434203433342034BD
:10569A00523445344C3441344934533420344F3431
:1056AA004634463400342D343E34203453344C349A
:1056BA0041345634453454344534533454343A34EA
:1056CA0031343A34313400342D343E3420345334B6
:1056DA004C344134563445345434453453345434B8
:1056EA003A3432343A34313400342D343E342034AE
:1056FA0053344C3441345634453454344534533499
:10570A0054343A3433343A34313400342D343E3458
:10571A00203453344C3441345634453454344534AB
:10572A00533454343A3434343A34313400342D3422
:10573A003E34203453344C34413456344534543492
:10574A004534533454343A3435343A3431340034E9
:10575A002D343E34203453344C3441345634453499
:10576A0054344534533454343A3436343A34313474
:10577A0000342D343E34203453344C3441345634BE
:10578A00453454344534533454343A3437343A343F
:10579A00313400342D343E34203453344C344134C3
:1057AA005634453454344534533454343A34383402
:1057BA003A34313400342D343E34203453344C34AA
:1057CA0041345634453454344534533454343A34D9
:1057DA0039343A34313400342D343E34203453349D
:1057EA004C344134563445342034453452345234DE
:1057FA004534553452343A34003443344C34413409
:10580A0056344934453452342034453443344C34C4
:10581A0041344934523445343F34003450345234DC
:10582A004534533453344534523420344F344B3492
:10583A0020342F3420344E344F344B340034543413
:10584A0045345334543420343334203452344534B8
:10585A004C3441344934533420344F344E340034B8
:10586A00543445345334543420344C344534443459
:10587A00203443344C344134563449344534523458
:10588A00003443344C344134563449344534523468
:10589A00203445345434453449344E3454343F3436
:1058AA000034543445345334543420344C3445345D
:1058BA004434533420344334413452345434453418
:1058CA000034453452345234453455345234203439
:1058DA00563441344C344934443445344534003424
:1058EA00463449344E3420344534463446344134FF
:1058FA00433445344D3445344E34543400345434EE
:10590A0045345334543420344C34453444342034EC
:10591A0052344F34553447344534003454344534C2
:10592A005334543420344C344534443420345634BB
:10593A0045345234543445340034543445345334A1
:10594A00543420344C3445344434203442344C34B6
:10595A0045345534453400344D344F344434553489
:10596A004C34453420344534533443344C34413474
:10597A005634453400345434453453345434203482
:10598A0042344C345534453454344F344F345434FF
:10599A004834003441345034503455345934453441
:1059AA005234203453345534523420344F344B3427
:1059BA0000344D34613473347434653472342034B1
:1059CA0065346E342034743465347334743400347A
:1059DA004D344F34443455344C34453420344D34EA
:1059EA004134493454345234453400345234453401
:1059FA0054344934523445345234203443344134D3
:105A0A0052345434453400344C34453444345334D9
:105A1A00203441344C344C3455344D3445344534B7
:105A2A00533400342D343E34203454344534533402
:105A3A00543420344F344E340D340A3400342D3467
:105A4A003E34203454344534533454343A343134A3
:105A5A0030343A34313400342D343E342034543422
:105A6A004534533454343A34313432343A34313498
:105A7A0000342D343E3420345434453453345434B1
:105A8A003A34313433343A34313400342D343E34F8
:105A9A00203454344534533454343A34313434345D
:105AAA003A34313400342D343E34203454344534BD
:105ABA00533454343A34313435343A34313400348A
:105ACA002D343E34203454344534533454343A3427
:105ADA00313436343A34313400342D343E342034BF
:105AEA0054344534533454343A34313437343A34F0
:105AFA00313400342D343E34203454344534533454
:105B0A0054343A34313438343A3431340034543435
:105B1A00453453345434203448344F3452344C349A
:105B2A004F344734453400342D343E342034543411
:105B3A004534533454343A3431343A3431340034F9
:105B4A002D343E34203454344534533454343A34A6
:105B5A0032343A34313400342D343E34203454341F
:105B6A004534533454343A3433343A3431340034C7
:105B7A002D343E34203454344534533454343A3476
:105B8A0034343A34313400342D343E3420345434ED
:105B9A004534533454343A3435343A343134003495
:105BAA002D343E34203454344534533454343A3446
:105BBA0036343A34313400342D343E3420345434BB
:105BCA004534533454343A3437343A343134003463
:105BDA002D343E34203454344534533454343A3416
:105BEA0038343A34313400342D343E342034543489
:105BFA004534533454343A3439343A343134003431
:105C0A0054344534533454342034533446344C34A5
:105C1A004134533448340034463449344E34203401
:105C2A0044344534203454344534533454340034E1
:105C3A0056344F3449345234203441345034503479
:105C4A004C344934003454344534533454342034B5
:105C5A005234313420344F344E34003445345434C1
:105C6A0041345034453420343134303400344534EE
:105C7A0054344134503445342034313432340034CD
:105C8A005434453453345434203442345034323446
:105C9A00003445345434413450344534203431349A
:105CAA003334003445345434413450344534203488
:105CBA003134343400344534543441345034453466
:105CCA00203431343534003445345434413450347A
:105CDA004534203431343634003445345434413474
:105CEA005034453420343134373400344534543454
:105CFA004134503445342034313438340034543447
:105D0A0045345334543420344F344B3400344534FE
:105D1A00543441345034453420343134003454340A
:105D2A0045345334543420345034313400344534F7
:105D3A0054344134503445342034323400345434E9
:105D4A0045345334543420345034323400344534D6
:105D5A0054344134503445342034333400344534D7
:105D6A0054344134503445342034343400344534C6
:105D7A0054344134503445342034353400344534B5
:105D8A0054344134503445342034363400344534A4
:105D9A005434413450344534203437340034453493
:105DAA005434413450344534203438340034453482
:105DBA005434413450344534203439340034253491
:045DCA006434003409
:020000040001F9
:08000000FF3FFF3FFF3FFF3F00
:04000E00E43FFF3F8D
:00000001FF
