:1000000080314A28053008007E1480310B1F0928F2
:100010000A2848282100111E0E280F281B2820001E
:10002000111E132814281B28210066088A00650861
:100030000A00803148282100911E1F2820282C28E2
:100040002000911E242825282C2822006C088A00D4
:100050006B080A00803148282100921D3028312881
:100060003D282000921D352836283D2821006808AB
:100070008A0067080A00803148282100911D412824
:10008000422848282000911D46284728482836281D
:100090007E10090080314C282100903100208031F1
:1000A000EE0052308400A4308500CD30860001304F
:1000B00087001430A231B8228031D1308400A630BC
:1000C000850020308600023087002830A231B82217
:1000D0008031FD012000EA01EB01EC01DF308400FA
:1000E000003085000F30A231B22280315B308400B5
:1000F000013085001430A231B2228031A03084005A
:10010000013085002D30A231B22280314830840088
:10011000023085002030A231B22280317E102000D2
:100120008331982BEB302100AD00AD30AE00A4310F
:100130007B2480318731FB2780312200C1004108B8
:10014000D5005308C100C20141082100B0002200BF
:1001500042082100B1002200550886311D26803159
:10016000A331CF2380312200C1004108D6005A308C
:10017000C10041082100B00058302200C2004208EE
:100180002100B10054302200C30043082100B20016
:1001900022005608C40044082100B30059308831B9
:1001A0000320803122005A080319D728D828422971
:1001B000E2302000AE00AE30AF00C130B000AC3055
:1001C000B1003A30B200A830B3003A30B400A830E1
:1001D000B5009A31B72280310130A3317F238031BD
:1001E00006302200C2001330C100AD30890BF62862
:1001F000C10BF628C20BF62800320030A3317F2352
:10020000803122005008031906290729422959087C
:100210009D31792580312200C1004108D70057085F
:10022000031D132914293A29DA01E2302100B00014
:10023000AE30B1005A30B2000130B3005730B400D4
:100240000130B5009C316424803159302100B80060
:100250000130B9005A30BA000130BB005730BC0041
:100260000130BD005830BE000130BF009B31B123CA
:1002700080314229F7302100AD00AD30AE00A4310D
:100280007B2480318731FB2780312200C100410867
:10029000D5005308C100C20141082100B00022006E
:1002A00042082100B1002200550886311D26803108
:1002B000A331CF2380312200C1004108D6005A303B
:1002C000C10041082100B00058302200C20042089D
:1002D0002100B10054302200C30043082100B200C5
:1002E00022005608C40044082100B3005930883168
:1002F0000320803122005A0803197F298029EE2922
:10030000EA302000AE00AE30AF005630B000AE3064
:10031000B1003A30B200A830B3003A30B400A8308F
:10032000B5009A31B72280310130A3317F2380316B
:1003300015302200C2004B30C100BE30890B9E290F
:10034000C10B9E29C20B9E2900000030A3317F23E0
:10035000803115302200C2004B30C100BE30890B05
:10036000AF29C10BAF29C20BAF2900000130A63164
:100370001B268031003A0319BE29BF29C829033042
:100380002100AD00AE30AE00A4317B248031EE29D7
:100390002200DA01EA302100B000AE30B1005A305C
:1003A000B2000130B3005730B4000130B5009C31C9
:1003B0006424803159302100B8000130B9005A302E
:1003C000BA000130BB005730BC000130BD005830CE
:1003D000BE000130BF009B31B12380318731FB2744
:1003E00080312200C1004108D5005308C100C2017C
:1003F00041082100B000220042082100B100220083
:10040000550886311D268031A331CF23803122004B
:10041000C1004108D6005A30C10041082100B00097
:1004200058302200C20042082100B100543022009E
:10043000C30043082100B20022005608C40044084B
:100440002100B300593088310320803122005A083E
:1004500003192B2A2C2AA32AF2302000AE00AE303A
:10046000AF00F530B000A930B1003A30B200A8308A
:10047000B3003A30B400A830B5009A31B7228031C9
:100480000130A3317F23803115302200C2004B3070
:10049000C100BE30890B4A2AC10B4A2AC20B4A2A24
:1004A00000000030A3317F23803115302200C200CC
:1004B0004B30C100BE30890B5B2AC10B5B2AC20BDB
:1004C0005B2A00000030A6311B268031003A031958
:1004D0006A2A6B2A7D2A0130A6313E268031003AF5
:1004E0000319732A742A7D2A0F302100AD00AE3023
:1004F000AE00A4317B248031A32A2200DA01F2303D
:100500002100B000AE30B1005A30B2000130B3006B
:100510005730B4000130B5009C316424803159302B
:100520002100B8000130B9005A30BA000130BB00D8
:100530005730BC000130BD005830BE000130BF0054
:100540009B31B12380318731FB2780312200C100EC
:100550004108D5005308C100C20141082100B00084
:10056000220042082100B1002200550886311D26D4
:100570008031A331CF2380312200C1004108D60051
:100580005A30C10041082100B00058302200C2009A
:1005900042082100B10054302200C300430821006A
:1005A000B20022005608C40044082100B3005930AC
:1005B00088310320803122005A080319E02AE12AF9
:1005C000582BFA302000AE00AE30AF000930B0003A
:1005D000AA30B1003A30B200A830B3003A30B400CB
:1005E000A830B5009A31B72280310130A3317F2382
:1005F000803115302200C2004B30C100BE30890B63
:10060000FF2AC10BFF2AC20BFF2A00000030A331D2
:100610007F23803115302200C2004B30C100BE3034
:10062000890B102BC10B102BC20B102B00000030BC
:10063000A6313E268031003A03191F2B202B322B86
:100640000130A63161268031003A0319282B292B6D
:10065000322B1B302100AD00AE30AE00A4317B2424
:100660008031582B2200DA01FA302100B000AE3080
:10067000B1005A30B2000130B3005730B40001303D
:10068000B5009C316424803159302100B80001301C
:10069000B9005A30BA000130BB005730BC000130FD
:1006A000BD005830BE000130BF009B31B123803106
:1006B0008731FB2780312200C1004108D500530853
:1006C000C100C20141082100B000220042082100FF
:1006D000B1002200550886311D268031A331CF2379
:1006E00080312200C1004108D6005A30C1004108C3
:1006F0002100B00058302200C20042082100B100A1
:1007000054302200C30043082100B20022005608E2
:10071000C40044082100B3005930883103208031DF
:1007200022005A080319962B88317F2889313829ED
:10073000A331FE2383318B170B172200DA01D70177
:10074000D901CF01D801D80AC901C90AD401D301FE
:1007500015302200C2004B30C100BE30890BAE2BD9
:10076000C10BAE2BC20BAE2B000020008E1AB92B92
:10077000BA2BC02B2200C901A331C0238331C32B64
:10078000A3311B23833120000E1CC72BC82BCC2B7D
:100790002200D001D00ACE2B2200D00120008E18DA
:1007A000D22BD32BD72B2200CF01CF0AD92B22005B
:1007B000CF014E309C31ED24833143302000AE0018
:1007C000AA30AF001B30B000AD30B1004030B200F5
:1007D000AB30B300FD30B400AC30B5009A31B72275
:1007E000833103302200C2000830C1007730890B0A
:1007F000F72BC10BF72BC20BF72B46309C31ED24A6
:10080000833143302000AE00AA30AF00DF30B000AB
:10081000AC30B1004030B200AB30B300FD30B400BA
:10082000AC30B5009A31B722833103302200C200C8
:100830000830C1007730890B1B2CC10B1B2CC20B5D
:100840001B2C22008C133F2C5A30C1004108210080
:10085000B50058302200C20042082100B6005430D2
:100860002200C30043082100B70053302200C40017
:1008700044082100B8005930953180258331220089
:100880005A080319442C452C242CD801A63184265F
:1008900083312200DA01DA0A0030A3315823833190
:1008A0000030A331652383310130A33172238331BA
:1008B00003302200C2000830C1007730890B5E2C63
:1008C000C10B5E2CC20B5E2C46309C31ED24833173
:1008D00043302000AE00AA30AF000C30B000AD3085
:1008E000B1004030B200AB30B300FD30B400AC30EA
:1008F000B5009A31B722833103302200C20008309C
:10090000C1007730890B822CC10B822CC20B822C48
:100910004E309C31ED248331B2302000AE00AE3039
:10092000AF005230B000AC30B1003A30B200A83065
:10093000B3003A30B400A830B5009A31B722833101
:100940000130A3317F2383310130A3318C238331E4
:1009500015302200C2004B30C100BE30890BAE2CD6
:10096000C10BAE2CC20BAE2C00000130A3314B23C7
:10097000833129302200C2009630C1007F30890BBC
:10098000BF2CC10BBF2CC20BBF2C0130A6311B26C4
:100990008331003A0319CD2CCE2CE92C0130A6313D
:1009A0003E268331003A0319D62CD72CE92C01308E
:1009B000A63161268331003A0319DF2CE02CE92CA3
:1009C000C7302100AD00AD30AE00A4317B248331AF
:1009D000172D2200DA010030A3317F23833100304C
:1009E000A3318C238331B2302100B000AE30B1008E
:1009F0005A30B2000130B3005730B4000130B500B6
:100A00009C316424833159302100B8000130B90091
:100A10005A30BA000130BB005730BC000130BD0075
:100A20005830BE000130BF009B31B1238331873184
:100A3000FB2783312200C1004108D5005308C100C3
:100A4000C20141082100B000220042082100B1008B
:100A50002200550886311D268331A331CF238331EF
:100A60002200C1004108D6005A30C10041082100CF
:100A7000B00058302200C20042082100B1005430BA
:100A80002200C30043082100B20022005608C4001F
:100A900044082100B30059308831032083311530D8
:100AA0002200C2004B30C100BE30890B552DC10B56
:100AB000552DC20B552D00000030A3317F2383310B
:100AC0000030A3318C23833122005A080319692D89
:100AD0006A2DDD2DC2302000AE00AE30AF005230A6
:100AE000B000AB30B1003A30B200A830B3003A30B9
:100AF000B400A830B5009A31B72283310030A33159
:100B00007F2383310030A3318C2383310B302200CB
:100B1000C2002630C1005D30890B8C2DC10B8C2D9D
:100B2000C20B8C2D00320130A6311B268331003AD6
:100B3000031D9B2D9C2DB72D0130A6313E26833100
:100B4000003A031DA42DA52DB72D0130A631612635
:100B50008331003A031DAD2DAE2DB72DD3302100CA
:100B6000AD00AD30AE00A4317B248331DD2D2200F9
:100B7000DA01C2302100B000AE30B1005A30B2000C
:100B80000130B3005730B4000130B5009C3164240B
:100B9000833159302100B8000130B9005A30BA0011
:100BA0000130BB005730BC000130BD005830BE00E2
:100BB0000130BF009B31B12383318731FB27833163
:100BC0002200C1004108D5005308C100C2014108FC
:100BD0002100B000220042082100B1002200550887
:100BE00086311D268331A331CF2383312200C100FA
:100BF0004108D6005A30C10041082100B0005830E9
:100C00002200C20042082100B10054302200C3007B
:100C100043082100B20022005608C4004408210005
:100C2000B300593088310320833122005A08031958
:100C30001B2E903187289031FA282100B400752F9F
:100C40007830AD00A930AE00A4317B248631FA2F74
:100C50006430AD00AB30AE00A4317B248631FA2F76
:100C6000FD30AD00AB30AE00A4317B248631FA2FCD
:100C70007530AD00AB30AE00A4317B248631FA2F45
:100C8000FD30AD00AB30AE00A4317B248631FA2FAD
:100C90008630AD00AB30AE00A4317B248631FA2F14
:100CA000FD30AD00AB30AE00A4317B248631FA2F8D
:100CB0009730AD00AB30AE00A4317B248631FA2FE3
:100CC000FD30AD00AB30AE00A4317B248631FA2F6D
:100CD000A830AD00AB30AE00A4317B248631FA2FB2
:100CE000FD30AD00AB30AE00A4317B248631FA2F4D
:100CF000B930AD00AB30AE00A4317B248631FA2F81
:100D0000FD30AD00AB30AE00A4317B248631FA2F2C
:100D1000CA30AD00AB30AE00A4317B248631FA2F4F
:100D2000FD30AD00AB30AE00A4317B248631FA2F0C
:100D3000DB30AD00AB30AE00A4317B248631FA2F1E
:100D4000FD30AD00AB30AE00A4317B248631FA2FEC
:100D5000EC30AD00AB30AE00A4317B248631FA2FED
:100D6000FD30AD00AB30AE00A4317B248631FA2FCC
:100D70005630AD00AA30AE00A4317B248631FA2F64
:100D8000FD30AD00AB30AE00A4317B248631FA2FAC
:100D90006830AD00AA30AE00A4317B248631FA2F32
:100DA000FD30AD00AB30AE00A4317B248631FA2F8C
:100DB0007A30AD00AA30AE00A4317B248631210008
:100DC000300886003108870001308100FA2FFD309D
:100DD000AD00AB30AE00A4317B248631FA2F8C30CD
:100DE000AD00AA30AE00A4317B248631210030084A
:100DF0008600310887008101FA2FFD30AD00AB304D
:100E0000AE00A4317B248631FA2F9E30AD00AA308B
:100E1000AE00A4317B248631FA2FFD30AD00AB301B
:100E2000AE00A4317B248631FA2FB030AD00AA3059
:100E3000AE00A4317B248631FA2FFD30AD00AB30FB
:100E4000AE00A4317B248631FA2FC230AD00AA3027
:100E5000AE00A4317B248631FA2FFD30AD00AB30DB
:100E6000AE00A4317B248631FA2FD430AD00AA30F5
:100E7000AE00A4317B248631DF2EFD30AD00AB30D7
:100E8000AE00A4317B248631FA2FE630AD00AA30C3
:100E9000AE00A4317B248631F62EFD30AD00AB30A0
:100EA000AE00A4317B248631FA2F3530AD00A93055
:100EB000AE00A4317B248631FA2F0E30AD00AC3069
:100EC000AE00A4317B248631FA2F1F30AD00AC3048
:100ED000AE00A4317B248631FA2F4C30AD00A9300E
:100EE000AE00A4317B248631FA2F3408B200B3015E
:100EF0003308003A03197D2FFA2F3208413A0319BB
:100F0000282E033A0319382E013A0319482E073ABE
:100F10000319582E013A0319682E033A0319782E43
:100F2000013A0319882E0F3A0319982E013A031932
:100F3000A82E033A0319B82E013A0319C82E073A0E
:100F40000319D82E013A0319EF2E033A0319052F7E
:100F5000013A0319152F1F3A0319252F013A0319D6
:100F6000352F033A0319452F013A0319552F323A09
:100F70000319302E033A0319402E013A0319502E5B
:100F8000073A0319602E013A0319702E033A031928
:100F9000802E013A0319902E0F3A0319A02E013A20
:100FA0000319B02E033A0319C02E013A0319D02EAB
:100FB000073A0319E72E013A0319FD2E033A0319E4
:100FC0000D2F013A03191D2F1F3A03192D2F013A36
:100FD00003193D2F033A03194D2F073A03195D2FCB
:100FE000033A0319652F013A03196D2F0D3A0319BE
:100FF000202EFA2F08003F309931972187310800C1
:101000002000911108002100B8006828A2319B221D
:1010100088312100B4003408B60061303606031D63
:101020001228132840283030AD00AA30AE00A43179
:101030007B24883121003808860001308700810137
:10104000810A30088600013087008101810A320858
:101050008600013087008101810A31088600013055
:101060008700810102302100B5000430B400BA309D
:10107000890B3828B40B3828B50B382800007E2897
:10108000A530AD00A830AE00A4317B2488317E2885
:1010900075309931972188317E28763099319721A2
:1010A00088317E2877309931972188312100B4002A
:1010B0003408B70077303706031D5F2860287E2884
:1010C0008D30AD00A930AE00A4317B2488317E285C
:1010D0003308B400B5013508003A031970287E289A
:1010E0003408613A03190628143A03194828033AC8
:1010F00003194D28013A031952287E2808000230AE
:101100002000AE00AF30AF006330B000AC30B100B3
:101110003030B200AC30B3003A30B400A830B50083
:101120009A31B72288310130A3317F2388310630CC
:101130002200C2001330C100AD30890B9D28C10BC5
:101140009D28C20B9D2800320030A3317F238831B7
:101150000B302200C2002630C1005D30890BAE2862
:10116000C10BAE28C20BAE2800320C30A531B7251A
:101170008831200024082200D20020002308220009
:10118000D1000A302100AD00AF30AE00220052087D
:101190002100B000220051082100AF004A309831F0
:1011A000D820883121002E082200C60021002D08F9
:1011B0002200C5005208803AC10083304102031D5D
:1011C000E328203051020318E628E728F2282200FD
:1011D0008C1727302100AD00AE30AE00A4317B2447
:1011E00088312C2902302100B000AF30B1005A30D4
:1011F000B2000130B3005730B4000130B5009C316B
:101200006424883102302000AE00AF30AF0063307C
:10121000B000AC30B1004A30B2000130B3003A3017
:10122000B400A830B5009A31B722883122008C135F
:1012300059302100B8000130B9005A30BA000130ED
:10124000BB005730BC000130BD005830BE0001303B
:10125000BF009B31B123883129302200C200963073
:10126000C1007F30890B3229C10B3229C20B3229D0
:101270008731FB2788312200C1004108D50053087F
:10128000C100C20141082100B00022004208210033
:10129000B1002200550886311D268831A331CF23A5
:1012A00088312200C1004108D6005A30C1004108EF
:1012B0002100B00058302200C20042082100B100D5
:1012C00054302200C30043082100B2002200560817
:1012D000C40044082100B30059308831032088310C
:1012E00022005A080319752976292F2A6130200017
:1012F000AE00AE30AF006330B000AC30B10074303F
:10130000B200AC30B3003A30B400A830B5009A3126
:10131000B72288310130A3317F2388310630220083
:10132000C2001330C100AD30890B9429C10B942940
:10133000C20B942900320030A3317F2388310B3057
:101340002200C2002630C1005D30890BA529C10BE7
:10135000A529C20BA52900320C30A531B72588314B
:10136000200024082200D200200023082200D100FF
:101370000A302100AD00AF30AE002200520821003B
:10138000B000220051082100AF004A309831D82027
:10139000883121002E082200C80021002D082200DB
:1013A000C7005208803AC10082304102031DDA2989
:1013B000BC3051020318DD29DE29E92922008C13F3
:1013C00052302100AD00AD30AE00A4317B24883115
:1013D000232A61302100B000AE30B1005A30B20093
:1013E0000130B3005730B4000130B5009C316424A3
:1013F000883161302000AE00AE30AF006330B00005
:10140000AC30B1004A30B2000130B3003A30B40021
:10141000A830B5009A31B722883122008C17593094
:101420002100B8000130B9005A30BA000130BB00C9
:101430005730BC000130BD005830BE000130BF0045
:101440009B31B123883129302200C2009630C1007F
:101450007F30890B292AC10B292AC20B292A8731FF
:10146000FB2788312200C1004108D5005308C10084
:10147000C20141082100B000220042082100B10051
:101480002200550886311D268831A331CF238831AB
:101490002200C1004108D6005A30C1004108210095
:1014A000B00058302200C20042082100B100543080
:1014B0002200C30043082100B20022005608C400E5
:1014C00044082100B30059308831032088312200BC
:1014D0005A0803196C2A6D2A392B6A302000AE0095
:1014E000AE30AF003330B000AE30B1003A30B200B1
:1014F000A830B3003A30B400A830B5009A31B72212
:1015000088310B302200C2002630C1005D30890BCB
:10151000872AC10B872AC20B872A00320130A331E8
:101520007F23883106302200C2001330C100AD3065
:10153000890B982AC10B982AC20B982A00320030D6
:10154000A3317F2388313D302200C200E130C10049
:101550003F30890BA92AC10BA92AC20BA92A003244
:101560000130A3317F23883106302200C2001330BE
:10157000C100AD30890BBA2AC10BBA2AC20BBA2AF4
:1015800000320030A3317F23883110302200C200A6
:101590003930C1000D30890BCB2AC10BCB2AC20BCD
:1015A000CB2A00320130A6311B268831003A0319BC
:1015B000DA2ADB2AF62A0130A6313E268831003AA3
:1015C0000319E32AE42AF62A0030A631612688317D
:1015D000003A0319EC2AED2AF62A5F302100AD000B
:1015E000AD30AE00A4317B248831242B2200DA01F7
:1015F0000030A3317F2388310030A3318C23883120
:101600006A302100B000AE30B1005A30B200013073
:10161000B3005730B4000130B5009C3164248831E8
:1016200059302100B8000130B9005A30BA000130F9
:10163000BB005730BC000130BD005830BE00013047
:10164000BF009B31B123883115302200C2004B30DE
:10165000C100BE30890B2A2BC10B2A2BC20B2A2BAF
:1016600000000030A3317F2388310030A3318C2368
:1016700088318731FB2788312200C1004108D5001D
:101680005308C100C20141082100B00022004208F5
:101690002100B1002200550886311D268831A33172
:1016A000CF2388312200C1004108D6005A30C10042
:1016B00041082100B00058302200C2004208210039
:1016C000B10054302200C30043082100B2002200C0
:1016D0005608C40044082100B30059308831032063
:1016E000883122005A080319762B772BE42B7C30A3
:1016F0002000AE00AE30AF008430B000AC30B1009E
:101700003730B200AD30B3004130B400AC30B5007A
:101710009A31B72288310130A3317F2388310630D6
:101720002200C2001330C100AD30890B952BC10BD4
:10173000952BC20B952B00320030A3317F238831CB
:101740008B302100AD00A830AE00A4317B2488315D
:10175000220059089D31792588312200C1004108B5
:10176000D7005708031DB52BB62BDC2BDA017C30D4
:101770002100B000AE30B1005A30B2000130B300E9
:101780005730B4000130B5009C31642488315930A1
:101790002100B8000130B9005A30BA000130BB0056
:1017A0005730BC000130BD005830BE000130BF00D2
:1017B0009B31B1238831E42B6C302100AD00AD307A
:1017C000AE00A4317B2488318731FB278831220089
:1017D000C1004108D5005308C100C20141082100E1
:1017E000B000220042082100B100220055088631D5
:1017F0001D268831A331CF2388312200C100410842
:10180000D6005A30C10041082100B00058302200F3
:10181000C20042082100B10054302200C300430836
:101820002100B20022005608C40044082100B30081
:10183000593088310320883122005A080319212C9D
:10184000222CA22C85302000AE00AE30AF007330C9
:10185000B000AE30B1003A30B200A830B3003A3038
:10186000B400A830B5009A31B72288310130A331D5
:101870008C23883106302200C2001330C100AD3005
:10188000890B402CC10B402CC20B402C0032003085
:10189000A3318C2388310B302200C2002630C100D6
:1018A0005D30890B512CC10B512CC20B512C0032D5
:1018B0000130A6311B268831003A0319602C612CB7
:1018C0007C2C0130A6313E268831003A0319692C60
:1018D0006A2C7C2C0130A63161268831003A03192C
:1018E000722C732C7C2C79302100AD00AD30AE0011
:1018F000A4317B248831A22C2200DA01853021001A
:10190000B000AE30B1005A30B2000130B3005730F1
:10191000B4000130B5009C31642488315930210075
:10192000B8000130B9005A30BA000130BB0057305E
:10193000BC000130BD005830BE000130BF009B31FB
:10194000B12388318731FB2788312200C10041084B
:10195000D5005308C100C20141082100B000220097
:1019600042082100B1002200550886311D26883129
:10197000A331CF2388312200C1004108D6005A305C
:10198000C10041082100B00058302200C2004208C6
:101990002100B10054302200C30043082100B200EE
:1019A00022005608C40044082100B3005930883191
:1019B0000320883122005A080319DF2CE02C602D07
:1019C0008E302000AE00AE30AF00BA30B000AD3087
:1019D000B1003A30B200A830B3003A30B400A830B9
:1019E000B5009A31B72288310130A331B323883151
:1019F00006302200C2001330C100AD30890BFE2C2E
:101A0000C10BFE2CC20BFE2C00320030A331B323DD
:101A100088310B302200C2002630C1005D30890BB6
:101A20000F2DC10B0F2DC20B0F2D00320030A63130
:101A30001B268831003A03191E2D1F2D3A2D003028
:101A4000A6313E268831003A0319272D282D3A2D3C
:101A50000030A63161268831003A0319302D312D2E
:101A60003A2D86302100AD00AD30AE00A4317B248C
:101A70008831602D2200DA018E302100B000AE30B6
:101A8000B1005A30B2000130B3005730B400013019
:101A9000B5009C316424883159302100B8000130F0
:101AA000B9005A30BA000130BB005730BC000130D9
:101AB000BD005830BE000130BF009B31B1238831DA
:101AC0008731FB2788312200C1004108D500530827
:101AD000C100C20141082100B000220042082100DB
:101AE000B1002200550886311D268831A331CF234D
:101AF00088312200C1004108D6005A30C100410897
:101B00002100B00058302200C20042082100B1007C
:101B100054302200C30043082100B20022005608BE
:101B2000C40044082100B3005930883103208831B3
:101B300022005A0803199D2D9E2D182E9730200043
:101B4000AE00AE30AF00BA30B000AE30B1003A30C7
:101B5000B200A830B3003A30B400A830B5009A31D2
:101B6000B72288310130A3319923883119302200FE
:101B7000C2005A30C100B130890BBC2DC10BBC2D45
:101B8000C20BBC2D00320030A331992388310B30B9
:101B90002200C2002630C1005D30890BCD2DC10B63
:101BA000CD2DC20BCD2D00320130A6311B26883140
:101BB000003A0319DC2DDD2DF82D0130A6313E262B
:101BC0008831003A0319E52DE62DF82D0130A631B4
:101BD00061268831003A0319EE2DEF2DF82D933050
:101BE0002100AD00AD30AE00A4317B248831182E29
:101BF00097302100D700AE30D8005A302200C10003
:101C000041082100D90057302200C20042082100BB
:101C1000DA0059302200C30043082100DB005830AD
:101C20002200C40044082100DC009231BE22883129
:101C30008731FB2788312200C1004108D5005308B5
:101C4000C100C20141082100B00022004208210069
:101C5000B1002200550886311D268831A331CF23DB
:101C600088312200C1004108D6005A30C100410825
:101C70002100B00058302200C20042082100B1000B
:101C800054302200C30043082100B200220056084D
:101C9000C40044082100B300593088310320883142
:101CA00022005A080319552E562ED62EA030200099
:101CB000AE00AE30AF00CA30B000AE30B1003A3046
:101CC000B200A830B3003A30B400A830B5009A3161
:101CD000B72288310130A331A62388311930220080
:101CE000C2005A30C100B130890B742EC10B742E62
:101CF000C20B742E00320030A331A62388310B3082
:101D00002200C2002630C1005D30890B852EC10B38
:101D1000852EC20B852E00320030A6311B2688315D
:101D2000003A0319942E952EB02E0030A6313E268F
:101D30008831003A03199D2E9E2EB02E0030A63118
:101D400061268831003A0319A62EA72EB02EA030A6
:101D50002100AD00AD30AE00A4317B248831D62EF9
:101D60002200DA01A0302100B000AE30B1005A30BC
:101D7000B2000130B3005730B4000130B5009C31DF
:101D80006424883159302100B8000130B9005A303C
:101D9000BA000130BB005730BC000130BD005830E4
:101DA000BE000130BF009B31B12388318731FB2752
:101DB00088312200C1004108D5005308C100C2018A
:101DC00041082100B000220042082100B100220099
:101DD000550886311D268831A331CF238831220052
:101DE000C1004108D6005A30C10041082100B000AE
:101DF00058302200C20042082100B10054302200B5
:101E0000C30043082100B20022005608C400440861
:101E10002100B300593088310320883122005A084C
:101E20000319132F142F732FA9302000AE00AE30EA
:101E3000AF00EE30B000AC30B1004B30B200AE308D
:101E4000B3004130B400AC30B5009A31B7228831CC
:101E5000A53198258831220059089D31792588318E
:101E60002200C1004108D7005708031D382F392F21
:101E70006B2FDA01A9302100B000AE30B1005A302A
:101E8000B2000130B3005730B4000130B5009C31CE
:101E90006424883159302100B8000130B9005A302B
:101EA000BA000130BB005730BC000130BD005830D3
:101EB000BE000130BF009B31B123883129302200A0
:101EC000C2009630C1007F30890B642FC10B642F94
:101ED000C20B642F732FAD302100AD00AD30AE00CA
:101EE000A4317B2488318731FB2788312200C1004F
:101EF0004108D5005308C100C20141082100B000CB
:101F0000220042082100B1002200550886311D261A
:101F10008831A331CF2388312200C1004108D60087
:101F20005A30C10041082100B00058302200C200E0
:101F300042082100B10054302200C30043082100B0
:101F4000B20022005608C40044082100B3005930F2
:101F500088310320883122005A080319B02FB22F8C
:101F60008331D92B3F302000AE00AE30AF0025309A
:101F7000B000AB30B1002930B200AD30B300CC308E
:101F8000B400A930B5009A31B72288310130A331AD
:101F9000582388310030A3314B238831A531D8250F
:101FA000883159302100B0000130B1005A30B20000
:101FB0000130B3009031202088315A302100B00028
:101FC0000130B1005730B2000130B3005930B400D5
:101FD0000130B5005830B6000130B7009A316D229B
:101FE000883129302200C2009630C1007F30890B31
:101FF000F72FC10BF72FC20BF72FB02F80314A28D4
:1020000008342000AC01AD01142829082C078400F5
:102010002A082D3D85000008A431D92490310130D3
:102020002000AC070030AD3D29082C0784002A08A9
:102030002D3D85001200031D1E281F2805280800BD
:102040002100B701802820000F19272828283D28C3
:1020500063302100AD00A930AE00A4317B24903163
:102060002100B701B70A30088600310887008101D6
:102070003208860033088700810120006A080319AE
:102080004228432880289831752090312100B400DF
:102090003408B6007028010080281D30AD00AA3039
:1020A000AE00A4317B249031210030088600310835
:1020B00087008101320886003308870081010230E1
:1020C0002100B5000430B400BA30890B6528B40B88
:1020D0006528B50B652800002100B701B70A8028E4
:1020E0003608B400B5013508003A0319782880286D
:1020F0003408303A03194B28043A03194D28802834
:102100002100370803198528862823280800D230A3
:102110002000AE00AE30AF00B230B000AC30B10045
:102120003A30B200A830B3003A30B400A830B5005D
:102130009A31B72290310130A3317F23903106309C
:102140002200C2001330C100AD30890BA528C10B9D
:10215000A528C20BA52800320030A3317F2390317F
:10216000220050080319B528B628FA2800302100AB
:10217000AD00A830AE00A4317B2490312200590874
:102180009D31792590312200C1004108D7005708C0
:10219000031DCB28CC28F228DA01D2302100B00070
:1021A000AE30B1005A30B2000130B3005730B40045
:1021B0000130B5009C316424903159302100B800C1
:1021C0000130B9005A30BA000130BB005730BC00B2
:1021D0000130BD005830BE000130BF009B31B1233B
:1021E0009031FA28DF302100AD00AD30AE00A431CF
:1021F0007B2490318731FB2790312200C1004108B8
:10220000D5005308C100C20141082100B0002200DE
:1022100042082100B1002200550886311D26903168
:10222000A331CF2390312200C1004108D6005A309B
:10223000C10041082100B00058302200C20042080D
:102240002100B10054302200C30043082100B20035
:1022500022005608C40044082100B30059308831D8
:102260000320903122005A08031937293929803177
:102270009A28DA302000AE00AE30AF00D030B00087
:10228000AC30B1003A30B200A830B3003A30B400FC
:10229000A830B5009A31B72290310130A3317F23A5
:1022A000903106302200C2001330C100AD30890BDE
:1022B0005729C10B5729C20B572900320030A331CF
:1022C0007F23903122005008031967296829372994
:1022D00059089D31792590312200C1004108D7006D
:1022E0005708031D7429762980319228DA01DA30E3
:1022F0002100B000AE30B1005A30B2000130B3005E
:102300005730B4000130B5009C316424903159300D
:102310002100B8000130B9005A30BA000130BB00CA
:102320005730BC000130BD005830BE000130BF0046
:102330009B31B123903137292100A90020005D088D
:1023400086008701403FDF00413FE0005F088400D6
:10235000600885001200253A031DAF29B029982A8C
:102360005D08860087010130810741310318810A29
:102370002200E301E4012100E301E401FF30E10078
:10238000FF30E20020005D0886008701403FDF004B
:10239000413FE0005F088400600885001200643A55
:1023A0000319D329D429E5295D0886008701403F18
:1023B000DF00413FE0005F088400600885001200F4
:1023C000693A031DE429E529332A5D08860087015F
:1023D0000130810741310318810A5E0886008701B8
:1023E00001088400850102308107003FDF00013FC2
:1023F000E0005F082100A000200060082100A1008B
:10240000890D893B8909A200A300A400A500A600AC
:10241000A70020082000BF00210021082000C000E4
:10242000210022082000C100210023082000C20052
:10243000210024082000C300210025082000C4003A
:10244000210026082000C500210027082000C60022
:102450002100290894311024913120004008DE0029
:102460003F08DD00BD2A5D0886008701403FDF0090
:10247000413FE0005F0884006008850012006E3A6A
:10248000031D432A442A632A5D0886008701013020
:10249000810741310318810A5E0886008701403FA9
:1024A00084008501810A0008DF005F082100A80080
:1024B0002808860087015F08C03F6008C13F2000F0
:1024C000DD01DE01BD2A5D0886008701403FDF0097
:1024D000413FE0005F088400600885001200253A53
:1024E000031D732A742A8F2A5D0886008701013034
:1024F000810741310318810A2530A6000030A7006A
:10250000210029082000DF005F08A8009B31082374
:10251000913101302000DD000030DE00BD2A5D0871
:10252000860087010130810741310318810A5F2A43
:102530005D0886008701403FDF00413FE0005F0803
:102540008400600885000008E100E2016108A6003F
:102550006208A700210029082000E3006308A80002
:102560009B310823913120005D08860087010130EE
:10257000810741310318810A892A0800203086002A
:10258000023087002A308400013085001430210099
:10259000DD0016001A00DD0BC92ACD30860001309F
:1025A000870020308400013085000A30DD001600ED
:1025B0001A00DD0BD72A0130A33165239231013097
:1025C000A331722392310030A3315823923121007C
:1025D00058082000AF00210057082000AE001C3032
:1025E000B000AB30B100F830B200AA30B300B73061
:1025F000B400A930B5009A31B72292312A302000B8
:10260000B3000130B400210058082000B6002100BA
:1026100057082000B500983100209231200034087E
:102620002200BF00200033082200BE003F08200027
:10263000B40022003E082000B3002030B500013075
:10264000B600983100209231200034082100AE00FD
:10265000200033082100AD00A4317B2492319A314F
:102660002522923121005B08860001308700010895
:102670009D31792592312100DD005D082200C000E6
:102680000B302100DE002630DD005D30890B462B4B
:10269000DD0B462BDE0B462B0032220040080319CF
:1026A000522B532B872B21005908860001308700BD
:1026B00081015A088600013087008101973020008F
:1026C000AE00AE30AF002130B000AB30B1000A3008
:1026D000B200AB30B300CC30B400A930B5009A31B1
:1026E000B7229231DB302100B8000030B900D93078
:1026F000BA000030BB00DA30BC000030BD00DC3076
:10270000BE000030BF009B31B12392310F2C9730B7
:102710002000AE00AE30AF00BA30B000AE30B10035
:102720003A30B200A830B3003A30B400A830B50057
:102730009A31B72292310030A331652392310130B2
:10274000A331722392310030A331582392310130EA
:10275000A3319923923119302100DE005A30DD0077
:10276000B130890BB12BDD0BB12BDE0BB12B00325D
:102770000030A3319923923115302100DE004B3017
:10278000DD00BE30890BC22BDD0BC22BDE0BC22B52
:1027900000000130A6311B269231003A0319D12BDB
:1027A000D22BF92B0130A6313E269231003A031983
:1027B000DA2BDB2BF92B0130A63161269231003A5E
:1027C0000319E32BE42BF92B97302000AE00AE3039
:1027D000AF00BA30B000AE30B1009430B200AC30CF
:1027E000B3001730B400AC30B5009A31B722923143
:1027F0000F2C210059088600013087008101973095
:10280000B000AE30B100D930B2000030B300DA30E1
:10281000B4000030B5009C3164249231722B080062
:102820002000CA003F08D3004008D4004108D5006A
:102830004208D6004308D7004408D8004508D9000C
:102840004608DA005330860000308700473FC70053
:10285000C71B2B2C2D2C01302E2C00302000C80043
:10286000C9014808D1004908D2005108520403198F
:102870003A2C3B2C592CD309D409D509D609D709B0
:10288000D809D909DA09D30A031D592CD40A031D22
:10289000592CD50A031D592CD60A031D592CD70AC9
:1028A000031D592CD80A031D592CD90A031D592C74
:1028B000DA0A2100E21B5D2C5E2C622CFD30E30560
:1028C000FF30E4056208803A2000C70080304702EC
:1028D000031D6D2C0130210061020318702C712C36
:1028E000772C01302000CD000030CE007F2C21005D
:1028F00062082000CE00210061082000CD002200E7
:1029000064082000D000220063082000CF00510896
:102910005204031D8C2C8D2C922C2100631D912CB4
:10292000922C972CFF302000CF07FF30D03D1F3076
:102930002000DB000030DC002400E701082DFF3020
:102940002000DB07FF30DC3D0A30A300A401A50115
:10295000A601A701A801A901AA015308AB005408C8
:10296000AC005508AD005608AE005708AF00580837
:10297000B0005908B1005A08B2009E310E269431B9
:1029800020002408B7002308B600A5315D25943146
:1029900020003608303EC7005B08483E8600023003
:1029A000870047088100FF30CD07FF30CE3DFF3064
:1029B000CF07FF30D03D0A30A300A401A501A60136
:1029C000A701A801A901AA015308AB005408AC0053
:1029D0005508AD005608AE005708AF005808B000C3
:1029E0005908B1005A08B2009E31FB2694312000EC
:1029F0002308D3002408D4002508D5002608D600D3
:102A00002708D7002808D8002908D9002A08DA00A2
:102A100020005C08803AC70080304702031D122D59
:102A200001305B02031C152D162D432D2000530889
:102A30005404550456045704580459045A04031DF9
:102A4000222D232D9F2C4E08803AC700803047024C
:102A5000031D2C2D01304D0203182F2D302D9F2CDE
:102A600020005008803AC70080304702031D3A2DED
:102A700001304F02031C3D2D3E2D432D2100E31854
:102A8000422D432D9F2C200051085204031D492D37
:102A90004A2D4F2D2100631D4E2D4F2D6C2DFF30E3
:102AA0002000DB07FF30DC3D51085204031D592D87
:102AB0005A2D5F2D2B30CB000030CC00632D2D30F4
:102AC000CB000030CC004B08C7005B08483E8600B6
:102AD000023087004708810020005B08483EC7009D
:102AE0004708B6005008B8004F08B7004A089C31A4
:102AF0000824943120003708C0003608BF000800C1
:102B00002100C200C101F92F20000F19882D892D45
:102B1000A42D71302100AD00A830AE00A4317B247B
:102B200095312100C101C10A4208860001308700A9
:102B30008101360886000130870081013508860052
:102B4000013087008101810A20006A080319A92D3C
:102B5000AA2DD32F9831752095312100B90039085D
:102B6000BB00A82F010045302100AD00AD30AE0004
:102B7000A4317B2495312100420886000130870072
:102B80008101810A35088600013087008101810AB0
:102B90003608860001308700810102302100BA002A
:102BA0000430B900BA30890BD32DB90BD32DBA0B31
:102BB000D32D00002100C101C10AD32F5730AD0031
:102BC000A830AE00A4317B24953143302000AE0004
:102BD000AA30AF003A30B000A830B100A230B20045
:102BE000A930B3003A30B400A830B5009A31B7220A
:102BF0009531210042088600013087008101810A59
:102C000002302100BA000430B900BA30890B062E18
:102C1000B90B062EBA0B062E00002100C101C10A15
:102C20003508860001308700810122008C13D32FE4
:102C30003B30AD00A830AE00A4317B249531433049
:102C40002000AE00AA30AF003A30B000A830B1008A
:102C50003230B200AB30B3003A30B400A830B50027
:102C60009A31B72295312100420886000130870051
:102C70008101810A3508860001308700810136080C
:102C8000860001308700810102302100BA00043043
:102C9000B900BA30890B4A2EB90B4A2EBA0B4A2E0C
:102CA00000002100C101C10A22008C17D32F1F3060
:102CB000AD00A830AE00A4317B2495314330200014
:102CC000AE00AA30AF003A30B000A830B1002E30CC
:102CD000B200AB30B3003A30B400A830B5009A313E
:102CE000B72295312100420886000130870081011A
:102CF000810A02302100BA000430B900BA30890BD1
:102D00007F2EB90B7F2EBA0B7F2E00002100C10150
:102D1000C10A3508860001308700810122008C132A
:102D2000D32FBE30AD00A830AE00A4317B24953146
:102D300043302000AE00AA30AF003A30B000A830D7
:102D4000B100A730B200AC30B3003A30B400A830C4
:102D5000B5009A31B7229531210042088600013032
:102D600087008101810A35088600013087008101D2
:102D700036088600013087008101810A0230210077
:102D8000BA000430B900BA30890BC42EB90BC42E76
:102D9000BA0BC42E00002100C101C10A22008C1709
:102DA000D32FD730AD00A830AE00A4317B249531AD
:102DB00043302000AE00AA30AF003A30B000A83057
:102DC000B100A330B200AC30B3003A30B400A83048
:102DD000B5009A31B72295312100420886000130B2
:102DE00087008101810A3508860001308700810152
:102DF00036088600013087008101810A02302100F7
:102E0000BA000430B900BA30890B042FB90B042F73
:102E1000BA0B042F00002100C101C10A22008C134B
:102E2000D32FA2319B2295312100B9003908BC0073
:102E300061303C06031D1D2F1E2F382F3030AD0092
:102E4000AA30AE00A4317B249531210042088600CF
:102E5000013087008101810A350886000130870032
:102E6000810137088600013087008101810AC82D61
:102E7000A530AD00A830AE00A4317B249531DA2D09
:102E8000A231962295312100B9003908BD00753074
:102E90003D06031D4C2F4D2F552F0730AD00A93097
:102EA000AE00A4317B249531252FA530AD00A8308C
:102EB000AE00A4317B249531DA2DA23191229531D7
:102EC0002100B9003908BE0076303E06031D692F87
:102ED0006A2F722F1E30AD00A930AE00A4317B24C2
:102EE0009531252FA530AD00A830AE00A4317B244C
:102EF0009531DA2DA2318C2295312100B9003908A3
:102F0000BF0077303F06031D862F872FA02FEF309D
:102F1000AD00A830AE00A4317B24953121004208D9
:102F20008600013087008101810A35088600013062
:102F30008700810137088600013087008101C82D94
:102F4000A530AD00A830AE00A4317B249531DA2D38
:102F50003B08B900BA013A08003A0319B02FD32F41
:102F60003908303A0319B22D013A0319B32D043A46
:102F70000319D12E033A0319DE2D013A0319182E35
:102F80000F3A0319912E013A0319572E583A031993
:102F9000112F143A0319402F033A03195D2F013AF8
:102FA00003197A2FD32F21003708860001308700BC
:102FB00001080319DC2FDD2FF92F3F3099319721BC
:102FC00095312100B9003908C0003808B00001303F
:102FD000B100400886311D26953105302100BA0028
:102FE0000F30B900F130890BF32FB90BF32FBA0B67
:102FF000F32F210041080319FE2FFF2F842D080015
:1030000020003408A4003308A300A431F22498312E
:10301000200023083307A7002408343DA800360801
:10302000AA003508A900A631AA2698310800230075
:10303000BC152728A2316E2298314528A2313F22A3
:10304000983103304528A2317322983145282C0845
:10305000FA007A08F90021088A0020080A0098314D
:10306000FB00FC017C08003A0319372823287B0861
:10307000013A03192328033A03191A28013A0319BC
:103080001A28073A03191E28232808002000AC003C
:1030900061282908BF3EA431C12498317428290829
:1030A000933EA431C124983174282908D33EA43119
:1030B000C1249831742829087F3EA431C124983155
:1030C00074282C08AA00AB012B08003A03196928C0
:1030D0005B282A08023A03194928013A03194F28A4
:1030E000073A031955285B28080020006A080319CD
:1030F0007A287B2875286B085B3E860001308700A4
:103100000108A30023082100EB0020006B08BD3E4E
:103110008600013087000108A3002308A4000130C5
:10312000A3002308EB0708306B02031C982899289A
:103130009A28EB012100911201302000EA022100BF
:1031400091162000240808002100AA00200065082C
:103150002100AC00200064082100AB00DF01E00189
:10316000C728AB302000E7006708DD006608E800EC
:103170006808DE0021002A0891319C219831200046
:103180005D082100DF0720005E082100E03D2B08DC
:1031900084002C0885001200031DCF28D028B128F8
:1031A00060082000E50021005F082000E40008001E
:1031B0002100B400AF302000E90069082100B3000D
:1031C00034082000E90069082100B500B601B70104
:1031D000B801B9012E082000E50021002D082000CB
:1031E000E400B330E9006908E600B5309831A42066
:1031F0009831200065082100B200200064082100F9
:10320000B100360834072000E90069088600013063
:103210008700810121003208AE003108AD000800AE
:1032200020006C085B3E860001308700810123008E
:103230001D1D1B291C29292920006C085B3E8600C6
:1032400001308700811422006A088A0069080A0098
:10325000993123009D1C2D292E293B2920006C0823
:103260005B3E8600013087000115220068088A0055
:1032700067080A00993120006C085B3E8600013027
:10328000870001080319452946294D2922006608AF
:103290008A0065080A0099315029A5310C25993119
:1032A0000800A2313C229931FA0023003708860039
:1032B00087017A0881000130FA007A08B7070130E7
:1032C000B8020030B93B3808390403196829692964
:1032D0006E29A2314E22993105309629BC157829E4
:1032E000A231822299319629A2317D2299319629E3
:1032F0002C08FA007A08F90021088A0020080A0040
:103300009931FB00FC017C08003A031988297429D3
:103310007B08013A03197429033A03197029013A09
:1033200003197029073A0319742974290800200029
:10333000A4002400161416189E299F299B293230B8
:1033400091001418A429A529A1291419A829A9298B
:10335000A52920002408240091001418B029B129BF
:10336000AD291419B429B529B12996149618B9298B
:10337000BA29B629333091001418BF29C029BC29B5
:103380001419C329C429C0299615141CC829C92990
:10339000C52911082000A3002308A50024009616C3
:1033A0001616161AD429D529D12916151619D92970
:1033B000DA29D629200025080800210091121030B2
:1033C0002000A3001930A400A3310023993121006B
:1033D0001112F9302000A3002530A400A3310923E5
:1033E0009931083023009F0090309D0024309E00CA
:1033F00040309B0003309C0030302000A30022307E
:10340000A400A231EE22993146302000A3002230E0
:10341000A400A231F722993142302000A3002230CB
:10342000A400A231E52299312100EB01FD01ED015B
:1034300008302000A50025082100EC002000EC0148
:10344000EB01EA012100911608002000A801A90162
:103450002000AA01AB01A7314C279A310B30200084
:10346000A7002630A6005D30890B342AA60B342A2B
:10347000A70B342A003201302000AA070030AB3DF0
:103480002B08803AA60080302602031D492A04300A
:103490002A02031C4C2A4D2A2B2A0B302000A7009D
:1034A0002630A6005D30890B532AA60B532AA70BA2
:1034B000532A003201302000A8070030A93D290816
:1034C000803AA60080302602031D682A04302802B4
:1034D000031C6B2A6C2A282A080021003408860065
:1034E000350887000108031D762A772A7E2A633073
:1034F000AD00A930AE00A4317B249A312100300800
:103500008600310887008101320886003308870071
:10351000810134088600350887008101360886005D
:1035200037088700013081000030A33158239A31D9
:103530000030A33165239A310030A33172239A31D0
:103540000030A3314B239A310030A3317F239A31CD
:103550000030A3318C239A310030A33199239A3162
:103560000030A331A6239A3122008C130800A33126
:1035700012239A310630A431C1249A31023020003E
:10358000B7000430B600BA30890BC42AB60BC42A7F
:10359000B70BC42A00002000A901A90A0130983104
:1035A00046209A3120002F08AA002E08A900903149
:1035B00001209A312000A901A90A02309831462041
:1035C0009A3120003108AA003008A900903101206A
:1035D0009A312000A901A90A0330983146209A3176
:1035E00020003308AA003208A900903101209A3146
:1035F0002000A901A90A0430983146209A31200000
:103600003508AA003408A900903101209A31080039
:103610002000280803190D2B0E2B132B2808031D3F
:10362000122B132B182B2608A231C5229B31592BA4
:103630002808033E86008701160001040319212B88
:10364000222B3F2B2808033E86008701403FA9001C
:10365000413FAA00280A86008701403FAB00413F56
:10366000AC002C08803AAD002A08803A2D02031DD8
:103670003B2B29082B0203183E2B3F2B592B2000F4
:103680002608A900280886008701280A84008501E9
:1036900000080107AA002A088600013087002908CF
:1036A0008100280A86008701013081074131031813
:1036B000810A0800A231A0229B31003A0319612B34
:1036C000622B932B6F2BA23164229B31B02BA23142
:1036D00069229B31B02BA23173229B31B02B230086
:1036E0002F08FA007A08F9000630A03E8600013063
:1036F0008700413F8A00403F0A009B31FB00FC01EC
:103700007C08003A0319852B6B2B7B08013A0319BF
:103710006B2B033A0319632B013A0319672B073A02
:1037200003196B2B6B2B23003C101730A03E860037
:1037300001308700403F84008501810A0008A231E2
:103740005A229B3101302300B8020030B93B3808BF
:103750003904031DAC2BAD2BAF2B0630B02B03303F
:103760000800210038088600390887000108C000D9
:10377000C1014008B0004108B1003A0886003B088A
:1037800087000108C200C3014208B2004308B30029
:10379000903120209B3121003A0886003B088700A9
:1037A0000108C000C1014008B0004108B1003C0858
:1037B00086003D0887000108C200C3014208B2002C
:1037C0004308B30038088600390887000108C400A0
:1037D000C5014408B4004508B5003E0886003F080E
:1037E00087000108C600C7014608B6004708B700B1
:1037F0009A316D229B3129302100C1009630C000E2
:103800007F30890B012CC00B012CC10B012C08004F
:103810002000BE002100631C0E2C0F2C182C200051
:103820003E08B9003908AE003608A631F9269C31A9
:103830002000B81B1C2C1D2C222C3808BD0037087A
:10384000BC00242CBC01BD01BA01BB01382C2030C6
:103850002000A6000030A7003E08B9003908A800E3
:103860009B3108239C3101302000BA070030BB3D5A
:103870003B08803AB9003D08803A3902031D422CCA
:103880003C083A02031C452C462C272C21006318C7
:103890004A2C4B2C542C20003E08B9003908AE00AD
:1038A0003608A631F9269C3120003608A3000230E4
:1038B000A400A431F2249C3120003C082307B60068
:1038C0003D08243DB70008003430860002308700F0
:1038D000C13084000030850014302100B60016008D
:1038E0001A00B60B6F2CD730860001308700B73036
:1038F0008400003085000A30B60016001A00B60BAE
:103900007D2C0130A33165239C310130A33172231A
:103910009C310030A33158239C310030A3314B231C
:103920009C31210031082000AF0021003008200028
:10393000AE001C30B000AB30B100CC30B200A930CA
:10394000B3003A30B400A830B5009A31B7229C31A8
:10395000C1302000B3000030B40021003108200045
:10396000B600210030082000B500983100209C31BD
:10397000200034082100D600200033082100D500A3
:1039800056082000B400210055082000B300B730CD
:10399000B5000030B600983100209C31200034087A
:1039A0002100AE00200033082100AD00A4317B24AB
:1039B0009C319A3125229C3120000F1DE02CE12CF6
:1039C000DC2C21003208860033088700810134088E
:1039D000860035088700810108002000AB002B0815
:1039E000A90029082100E9000030A43166249C3197
:1039F0009C302000A900D730890BFC2CA90BFC2C93
:103A00000330A431C1249C311A302000A900F830C1
:103A1000890B082DA90B082D00000330A431C12407
:103A20009C311A302000A900F830890B152DA90B04
:103A3000152D00000330A431C1249C311A30200020
:103A4000A900F830890B222DA90B222D000002308D
:103A5000A431C1249C311A302000A900F830890B10
:103A60002F2DA90B2F2D00002830A431C1249C310B
:103A700002302000AA000430A900BA30890B3E2D84
:103A8000A90B3E2DAA0B3E2D00000C30A431C12401
:103A90009C3102302000AA000430A900BA30890B02
:103AA0004F2DA90B4F2DAA0B4F2D00000130A43133
:103AB000C1249C3102302000AA000430A900BA3091
:103AC000890B602DA90B602DAA0B602D000006301C
:103AD000A431C1249C3102302000AA000430A90086
:103AE000BA30890B712DA90B712DAA0B712D000015
:103AF00008002000A800A901AA0128080319812DA7
:103B0000822DE52DDF2D6A080319872D882DDF2DE5
:103B1000983175209D312000A5002508A700C92DEA
:103B2000010002302000A6000430A500BA30890B45
:103B3000972DA50B972DA60B972D00002000A9010E
:103B4000A90AAA01AA0ADF2D02302000A60004302B
:103B5000A500BA30890BAA2DA50BAA2DA60BAA2D5C
:103B600000002000A901A12D02302000A600043091
:103B7000A500BA30890BBA2DA50BBA2DA60BBA2D0C
:103B800000002000A901A90AAA01AA0A22008C1398
:103B9000DF2D2708A500A6012608003A0319D12D1C
:103BA000DF2D2508303A0319902D023A0319912D83
:103BB000013A0319A42D0A3A0319B42DDF2D200070
:103BC0002A080319E42DE52D832D2808031DE92D6E
:103BD000EA2D0C2E062E0130A53127259D31003A05
:103BE0000319F32DF42DF82D2000A901AA01AA0A2A
:103BF0000130A53142259D31003A0319002E012ED6
:103C0000062E2000A901A90AAA01AA0A20002A0852
:103C100003190B2E0C2EEB2D290808002000B501EE
:103C20002B30860000308700473FB300B31F192EAA
:103C30001A2E3C2E2000AB09AC09AD09AE09AF0924
:103C4000B009B109B209AB0A031D392EAC0A031D34
:103C5000392EAD0A031D392EAE0A031D392EAF0AC7
:103C6000031D392EB00A031D392EB10A031D392E4A
:103C7000B20A2000B501B50A233086000030870063
:103C8000473F2000B300B31F462E472E662E20006C
:103C9000A309A409A509A609A709A809A909AA09A8
:103CA000A30A031D662EA40A031D662EA50A031D82
:103CB000662EA60A031D662EA70A031D662EA80AF5
:103CC000031D662EA90A031D662EAA0A20002308DA
:103CD0002404250426042704280429042A0403199B
:103CE000722E732EC62EB401B40A822EA335A40DF3
:103CF000A50DA60DA70DA80DA90DAA0D0130B300A5
:103D00003308B407AA1F852E862E762E2A08320283
:103D1000031DA42E29083102031DA42E28083002F9
:103D2000031DA42E27082F02031DA42E26082E02F1
:103D3000031DA42E25082D02031DA42E24082C02E9
:103D4000031DA42E23082B02031CA72EA82EB82E79
:103D50002308AB022408AC3B2508AD3B2608AE3B4C
:103D60002708AF3B2808B03B2908B13B2A08B23BE3
:103D7000AA36A90CA80CA70CA60CA50CA40CA30C85
:103D80000130B402031DC52EC62E862E3508031938
:103D9000CA2ECB2EE92EAB09AC09AD09AE09AF098D
:103DA000B009B109B209AB0A031DE92EAC0A031D23
:103DB000E92EAD0A031DE92EAE0A031DE92EAF0A56
:103DC000031DE92EB00A031DE92EB10A031DE92ED9
:103DD000B20A20002B08A3002C08A4002D08A5007F
:103DE0002E08A6002F08A7003008A8003108A90057
:103DF0003208AA0008002000B501233086000030F8
:103E00008700473FB300B31F062F072F292F20003D
:103E1000A309A409A509A609A709A809A909AA0926
:103E2000A30A031D262FA40A031D262FA50A031D7E
:103E3000262FA60A031D262FA70A031D262FA80A30
:103E4000031D262FA90A031D262FAA0A2000B5014B
:103E5000B50A2B30860000308700473F2000B300B2
:103E6000B31F332F342F582F2000AB09AC09AD09F5
:103E7000AE09AF09B009B109B209AB0A031D532F4E
:103E8000AC0A031D532FAD0A031D532FAE0A031DA9
:103E9000532FAF0A031D532FB00A031D532FB10A2E
:103EA000031D532FB20A01302000B3003308B506BA
:103EB000363086000030870008302000B300003024
:103EC0001E00B30B602F23082404250426042704B6
:103ED000280429042A0403196E2F6F2FCB2FB40155
:103EE000B40A7E2FA335A40DA50DA60DA70DA80D10
:103EF000A90DAA0D0130B3003308B407AA1F812F02
:103F0000822F722FB635B70DB80DB90DBA0DBB0D96
:103F1000BC0DBD0D2A083202031DA82F290831024D
:103F2000031DA82F28083002031DA82F27082F02E1
:103F3000031DA82F26082E02031DA82F25082D02D9
:103F4000031DA82F24082C02031DA82F23082B02D1
:103F5000031CAB2FAC2FBD2F2308AB022408AC3BB6
:103F60002508AD3B2608AE3B2708AF3B2808B03BF1
:103F70002908B13B2A08B23B3614AA36A90CA80C72
:103F8000A70CA60CA50CA40CA30C0130B402031DB5
:103F9000CA2FCB2F822F35080319CF2FD02FEE2F0A
:103FA000B609B709B809B909BA09BB09BC09BD09FD
:103FB000B60A031DEE2FB70A031DEE2FB80A031D24
:103FC000EE2FB90A031DEE2FBA0A031DEE2FBB0A0E
:103FD000031DEE2FBC0A031DEE2FBD0A200036087C
:103FE000A3003708A4003808A5003908A6003A083D
:103FF000A7003B08A8003C08A9003D08AA0008004B
:104000005F342234DC342234CC3422345A341B342E
:1040100051341934BE342234173418346434223401
:10402000693422346E3422347334223478342234A6
:104030007D34223482342234873422347834273455
:104040002D343E34203454344534533454342034E5
:1040500043344F344E3446344F3452344D34453467
:1040600020342D34203441345434543445344E34C7
:104070005434453420344134433451345534493474
:104080005434543445344D3445344E3454340D3462
:044090000A340034BA
:1044600008000130080024009614080024001615E6
:1044700008002400961508002400110808002000F8
:1044800091150800A5310C25A231080023001D124A
:104490001D16080024009616161608002400961211
:1044A00016160800A731D227A231080016302100C5
:1044B00097000800F0007008240091000800230015
:1044C000BC10BB010E300800A2313322A2310130F2
:1044D0000800A2313322A23102300800A231332277
:1044E000A23101300800A2313622A231003008008A
:1044F000A2314E22A23105300800A2314A22A23157
:104500000A300800A2314A22A231093008002300F3
:10451000BC10BB010E300800773099319721A231D1
:104520000800763099319721A23108007530993111
:104530009721A2310800613099319721A2310800FA
:104540002400160E890C890C01390800A33126239A
:10455000A231240016140800A3312623A23124001E
:1045600016150800640080010131890BB32A00345C
:10457000FE0012001E00FE0BB92A003423003C107E
:10458000A2313922A231043008002000A5002508FC
:10459000A731A527A231080023003C143635A231EB
:1045A0005A22A23103300800F03021009E009B0106
:1045B0009C0101309D00080023003C140314360DBB
:1045C000A2315A22A231053008002000240822001E
:1045D000E600200023082200E5000800200024084F
:1045E0002200EA00200023082200E9000800200041
:1045F00024082200E800200023082200E700080029
:10460000200024082200EC00200023082200EB00F8
:104610000800200024082100E600200023082100D3
:10462000E50008000130A431C124A3313530890BE5
:10463000172B0000080028302400950096019401F3
:104640002730920021008E150E1608002400141940
:104650002A2B2B2B262B16081F39031D302B312B11
:10466000262B080070302100990098012200960145
:1046700021001A1F3C2B3D2B382B08007608F10037
:104680007508F0007708F8007808F2000030A731CC
:104690002227A33108002000A30023080319512B6F
:1046A000522B552B22000C14572B22000C10080003
:1046B0002000A300230803195E2B5F2B622B22002E
:1046C0001014642B2200101008002000A3002308FF
:1046D00003196B2B6C2B6F2B22009014712B220073
:1046E000901008002000A30023080319782B792BD1
:1046F0007C2B220010157E2B2200101108002000B8
:10470000A30023080319852B862B892B22008C14E8
:104710008B2B22008C1008002000A3002308031913
:10472000922B932B962B22000C15982B22000C1108
:1047300008002000A300230803199F2BA02BA32B04
:1047400022000C16A52B22000C1208002000A3004A
:1047500023080319AC2BAD2BB02B22008C16B22BE7
:1047600022008C1208002000A30023080319B92B93
:10477000BA2BBD2B22008C15BF2B22008C110800F8
:10478000323024009200363095009601803094003B
:1047900021008E150E168B170B179115080020009F
:1047A0006A080319D42BD52BDC2B98317520A33143
:1047B0002000A5002508A60026080800F300230015
:1047C000BC1DE32BE42BED2B7308F2007208B7003D
:1047D0007108B9007008B800BC1108002000A300DF
:1047E000A3312623A33120002308240091002000B8
:1047F000911DFB2BFC2BF72B91110800A53179257E
:10480000A331A3313223A331A2315622A331A231E5
:10481000D422A3319931DD21A33108000230F00008
:104820000030F1007908A331DE23A4310030F50017
:10483000F600F701A3313E23A43104300800013013
:10484000F0000030F1007908A331DE23A4310030FC
:10485000F500F600F701A3313E23A4310230080031
:104860000230F0000030F1007908A331DE23A431DA
:104870000030F500F600F701A3313E23A4310230E9
:1048800008000130F0000030F1007908A331DE2388
:10489000A4310030F500F600F701A3313E23A43126
:1048A000043008000D340A3400340034003400347D
:1048B00000340034003400340D340A340034003441
:1048C0000034003400340034003400342000A400EC
:1048D000A231A622A43121006908A331EE23A4311C
:1048E0002000240821006E04A331EE23A431A2315C
:1048F000AC22A4310800AF302000E9006908210093
:10490000AF002E082000E50021002D082000E40063
:10491000AF30E9006908E60000309831A420A431E6
:104920000800790886008701403FF000413FF10010
:104930007908023E860087010108A331DE23A431F5
:104940000030F500F600F701A3313E23A431023018
:1049500008002000A60021006A082000A500250804
:10496000A60426080438A4316624A43120002608B1
:10497000FB39A4316624A4314230890BBD2C0032AE
:1049800008002000A8002100EA0120002808F039D2
:10499000A431A924A43120002808A7000330A7359A
:1049A000FF3E031DCF2C2735F039A431A924A431B3
:1049B00008002000A8002100EA01EA0A20002808D7
:1049C000F039A431A924A43120002808A70003301D
:1049D000A735FF3E031DE82C2735F039A431A92463
:1049E000A431080020002408A6002308A500FC2C00
:1049F0000130A3070030A43D230886002408870067
:104A00000108031D042D052DF82C25082302A30001
:104A10002608243BA400080023001908F000200009
:104A20006C08BD3E860001308700700881000130AF
:104A3000F0007008EC0708306C02031C202D212DBB
:104A4000222DEC010130F0007008EA070800200078
:104A5000A400A301240803192E2D2F2D352D8F1B03
:104A6000322D332D352DA301A30A2408031D392D22
:104A70003A2D402D8F1F3D2D3E2D402DA301A30A21
:104A8000230808002000A400A30124080319492DCD
:104A90004A2D502D0F194D2D4E2D502DA301A30A37
:104AA0002408031D542D552D5B2D0F1D582D592DF8
:104AB0005B2DA301A30A2308080020003708803AD1
:104AC000B80080303802031D672D0130360203180C
:104AD0006A2D6B2D782D20003609B8003709B900F2
:104AE000B80A0319B90A3808B6003908B700782D92
:104AF0000800220090018F018C018D018E01083089
:104B0000210090008C01CF308D00BF308E00FF302F
:104B10008F0023008F013F308D0090013C308C00CE
:104B2000240090018D012100951722009D010800AD
:104B300022000C1706302000A4001330A300AD3073
:104B4000890BA02DA30BA02DA40BA02D00322200B9
:104B50000C1306302000A4001330A300AD30890BE5
:104B6000AF2DA30BAF2DA40BAF2D003208002000FA
:104B7000A6002608A500A50DA50D21001D082000F2
:104B800025068339250621009D001D140D30890B53
:104B9000C72D000021009D149D18CF2DD02DCC2DA8
:104BA0001C082000A40021001B082000A30008000E
:104BB00020302100AD00A030AE00A4317B24A5310F
:104BC0002100B101B201A6318426A53101302100B6
:104BD000B1070030B23D3208803AB0008030300278
:104BE000031DF42D02303102031CF72DF82DE32DA7
:104BF0000800083021006C020318FF2D002E192E2A
:104C00006D08C53E860001308700010823009A0028
:104C10000130F00070082100ED0708306D02031C20
:104C2000122E132E142EED010130F0007008EC0747
:104C30001A2E111208002000A400A3012408031951
:104C4000222E232E2D2E0F1C262E272E2D2E8F1892
:104C50002A2E2B2E2D2EA301A30A2408031D312E4C
:104C6000322E3C2E0F18352E362E3C2E8F1C392E10
:104C70003A2E3C2EA301A30A230808002000A4001A
:104C8000A30124080319452E462E502E8F1D492EB0
:104C90004A2E502E0F1A4D2E4E2E502EA301A30A2F
:104CA0002408031D542E552E5F2E8F19582E592E71
:104CB0005F2E0F1E5C2E5D2E5F2EA301A30A23081C
:104CC00008002000A400A30124080319682E692EFF
:104CD000732E8F1E6C2E6D2E732E0F1B702E712E49
:104CE000732EA301A30A2408031D772E782E822E8B
:104CF0008F1A7B2E7C2E822E0F1F7F2E802E822ECF
:104D0000A301A30A230808002000A801A901A731D4
:104D10004C27A6310B302000A7002630A6005D30BE
:104D2000890B902EA60B902EA70B902E00320130EF
:104D30002000A8070030A93D2908803AA60080304D
:104D40002602031DA52E02302802031CA82EA92E20
:104D5000872E080020002A08B0002908AF00280884
:104D6000B2002708B1003208AC003108AB00B10A2C
:104D70000319B20A2B0886002C0887003008AE0001
:104D80002F08AD00AF0A0319B00A2D0884002E08C1
:104D900085000008C03F8908031DCF2ED02EB32EFA
:104DA00008002D343E3420344534523452344534D6
:104DB000553452343A342034003400340034003452
:104DC000003400340034003400342D343E342034B8
:104DD0004534523452344534553452343A34203404
:104DE0000034003400340034003400340034003423
:104DF00000342000B500B301B401112F3208AF0018
:104E0000B0012F08A6003008A7002E08B100310815
:104E1000A8009B310823A63101302000B3070030E1
:104E2000B43D33083507AF002F08860002308700F5
:104E30000108B0003008B2003208031D202F212FD6
:104E4000FE2E0800F400700871040319282F292F82
:104E50003C2F7435A03E8600013087007008C03FAB
:104E60007108C13F7208F3007408AC3E860001303F
:104E70008700730881004B2F7435A03E86000130F7
:104E800087003130C03F2230C13F7408AC3E8600FD
:104E900001308700810108002000A401A501220043
:104EA0000D1606302000A3003030890B552FA30BC0
:104EB000552F000022000D1206302000A3003030D4
:104EC000890B602FA30B602F000001302000A40786
:104ED0000030A53D2508803AA30080302302031D41
:104EE000732F32302402031C762F772F4F2F0800A8
:104EF00023003C100230FA007A08BB00872FA23151
:104F00006E22A731A42FA2317322A731A42F2E081D
:104F1000FA007A08F9000430A03E860001308700CC
:104F2000413F8A00403F0A00A731FB00FC017C089A
:104F3000003A03199C2F832F7B08023A03197F2F15
:104F4000013A03197F2F832F08002000A4002100BD
:104F50006C080319AC2FAD2FA72F111AB02FB12F4A
:104F6000B62F2000240823009A00CF2F1112200012
:104F70002408A3007D08C53E860001308700230871
:104F800081000130A3002308FD0708307D02031CC7
:104F9000CA2FCB2FCC2FFD0101302100EC022100C4
:104FA0001116080088310020A73123003C1CD92F9E
:104FB000DA2FE82FA231A022A731003A0319E12FFE
:104FC000E22FE82F0F302000A00020082300BA00B5
:104FD00023003A082000A000A101A035A10D003057
:104FE00020078400A030213D8500013F8A00003F5A
:104FF0000A00A7312000A20022082300BA000800FE
:1050000041347434743465346E347434653420340B
:10501000763461346C3469346434613474346934A2
:105020006F346E3420346C3465346434203472341C
:105030006F347534673465340D340A3400342D34DC
:105040003E342034503452344F3447345234413497
:105050004D344D344134543449344F344E3420347B
:105060005434453452344D3449344E344534453447
:105070000D340A3400342D343E342034503452344C
:105080004F344734523441344D344D344134543428
:1050900049344F344E34203445344E342034433474
:1050A0004F345534523453340D340A3400342D34D3
:1050B0003E3420344534523452344534553452341D
:1050C0002034503452344F344734523441344D3408
:1050D0004D344134543449344F344E340D340A3451
:1050E00000342D343E342034543445345334543455
:1050F00020344D3441344E34553445344C3420340E
:1051000045344E34203443344F34553452345334C0
:105110000D340A34003441345434543445344E345C
:10512000543445342034563441344C3449344434B6
:105130004134543449344F344E3420344C344534A3
:10514000443453340D340A3400342D343E34203486
:1051500053344C344134563445342034523445347D
:10516000533450344F344E345334453420344E3459
:1051700055344C344C340D340A3400342D343E3420
:1051800020344534463446344134433445344D3478
:1051900045344E345434203445344E342034433472
:1051A0004F345534523453340D340A3400342D34D2
:1051B0003E34203445344634463441344334453457
:1051C0004D3445344E345434203454344534523400
:1051D0004D3449344E3445340D340A3400342D34C2
:1051E0003E34203453344C344134563445345F34E7
:1051F00054344534533454342034473445345434CF
:1052000020344134433451340D340A3400342D34C5
:105210003E34203453344C344134563445345F34B6
:10522000543445345334543420344734453454349E
:1052300020344F344B340D340A3400342D343E3492
:10524000203453344C344134563445345F34543470
:1052500045345334543420344734453454342034A2
:105260004B344F340D340A3400342D343E34203462
:1052700053344C344134563445342034543445345A
:1052800053345434203443344F344E3446344F3442
:1052900052344D34453400342D343E3420345334AC
:1052A0004C3441345634453420345434453453342A
:1052B0005434203441344334513455344934543413
:1052C0005434453400342D343E342034463449348B
:1052D0004E342034543445345334543420344D3413
:1052E00041344E34553445344C340D340A34003492
:1052F0002D343E34203453344C3441345634453408
:10530000203445344E3420344134543454344534FC
:105310004E34543445343A3400342D343E34203441
:1053200053344C344134563445345F34543445346A
:1053300053345434203447344534543420344F34B7
:105340004B3400344534523452344534553452349D
:105350002034503452344F344734523441344D3475
:105360004D344134543449344F344E340034503485
:1053700052344534533453344534523420344F344A
:105380004B3420344F345534203445345234523465
:105390004534553452340034413454345434453453
:1053A0004E3454344534203441344334513455342C
:1053B00049345434543445344D3445344E345434E3
:1053C00000342D343E34203441347034703475341C
:1053D0007934653472342034733475347234203443
:1053E0004F344B340D340A34003454344534533480
:1053F000543420345234313420344F34463446341B
:1054000020342D3420345234323420344F344E344E
:105410000034543445345334543420345234323408
:1054200020344F344634463420342D342034523422
:10543000333420344F344E3400342D343E34203451
:105440005434453453345434203441344334513487
:10545000553449345434543445340D340A3400340A
:105460002D343E34203453344C3441345634453496
:105470005F34543445345334543420344F344E3430
:105480000D340A3400345434453453345434203405
:105490004334413452345434453420344434393460
:1054A0003234353445344434343400342D343E34CD
:1054B000203453344C344134563445345434453418
:1054C000533454343A34313430343A34313400348F
:1054D0002D343E34203453344C3441345634453426
:1054E00054344534533454343A34313431343A3406
:1054F000313400342D343E34203453344C34413470
:105500005634453454344534533454343A343134B5
:1055100032343A34313400342D343E342034533470
:105520004C34413456344534543445345334543473
:105530003A34313433343A34313400342D343E3457
:10554000203453344C344134563445345434453487
:10555000533454343A34313434343A3431340034FA
:105560002D343E34203453344C3441345634453495
:1055700054344534533454343A34313435343A3471
:10558000313400342D343E34203453344C344134DF
:105590005634453454344534533454343A34313425
:1055A00036343A34313400342D343E3420345334DC
:1055B0004C344134563445345434453453345434E3
:1055C0003A34313437343A34313400342D343E34C3
:1055D000203453344C3441345634453454344534F7
:1055E000533454343A34313438343A343134003466
:1055F00056344534523449344634493445345234AF
:105600002034503431342034453454342034503430
:105610003234003452344534533455344C345434D9
:1056200041345434203443344F344E3446344934B6
:1056300052344D34453400345434453453345434A6
:1056400020344E344F344E34203443344F344E34AF
:1056500046344F3452344D344534003446344934A2
:105660004E342034503452344F3447345234413461
:105670004D344D344134543449344F344E34003475
:1056800050344F3453344934543449344F344E3405
:105690004E3445345234203443344134523454343B
:1056A0004534003454344534533454342034333482
:1056B0002034523445344C3441344934533420344A
:1056C0004F344634463400342D343E342034533481
:1056D0004C344134563445345434453453345434C2
:1056E0003A3431343A34313400342D343E342034B9
:1056F00053344C34413456344534543445345334A3
:1057000054343A3432343A34313400342D343E3463
:10571000203453344C3441345634453454344534B5
:10572000533454343A3433343A34313400342D342D
:105730003E34203453344C3441345634453454349C
:105740004534533454343A3434343A3431340034F4
:105750002D343E34203453344C34413456344534A3
:1057600054344534533454343A3435343A3431347F
:1057700000342D343E34203453344C3441345634C8
:10578000453454344534533454343A3436343A344A
:10579000313400342D343E34203453344C344134CD
:1057A0005634453454344534533454343A3437340D
:1057B0003A34313400342D343E34203453344C34B4
:1057C00041345634453454344534533454343A34E3
:1057D00038343A34313400342D343E3420345334A8
:1057E0004C344134563445345434453453345434B1
:1057F0003A3439343A34313400342D343E342034A0
:1058000053344C34413456344534203445345234C6
:1058100052344534553452343A3400342D343E3405
:10582000203453344C3441345634453420345434C9
:1058300045345334543420344F344B3400342D34F5
:105840003E34203453344C344134563445342034BF
:10585000543445345334543420344B344F340034AE
:1058600043344C3441345634493445345234203472
:10587000453443344C3441344934523445343F3454
:105880000034503452344534533453344534523454
:1058900020344F344B3420342F3420344E344F34A2
:1058A0004B3400345434453453345434203433347A
:1058B0002034523445344C34413449345334203448
:1058C0004F344E340034543445345334543420343B
:1058D0004C3445344434203443344C34413456340D
:1058E000493445345234003443344C344134563412
:1058F00049344534523420344534543445344934E1
:105900004E3454343F3400345434453453345434D6
:1059100020344C34453444345334203443344134FB
:1059200052345434453400344534523452344534BE
:10593000553452342034563441344C344934443490
:10594000453445340034463449344E3420344534EB
:10595000463446344134433445344D3445344E3472
:1059600054340034543445345334543420344C3497
:1059700045344434203452344F345534473445345C
:105980000034543445345334543420344C34453486
:10599000443420345634453452345434453400347D
:1059A000543445345334543420344C344534443422
:1059B000203442344C3445345534453400344D346D
:1059C0004F34443455344C34453420344534533406
:1059D00043344C3441345634453400345434453423
:1059E00053345434203442344C34553445345434D4
:1059F0004F344F34543448340034413450345034EC
:105A00005534593445345234203453345534523497
:105A100020344F344B3400344D3461347334743497
:105A200065347234203465346E3420347434653413
:105A30007334743400344D344F34443455344C345E
:105A4000453420344D34413449345434523445348F
:105A50000034523445345434493452344534523489
:105A600020344334413452345434453400344C34BB
:105A7000453444345334203441344C344C3455345C
:105A80004D3445344534533400342D343E342034C1
:105A9000543445345334543420344F344E340D345C
:105AA0000A3400342D343E342034543445345334D5
:105AB00054343A34313430343A34313400342D34BF
:105AC0003E34203454344534533454343A3431342D
:105AD00032343A34313400342D343E3420345434AA
:105AE0004534533454343A34313433343A34313421
:105AF00000342D343E34203454344534533454343B
:105B00003A34313434343A34313400342D343E3480
:105B1000203454344534533454343A3431343534E5
:105B20003A34313400342D343E3420345434453446
:105B3000533454343A34313436343A343134003412
:105B40002D343E34203454344534533454343A34B0
:105B5000313437343A34313400342D343E34203447
:105B600054344534533454343A34313438343A3478
:105B700031340034543445345334543420344834AC
:105B80004F3452344C344F344734453400342D3480
:105B90003E34203454344534533454343A3431345C
:105BA0003A34313400342D343E34203454344534C6
:105BB000533454343A3432343A34313400342D349A
:105BC0003E34203454344534533454343A3433342A
:105BD0003A34313400342D343E3420345434453496
:105BE000533454343A3434343A34313400342D3468
:105BF0003E34203454344534533454343A343534F8
:105C00003A34313400342D343E3420345434453465
:105C1000533454343A3436343A34313400342D3435
:105C20003E34203454344534533454343A343734C5
:105C30003A34313400342D343E3420345434453435
:105C4000533454343A3438343A34313400342D3403
:105C50003E34203454344534533454343A34393493
:105C60003A343134003454344534533454342034C9
:105C7000533446344C34413453344834003446347D
:105C800049344E342034443445342034543445347B
:105C900053345434003456344F344934523420345D
:105CA0004134503450344C34493400345434453445
:105CB0005334543420345234313420344F344E343D
:105CC0000034453454344134503445342034313474
:105CD0003034003445345434413450344534203465
:105CE0003134323400345434453453345434203451
:105CF0004234503432340034453454344134503416
:105D00004534203431343334003445345434413450
:105D10005034453420343134343400344534543430
:105D20004134503445342034313435340034453432
:105D30005434413450344534203431343634003412
:105D400045345434413450344534203431343734BC
:105D500000344534543441345034453420343134E3
:105D600038340034453454344134503445342034CC
:105D700031340034543445345334543420345034A2
:105D800031340034453454344134503445342034B3
:105D90003234003454344534533454342034503481
:105DA0003234003445345434413450344534203492
:105DB0003334003445345434413450344534203481
:105DC0003434003445345434413450344534203470
:105DD000353400344534543441345034453420345F
:105DE000363400344534543441345034453420344E
:105DF000373400344534543441345034453420343D
:105E0000383400344534543441345034453420342B
:0A5E100039340034253464340034C2
:020000040001F9
:08000000FF3FFF3FFF3FFF3F00
:04000E00E43FFF3F8D
:00000001FF
