:1000000080314A28053008007E1480310B1F0928F2
:100010000A2848282100111E0E280F281B2820001E
:10002000111E132814281B28210066088A00650861
:100030000A00803148282100911E1F2820282C28E2
:100040002000911E242825282C2822006C088A00D4
:100050006B080A00803148282100921D3028312881
:100060003D282000921D352836283D2821006808AB
:100070008A0067080A00803148282100911D412824
:10008000422848282000911D46284728482836281D
:100090007E10090080314C282100B731D5278031EE
:1000A000EE0070308400A1308500CD308600013034
:1000B00087001430AF31D327803157308400A4300B
:1000C000850020308600023087002830AF31D327EA
:1000D0008031FD012000EA01EB01EC01DF308400FA
:1000E000003085000F30AF31CD2780315B30840088
:1000F000013085001430AF31CD278031A03084002D
:10010000013085002D30AF31CD278031483084005B
:10011000023085002030AF31CD2780317E102000A5
:100120009231852A2100B400B82B1F30AD00AA30CF
:10013000AE00A13199218031432C1F30AD00AC308D
:10014000AE00A1319921803110302000B800B030CC
:10015000B9000D30BA00AC30BB006E30BC00A83026
:10016000BD006E30BE00A830BF00A2312722803112
:10017000432CB830AD00AC30AE00A13199218031B4
:10018000432C3030AD00AC30AE00A131992180312C
:1001900020302000B800B030B9006D30BA00AD306A
:1001A000BB006E30BC00A830BD006E30BE00A83071
:1001B000BF00A23127228031432CB830AD00AC30D3
:1001C000AE00A13199218031432C4130AD00AC30DB
:1001D000AE00A1319921803128302000B800B03024
:1001E000B9008B30BA00AD30BB006E30BC00A83017
:1001F000BD006E30BE00A830BF00A2312722803182
:10020000432CB830AD00AC30AE00A1319921803123
:10021000432C5230AD00AC30AE00A1319921803179
:1002200030302000B800B030B9007C30BA00AD30BA
:10023000BB006E30BC00A830BD006E30BE00A830E0
:10024000BF00A23127228031432CB830AD00AC3042
:10025000AE00A13199218031432C6330AD00AC3028
:10026000AE00A1319921803138302000B800B03083
:10027000B9001130BA00AF30BB006E30BC00A830FE
:10028000BD006E30BE00A830BF00A23127228031F1
:10029000432CB830AD00AC30AE00A1319921803193
:1002A000432C7430AD00AC30AE00A13199218031C7
:1002B00040302000B800B030B900B030BA00AA30E9
:1002C000BB006E30BC00A830BD006E30BE00A83050
:1002D000BF00A23127228031432CB830AD00AC30B2
:1002E000AE00A13199218031432C8530AD00AC3076
:1002F000AE00A1319921803148302000B800B030E3
:10030000B900C430BA00AA30BB006E30BC00A830BF
:10031000BD006E30BE00A830BF00A2312722803160
:10032000432CB830AD00AC30AE00A1319921803102
:10033000432C9630AD00AC30AE00A1319921803114
:1003400050302000B800B030B9001E30BA00AD30D7
:10035000BB00EB30BC00AC30BD006E30BE00A8303E
:10036000BF00A23127228031432CB830AD00AC3021
:10037000AE00A13199218031432CA730AD00AC30C3
:10038000AE00A131992180311C302000B800AF307F
:10039000B9001E30BA00AD30BB002F30BC00AD300C
:1003A000BD006E30BE00A830BF00A23127228031D0
:1003B000432CB830AD00AC30AE00A1319921803172
:1003C000432C1130AD00AB30AE00A131992180310A
:1003D00025302000B800AF30B900EE30BA00AE30A2
:1003E000BB006E30BC00A830BD006E30BE00A8302F
:1003F000BF00A23127228031432CB830AD00AC3091
:10040000AE00A13199218031432C2330AD00AB30B7
:10041000AE00A1319921803125302000B800AF30E5
:10042000B9006E30BA00A830BB006E30BC00A830F6
:10043000BD006E30BE00A830BF00A231272280313F
:10044000432CB830AD00AC30AE00A13199218031E1
:10045000432C3530AD00AB30AE00A1319921803155
:1004600037302000B800AF30B9003F30BA00AD30AF
:10047000BB00F230BC00AD30BD00FC30BE00AC3083
:10048000BF00A231272280312100300886003108C8
:10049000870001308100432CB830AD00AC30AE0095
:1004A000A13199218031432C4730AD00AB30AE00F3
:1004B000A131992180312100300886003108870060
:1004C000810140302000B800AF30B9002E30BA00B2
:1004D000AF30BB006E30BC00A830BD006E30BE0037
:1004E000A830BF00A23127228031432CB830AD00A4
:1004F000AC30AE00A13199218031432C5930AD0090
:10050000AB30AE00A1319921803149302000B800D4
:10051000AF30B9007530BA00AE30BB006E30BC00F1
:10052000A830BD006E30BE00A830BF00A231272227
:100530008031432CB830AD00AC30AE00A1319921F0
:100540008031432C6B30AD00AB30AE00A13199212E
:10055000803152302000B800AF30B9000830BA0006
:10056000B030BB006E30BC00A830BD006E30BE00A5
:10057000A830BF00A23127228031432CB830AD0013
:10058000AC30AE00A13199218031432C7D30AD00DB
:10059000AB30AE00A131992180315B302000B80032
:1005A000AF30B9001830BA00B030BB006E30BC00BC
:1005B000A830BD006E30BE00A830BF00A231272297
:1005C0008031432CB830AD00AC30AE00A131992160
:1005D0008031432C8F30AD00AB30AE00A13199217A
:1005E000803164302000B800AF30B900A930BA00C3
:1005F000AD30BB000630BC00AF30BD00FC30BE00EB
:10060000AC30BF00A23127228031442AB830AD007F
:10061000AC30AE00A13199218031432CA130AD0026
:10062000AB30AE00A1319921803121003008860025
:10063000310887008101FA302000B800AE30B900DF
:10064000E030BA00AB30BB00E430BC00AD30BD00E0
:100650007330BE00AA30BF00A23127228031432C64
:10066000B830AD00AC30AE00A13199218031432CBF
:10067000C630AD00A930AE00A13199218031FE30E5
:100680002000B800AA30B9009A30BA00AD30BB00E3
:10069000FB30BC00AB30BD00B830BE00AD30BF0099
:1006A000A23127228031432CC930AD00AC30AE00DE
:1006B000A13199218031432CDA30AD00AC30AE004D
:1006C000A13199218031432CDD30AD00A930AE003D
:1006D000A13199218031FE302000B800AA30B90044
:1006E0009A30BA00AD30BB00FB30BC00AB30BD006F
:1006F000B830BE00AD30BF00A23127228031432C7C
:100700009C30AD00AA30AE00A13199218031FE307D
:100710002000B800AA30B9009A30BA00AD30BB0052
:10072000ED30BC00AB30BD00B830BE00AD30BF0016
:10073000A23127228031432C4F30AD00A930AE00CA
:10074000A13199218031FE302000B800AA30B900D3
:100750009A30BA00AD30BB00E930BC00AB30BD0010
:10076000B830BE00AD30BF00A23127228031432C0B
:100770003408B200B3013308003A0319C02B432CEC
:1007800032082A3A03199C2B173A0319802B7C3A1A
:1007900003199D28033A0319C128013A0319E528D2
:1007A000073A03190929013A03192D29033A0319B4
:1007B0005129013A031975290F3A03199929013A68
:1007C0000319BD29033A0319E129013A0319052A3E
:1007D000073A0319292A013A0319542A033A03193B
:1007E0007E2A013A0319A22A1F3A0319C62A013A9E
:1007F0000319EA2A033A03190E2B013A0319382B7D
:10080000323A0319B928033A0319DD28013A0319CA
:100810000129073A03192529013A03194929033AFD
:1008200003196D29013A031991290F3A0319B529C2
:10083000013A0319D929033A0319FD29013A031989
:10084000212A073A03194C2A013A0319762A033A56
:1008500003199A2A013A0319BE2A1F3A0319E22AF8
:10086000013A0319062B033A0319302B073A0319EF
:10087000542B033A03195C2B013A0319642B0D3AEC
:1008800003199528432C08002100C400C301AC2F94
:1008900020000F194C2C4D2C682CE9302100AD00A4
:1008A000A830AE00A131992184312100C301C30ACF
:1008B0004408860001308700810136088600013037
:1008C0008700810135088600013087008101810A97
:1008D00020006A0803196D2C6E2C862FA531B725D0
:1008E00084312100B9003908BB00552F01000030C8
:1008F0002100AD00AE30AE00A1319921843121003C
:1009000044088600013087008101810A350886008D
:10091000013087008101810A360886000130870096
:10092000810102302100BA000430B900BA30890BCD
:10093000972CB90B972CBA0B972C00002100C30100
:10094000C30A862FCF30AD00A830AE00A131992167
:100950008431FE302000AE00AA30AF006E30B0000F
:10096000A830B1004930B200AA30B3006E30B400F4
:10097000A830B500A731AF27843121004408860094
:10098000013087008101810A02302100BA00043061
:10099000B900BA30890BCA2CB90BCA2CBA0BCA2CB5
:1009A00000002100C301C30A35088600013087001A
:1009B000810122008C13862FB330AD00A830AE0029
:1009C000A13199218431FE302000AE00AA30AF0061
:1009D0006E30B000A830B100ED30B200AB30B300E3
:1009E0006E30B400A830B500A731AF2784312100A4
:1009F00044088600013087008101810A350886009D
:100A000001308700810136088600013087008101AE
:100A100002302100BA000430B900BA30890B0E2D23
:100A2000B90B0E2DBA0B0E2D00002100C301C30A15
:100A300022008C17862F4A30AD00A830AE00A131BD
:100A400099218431FE302000AE00AA30AF006E3014
:100A5000B000A830B100E930B200AB30B3006E3066
:100A6000B400A830B500A731AF2784312100440875
:100A70008600013087008101810A02302100BA001E
:100A80000430B900BA30890B432DB90B432DBA0B92
:100A9000432D00002100C301C30A35088600013040
:100AA0008700810122008C13862F3630AD00A930DB
:100AB000AE00A13199218431FE302000AE00AA3071
:100AC000AF006E30B000A830B1006230B200AD307F
:100AD000B3006E30B400A830B500A731AF27843121
:100AE000210044088600013087008101810A350811
:100AF00086000130870081013608860001308700BA
:100B00008101810A02302100BA000430B900BA30F4
:100B1000890B882DB90B882DBA0B882D0000210078
:100B2000C301C30A22008C17862F6830AD00A9309C
:100B3000AE00A13199218431FE302000AE00AA30F0
:100B4000AF006E30B000A830B1005E30B200AD3002
:100B5000B3006E30B400A830B500A731AF278431A0
:100B6000210044088600013087008101810A350890
:100B70008600013087008101360886000130870039
:100B80008101810A02302100BA000430B900BA3074
:100B9000890BC82DB90BC82DBA0BC82D0000210038
:100BA000C301C30A22008C13862FAF31B1278431D1
:100BB0002100B9003908BC0061303C06031DE12D5D
:100BC000E22D252EEB30AD00AA30AE00A1319921E7
:100BD0008431210044088600013087008101810AA8
:100BE0003508860001308700810137088600013012
:100BF00087008101810A3608860001308700810163
:100C000002302100BA000430B900BA30890B062E38
:100C1000B90B062EBA0B062E00002100C301C30A31
:100C200000302000B800B030B9000D30BA00AD304F
:100C3000BB006E30BC00A830BD006E30BE00A830D6
:100C4000BF00A23127228431862F1D30AD00A9308C
:100C5000AE00A131992184319E2CAF31A727843178
:100C60002100B9003908BD0075303D06031D392E3D
:100C70003A2E542E9830AD00A930AE00A131992102
:100C80008431210044088600013087008101810AF7
:100C90003508860001308700810137088600013061
:100CA00087008101810A8C2C1D30AD00A930AE0077
:100CB000A131992184319E2CAF31A22784312100AA
:100CC000B9003908BE0076303E06031D682E692E35
:100CD000712EAF30AD00A930AE00A1319921843121
:100CE000412E1D30AD00A930AE00A13199218431D3
:100CF0009E2CAF319D2784312100B9003908BF00F7
:100D000077303F06031D852E862E9F2E8030AD0046
:100D1000A930AE00A1319921843121004408860018
:100D2000013087008101810A350886000130870083
:100D30008101370886000130870081018C2C1D302D
:100D4000AD00A930AE00A131992184319E2CAF3184
:100D5000AC2784312100B9003908C0003D3040067D
:100D6000031DB32EB42EF62EF430AD00A930AE0024
:100D7000A131992184312100440886000130870087
:100D80008101810A3508860001308700810137081A
:100D90008600013087008101360886000130870017
:100DA000810102302100BA000430B900BA30890B49
:100DB000D72EB90BD72EBA0BD72E00002100C301B6
:100DC000C30AFE302000B800AA30B900ED30BA00E6
:100DD000AB30BB006E30BC00A830BD006E30BE0032
:100DE000A830BF00A23127228431862F1D30AD00EC
:100DF000A930AE00A131992184319E2CAF319827C2
:100E000084312100B9003908C1002A304106031D90
:100E10000A2F0B2F4D2F6F30AD00A830AE00A1313F
:100E20009921843121004408860001308700810126
:100E3000810A350886000130870081013708860065
:100E4000013087008101360886000130870081016A
:100E500002302100BA000430B900BA30890B2E2FBD
:100E6000B90B2E2FBA0B2E2F00002100C301C30A8D
:100E7000FE302000B800AA30B900E930BA00AB302B
:100E8000BB006E30BC00A830BD006E30BE00A83084
:100E9000BF00A23127228431862F1D30AD00A9303A
:100EA000AE00A131992184319E2C3B08B900BA01D2
:100EB0003A08003A03195D2F862F39082A3A031998
:100EC000FE2E1A3A0319762C013A0319772C043AAC
:100ED0000319952D033A0319A22C013A0319DC2CAE
:100EE0000F3A0319552D013A03191B2D043A031922
:100EF000A72E5C3A0319D52D143A03192D2E033A67
:100F000003195C2E013A0319792E862F2100370828
:100F1000860001308700010803198F2F902FAC2F16
:100F20003F30A631D92684312100B9003908C200EA
:100F30003808B0000130B10042088031922084317D
:100F400005302100BA000F30B900F130890BA62F0F
:100F5000B90BA62FBA0BA62F210043080319B12FF6
:100F6000B22F482C0800210034088600350887007D
:100F70000108031DBC2FBD2FC42F0A30AD00AA30BD
:100F8000AE00A13199218731210030088600310857
:100F90008700810132088600330887008101340808
:100FA00086003508870081013608860037088700EB
:100FB000013081000030A031762087310030A0312F
:100FC000832087310030A031902087310030A0315C
:100FD000692087310030A0319D2087310030A03159
:100FE000AA2087310030A031B72087310030A031EE
:100FF000C420873122008C130800200091110800C2
:101000002000911508002100B8006828AF31B127F1
:1010100088312100B4003408B60061303606031D63
:10102000122813284028EB30AD00AA30AE00A131C1
:10103000992188312100380886000130870081011C
:10104000810A30088600013087008101810A320858
:101050008600013087008101810A31088600013055
:101060008700810102302100B5000430B400BA309D
:10107000890B3828B40B3828B50B382800007E2897
:101080001D30AD00A930AE00A131992188317E28F4
:101090007530A631D92688317E287630A631D926FA
:1010A00088317E287730A631D92688312100B400D6
:1010B0003408B70077303706031D5F2860287E2884
:1010C0003430AD00AA30AE00A131992188317E289C
:1010D0003308B400B5013508003A031970287E289A
:1010E0003408613A03190628143A03194828033AC8
:1010F00003194D28013A031952287E280800503060
:101100002000B800B030B9001E30BA00AD30BB00CE
:10111000EB30BC00AC30BD006E30BE00A830BF006C
:10112000A231402288310130A0319D208831063023
:101130002200C2001330C100AD30890B9D28C10BC5
:101140009D28C20B9D2800320030A0319D2088319F
:101150000B302200C2002630C1005D30890BAE2862
:10116000C10BAE28C20BAE2800320C30A3313D2398
:101170008831200024082200D20020002308220009
:10118000D10000302100AD00B830AE00220052087E
:101190002100B000220051082100AF004A30A631E2
:1011A0001A26883121002E082200C60021002D08B1
:1011B0002200C5005208803AC10083304102031D5D
:1011C000E328203051020318E628E728F2282200FD
:1011D0008C17E2302100AD00AE30AE00A131992174
:1011E00088312C2950302100B000B030B1005A3085
:1011F000B2000130B3005730B4000130B50099316E
:10120000F021883150302000AE00B030AF001E30E9
:10121000B000AD30B1004A30B2000130B3006E30E2
:10122000B400A830B500A731AF27883122008C1355
:1012300059302100B8000130B9005A30BA000130ED
:10124000BB005730BC000130BD005830BE0001303B
:10125000BF009831D620883129302200C200963054
:10126000C1007F30890B3229C10B3229C20B3229D0
:10127000AF31B62788312200C1004108D40053089D
:10128000C100C20141082100B00022004208210033
:10129000B10022005408803192208831A031ED2025
:1012A00088312200C1004108D5005A30C1004108F0
:1012B0002100B00058302200C20042082100B100D5
:1012C00056302200C30043082100B2002200550816
:1012D000C40044082100B30059308831032088310C
:1012E00022005A080319752976292F2A1C3020005C
:1012F000B800AF30B9001E30BA00AD30BB002F309F
:10130000BC00AD30BD006E30BE00A830BF00A231C1
:10131000402288310130A0319D20883106302200E2
:10132000C2001330C100AD30890B9429C10B942940
:10133000C20B942900320030A0319D2088310B303F
:101340002200C2002630C1005D30890BA529C10BE7
:10135000A529C20BA52900320C30A3313D238831C9
:10136000200024082200D200200023082200D100FF
:1013700000302100AD00B830AE002200520821003C
:10138000B000220051082100AF004A30A6311A26D1
:10139000883121002E082200C80021002D082200DB
:1013A000C7005208803AC10082304102031DDA2989
:1013B000BC3051020318DD29DE29E92922008C13F3
:1013C0000D302100AD00AE30AE00A1319921883141
:1013D000232A1C302100B000AF30B1005A30B200D7
:1013E0000130B3005730B4000130B5009931F0211D
:1013F00088311C302000B800AF30B9001E30BA0070
:10140000AD30BB004A30BC000130BD006E30BE00C4
:10141000A830BF00A2314022883122008C175930F9
:101420002100B8000130B9005A30BA000130BB00C9
:101430005730BC000130BD005830BE000130BF0045
:101440009831D620883129302200C2009630C10060
:101450007F30890B292AC10B292AC20B292AAF31D7
:10146000B62788312200C1004108D4005308C100CA
:10147000C20141082100B000220042082100B10051
:1014800022005408803192208831A031ED2088312B
:101490002200C1004108D5005A30C1004108210096
:1014A000B00058302200C20042082100B10056307E
:1014B0002200C30043082100B20022005508C400E6
:1014C00044082100B30059308831032088312200BC
:1014D0005A0803196C2A6D2A392B25302000B800D0
:1014E000AF30B900EE30BA00AE30BB006E30BC0099
:1014F000A830BD006E30BE00A830BF00A23140222F
:1015000088310B302200C2002630C1005D30890BCB
:10151000872AC10B872AC20B872A00320130A031EB
:101520009D20883106302200C2001330C100AD304A
:10153000890B982AC10B982AC20B982A00320030D6
:10154000A0319D2088313D302200C200E130C10031
:101550003F30890BA92AC10BA92AC20BA92A003244
:101560000130A0319D20883106302200C2001330A6
:10157000C100AD30890BBA2AC10BBA2AC20BBA2AF4
:1015800000320030A0319D20883110302200C2008E
:101590003930C1000D30890BCB2AC10BCB2AC20BCD
:1015A000CB2A00320130A331A1238831003A03193C
:1015B000DA2ADB2AF62A0130A331C4238831003A23
:1015C0000319E32AE42AF62A0030A331E7238831FD
:1015D000003A0319EC2AED2AF62A1A302100AD0050
:1015E000AE30AE00A13199218831242B2200DA01DE
:1015F0000030A0319D2088310030A031AA208831F0
:1016000025302100B000AF30B1005A30B2000130B7
:10161000B3005730B4000130B5009931F021883162
:1016200059302100B8000130B9005A30BA000130F9
:10163000BB005730BC000130BD005830BE00013047
:10164000BF009831D620883115302200C2004B30BF
:10165000C100BE30890B2A2BC10B2A2BC20B2A2BAF
:1016600000000030A0319D2088310030A031AA2038
:101670008831AF31B62788312200C1004108D4003B
:101680005308C100C20141082100B00022004208F5
:101690002100B10022005408803192208831A0310D
:1016A000ED2088312200C1004108D5005A30C10028
:1016B00041082100B00058302200C2004208210039
:1016C000B10056302200C30043082100B2002200BE
:1016D0005508C40044082100B30059308831032064
:1016E000883122005A080319762B772BE42B3730E8
:1016F0002000B800AF30B9003F30BA00AD30BB00B9
:10170000F230BC00AD30BD00FC30BE00AC30BF00DC
:10171000A231402288310130A0319D20883106302D
:101720002200C2001330C100AD30890B952BC10BD4
:10173000952BC20B952B00320030A0319D208831B3
:1017400003302100AD00A930AE00A13199218831CC
:10175000220059089B31052388312200C10041082D
:10176000D7005708031DB52BB62BDC2BDA01373019
:101770002100B000AF30B1005A30B2000130B300E8
:101780005730B4000130B5009931F021883159301B
:101790002100B8000130B9005A30BA000130BB0056
:1017A0005730BC000130BD005830BE000130BF00D2
:1017B0009831D6208831E42B27302100AD00AE309F
:1017C000AE00A13199218831AF31B627883122008E
:1017D000C1004108D4005308C100C20141082100E2
:1017E000B000220042082100B100220054088031DC
:1017F00092208831A031ED2088312200C1004108BB
:10180000D5005A30C10041082100B00058302200F4
:10181000C20042082100B10056302200C300430834
:101820002100B20022005508C40044082100B30082
:10183000593088310320883122005A080319212C9D
:10184000222CA22C40302000B800AF30B9002E303E
:10185000BA00AF30BB006E30BC00A830BD006E30A7
:10186000BE00A830BF00A231402288310130A03133
:10187000AA20883106302200C2001330C100AD30EA
:10188000890B402CC10B402CC20B402C0032003085
:10189000A031AA2088310B302200C2002630C100BE
:1018A0005D30890B512CC10B512CC20B512C0032D5
:1018B0000130A331A1238831003A0319602C612C37
:1018C0007C2C0130A331C4238831003A0319692CE0
:1018D0006A2C7C2C0130A331E7238831003A0319AC
:1018E000722C732C7C2C34302100AD00AE30AE0055
:1018F000A13199218831A22C2200DA014030210047
:10190000B000AF30B1005A30B2000130B3005730F0
:10191000B4000130B5009931F021883159302100EF
:10192000B8000130B9005A30BA000130BB0057305E
:10193000BC000130BD005830BE000130BF009831FE
:10194000D6208831AF31B62788312200C100410846
:10195000D4005308C100C20141082100B000220098
:1019600042082100B10022005408803192208831C1
:10197000A031ED2088312200C1004108D5005A3045
:10198000C10041082100B00058302200C2004208C6
:101990002100B10056302200C30043082100B200EC
:1019A00022005508C40044082100B3005930883192
:1019B0000320883122005A080319DF2CE02C602D07
:1019C00049302000B800AF30B9007530BA00AE30F1
:1019D000BB006E30BC00A830BD006E30BE00A83029
:1019E000BF00A231402288310130A031D12088319E
:1019F00006302200C2001330C100AD30890BFE2C2E
:101A0000C10BFE2CC20BFE2C00320030A031D120C5
:101A100088310B302200C2002630C1005D30890BB6
:101A20000F2DC10B0F2DC20B0F2D00320030A33133
:101A3000A1238831003A03191E2D1F2D3A2D0030A5
:101A4000A331C4238831003A0319272D282D3A2DBC
:101A50000030A331E7238831003A0319302D312DAE
:101A60003A2D41302100AD00AE30AE00A1319921B8
:101A70008831602D2200DA0149302100B000AF30FA
:101A8000B1005A30B2000130B3005730B400013019
:101A9000B5009931F021883159302100B80001306A
:101AA000B9005A30BA000130BB005730BC000130D9
:101AB000BD005830BE000130BF009831D6208831BB
:101AC000AF31B62788312200C1004108D400530845
:101AD000C100C20141082100B000220042082100DB
:101AE000B10022005408803192208831A031ED20CD
:101AF00088312200C1004108D5005A30C100410898
:101B00002100B00058302200C20042082100B1007C
:101B100056302200C30043082100B20022005508BD
:101B2000C40044082100B3005930883103208831B3
:101B300022005A0803199D2D9E2D182E5230200088
:101B4000B800AF30B9000830BA00B030BB006E301A
:101B5000BC00A830BD006E30BE00A830BF00A2316E
:101B6000402288310130A031B7208831193022005D
:101B7000C2005A30C100B130890BBC2DC10BBC2D45
:101B8000C20BBC2D00320030A031B72088310B30A1
:101B90002200C2002630C1005D30890BCD2DC10B63
:101BA000CD2DC20BCD2D00320130A331A1238831C0
:101BB000003A0319DC2DDD2DF82D0130A331C423AB
:101BC0008831003A0319E52DE62DF82D0130A331B7
:101BD000E7238831003A0319EE2DEF2DF82D4E3012
:101BE0002100AD00AE30AE00A13199218831182E10
:101BF00052302100D700AF30D8005A302200C10047
:101C000041082100D90057302200C20042082100BB
:101C1000DA0059302200C30043082100DB005830AD
:101C20002200C40044082100DC009E31AE26883129
:101C3000AF31B62788312200C1004108D4005308D3
:101C4000C100C20141082100B00022004208210069
:101C5000B10022005408803192208831A031ED205B
:101C600088312200C1004108D5005A30C100410826
:101C70002100B00058302200C20042082100B1000B
:101C800056302200C30043082100B200220055084C
:101C9000C40044082100B300593088310320883142
:101CA00022005A080319552E562ED62E5B302000DE
:101CB000B800AF30B9001830BA00B030BB006E3099
:101CC000BC00A830BD006E30BE00A830BF00A231FD
:101CD000402288310130A031C420883119302200DF
:101CE000C2005A30C100B130890B742EC10B742E62
:101CF000C20B742E00320030A031C42088310B306A
:101D00002200C2002630C1005D30890B852EC10B38
:101D1000852EC20B852E00320030A331A1238831DD
:101D2000003A0319942E952EB02E0030A331C4230F
:101D30008831003A03199D2E9E2EB02E0030A3311B
:101D4000E7238831003A0319A62EA72EB02E5B3068
:101D50002100AD00AE30AE00A13199218831D62EE0
:101D60002200DA015B302100B000AF30B1005A3000
:101D7000B2000130B3005730B4000130B5009931E2
:101D8000F021883159302100B8000130B9005A30B3
:101D9000BA000130BB005730BC000130BD005830E4
:101DA000BE000130BF009831D6208831AF31B62750
:101DB00088312200C1004108D4005308C100C2018B
:101DC00041082100B000220042082100B100220099
:101DD0005408803192208831A031ED2088312200D2
:101DE000C1004108D5005A30C10041082100B000AF
:101DF00058302200C20042082100B10056302200B3
:101E0000C30043082100B20022005508C400440862
:101E10002100B300593088310320883122005A084C
:101E20000319132F142F732F64302000B800AF3024
:101E3000B900A930BA00AD30BB000630BC00AF30ED
:101E4000BD00FC30BE00AC30BF00A2314022883162
:101E5000A231FF228831220059089B3105238831A5
:101E60002200C1004108D7005708031D382F392F21
:101E70006B2FDA0164302100B000AF30B1005A306E
:101E8000B2000130B3005730B4000130B5009931D1
:101E9000F021883159302100B8000130B9005A30A2
:101EA000BA000130BB005730BC000130BD005830D3
:101EB000BE000130BF009831D62088312930220081
:101EC000C2009630C1007F30890B642FC10B642F94
:101ED000C20B642F732F68302100AD00AE30AE000E
:101EE000A13199218831AF31B62788312200C10054
:101EF0004108D4005308C100C20141082100B000CC
:101F0000220042082100B1002200540880319220B2
:101F10008831A031ED2088312200C1004108D50070
:101F20005A30C10041082100B00058302200C200E0
:101F300042082100B10056302200C30043082100AE
:101F4000B20022005508C40044082100B3005930F3
:101F500088310320883122005A080319B02FB22F8C
:101F60009231C62AFA302000B800AE30B900E03015
:101F7000BA00AB30BB00E430BC00AD30BD00733004
:101F8000BE00AA30BF00A231402288310130A0310A
:101F9000762088310030A03169208831A3315E235A
:101FA000883159302100B0000130B1005A30B20000
:101FB0000130B3009931892188315A302100B000B5
:101FC0000130B1005730B2000130B3005930B400D5
:101FD0000130B5005830B6000130B7008731B32763
:101FE000883129302200C2009630C1007F30890B31
:101FF000F72FC10BF72FC20BF72FB02F80314A28D4
:1020000020302000B800B030B9006D30BA00AD30DB
:10201000BB006E30BC00A830BD006E30BE00A830E2
:10202000BF00A231402290310130A0319D2090317B
:1020300006302200C2001330C100AD30890B1E28CB
:10204000C10B1E28C20B1E2800320030A0319D207B
:1020500090312200500803192E282F28732894301D
:102060002100AD00A830AE00A131992190312200AD
:1020700059089B31052390312200C1004108D70047
:102080005708031D442845286B28DA012030210019
:10209000B000B030B1005A30B2000130B300573058
:1020A000B4000130B5009931F02190315930210050
:1020B000B8000130B9005A30BA000130BB005730C7
:1020C000BC000130BD005830BE000130BF00983167
:1020D000D620903173289A302100AD00AE30AE008A
:1020E000A13199219031AF31B62790312200C10042
:1020F0004108D4005308C100C20141082100B000CA
:10210000220042082100B1002200540880319220B0
:102110009031A031ED2090312200C1004108D5005E
:102120005A30C10041082100B00058302200C200DE
:1021300042082100B10056302200C30043082100AC
:10214000B20022005508C40044082100B3005930F1
:1021500088310320903122005A080319B028B22890
:102160009531022D28302000B800B030B9008B30F6
:10217000BA00AD30BB006E30BC00A830BD006E3080
:10218000BE00A830BF00A231402290310130A03102
:102190009D20903106302200C2001330C100AD30C6
:1021A000890BD028C10BD028C20BD02800320030B8
:1021B000A0319D209031220050080319E028E12829
:1021C000B02859089B31052390312200C1004108F5
:1021D000D7005708031DED28EF289431FA2CDA01B7
:1021E00028302100B000B030B1005A30B2000130C8
:1021F000B3005730B4000130B5009931F02190316F
:1022000059302100B8000130B9005A30BA0001300D
:10221000BB005730BC000130BD005830BE0001305B
:10222000BF009831D6209031B0282000CA003F0866
:10223000D3004008D4004108D5004208D600430826
:10224000D7004408D8004508D9004608DA005330C2
:10225000860000308700473FC700C71B302932295E
:102260000130332900302000C800C9014808D100DE
:102270004908D2005108520403193F2940295E2918
:10228000D309D409D509D609D709D809D909DA0952
:10229000D30A031D5E29D40A031D5E29D50A031D36
:1022A0005E29D60A031D5E29D70A031D5E29D80AB6
:1022B000031D5E29D90A031D5E29DA0A2100E21BEB
:1022C000622963296729FD30E305FF30E4056208D0
:1022D000803A2000C70080304702031D7229013078
:1022E000210061020318752976297C29013020001C
:1022F000CD000030CE008429210062082000CE00ED
:10230000210061082000CD00220064082000D000D8
:10231000220063082000CF0051085204031D9129B8
:10232000922997292100631D962997299C29FF301E
:102330002000CF07FF30D03D1F302000DB000030F1
:10234000DC002400E7010D2AFF302000DB07FF300E
:10235000DC3D0A30A300A401A501A601A701A80144
:10236000A901AA015308AB005408AC005508AD0000
:102370005608AE005708AF005808B0005908B10021
:102380005A08B2009B319A23913120002408B700EB
:102390002308B600A231C422913120003608303E15
:1023A000C7005B08483E860002308700470881006E
:1023B000FF30CD07FF30CE3DFF30CF07FF30D03D9F
:1023C0000A30A300A401A501A601A701A801A90143
:1023D000AA015308AB005408AC005508AD005608DC
:1023E000AE005708AF005808B0005908B1005A08AD
:1023F000B2009C318724913120002308D3002408A7
:10240000D4002508D5002608D6002708D7002808BC
:10241000D8002908D9002A08DA0020005C08803A90
:10242000C70080304702031D172A01305B02031CDE
:102430001A2A1B2A482A200053085404550456041B
:102440005704580459045A04031D272A282AA4298A
:102450004E08803AC70080304702031D312A013000
:102460004D020318342A352AA42920005008803A46
:10247000C70080304702031D3F2A01304F02031C72
:10248000422A432A482A2100E318472A482AA42935
:10249000200051085204031D4E2A4F2A542A2100BD
:1024A000631D532A542A712AFF302000DB07FF30B6
:1024B000DC3D51085204031D5E2A5F2A642A2B303A
:1024C000CB000030CC00682A2D30CB000030CC008F
:1024D0004B08C7005B08483E86000230870047086B
:1024E000810020005B08483EC7004708B60050083E
:1024F000B8004F08B7004A0899312D2191312000CA
:102500003708C0003608BF000800A1310C21923105
:102510008B170B172200DA01D701D901CF01D8019F
:10252000D80AC901C90AD601D30115302200C20058
:102530004B30C100BE30890B9B2AC10B9B2AC20BBA
:102540009B2A000020008E1AA62AA72AAD2A220064
:10255000C901A031DE209231B02AA0313920923158
:1025600020000E1CB42AB52AB92A2200D001D00AB4
:10257000BB2A2200D00120008E18BF2AC02AC42AFC
:102580002200CF01CF0AC62A2200CF01FE30200050
:10259000B800AA30B900D630BA00AD30BB00FB306D
:1025A000BC00AB30BD00B830BE00AD30BF00A231C2
:1025B0004022923103302200C2000830C10077303F
:1025C000890BE02AC10BE02AC20BE02AFE30200072
:1025D000B800AA30B9009A30BA00AD30BB00FB3069
:1025E000BC00AB30BD00B830BE00AD30BF00A23182
:1025F0002722923103302200C2000830C100773018
:10260000890B002BC10B002BC20B002B22008C135B
:10261000242B5A30C10041082100B5005830220057
:10262000C20042082100B60056302200C300430811
:102630002100B70053302200C40044082100B80034
:10264000593084314424923122005A080319292B2D
:102650002A2B092BD801A4310A2492312200DA0155
:10266000DA0A0030A031762092310030A031832088
:1026700092310130A0319020923103302200C2000B
:102680000830C1007730890B432BC10B432BC20BA1
:10269000432BFE302000B800AA30B900C730BA0082
:1026A000AD30BB00FB30BC00AB30BD00B830BE006D
:1026B000AD30BF00A2312722923103302200C20088
:1026C0000830C1007730890B632BC10B632BC20B21
:1026D000632B00302000B800B030B9000D30BA00D4
:1026E000AD30BB006E30BC00A830BD006E30BE0007
:1026F000A830BF00A231402292310130A0319D208C
:1027000092310130A031AA20923115302200C2004E
:102710004B30C100BE30890B8B2BC10B8B2BC20BF6
:102720008B2B00000130A03169209231293022002A
:10273000C2009630C1007F30890B9C2BC10B9C2BB3
:10274000C20B9C2B0130A331A1239231003A031913
:10275000AA2BAB2BC62B0130A331C4239231003AF4
:102760000319B32BB42BC62B0130A331E7239231CD
:10277000003A0319BC2BBD2BC62B82302100AD00C3
:10278000AE30AE00A13199219231F42B2200DA0152
:102790000030A0319D2092310030A031AA2092312A
:1027A00000302100B000B030B1005A30B20001302A
:1027B000B3005730B4000130B5009931F0219231A7
:1027C00059302100B8000130B9005A30BA00013048
:1027D000BB005730BC000130BD005830BE00013096
:1027E000BF009831D6209231AF31B6279231220006
:1027F000C1004108D4005308C100C20141082100B2
:10280000B000220042082100B100220054088031AB
:1028100092209231A031ED2092312200C100410876
:10282000D5005A30C10041082100B00058302200C4
:10283000C20042082100B10056302200C300430804
:102840002100B20022005508C40044082100B30052
:10285000593088310320923115302200C2004B30AC
:10286000C100BE30890B322CC10B322CC20B322C72
:1028700000000030A0319D2092310030A031AA200C
:10288000923122005A080319462C472CBA2C1030DA
:102890002000B800B030B9000D30BA00AC30BB0039
:1028A0006E30BC00A830BD006E30BE00A830BF0046
:1028B000A231402292310030A0319D20923100306F
:1028C000A031AA2092310B302200C2002630C10074
:1028D0005D30890B692CC10B692CC20B692C00324D
:1028E0000130A331A1239231003A031D782C792CB9
:1028F000942C0130A331C4239231003A031D812C62
:10290000822C942C0130A331E7239231003A031D2D
:102910008A2C8B2C942C8E302100AD00AE30AE0072
:10292000A13199219231BA2C2200DA011030210014
:10293000B000B030B1005A30B2000130B3005730AF
:10294000B4000130B5009931F021923159302100A5
:10295000B8000130B9005A30BA000130BB0057301E
:10296000BC000130BD005830BE000130BF009831BE
:10297000D6209231AF31B62792312200C1004108F2
:10298000D4005308C100C20141082100B000220058
:1029900042082100B1002200540880319220923177
:1029A000A031ED2092312200C1004108D5005A30FB
:1029B000C10041082100B00058302200C200420886
:1029C0002100B10056302200C30043082100B200AC
:1029D00022005508C40044082100B3005930883152
:1029E0000320923122005A080319F82C9031002854
:1029F00090317328A6302100AD00AE30AE00A13179
:102A000099219431AF31B62794312200C100410899
:102A1000D4005308C100C20141082100B0002200C7
:102A200042082100B10022005408803192209431E4
:102A3000A031ED2094312200C1004108D5005A3068
:102A4000C10041082100B00058302200C2004208F5
:102A50002100B10056302200C30043082100B2001B
:102A600022005508C40044082100B30059308831C1
:102A70000320943122005A0803193F2D402DAA2D1E
:102A800030302000B800B030B9007C30BA00AD3032
:102A9000BB006E30BC00A830BD006E30BE00A83058
:102AA000BF00A231402294310130A0319D209431E9
:102AB00006302200C2001330C100AD30890B5E2DFC
:102AC000C10B5E2DC20B5E2D00320030A0319D2067
:102AD00094312200500803196E2D6F2DAA2D59082C
:102AE0009B31052394312200C1004108D7005708CB
:102AF000031D7B2D7C2DA22DDA0130302100B0008A
:102B0000B030B1005A30B2000130B3005730B400D9
:102B10000130B5009931F021943159302100B800CD
:102B20000130B9005A30BA000130BB005730BC0048
:102B30000130BD005830BE000130BF009831D620B2
:102B40009431AA2DB2302100AD00AE30AE00A131DB
:102B500099219431AF31B62794312200C100410848
:102B6000D4005308C100C20141082100B000220076
:102B700042082100B1002200540880319220943193
:102B8000A031ED2094312200C1004108D5005A3017
:102B9000C10041082100B00058302200C2004208A4
:102BA0002100B10056302200C30043082100B200CA
:102BB00022005508C40044082100B3005930883170
:102BC0000320943122005A080319E72DE82D562ED0
:102BD00038302000B800B030B9001130BA00AF3042
:102BE000BB006E30BC00A830BD006E30BE00A83007
:102BF000BF00A231402294310130A0319D20943198
:102C000015302200C2004B30C100BE30890B062EA9
:102C1000C10B062EC20B062E00000030A0319D20F5
:102C2000943115302200C2004B30C100BE30890BF8
:102C3000172EC10B172EC20B172E00000130A33127
:102C4000A1239431003A0319262E272E302EBE30B0
:102C50002100AD00AE30AE00A13199219431562E45
:102C60002200DA0138302100B000B030B1005A3013
:102C7000B2000130B3005730B4000130B5009931D3
:102C8000F021943159302100B8000130B9005A3098
:102C9000BA000130BB005730BC000130BD005830D5
:102CA000BE000130BF009831D6209431AF31B62735
:102CB00094312200C1004108D4005308C100C20170
:102CC00041082100B000220042082100B10022008A
:102CD0005408803192209431A031ED2094312200AB
:102CE000C1004108D5005A30C10041082100B000A0
:102CF00058302200C20042082100B10056302200A4
:102D0000C30043082100B20022005508C400440853
:102D10002100B300593088310320943122005A0831
:102D20000319932E942E0B2F40302000B800B030A2
:102D3000B900B030BA00AA30BB006E30BC00A83079
:102D4000BD006E30BE00A830BF00A23140229431D9
:102D50000130A0319D20943115302200C2004B304B
:102D6000C100BE30890BB22EC10BB22EC20BB22EE7
:102D700000000030A0319D20943115302200C200A7
:102D80004B30C100BE30890BC32EC10BC32EC20B0A
:102D9000C32E00000030A331A1239431003A03195F
:102DA000D22ED32EE52E0130A331C4239431003A24
:102DB0000319DB2EDC2EE52ECA302100AD00AE302B
:102DC000AE00A131992194310B2F2200DA0140305D
:102DD0002100B000B030B1005A30B2000130B30071
:102DE0005730B4000130B5009931F0219431593099
:102DF0002100B8000130B9005A30BA000130BB00E0
:102E00005730BC000130BD005830BE000130BF005B
:102E10009831D6209431AF31B62794312200C100C9
:102E20004108D4005308C100C20141082100B0008C
:102E3000220042082100B100220054088031922073
:102E40009431A031ED2094312200C1004108D50019
:102E50005A30C10041082100B00058302200C200A1
:102E600042082100B10056302200C300430821006F
:102E7000B20022005508C40044082100B3005930B4
:102E800088310320943122005A080319482F492F12
:102E9000C02F48302000B800B030B900C430BA00AC
:102EA000AA30BB006E30BC00A830BD006E30BE0042
:102EB000A830BF00A231402294310130A0319D20C2
:102EC000943115302200C2004B30C100BE30890B56
:102ED000672FC10B672FC20B672F00000030A03196
:102EE0009D20943115302200C2004B30C100BE300D
:102EF000890B782FC10B782FC20B782F0000003080
:102F0000A331C4239431003A0319872F882F9A2FB5
:102F10000130A331E7239431003A0319902F912F08
:102F20009A2FD6302100AD00AE30AE00A1319921EC
:102F30009431C02F2200DA0148302100B000B030B7
:102F4000B1005A30B2000130B3005730B400013044
:102F5000B5009931F021943159302100B800013089
:102F6000B9005A30BA000130BB005730BC00013004
:102F7000BD005830BE000130BF009831D6209431DA
:102F8000AF31B62794312200C1004108D400530864
:102F9000C100C20141082100B00022004208210006
:102FA000B10022005408803192209431A031ED20EC
:102FB00094312200C1004108D5005A30C1004108B7
:102FC0002100B00058302200C20042082100B100A8
:102FD00056302200C30043082100B20022005508E9
:102FE000C40044082100B3005930883103209431D3
:102FF00022005A080319FE2F88317F288931382989
:103000002000A40021006C080319072808280228C2
:10301000111A0B280C2811282000240823009A00DC
:103020002A28111220002408A3007D08C53E86002E
:1030300001308700230881000130A3002308FD0729
:1030400008307D02031C252826282728FD01013091
:103050002100EC02210011160800200028080319A5
:103060003228332838282808031D372838283D28D7
:103070002608AF31E02798317E282808033E8600D5
:1030800087011600010403194628472864282808E8
:10309000033E86008701403FA900413FAA00280A5D
:1030A00086008701403FAB00413FAC002C08803ACE
:1030B000AD002A08803A2D02031D602829082B0242
:1030C0000318632864287E2820002608A900280801
:1030D00086008701280A8400850100080107AA00EC
:1030E0002A0886000130870029088100280A860006
:1030F00087010130810741310318810A0800AF318F
:10310000BB279831003A031986288728B8289428C5
:10311000AF3170279831D528AF3175279831D52830
:10312000AF317F279831D52823002F08FA007A087D
:10313000F9000630A03E860001308700413F8A003A
:10314000403F0A009831FB00FC017C08003A03195B
:10315000AA2890287B08013A03199028033A0319FA
:103160008828013A03198C28073A031990289028D7
:1031700023003C101730A03E860001308700403FFE
:1031800084008501810A0008B731F62798310130A3
:103190002300B8020030B93B38083904031DD12898
:1031A000D228D4280630D52803300800210038085A
:1031B0008600390887000108C000C1014008B0003E
:1031C0004108B1003A0886003B0887000108C200A8
:1031D000C3014208B2004308B300993189219831F4
:1031E00021003A0886003B0887000108C000C101A1
:1031F0004008B0004108B1003C0886003D08870047
:103200000108C200C3014208B2004308B3003808F5
:103210008600390887000108C400C5014408B400CD
:103220004508B5003E0886003F0887000108C60033
:10323000C7014608B6004708B7008731B327983161
:1032400029302100C1009630C0007F30890B26292B
:10325000C00B2629C10B262908002000BE00210032
:10326000631C332934293D2920003E08B900390860
:10327000AE003608A4317F2499312000B81B4129C3
:10328000422947293808BD003708BC004929BC013C
:10329000BD01BA01BB015D2920302000A60000302D
:1032A000A7003E08B9003908A80098312D209931AF
:1032B00001302000BA070030BB3D3B08803AB9001E
:1032C0003D08803A3902031D67293C083A02031C75
:1032D0006A296B294C29210063186F2970297929E3
:1032E00020003E08B9003908AE003608A4317F241A
:1032F000993120003608A3000230A400A2315922DF
:10330000993120003C082307B6003D08243DB70052
:1033100008002100B701E92920000F1990299129FF
:10332000A6290A302100AD00AA30AE00A1319921B2
:1033300099312100B701B70A3008860031088700AB
:1033400081013208860033088700810120006A0865
:103350000319AB29AC29E929A531B72599312100F9
:10336000B4003408B600D9290100E929D830AD00ED
:10337000AA30AE00A1319921993121003008860090
:1033800031088700810132088600330887008101F7
:1033900002302100B5000430B400BA30890BCE29C8
:1033A000B40BCE29B50BCE2900002100B701B70A16
:1033B000E9293608B400B5013508003A0319E129B6
:1033C000E9293408303A0319B429043A0319B62913
:1033D000E929210037080319EE29EF298C29080073
:1033E0003430860002308700C13084000030850010
:1033F00014302100B60016001A00B60BFB29D73096
:10340000860001308700B7308400003085000A3024
:10341000B60016001A00B60B092A0130A03183202D
:1034200099310130A031902099310030A0317620BF
:1034300099310030A03169209931210031082000F4
:10344000AF00210030082000AE00D730B000AB3014
:10345000B1007330B200AA30B3006E30B400A830AF
:10346000B500A731AF279931C1302000B30000303B
:10347000B400210031082000B600210030082000EF
:10348000B500A131AF219931200034082100D600C8
:10349000200033082100D50056082000B400210088
:1034A00055082000B300B730B5000030B600A13198
:1034B000AF219931200034082100AE0020003308EC
:1034C0002100AD00A13199219931A73167279931A8
:1034D00020000F1D6C2A6D2A682A21003208860000
:1034E0003308870081013408860035088700810190
:1034F00008002000AB002B08A90029082100E900E2
:103500000030A13184219A319C302000A900D730AD
:10351000890B882AA90B882A0330A131F6219A3118
:103520001A302000A900F830890B942AA90B942A9C
:1035300000000330A131F6219A311A302000A90091
:10354000F830890BA12AA90BA12A00000330A13170
:10355000F6219A311A302000A900F830890BAE2AE2
:10356000A90BAE2A00000230A131F6219A311A309F
:103570002000A900F830890BBB2AA90BBB2A000048
:103580002830A131F6219A3102302000AA000430FF
:10359000A900BA30890BCA2AA90BCA2AAA0BCA2ABF
:1035A00000000C30A131F6219A3102302000AA002F
:1035B0000430A900BA30890BDB2AA90BDB2AAA0B3D
:1035C000DB2A00000130A131F6219A3102302000BF
:1035D000AA000430A900BA30890BEC2AA90BEC2A06
:1035E000AA0BEC2A00000630A131F6219A310230F4
:1035F0002000AA000430A900BA30890BFD2AA90BCB
:10360000FD2AAA0BFD2A000008002000A800A9013D
:10361000AA01280803190D2B0E2B712B6B2B6A089E
:103620000319132B142B6B2BA531B7259B312000CD
:10363000A5002508A700552B010002302000A60098
:103640000430A500BA30890B232BA50B232BA60B26
:10365000232B00002000A901A90AAA01AA0A6B2BAA
:1036600002302000A6000430A500BA30890B362BAA
:10367000A50B362BA60B362B00002000A9012D2B05
:1036800002302000A6000430A500BA30890B462B7A
:10369000A50B462BA60B462B00002000A901A90A6A
:1036A000AA01AA0A22008C136B2B2708A500A601E9
:1036B0002608003A03195D2B6B2B2508303A0319B5
:1036C0001C2B023A03191D2B013A0319302B0A3A1D
:1036D0000319402B6B2B20002A080319702B712B28
:1036E0000F2B2808031D752B762B982B922B01305E
:1036F000A2318E229B31003A03197F2B802B842B21
:103700002000A901AA01AA0A0130A231A9229B31F5
:10371000003A03198C2B8D2B922B2000A901A90AAA
:10372000AA01AA0A20002A080319972B982B772BA5
:10373000290808002000B5012B30860000308700E2
:10374000473FB300B31FA52BA62BC82B2000AB0906
:10375000AC09AD09AE09AF09B009B109B209AB0AAC
:10376000031DC52BAC0A031DC52BAD0A031DC52BBC
:10377000AE0A031DC52BAF0A031DC52BB00A031DDE
:10378000C52BB10A031DC52BB20A2000B501B50A2D
:103790002330860000308700473F2000B300B31F6E
:1037A000D22BD32BF22B2000A309A409A509A6092B
:1037B000A709A809A909AA09A30A031DF22BA40AAB
:1037C000031DF22BA50A031DF22BA60A031DF22BE3
:1037D000A70A031DF22BA80A031DF22BA90A031D39
:1037E000F22BAA0A20002308240425042604270417
:1037F000280429042A040319FE2BFF2B522CB401A0
:10380000B40A0E2CA335A40DA50DA60DA70DA80D69
:10381000A90DAA0D0130B3003308B407AA1F112C5B
:10382000122C022C2A083202031D302C29083102E6
:10383000031D302C28083002031D302C27082F02CE
:10384000031D302C26082E02031D302C25082D02C6
:10385000031D302C24082C02031D302C23082B02BE
:10386000031C332C342C442C2308AB022408AC3B1F
:103870002508AD3B2608AE3B2708AF3B2808B03BE8
:103880002908B13B2A08B23BAA36A90CA80CA70C00
:10389000A60CA50CA40CA30C0130B402031D512CE2
:1038A000522C122C35080319562C572C752CAB09A9
:1038B000AC09AD09AE09AF09B009B109B209AB0A4B
:1038C000031D752CAC0A031D752CAD0A031D752C48
:1038D000AE0A031D752CAF0A031D752CB00A031D1B
:1038E000752CB10A031D752CB20A20002B08A30009
:1038F0002C08A4002D08A5002E08A6002F08A7005C
:103900003008A8003108A9003208AA0008002000E9
:10391000B5012330860000308700473FB300B31F56
:10392000922C932CB52C2000A309A409A509A60963
:10393000A709A809A909AA09A30A031DB22CA40A68
:10394000031DB22CA50A031DB22CA60A031DB22C1E
:10395000A70A031DB22CA80A031DB22CA90A031D35
:10396000B22CAA0A2000B501B50A2B30860000301F
:103970008700473F2000B300B31FBF2CC02CE42CAE
:103980002000AB09AC09AD09AE09AF09B009B10916
:10399000B209AB0A031DDF2CAC0A031DDF2CAD0AF4
:1039A000031DDF2CAE0A031DDF2CAF0A031DDF2C25
:1039B000B00A031DDF2CB10A031DDF2CB20A01304F
:1039C0002000B3003308B50636308600003087008B
:1039D00008302000B30000301E00B30BEC2C23088D
:1039E0002404250426042704280429042A0403198E
:1039F000FA2CFB2C572DB401B40A0A2DA335A40DC3
:103A0000A50DA60DA70DA80DA90DAA0D0130B30097
:103A10003308B407AA1F0D2D0E2DFE2CB635B70D99
:103A2000B80DB90DBA0DBB0DBC0DBD0D2A08320283
:103A3000031D342D29083102031D342D28083002BE
:103A4000031D342D27082F02031D342D26082E02B6
:103A5000031D342D25082D02031D342D24082C02AE
:103A6000031D342D23082B02031C372D382D492D1F
:103A70002308AB022408AC3B2508AD3B2608AE3B2F
:103A80002708AF3B2808B03B2908B13B2A08B23BC6
:103A90003614AA36A90CA80CA70CA60CA50CA40CCD
:103AA000A30C0130B402031D562D572D0E2D3508E1
:103AB00003195B2D5C2D7A2DB609B709B809B90930
:103AC000BA09BB09BC09BD09B60A031D7A2DB70A9C
:103AD000031D7A2DB80A031D7A2DB90A031D7A2D0C
:103AE000BA0A031D7A2DBB0A031D7A2DBC0A031DD9
:103AF0007A2DBD0A20003608A3003708A400380834
:103B0000A5003908A6003A08A7003B08A8003C0811
:103B1000A9003D08AA0008002100A90020005D08B6
:103B200086008701403FDF00413FE0005F088400DE
:103B3000600885001200253A031D9F2DA02D882EB8
:103B40005D08860087010130810741310318810A31
:103B50002200E301E4012100E301E401FF30E10080
:103B6000FF30E20020005D0886008701403FDF0053
:103B7000413FE0005F088400600885001200643A5D
:103B80000319C32DC42DD52D5D0886008701403F44
:103B9000DF00413FE0005F088400600885001200FC
:103BA000693A031DD42DD52D232E5D08860087018B
:103BB0000130810741310318810A5E0886008701C0
:103BC00001088400850102308107003FDF00013FCA
:103BD000E0005F082100A000200060082100A10093
:103BE000890D893B8909A200A300A400A500A600B5
:103BF000A70020082000BF00210021082000C000ED
:103C0000210022082000C100210023082000C2005A
:103C1000210024082000C300210025082000C40042
:103C2000210026082000C500210027082000C6002A
:103C300021002908913115219D3120004008DE0026
:103C40003F08DD00AD2E5D0886008701403FDF00A4
:103C5000413FE0005F0884006008850012006E3A72
:103C6000031D332E342E532E5D088600870101304C
:103C7000810741310318810A5E0886008701403FB1
:103C800084008501810A0008DF005F082100A80088
:103C90002808860087015F08C03F6008C13F2000F8
:103CA000DD01DE01AD2E5D0886008701403FDF00AB
:103CB000413FE0005F088400600885001200253A5B
:103CC000031D632E642E7F2E5D0886008701013060
:103CD000810741310318810A2530A6000030A70072
:103CE000210029082000DF005F08A80098312D205E
:103CF0009D3101302000DD000030DE00AD2E5D087A
:103D0000860087010130810741310318810A4F2E57
:103D10005D0886008701403FDF00413FE0005F080B
:103D20008400600885000008E100E2016108A60047
:103D30006208A700210029082000E3006308A8000A
:103D400098312D209D3120005D08860087010130CB
:103D5000810741310318810A792E0800203086003E
:103D6000023087002A3084000130850014302100A1
:103D7000DD0016001A00DD0BB92ECD3086000130B3
:103D8000870020308400013085000A30DD001600F5
:103D90001A00DD0BC72E0130A03183209E31013087
:103DA000A03190209E310030A03176209E3121003C
:103DB00058082000AF00210057082000AE00D7307F
:103DC000B000AB30B100B330B200AB30B3005E3006
:103DD000B400AA30B500A731AF279E312A302000A9
:103DE000B3000130B400210058082000B6002100C3
:103DF00057082000B500A131AF219E3120003408C2
:103E00002200BF00200033082200BE003F0820002F
:103E1000B40022003E082000B3002030B50001307D
:103E2000B600A131AF219E31200034082100AE0040
:103E3000200033082100AD00A13199219E31A73126
:103E400067279E3121005B0886000130870001084A
:103E50009B3105239E312100DD005D082200C0005A
:103E60000B302100DE002630DD005D30890B362F5F
:103E7000DD0B362FDE0B362F0032220040080319EF
:103E8000422F432F772F21005908860001308700E9
:103E900081015A08860001308700810152302000DC
:103EA000AE00AF30AF00DC30B000AB30B100C53099
:103EB000B200AB30B3007330B400AA30B500A73104
:103EC000AF279E31DB302100B8000030B900D93077
:103ED000BA000030BB00DA30BC000030BD00DC307E
:103EE000BE000030BF009831D6209E31FF2F5230E7
:103EF0002000AE00AF30AF000830B000B030B100ED
:103F00006E30B200A830B3006E30B400A830B500F7
:103F1000A731AF279E310030A03183209E31013080
:103F2000A03190209E310030A03176209E310130AA
:103F3000A031B7209E3119302100DE005A30DD005B
:103F4000B130890BA12FDD0BA12FDE0BA12F003289
:103F50000030A031B7209E3115302100DE004B30FB
:103F6000DD00BE30890BB22FDD0BB22FDE0BB22F7E
:103F700000000130A331A1239E31003A0319C12F63
:103F8000C22FE92F0130A331C4239E31003A031917
:103F9000CA2FCB2FE92F0130A331E7239E31003AFE
:103FA0000319D32FD42FE92F52302000AE00AF30A9
:103FB000AF000830B000B030B1004F30B200AD30CB
:103FC000B300D230B400AC30B500A731AF279E317A
:103FD000FF2F2100590886000130870081015230EF
:103FE000B000AF30B100D930B2000030B300DA30E9
:103FF000B4000030B5009931F0219E31622F0800E5
:10400000240011080800200024082200E6002000F7
:1040100023082200E5000800200024082200EA000E
:10402000200023082200E9000800200024082200C4
:10403000E800200023082200E700080020002408F0
:104040002200EC00200023082200EB0008002000E2
:1040500024082100E600200023082100E5000800D4
:104060000130A131F621A0313530890B352800000F
:104070000800283024009500960194012730920012
:1040800021008E150E16080070302100990098014D
:104090002200960121001A1F4E284F284A280800A6
:1040A0002400141954285528502816081F39031DB8
:1040B0005A285B28502808007608F1007508F0009F
:1040C0007708F8007808F2000030A431A824A03165
:1040D00008002000A300230803196F287028732804
:1040E00022000C14752822000C1008002000A300E8
:1040F000230803197C287D28802822001014822898
:104100002200101008002000A300230803198928AA
:104110008A288D28220090148F28220090100800F1
:104120002000A30023080319962897289A28220024
:1041300010159C282200101108002000A30023085D
:104140000319A328A428A72822008C14A928220038
:104150008C1008002000A30023080319B028B12800
:10416000B42822000C15B62822000C1108002000EB
:10417000A30023080319BD28BE28C12822000C165D
:10418000C32822000C1208002000A30023080319F2
:10419000CA28CB28CE2822008C16D02822008C12C8
:1041A00008002000A30023080319D728D828DB28FB
:1041B00022008C15DD2822008C11080032302400EA
:1041C00092003630950096018030940021008E15C3
:1041D0000E168B170B179115080020006A0803199B
:1041E000F228F328FA28A531B725A0312000A50030
:1041F0002508A60026080800F3002300BC1D01299D
:1042000002290B297308F2007208B7007108B9007F
:104210007008B800BC110800A231E022A131A03121
:104220004420A131B731F227A131AF31EF27A131BD
:10423000A7311F27A13108002000A300A031502082
:10424000A13120002308240091002000911D29297C
:104250002A292529911108000230F0000030F100D0
:104260007908A031FC20A1310030F500F600F701FB
:10427000A0315C20A131043008000130F000003092
:10428000F1007908A031FC20A1310030F500F600E2
:10429000F701A0315C20A131023008000230F000AB
:1042A0000030F1007908A031FC20A1310030F50088
:1042B000F600F701A0315C20A13102300800013086
:1042C000F0000030F1007908A031FC20A13100306D
:1042D000F500F600F701A0315C20A13104300800A0
:1042E0000D340A3400340034003400340034003417
:1042F000003400340D340A34003400340034003407
:1043000000340034003400342000A400AF31C12751
:10431000A13121006908A1311C21A131200024080C
:1043200021006E04A1311C21A131AF31C727A13179
:104330000800AF302000E90069082100AF002E0816
:104340002000E50021002D082000E400AF30E90046
:104350006908E6000030A531E625A13108002000FB
:104360003408A4003308A300A2315922A13120004F
:1043700023083307A7002408343DA8003608AA0004
:104380003508A900A4313024A1310800790886003D
:104390008701403FF000413FF1007908023E86006E
:1043A00087010108A031FC20A1310030F500F600A2
:1043B000F701A0315C20A131023008002000A600E6
:1043C00021006A082000A5002508A6042608043854
:1043D000A1318421A13120002608FB39A13184219B
:1043E000A1314230890BF229003208002000A800D8
:1043F0002100EA0120002808F039A131DE21A13195
:1044000020002808A7000330A735FF3E031D042A1B
:104410002735F039A131DE21A13108002000A800A4
:104420002100EA01EA0A20002808F039A131DE2142
:10443000A23120002808A7000330A735FF3E031D46
:104440001D2A2735F039A131DE21A231080046307E
:104450009A317922A23120003908AF003808AE0025
:104460003B08B1003A08B0003D08B3003C08B20078
:104470003F08B5003E08B400A731AF27A2310800BD
:104480004E309A317922A23120003908AF00380825
:10449000AE003B08B1003A08B0003D08B3003C084C
:1044A000B2003F08B5003E08B400A731AF27A231E3
:1044B000080020002408A6002308A500632A013074
:1044C000A3070030A43D23088600240887000108C4
:1044D000031D6B2A6C2A5F2A25082302A3002608E5
:1044E000243BA400080023001908F00020006C08F9
:1044F000BD3E860001308700700881000130F00069
:104500007008EC0708306C02031C872A882A892A65
:10451000EC010130F0007008EA0708002000A40058
:10452000A30124080319952A962A9C2A8F1B992AED
:104530009A2A9C2AA301A30A2408031DA02AA12ABF
:10454000A72A8F1FA42AA52AA72AA301A30A230802
:1045500008002000A400A30124080319B02AB12AEE
:10456000B72A0F19B42AB52AB72AA301A30A240827
:10457000031DBB2ABC2AC22A0F1DBF2AC02AC22A79
:10458000A301A30A2308080020003708803AB800D6
:1045900080303802031DCE2A013036020318D12A9A
:1045A000D22ADF2A20003609B8003709B900B80A34
:1045B0000319B90A3808B6003908B700DF2A08001D
:1045C000220090018F018C018D018E0108302100A5
:1045D00090008C01CF308D00BF308E00FF308F00F7
:1045E00023008F013F308D0090013C308C0024006F
:1045F00090018D012100951722009D0108002200E5
:104600000C1706302000A4001330A300AD30890B36
:10461000072BA30B072BA40B072B003222000C1334
:1046200006302000A4001330A300AD30890B162BF8
:10463000A30B162BA40B162B003208002000AC0194
:10464000AD01312B29082C0784002A082D3D850057
:104650000008A2310E22A33101302000AC07003047
:10466000AD3D29082C0784002A082D3D8500120045
:10467000031D3B2B3C2B222B08002000A600260804
:10468000A500A50DA50D21001D08200025068339D4
:10469000250621009D001D140D30890B4D2B0000B7
:1046A00021009D149D18552B562B522B1C082000C1
:1046B000A40021001B082000A300080020302100D6
:1046C000AD00A830AE00A1319921A3312100B10184
:1046D000B201A4310A24A33101302100B107003016
:1046E000B23D3208803AB00080303002031D7A2B90
:1046F00002303102031C7D2B7E2B692B0800083011
:1047000021006C020318852B862B9F2B6D08C53E5C
:10471000860001308700010823009A000130F00074
:1047200070082100ED0708306D02031C982B992BAF
:104730009A2BED010130F0007008EC07A02B11124C
:1047400008002000A400A30124080319A82BA92B0A
:10475000B32B0F1CAC2BAD2BB32B8F18B02BB12B65
:10476000B32BA301A30A2408031DB72BB82BC22B1C
:104770000F18BB2BBC2BC22B8F1CBF2BC02BC22BEB
:10478000A301A30A230808002000A400A301240811
:104790000319CB2BCC2BD62B8F1DCF2BD02BD62B6D
:1047A0000F1AD32BD42BD62BA301A30A2408031D45
:1047B000DA2BDB2BE52B8F19DE2BDF2BE52B0F1EE6
:1047C000E22BE32BE52BA301A30A2308080020001A
:1047D000A400A30124080319EE2BEF2BF92B8F1E45
:1047E000F22BF32BF92B0F1BF62BF72BF92BA30135
:1047F000A30A2408031DFD2BFE2B082C8F1A012C65
:10480000022C082C0F1F052C062C082CA301A30A30
:10481000230808002000A801A901A431D224A43152
:104820000B302000A7002630A6005D30890B162C27
:10483000A60B162CA70B162C003201302000A8075F
:104840000030A93D2908803AA60080302602031DC9
:104850002B2C02302802031C2E2C2F2C0D2C080090
:1048600020002A08B0002908AF002808B200270855
:10487000B1003208AC003108AB00B10A0319B20A2A
:104880002B0886002C0887003008AE002F08AD00EA
:10489000AF0A0319B00A2D0884002E08850000080D
:1048A000C03F8908031D552C562C392C08002D3487
:1048B0003E34203445345234523445345534523425
:1048C0003A342034003400340034003400340034EE
:1048D0000034003400342D343E3420344534523416
:1048E00052344534553452343A3420340034003490
:1048F000003400340034003400340034003420002C
:10490000B500B301B401972C3208AF00B0012F08F5
:10491000A6003008A7002E08B1003108A800983181
:104920002D20A43101302000B3070030B43D3308FE
:104930003507AF002F088600023087000108B0005D
:104940003008B2003208031DA62CA72C842C0800C6
:10495000F400700871040319AE2CAF2CC22C74350E
:10496000A03E8600013087007008C03F7108C13F3B
:104970007208F3007408AC3E8600013087007308AB
:104980008100D12C7435A03E860001308700D630DE
:10499000C03F3730C13F7408AC3E8600013087000D
:1049A000810108002000A401A50122000D16063097
:1049B0002000A3003030890BDB2CA30BDB2C000084
:1049C00022000D1206302000A3003030890BE62CA7
:1049D000A30BE62C000001302000A4070030A53D09
:1049E0002508803AA30080302302031DF92C3230C1
:1049F0002402031CFC2CFD2CD52C080023003C10A9
:104A00000230FA007A08BB000D2DAF317A27A431AD
:104A10002A2DAF317F27A4312A2D2E08FA007A08DB
:104A2000F9000430A03E860001308700413F8A0033
:104A3000403F0A00A531FB00FC017C08003A031945
:104A4000222D092D7B08023A0319052D013A03197D
:104A5000052D092D08008731FD27A53123003C1CB9
:104A6000322D332D412DAF31BB27A531003A03192B
:104A70003A2D3B2D412D0F302000A00020082300AF
:104A8000BA0023003A082000A000A101A035A10D22
:104A9000003020078400A830213D8500013F8A00B6
:104AA000003F0A00A5312000A20022082300BA001E
:104AB00008002300BC15692DAF317A27A531872D59
:104AC00088310020A5310330872DAF317F27A531F4
:104AD000872D2C08FA007A08F90021088A0020089E
:104AE0000A00A531FB00FC017C08003A0319792D6E
:104AF000652D7B08013A0319652D033A03195C2DD6
:104B0000013A03195C2D073A0319602D652D080041
:104B10002000AC00A32D2908BF3EA131F621A5310C
:104B2000B62D2908933EA131F621A531B62D2908CD
:104B3000D33EA131F621A531B62D29087F3EA13102
:104B4000F621A531B62D2C08AA00AB012B08003A9E
:104B50000319AB2D9D2D2A08023A03198B2D013A1A
:104B60000319912D073A0319972D9D2D0800200058
:104B70006A080319BC2DBD2DB72D6B085B3E86005E
:104B8000013087000108A30023082100EB0020006A
:104B90006B08BD3E8600013087000108A300230892
:104BA000A4000130A3002308EB0708306B02031CAC
:104BB000DA2DDB2DDC2DEB012100911201302000DC
:104BC000EA02210091162000240808002100AA0012
:104BD000200065082100AC00200064082100AB0023
:104BE000DF01E001092EAB302000E7006708DD009F
:104BF0006608E8006808DE0021002A089D318C253F
:104C0000A53120005D082100DF0720005E0821009B
:104C1000E03D2B0884002C0885001200031D112E96
:104C2000122EF32D60082000E50021005F0820000F
:104C3000E40008002100B400AF302000E90069085A
:104C40002100B30034082000E90069082100B50004
:104C5000B601B701B801B9012E082000E500210016
:104C60002D082000E400B330E9006908E600B53003
:104C7000A531E625A631200065082100B2002000FC
:104C800064082100B100360834072000E9006908F3
:104C9000860001308700810121003208AE00310812
:104CA000AD00080020006C085B3E860001308700E4
:104CB000810123001D1D5D2E5E2E6B2E20006C08D1
:104CC0005B3E860001308700811422006A088A005A
:104CD00069080A00A63123009D1C6F2E702E7D2EC0
:104CE00020006C085B3E8600013087000115220021
:104CF00068088A0067080A00A63120006C085B3E3D
:104D000086000130870001080319872E882E8F2E18
:104D1000220066088A0065080A00A631922EA23198
:104D20007322A6310800A0310020A631FA0023002A
:104D30003708860087017A0881000130FA007A0876
:104D4000B7070130B8020030B93B380839040319FD
:104D5000AA2EAB2EB02EB731EA27A6310530D82EB9
:104D6000BC15BA2EAF318E27A631D82EAF31892788
:104D7000A631D82E2C08FA007A08F90021088A00FA
:104D800020080A00A631FB00FC017C08003A031948
:104D9000CA2EB62E7B08013A0319B62E033A031920
:104DA000B22E013A0319B22E073A0319B62EB62EC7
:104DB00008002000A400240016141618E02EE12E8E
:104DC000DD2E323091001418E62EE72EE32E141952
:104DD000EA2EEB2EE72E2000240824009100141860
:104DE000F22EF32EEF2E1419F62EF72EF32E961424
:104DF0009618FB2EFC2EF82E333091001418012F3C
:104E0000022FFE2E1419052F062F022F9615141CA3
:104E10000A2F0B2F072F11082000A3002308A5003D
:104E2000240096161616161A162F172F132F16155E
:104E300016191B2F1C2F182F2000250808002100F1
:104E4000911252302000A3002630A400A0311E2071
:104E5000A731210011127F302000A3002330A400CD
:104E6000A0312720A731083023009F0090309D00FB
:104E700024309E0040309B0003309C00D430200042
:104E8000A3003730A400A0310C20A731E23020006D
:104E9000A3003730A400A0311520A731DE30200058
:104EA000A3003730A400A0310320A7312100EB017B
:104EB000FD01ED0108302000A50025082100EC00CF
:104EC0002000EC01EB01EA0121009116080020000E
:104ED000A801A9012000AA01AB01A431D224A73165
:104EE0000B302000A7002630A6005D30890B762FFE
:104EF000A60B762FA70B762F003201302000AA07D1
:104F00000030AB3D2B08803AA60080302602031DFE
:104F10008B2F04302A02031C8E2F8F2F6D2F0B3006
:104F20002000A7002630A6005D30890B952FA60B28
:104F3000952FA70B952F003201302000A8070030D5
:104F4000A93D2908803AA60080302602031DAA2F19
:104F500004302802031CAD2FAE2F6A2F0800A031A9
:104F60003020A7310630A131F621A73102302000D0
:104F7000B7000430B600BA30890BBC2FB60BBC2F7B
:104F8000B70BBC2F00002000A901A90A0130A531F0
:104F90008825A73120002F08AA002E08A900A331D8
:104FA0001E23A7312000A901A90A0230A5318825B6
:104FB000A73120003108AA003008A900A3311E2320
:104FC000A7312000A901A90A0330A5318825A731FE
:104FD00020003308AA003208A900A3311E23A731FC
:104FE0002000A901A90A0430A5318825A731200095
:104FF0003508AA003408A900A3311E23A7310800F0
:10500000FB343734F7342F34E7342F347F341834FB
:1050100093342634D9342F345934253470342F3412
:1050200075342F347A342F347F342F3484342F3432
:1050300089342F348E342F3493342F34FE34243477
:105040002D343E34203454344534533454342034D5
:1050500043344F344E3446344F3452344D34453457
:1050600020342D34203441345434543445344E34B7
:105070005434453420344134433451345534493464
:105080005434543445344D3445344E3454340D3452
:105090000A3400342D343E342034503452344F34EA
:1050A0004734523441344D344D344134543449340E
:1050B0004F344E3420344D344F34443455344C3412
:1050C00045342034313420345434453452344D3452
:1050D00049344E34453445340D340A3400342D34CB
:1050E0003E342034503452344F34473452344134F7
:1050F0004D344D344134543449344F344E342034DB
:105100004D344F34443455344C34453420343234E7
:1051100020345434453452344D3449344E344534BB
:1051200045340D340A3400344134743474346534F5
:105130006E34743465342034763461346C346934BC
:1051400064346134743469346F346E3420346C34B4
:1051500065346434203472346F34753467346534A4
:105160000D340A3400342D343E342034503452345B
:105170004F344734523441344D344D344134543437
:1051800049344F344E34203445344E342034433483
:105190004F345534523453340D340A3400342D34E2
:1051A0003E3420344534523452344534553452342C
:1051B0002034503452344F344734523441344D3417
:1051C0004D344134543449344F344E340D340A3460
:1051D00000342D343E342034543445345334543464
:1051E00020344D3441344E34553445344C3420341D
:1051F00045344E34203443344F34553452345334D0
:105200000D340A34003441345434543445344E346B
:10521000543445342034563441344C3449344434C5
:105220004134543449344F344E3420344C344534B2
:10523000443453340D340A3400342D343E34203495
:1052400053344C344134563445342034523445348C
:10525000533450344F344E345334453420344E3468
:1052600055344C344C340D340A3400342D343E342F
:1052700020344534463446344134433445344D3487
:1052800045344E345434203445344E342034433481
:105290004F345534523453340D340A3400342D34E1
:1052A0003E34203453344C34413456344534203465
:1052B00045344E3444342034503452344F3447341F
:1052C00020344B34383420344F34463446340034A0
:1052D0002D343E342034453446344634413443344E
:1052E00045344D3445344E345434203454344534EC
:1052F00052344D3449344E3445340D340A3400347C
:105300002D343E34203453344C34413456344534F7
:105310005F345434453453345434203447344534A2
:10532000543420344134433451340D340A3400347D
:105330002D343E34203453344C34413456344534C7
:105340005F34543445345334543420344734453472
:10535000543420344F344B340D340A3400342D345B
:105360003E34203453344C344134563445345F3465
:10537000543445345334543420344734453454344D
:1053800020344B344F340D340A3400342D343E3441
:10539000203453344C34413456344534203454345E
:1053A000453453345434203443344F344E3446342B
:1053B0004F3452344D34453400342D343E3420348F
:1053C00053344C3441345634453420345434453409
:1053D00053345434203441344334513455344934F3
:1053E00054345434453400342D343E342034533452
:1053F0004C344134563445345F34503452344F3495
:1054000047342034533454344134523454340D34FA
:105410000A3400342D343E342034463449344E347A
:105420002034543445345334543420344D344134CE
:105430004E34553445344C340D340A3400342D3454
:105440003E34203453344C344134563445342034C3
:1054500045344E34203441345434543445344E347D
:10546000543445343A3400342D343E3420345334EB
:105470004C344134563445345F3454344534533419
:105480005434203447344534543420344F344B346E
:105490000034453452345234453455345234203477
:1054A000503452344F344734523441344D344D34F7
:1054B0004134543449344F344E340034503452342F
:1054C0004534533453344534523420344F344B3400
:1054D00020344F345534203445345234523445341A
:1054E00055345234003441345434543445344E34F9
:1054F00054344534203441344334513455344934E0
:105500005434543445344D3445344E3454340034DA
:105510002D343E3420344134703470347534793451
:1055200065347234203473347534723420344F341B
:105530004B340D340A3400342D343E34203453348B
:105540004C344134563445342034503452344F3482
:10555000473420344B34383420344F344E34003404
:105560005434453453345434203452343134203498
:105570004F344634463420342D34203452343234BF
:1055800020344F344E34003454344534533454347E
:1055900020345234323420344F34463446342034AC
:1055A0002D3420345234333420344F344E340034CC
:1055B0002D343E3420345434453453345434203460
:1055C00041344334513455344934543454344534DB
:1055D0000D340A3400342D343E34203453344C34EA
:1055E0004134563445345F345434453453345434A0
:1055F00020344F344E340D340A340034543445349E
:1056000053345434203443344134523454344534C4
:105610002034443439343234353445344434343429
:1056200000342D343E34203453344C344134563419
:10563000453454344534533454343A3431343034AA
:105640003A34313400342D343E34203453344C3425
:1056500041345634453454344534533454343A3454
:10566000313431343A34313400342D343E34203442
:1056700053344C3441345634453454344534533423
:1056800054343A34313432343A34313400342D34F1
:105690003E34203453344C3441345634453454343D
:1056A0004534533454343A34313433343A34313465
:1056B00000342D343E34203453344C344134563489
:1056C000453454344534533454343A343134343416
:1056D0003A34313400342D343E34203453344C3495
:1056E00041345634453454344534533454343A34C4
:1056F000313435343A34313400342D343E342034AE
:1057000053344C3441345634453454344534533492
:1057100054343A34313436343A34313400342D345C
:105720003E34203453344C344134563445345434AC
:105730004534533454343A34313437343A343134D0
:1057400000342D343E34203453344C3441345634F8
:10575000453454344534533454343A343134383481
:105760003A343134003456344534523449344634B2
:1057700049344534523420345034313420344534A3
:105780005434203450343234003452344534533499
:1057900055344C34543441345434203443344F342D
:1057A0004E344634493452344D3445340034543444
:1057B00045345334543420344E344F344E34203432
:1057C00043344F344E3446344F3452344D344534E0
:1057D0000034463449344E342034503452344F343B
:1057E0004734523441344D344D34413454344934C7
:1057F0004F344E34003450344F34533449345434DD
:1058000049344F344E344E344534523420344334CA
:1058100041345234543445340034543445345334D0
:105820005434203433342034523445344C344134ED
:105830004934533420344F344634463400342D3404
:105840003E34203453344C3441345634453454348B
:105850004534533454343A3431343A3431340034E6
:105860002D343E34203453344C3441345634453492
:1058700054344534533454343A3432343A34313471
:1058800000342D343E34203453344C3441345634B7
:10589000453454344534533454343A3433343A343C
:1058A000313400342D343E34203453344C344134BC
:1058B0005634453454344534533454343A343434FF
:1058C0003A34313400342D343E34203453344C34A3
:1058D00041345634453454344534533454343A34D2
:1058E00035343A34313400342D343E34203453349A
:1058F0004C344134563445345434453453345434A0
:105900003A3436343A34313400342D343E34203491
:1059100053344C3441345634453454344534533480
:1059200054343A3437343A34313400342D343E343C
:10593000203453344C344134563445345434453493
:10594000533454343A3438343A34313400342D3406
:105950003E34203453344C3441345634453454347A
:105960004534533454343A3439343A3431340034CD
:105970002D343E34203453344C3441345634453481
:1059800020344534523452344534553452343A3448
:1059900000342D343E34203453344C3441345634A6
:1059A00045342034543445345334543420344F3443
:1059B0004B3400342D343E34203453344C34413491
:1059C000563445342034543445345334543420341C
:1059D0004B344F34003443344C344134563449341E
:1059E000453452342034453443344C344134493402
:1059F000523445343F3400345034523445345334F7
:105A000053344534523420344F344B3420342F3403
:105A100020344E344F344B340034543445345334F2
:105A20005434203433342034523445344C344134EB
:105A30004934533420344F344E34003454344534D4
:105A40005334543420344C344534443420344334B7
:105A50004C344134563449344534523400344334A0
:105A60004C3441345634493445345234203445346E
:105A70005434453449344E3454343F34003454346F
:105A800045345334543420344C3445344434533442
:105A90002034433441345234543445340034453492
:105AA000523452344534553452342034563441340F
:105AB0004C34493444344534453400344634493454
:105AC0004E3420344534463446344134433445342E
:105AD0004D3445344E345434003454344534533406
